{
  "_format": "hh-sol-artifact-1",
  "contractName": "MyEpicGame",
  "sourceName": "contracts/MyEpicGame.sol",
  "abi": [
    {
      "inputs": [
        {
          "internalType": "string[]",
          "name": "characterNames",
          "type": "string[]"
        },
        {
          "internalType": "string[]",
          "name": "characterImageURIs",
          "type": "string[]"
        },
        {
          "internalType": "uint256[]",
          "name": "characterHp",
          "type": "uint256[]"
        },
        {
          "internalType": "uint256[]",
          "name": "characterAttackDmg",
          "type": "uint256[]"
        },
        {
          "internalType": "string",
          "name": "bossName",
          "type": "string"
        },
        {
          "internalType": "string",
          "name": "bossImageURI",
          "type": "string"
        },
        {
          "internalType": "uint256",
          "name": "bossHp",
          "type": "uint256"
        },
        {
          "internalType": "uint256",
          "name": "bossAttackDamage",
          "type": "uint256"
        }
      ],
      "stateMutability": "nonpayable",
      "type": "constructor"
    },
    {
      "anonymous": false,
      "inputs": [
        {
          "indexed": true,
          "internalType": "address",
          "name": "owner",
          "type": "address"
        },
        {
          "indexed": true,
          "internalType": "address",
          "name": "approved",
          "type": "address"
        },
        {
          "indexed": true,
          "internalType": "uint256",
          "name": "tokenId",
          "type": "uint256"
        }
      ],
      "name": "Approval",
      "type": "event"
    },
    {
      "anonymous": false,
      "inputs": [
        {
          "indexed": true,
          "internalType": "address",
          "name": "owner",
          "type": "address"
        },
        {
          "indexed": true,
          "internalType": "address",
          "name": "operator",
          "type": "address"
        },
        {
          "indexed": false,
          "internalType": "bool",
          "name": "approved",
          "type": "bool"
        }
      ],
      "name": "ApprovalForAll",
      "type": "event"
    },
    {
      "anonymous": false,
      "inputs": [
        {
          "indexed": false,
          "internalType": "uint256",
          "name": "newBossHp",
          "type": "uint256"
        },
        {
          "indexed": false,
          "internalType": "uint256",
          "name": "newPlayerHp",
          "type": "uint256"
        }
      ],
      "name": "AttackComplete",
      "type": "event"
    },
    {
      "anonymous": false,
      "inputs": [
        {
          "indexed": false,
          "internalType": "address",
          "name": "sender",
          "type": "address"
        },
        {
          "indexed": false,
          "internalType": "uint256",
          "name": "tokenId",
          "type": "uint256"
        },
        {
          "indexed": false,
          "internalType": "uint256",
          "name": "characterIndex",
          "type": "uint256"
        }
      ],
      "name": "CharacterNFTMinted",
      "type": "event"
    },
    {
      "anonymous": false,
      "inputs": [
        {
          "indexed": true,
          "internalType": "address",
          "name": "from",
          "type": "address"
        },
        {
          "indexed": true,
          "internalType": "address",
          "name": "to",
          "type": "address"
        },
        {
          "indexed": true,
          "internalType": "uint256",
          "name": "tokenId",
          "type": "uint256"
        }
      ],
      "name": "Transfer",
      "type": "event"
    },
    {
      "inputs": [
        {
          "internalType": "address",
          "name": "to",
          "type": "address"
        },
        {
          "internalType": "uint256",
          "name": "tokenId",
          "type": "uint256"
        }
      ],
      "name": "approve",
      "outputs": [],
      "stateMutability": "nonpayable",
      "type": "function"
    },
    {
      "inputs": [],
      "name": "attackBoss",
      "outputs": [],
      "stateMutability": "nonpayable",
      "type": "function"
    },
    {
      "inputs": [
        {
          "internalType": "address",
          "name": "owner",
          "type": "address"
        }
      ],
      "name": "balanceOf",
      "outputs": [
        {
          "internalType": "uint256",
          "name": "",
          "type": "uint256"
        }
      ],
      "stateMutability": "view",
      "type": "function"
    },
    {
      "inputs": [],
      "name": "bigBoss",
      "outputs": [
        {
          "internalType": "string",
          "name": "name",
          "type": "string"
        },
        {
          "internalType": "string",
          "name": "imageURI",
          "type": "string"
        },
        {
          "internalType": "uint256",
          "name": "hp",
          "type": "uint256"
        },
        {
          "internalType": "uint256",
          "name": "maxHp",
          "type": "uint256"
        },
        {
          "internalType": "uint256",
          "name": "attackDamage",
          "type": "uint256"
        }
      ],
      "stateMutability": "view",
      "type": "function"
    },
    {
      "inputs": [],
      "name": "checkIfUserHasNFT",
      "outputs": [
        {
          "components": [
            {
              "internalType": "uint256",
              "name": "characterIndex",
              "type": "uint256"
            },
            {
              "internalType": "string",
              "name": "name",
              "type": "string"
            },
            {
              "internalType": "string",
              "name": "imageURI",
              "type": "string"
            },
            {
              "internalType": "uint256",
              "name": "hp",
              "type": "uint256"
            },
            {
              "internalType": "uint256",
              "name": "maxHp",
              "type": "uint256"
            },
            {
              "internalType": "uint256",
              "name": "attackDamage",
              "type": "uint256"
            }
          ],
          "internalType": "struct MyEpicGame.CharacterAttributes",
          "name": "",
          "type": "tuple"
        }
      ],
      "stateMutability": "view",
      "type": "function"
    },
    {
      "inputs": [],
      "name": "getAllDefaultCharacters",
      "outputs": [
        {
          "components": [
            {
              "internalType": "uint256",
              "name": "characterIndex",
              "type": "uint256"
            },
            {
              "internalType": "string",
              "name": "name",
              "type": "string"
            },
            {
              "internalType": "string",
              "name": "imageURI",
              "type": "string"
            },
            {
              "internalType": "uint256",
              "name": "hp",
              "type": "uint256"
            },
            {
              "internalType": "uint256",
              "name": "maxHp",
              "type": "uint256"
            },
            {
              "internalType": "uint256",
              "name": "attackDamage",
              "type": "uint256"
            }
          ],
          "internalType": "struct MyEpicGame.CharacterAttributes[]",
          "name": "",
          "type": "tuple[]"
        }
      ],
      "stateMutability": "view",
      "type": "function"
    },
    {
      "inputs": [],
      "name": "getAllPlayers",
      "outputs": [
        {
          "components": [
            {
              "internalType": "uint256",
              "name": "id",
              "type": "uint256"
            }
          ],
          "internalType": "struct MyEpicGame.AllPlayers[]",
          "name": "",
          "type": "tuple[]"
        }
      ],
      "stateMutability": "view",
      "type": "function"
    },
    {
      "inputs": [
        {
          "internalType": "uint256",
          "name": "tokenId",
          "type": "uint256"
        }
      ],
      "name": "getApproved",
      "outputs": [
        {
          "internalType": "address",
          "name": "",
          "type": "address"
        }
      ],
      "stateMutability": "view",
      "type": "function"
    },
    {
      "inputs": [],
      "name": "getBigBoss",
      "outputs": [
        {
          "components": [
            {
              "internalType": "string",
              "name": "name",
              "type": "string"
            },
            {
              "internalType": "string",
              "name": "imageURI",
              "type": "string"
            },
            {
              "internalType": "uint256",
              "name": "hp",
              "type": "uint256"
            },
            {
              "internalType": "uint256",
              "name": "maxHp",
              "type": "uint256"
            },
            {
              "internalType": "uint256",
              "name": "attackDamage",
              "type": "uint256"
            }
          ],
          "internalType": "struct MyEpicGame.BigBoss",
          "name": "",
          "type": "tuple"
        }
      ],
      "stateMutability": "view",
      "type": "function"
    },
    {
      "inputs": [
        {
          "internalType": "address",
          "name": "owner",
          "type": "address"
        },
        {
          "internalType": "address",
          "name": "operator",
          "type": "address"
        }
      ],
      "name": "isApprovedForAll",
      "outputs": [
        {
          "internalType": "bool",
          "name": "",
          "type": "bool"
        }
      ],
      "stateMutability": "view",
      "type": "function"
    },
    {
      "inputs": [
        {
          "internalType": "uint256",
          "name": "_characterIndex",
          "type": "uint256"
        }
      ],
      "name": "mintCharacterNFT",
      "outputs": [],
      "stateMutability": "nonpayable",
      "type": "function"
    },
    {
      "inputs": [],
      "name": "name",
      "outputs": [
        {
          "internalType": "string",
          "name": "",
          "type": "string"
        }
      ],
      "stateMutability": "view",
      "type": "function"
    },
    {
      "inputs": [
        {
          "internalType": "uint256",
          "name": "",
          "type": "uint256"
        }
      ],
      "name": "nftHolderAttributes",
      "outputs": [
        {
          "internalType": "uint256",
          "name": "characterIndex",
          "type": "uint256"
        },
        {
          "internalType": "string",
          "name": "name",
          "type": "string"
        },
        {
          "internalType": "string",
          "name": "imageURI",
          "type": "string"
        },
        {
          "internalType": "uint256",
          "name": "hp",
          "type": "uint256"
        },
        {
          "internalType": "uint256",
          "name": "maxHp",
          "type": "uint256"
        },
        {
          "internalType": "uint256",
          "name": "attackDamage",
          "type": "uint256"
        }
      ],
      "stateMutability": "view",
      "type": "function"
    },
    {
      "inputs": [
        {
          "internalType": "address",
          "name": "",
          "type": "address"
        }
      ],
      "name": "nftHolders",
      "outputs": [
        {
          "internalType": "uint256",
          "name": "",
          "type": "uint256"
        }
      ],
      "stateMutability": "view",
      "type": "function"
    },
    {
      "inputs": [
        {
          "internalType": "uint256",
          "name": "tokenId",
          "type": "uint256"
        }
      ],
      "name": "ownerOf",
      "outputs": [
        {
          "internalType": "address",
          "name": "",
          "type": "address"
        }
      ],
      "stateMutability": "view",
      "type": "function"
    },
    {
      "inputs": [
        {
          "internalType": "address",
          "name": "from",
          "type": "address"
        },
        {
          "internalType": "address",
          "name": "to",
          "type": "address"
        },
        {
          "internalType": "uint256",
          "name": "tokenId",
          "type": "uint256"
        }
      ],
      "name": "safeTransferFrom",
      "outputs": [],
      "stateMutability": "nonpayable",
      "type": "function"
    },
    {
      "inputs": [
        {
          "internalType": "address",
          "name": "from",
          "type": "address"
        },
        {
          "internalType": "address",
          "name": "to",
          "type": "address"
        },
        {
          "internalType": "uint256",
          "name": "tokenId",
          "type": "uint256"
        },
        {
          "internalType": "bytes",
          "name": "_data",
          "type": "bytes"
        }
      ],
      "name": "safeTransferFrom",
      "outputs": [],
      "stateMutability": "nonpayable",
      "type": "function"
    },
    {
      "inputs": [
        {
          "internalType": "address",
          "name": "operator",
          "type": "address"
        },
        {
          "internalType": "bool",
          "name": "approved",
          "type": "bool"
        }
      ],
      "name": "setApprovalForAll",
      "outputs": [],
      "stateMutability": "nonpayable",
      "type": "function"
    },
    {
      "inputs": [
        {
          "internalType": "bytes4",
          "name": "interfaceId",
          "type": "bytes4"
        }
      ],
      "name": "supportsInterface",
      "outputs": [
        {
          "internalType": "bool",
          "name": "",
          "type": "bool"
        }
      ],
      "stateMutability": "view",
      "type": "function"
    },
    {
      "inputs": [],
      "name": "symbol",
      "outputs": [
        {
          "internalType": "string",
          "name": "",
          "type": "string"
        }
      ],
      "stateMutability": "view",
      "type": "function"
    },
    {
      "inputs": [
        {
          "internalType": "uint256",
          "name": "_tokenId",
          "type": "uint256"
        }
      ],
      "name": "tokenURI",
      "outputs": [
        {
          "internalType": "string",
          "name": "",
          "type": "string"
        }
      ],
      "stateMutability": "view",
      "type": "function"
    },
    {
      "inputs": [
        {
          "internalType": "address",
          "name": "from",
          "type": "address"
        },
        {
          "internalType": "address",
          "name": "to",
          "type": "address"
        },
        {
          "internalType": "uint256",
          "name": "tokenId",
          "type": "uint256"
        }
      ],
      "name": "transferFrom",
      "outputs": [],
      "stateMutability": "nonpayable",
      "type": "function"
    }
  ],
  "bytecode": "0x60806040523480156200001157600080fd5b5060405162005c5b38038062005c5b833981810160405281019062000037919062000a5a565b6040518060400160405280600581526020017f44436c75620000000000000000000000000000000000000000000000000000008152506040518060400160405280600481526020017f54455354000000000000000000000000000000000000000000000000000000008152508160009080519060200190620000bb929190620007ed565b508060019080519060200190620000d4929190620007ed565b5050506040518060a0016040528085815260200184815260200183815260200183815260200182815250600a60008201518160000190805190602001906200011e929190620007ed565b5060208201518160010190805190602001906200013d929190620007ed565b50604082015181600201556060820151816003015560808201518160040155905050620002c06040518060600160405280602a815260200162005c31602a9139600a60000180546200018f9062000de5565b80601f0160208091040260200160405190810160405280929190818152602001828054620001bd9062000de5565b80156200020e5780601f10620001e2576101008083540402835291602001916200020e565b820191906000526020600020905b815481529060010190602001808311620001f057829003601f168201915b5050505050600a60020154600a60010180546200022b9062000de5565b80601f0160208091040260200160405190810160405280929190818152602001828054620002599062000de5565b8015620002aa5780601f106200027e57610100808354040283529160200191620002aa565b820191906000526020600020905b8154815290600101906020018083116200028c57829003601f168201915b50505050506200070260201b6200215e1760201c565b60005b8851811015620006dc5760066040518060c001604052808381526020018b84815181106200031a577f4e487b7100000000000000000000000000000000000000000000000000000000600052603260045260246000fd5b602002602001015181526020018a848151811062000361577f4e487b7100000000000000000000000000000000000000000000000000000000600052603260045260246000fd5b60200260200101518152602001898481518110620003a8577f4e487b7100000000000000000000000000000000000000000000000000000000600052603260045260246000fd5b60200260200101518152602001898481518110620003ef577f4e487b7100000000000000000000000000000000000000000000000000000000600052603260045260246000fd5b6020026020010151815260200188848151811062000436577f4e487b7100000000000000000000000000000000000000000000000000000000600052603260045260246000fd5b6020026020010151815250908060018154018082558091505060019003906000526020600020906006020160009091909190915060008201518160000155602082015181600101908051906020019062000492929190620007ed565b506040820151816002019080519060200190620004b1929190620007ed565b50606082015181600301556080820151816004015560a0820151816005015550506000600682815481106200050f577f4e487b7100000000000000000000000000000000000000000000000000000000600052603260045260246000fd5b90600052602060002090600602016040518060c001604052908160008201548152602001600182018054620005449062000de5565b80601f0160208091040260200160405190810160405280929190818152602001828054620005729062000de5565b8015620005c35780601f106200059757610100808354040283529160200191620005c3565b820191906000526020600020905b815481529060010190602001808311620005a557829003601f168201915b50505050508152602001600282018054620005de9062000de5565b80601f01602080910402602001604051908101604052809291908181526020018280546200060c9062000de5565b80156200065d5780601f1062000631576101008083540402835291602001916200065d565b820191906000526020600020905b8154815290600101906020018083116200063f57829003601f168201915b5050505050815260200160038201548152602001600482015481526020016005820154815250509050620006c460405180606001604052806025815260200162005c0c602591398260200151836060015184604001516200070260201b6200215e1760201c565b50600181620006d4919062000d48565b9050620002c3565b50620006f46009620007ae60201b620022001760201c565b505050505050505062000ed3565b620007a8848484846040516024016200071f949392919062000c05565b6040516020818303038152906040527f8d142cdd000000000000000000000000000000000000000000000000000000007bffffffffffffffffffffffffffffffffffffffffffffffffffffffff19166020820180517bffffffffffffffffffffffffffffffffffffffffffffffffffffffff8381831617835250505050620007c460201b60201c565b50505050565b6001816000016000828254019250508190555050565b60008151905060006a636f6e736f6c652e6c6f679050602083016000808483855afa5050505050565b828054620007fb9062000de5565b90600052602060002090601f0160209004810192826200081f57600085556200086b565b82601f106200083a57805160ff19168380011785556200086b565b828001600101855582156200086b579182015b828111156200086a5782518255916020019190600101906200084d565b5b5090506200087a91906200087e565b5090565b5b80821115620008995760008160009055506001016200087f565b5090565b6000620008b4620008ae8462000c9b565b62000c67565b9050808382526020820190508260005b85811015620008f85781518501620008dd888262000a16565b845260208401935060208301925050600181019050620008c4565b5050509392505050565b600062000919620009138462000cca565b62000c67565b905080838252602082019050828560208602820111156200093957600080fd5b60005b858110156200096d578162000952888262000a43565b8452602084019350602083019250506001810190506200093c565b5050509392505050565b60006200098e620009888462000cf9565b62000c67565b905082815260208101848484011115620009a757600080fd5b620009b484828562000daf565b509392505050565b600082601f830112620009ce57600080fd5b8151620009e08482602086016200089d565b91505092915050565b600082601f830112620009fb57600080fd5b815162000a0d84826020860162000902565b91505092915050565b600082601f83011262000a2857600080fd5b815162000a3a84826020860162000977565b91505092915050565b60008151905062000a548162000eb9565b92915050565b600080600080600080600080610100898b03121562000a7857600080fd5b600089015167ffffffffffffffff81111562000a9357600080fd5b62000aa18b828c01620009bc565b985050602089015167ffffffffffffffff81111562000abf57600080fd5b62000acd8b828c01620009bc565b975050604089015167ffffffffffffffff81111562000aeb57600080fd5b62000af98b828c01620009e9565b965050606089015167ffffffffffffffff81111562000b1757600080fd5b62000b258b828c01620009e9565b955050608089015167ffffffffffffffff81111562000b4357600080fd5b62000b518b828c0162000a16565b94505060a089015167ffffffffffffffff81111562000b6f57600080fd5b62000b7d8b828c0162000a16565b93505060c062000b908b828c0162000a43565b92505060e062000ba38b828c0162000a43565b9150509295985092959890939650565b600062000bc08262000d2c565b62000bcc818562000d37565b935062000bde81856020860162000daf565b62000be98162000ea8565b840191505092915050565b62000bff8162000da5565b82525050565b6000608082019050818103600083015262000c21818762000bb3565b9050818103602083015262000c37818662000bb3565b905062000c48604083018562000bf4565b818103606083015262000c5c818462000bb3565b905095945050505050565b6000604051905081810181811067ffffffffffffffff8211171562000c915762000c9062000e79565b5b8060405250919050565b600067ffffffffffffffff82111562000cb95762000cb862000e79565b5b602082029050602081019050919050565b600067ffffffffffffffff82111562000ce85762000ce762000e79565b5b602082029050602081019050919050565b600067ffffffffffffffff82111562000d175762000d1662000e79565b5b601f19601f8301169050602081019050919050565b600081519050919050565b600082825260208201905092915050565b600062000d558262000da5565b915062000d628362000da5565b9250827fffffffffffffffffffffffffffffffffffffffffffffffffffffffffffffffff0382111562000d9a5762000d9962000e1b565b5b828201905092915050565b6000819050919050565b60005b8381101562000dcf57808201518184015260208101905062000db2565b8381111562000ddf576000848401525b50505050565b6000600282049050600182168062000dfe57607f821691505b6020821081141562000e155762000e1462000e4a565b5b50919050565b7f4e487b7100000000000000000000000000000000000000000000000000000000600052601160045260246000fd5b7f4e487b7100000000000000000000000000000000000000000000000000000000600052602260045260246000fd5b7f4e487b7100000000000000000000000000000000000000000000000000000000600052604160045260246000fd5b6000601f19601f8301169050919050565b62000ec48162000da5565b811462000ed057600080fd5b50565b614d298062000ee36000396000f3fe608060405234801561001057600080fd5b50600436106101425760003560e01c806398da4c95116100b8578063c87b56dd1161007c578063c87b56dd14610392578063c8cf27f4146103c2578063d4f24c5b146103e0578063e985e9c5146103ea578063efa1c4821461041a578063f8b81ef71461043857610142565b806398da4c95146102e5578063a22cb4651461031a578063a9c3267914610336578063b88d4fde14610358578063b953084e1461037457610142565b806323b872dd1161010a57806323b872dd146101ff57806342842e0e1461021b5780636352211e1461023757806370a08231146102675780637df124a11461029757806395d89b41146102c757610142565b806301ffc9a7146101475780630665f9611461017757806306fdde0314610195578063081812fc146101b3578063095ea7b3146101e3575b600080fd5b610161600480360381019061015c9190613438565b610454565b60405161016e9190614272565b60405180910390f35b61017f610536565b60405161018c919061460b565b60405180910390f35b61019d610692565b6040516101aa919061428d565b60405180910390f35b6101cd60048036038101906101c8919061348a565b610724565b6040516101da9190614190565b60405180910390f35b6101fd60048036038101906101f891906133fc565b6107a9565b005b610219600480360381019061021491906132f6565b6108c1565b005b610235600480360381019061023091906132f6565b610921565b005b610251600480360381019061024c919061348a565b610941565b60405161025e9190614190565b60405180910390f35b610281600480360381019061027c9190613291565b6109f3565b60405161028e919061464f565b60405180910390f35b6102b160048036038101906102ac9190613291565b610aab565b6040516102be919061464f565b60405180910390f35b6102cf610ac3565b6040516102dc919061428d565b60405180910390f35b6102ff60048036038101906102fa919061348a565b610b55565b6040516103119695949392919061466a565b60405180910390f35b610334600480360381019061032f91906133c0565b610ca1565b005b61033e610e22565b60405161034f95949392919061435c565b60405180910390f35b610372600480360381019061036d9190613345565b610f56565b005b61037c610fb8565b6040516103899190614250565b60405180910390f35b6103ac60048036038101906103a7919061348a565b611163565b6040516103b9919061428d565b60405180910390f35b6103ca61137e565b6040516103d7919061462d565b60405180910390f35b6103e8611556565b005b61040460048036038101906103ff91906132ba565b6118e1565b6040516104119190614272565b60405180910390f35b610422611975565b60405161042f919061422e565b60405180910390f35b610452600480360381019061044d919061348a565b6119da565b005b60007f80ac58cd000000000000000000000000000000000000000000000000000000007bffffffffffffffffffffffffffffffffffffffffffffffffffffffff1916827bffffffffffffffffffffffffffffffffffffffffffffffffffffffff1916148061051f57507f5b5e139f000000000000000000000000000000000000000000000000000000007bffffffffffffffffffffffffffffffffffffffffffffffffffffffff1916827bffffffffffffffffffffffffffffffffffffffffffffffffffffffff1916145b8061052f575061052e82612216565b5b9050919050565b61053e6130b8565b600a6040518060a001604052908160008201805461055b906149f4565b80601f0160208091040260200160405190810160405280929190818152602001828054610587906149f4565b80156105d45780601f106105a9576101008083540402835291602001916105d4565b820191906000526020600020905b8154815290600101906020018083116105b757829003601f168201915b505050505081526020016001820180546105ed906149f4565b80601f0160208091040260200160405190810160405280929190818152602001828054610619906149f4565b80156106665780601f1061063b57610100808354040283529160200191610666565b820191906000526020600020905b81548152906001019060200180831161064957829003601f168201915b505050505081526020016002820154815260200160038201548152602001600482015481525050905090565b6060600080546106a1906149f4565b80601f01602080910402602001604051908101604052809291908181526020018280546106cd906149f4565b801561071a5780601f106106ef5761010080835404028352916020019161071a565b820191906000526020600020905b8154815290600101906020018083116106fd57829003601f168201915b5050505050905090565b600061072f82612280565b61076e576040517f08c379a00000000000000000000000000000000000000000000000000000000081526004016107659061458b565b60405180910390fd5b6004600083815260200190815260200160002060009054906101000a900473ffffffffffffffffffffffffffffffffffffffff169050919050565b60006107b482610941565b90508073ffffffffffffffffffffffffffffffffffffffff168373ffffffffffffffffffffffffffffffffffffffff161415610825576040517f08c379a000000000000000000000000000000000000000000000000000000000815260040161081c906145cb565b60405180910390fd5b8073ffffffffffffffffffffffffffffffffffffffff166108446122ec565b73ffffffffffffffffffffffffffffffffffffffff16148061087357506108728161086d6122ec565b6118e1565b5b6108b2576040517f08c379a00000000000000000000000000000000000000000000000000000000081526004016108a9906144eb565b60405180910390fd5b6108bc83836122f4565b505050565b6108d26108cc6122ec565b826123ad565b610911576040517f08c379a0000000000000000000000000000000000000000000000000000000008152600401610908906145eb565b60405180910390fd5b61091c83838361248b565b505050565b61093c83838360405180602001604052806000815250610f56565b505050565b6000806002600084815260200190815260200160002060009054906101000a900473ffffffffffffffffffffffffffffffffffffffff169050600073ffffffffffffffffffffffffffffffffffffffff168173ffffffffffffffffffffffffffffffffffffffff1614156109ea576040517f08c379a00000000000000000000000000000000000000000000000000000000081526004016109e19061452b565b60405180910390fd5b80915050919050565b60008073ffffffffffffffffffffffffffffffffffffffff168273ffffffffffffffffffffffffffffffffffffffff161415610a64576040517f08c379a0000000000000000000000000000000000000000000000000000000008152600401610a5b9061450b565b60405180910390fd5b600360008373ffffffffffffffffffffffffffffffffffffffff1673ffffffffffffffffffffffffffffffffffffffff168152602001908152602001600020549050919050565b60086020528060005260406000206000915090505481565b606060018054610ad2906149f4565b80601f0160208091040260200160405190810160405280929190818152602001828054610afe906149f4565b8015610b4b5780601f10610b2057610100808354040283529160200191610b4b565b820191906000526020600020905b815481529060010190602001808311610b2e57829003601f168201915b5050505050905090565b6007602052806000526040600020600091509050806000015490806001018054610b7e906149f4565b80601f0160208091040260200160405190810160405280929190818152602001828054610baa906149f4565b8015610bf75780601f10610bcc57610100808354040283529160200191610bf7565b820191906000526020600020905b815481529060010190602001808311610bda57829003601f168201915b505050505090806002018054610c0c906149f4565b80601f0160208091040260200160405190810160405280929190818152602001828054610c38906149f4565b8015610c855780601f10610c5a57610100808354040283529160200191610c85565b820191906000526020600020905b815481529060010190602001808311610c6857829003601f168201915b5050505050908060030154908060040154908060050154905086565b610ca96122ec565b73ffffffffffffffffffffffffffffffffffffffff168273ffffffffffffffffffffffffffffffffffffffff161415610d17576040517f08c379a0000000000000000000000000000000000000000000000000000000008152600401610d0e906144ab565b60405180910390fd5b8060056000610d246122ec565b73ffffffffffffffffffffffffffffffffffffffff1673ffffffffffffffffffffffffffffffffffffffff16815260200190815260200160002060008473ffffffffffffffffffffffffffffffffffffffff1673ffffffffffffffffffffffffffffffffffffffff16815260200190815260200160002060006101000a81548160ff0219169083151502179055508173ffffffffffffffffffffffffffffffffffffffff16610dd16122ec565b73ffffffffffffffffffffffffffffffffffffffff167f17307eab39ab6107e8899845ad3d59bd9653f200f220920489ca2b5937696c3183604051610e169190614272565b60405180910390a35050565b600a806000018054610e33906149f4565b80601f0160208091040260200160405190810160405280929190818152602001828054610e5f906149f4565b8015610eac5780601f10610e8157610100808354040283529160200191610eac565b820191906000526020600020905b815481529060010190602001808311610e8f57829003601f168201915b505050505090806001018054610ec1906149f4565b80601f0160208091040260200160405190810160405280929190818152602001828054610eed906149f4565b8015610f3a5780601f10610f0f57610100808354040283529160200191610f3a565b820191906000526020600020905b815481529060010190602001808311610f1d57829003601f168201915b5050505050908060020154908060030154908060040154905085565b610f67610f616122ec565b836123ad565b610fa6576040517f08c379a0000000000000000000000000000000000000000000000000000000008152600401610f9d906145eb565b60405180910390fd5b610fb2848484846126e7565b50505050565b60606006805480602002602001604051908101604052809291908181526020016000905b8282101561115a57838290600052602060002090600602016040518060c001604052908160008201548152602001600182018054611019906149f4565b80601f0160208091040260200160405190810160405280929190818152602001828054611045906149f4565b80156110925780601f1061106757610100808354040283529160200191611092565b820191906000526020600020905b81548152906001019060200180831161107557829003601f168201915b505050505081526020016002820180546110ab906149f4565b80601f01602080910402602001604051908101604052809291908181526020018280546110d7906149f4565b80156111245780601f106110f957610100808354040283529160200191611124565b820191906000526020600020905b81548152906001019060200180831161110757829003601f168201915b50505050508152602001600382015481526020016004820154815260200160058201548152505081526020019060010190610fdc565b50505050905090565b60606000600760008481526020019081526020016000206040518060c00160405290816000820154815260200160018201805461119f906149f4565b80601f01602080910402602001604051908101604052809291908181526020018280546111cb906149f4565b80156112185780601f106111ed57610100808354040283529160200191611218565b820191906000526020600020905b8154815290600101906020018083116111fb57829003601f168201915b50505050508152602001600282018054611231906149f4565b80601f016020809104026020016040519081016040528092919081815260200182805461125d906149f4565b80156112aa5780601f1061127f576101008083540402835291602001916112aa565b820191906000526020600020905b81548152906001019060200180831161128d57829003601f168201915b505050505081526020016003820154815260200160048201548152602001600582015481525050905060006112e28260600151612743565b905060006112f38360800151612743565b905060006113048460a00151612743565b9050600061134a856020015161131989612743565b8760400151878787604051602001611336969594939291906140c9565b6040516020818303038152906040526128f0565b905060008160405160200161135f919061416e565b6040516020818303038152906040529050809650505050505050919050565b6113866130e7565b6000600860003373ffffffffffffffffffffffffffffffffffffffff1673ffffffffffffffffffffffffffffffffffffffff168152602001908152602001600020549050600081111561154557600760008281526020019081526020016000206040518060c00160405290816000820154815260200160018201805461140b906149f4565b80601f0160208091040260200160405190810160405280929190818152602001828054611437906149f4565b80156114845780601f1061145957610100808354040283529160200191611484565b820191906000526020600020905b81548152906001019060200180831161146757829003601f168201915b5050505050815260200160028201805461149d906149f4565b80601f01602080910402602001604051908101604052809291908181526020018280546114c9906149f4565b80156115165780601f106114eb57610100808354040283529160200191611516565b820191906000526020600020905b8154815290600101906020018083116114f957829003601f168201915b505050505081526020016003820154815260200160048201548152602001600582015481525050915050611553565b61154d6130e7565b80925050505b90565b6000600860003373ffffffffffffffffffffffffffffffffffffffff1673ffffffffffffffffffffffffffffffffffffffff16815260200190815260200160002054905060006007600083815260200190815260200160002090506116696040518060600160405280603c8152602001614cb8603c91398260010180546115dc906149f4565b80601f0160208091040260200160405190810160405280929190818152602001828054611608906149f4565b80156116555780601f1061162a57610100808354040283529160200191611655565b820191906000526020600020905b81548152906001019060200180831161163857829003601f168201915b505050505083600301548460050154612aae565b6117416040518060400160405280601b81526020017f426f73732025732068617320257320485020616e642025732041440000000000815250600a60000180546116b2906149f4565b80601f01602080910402602001604051908101604052809291908181526020018280546116de906149f4565b801561172b5780601f106117005761010080835404028352916020019161172b565b820191906000526020600020905b81548152906001019060200180831161170e57829003601f168201915b5050505050600a60020154600a60040154612aae565b6000816003015411611788576040517f08c379a000000000000000000000000000000000000000000000000000000000815260040161177f9061454b565b60405180910390fd5b6000600a60020154116117d0576040517f08c379a00000000000000000000000000000000000000000000000000000000081526004016117c79061444b565b60405180910390fd5b8060050154600a6002015410156117f1576000600a60020181905550611810565b8060050154600a60020154611806919061490a565b600a600201819055505b600a6004015481600301541015611830576000816003018190555061184e565b600a600401548160030154611845919061490a565b81600301819055505b7f838ab28464562786a6c4ab2311964b82fa60bd9b14aa7e856af1f3f18d41a414600a6002015482600301546040516118889291906146d9565b60405180910390a16118b7604051806060016040528060268152602001614bfc60269139600a60020154612b50565b6118dd604051806060016040528060288152602001614c62602891398260030154612b50565b5050565b6000600560008473ffffffffffffffffffffffffffffffffffffffff1673ffffffffffffffffffffffffffffffffffffffff16815260200190815260200160002060008373ffffffffffffffffffffffffffffffffffffffff1673ffffffffffffffffffffffffffffffffffffffff16815260200190815260200160002060009054906101000a900460ff16905092915050565b6060600f805480602002602001604051908101604052809291908181526020016000905b828210156119d15783829060005260206000200160405180602001604052908160008201548152505081526020019060010190611999565b50505050905090565b60006119e66009612bec565b90506119f23382612bfa565b6040518060c0016040528083815260200160068481548110611a3d577f4e487b7100000000000000000000000000000000000000000000000000000000600052603260045260246000fd5b90600052602060002090600602016001018054611a59906149f4565b80601f0160208091040260200160405190810160405280929190818152602001828054611a85906149f4565b8015611ad25780601f10611aa757610100808354040283529160200191611ad2565b820191906000526020600020905b815481529060010190602001808311611ab557829003601f168201915b5050505050815260200160068481548110611b16577f4e487b7100000000000000000000000000000000000000000000000000000000600052603260045260246000fd5b90600052602060002090600602016002018054611b32906149f4565b80601f0160208091040260200160405190810160405280929190818152602001828054611b5e906149f4565b8015611bab5780601f10611b8057610100808354040283529160200191611bab565b820191906000526020600020905b815481529060010190602001808311611b8e57829003601f168201915b5050505050815260200160068481548110611bef577f4e487b7100000000000000000000000000000000000000000000000000000000600052603260045260246000fd5b906000526020600020906006020160030154815260200160068481548110611c40577f4e487b7100000000000000000000000000000000000000000000000000000000600052603260045260246000fd5b906000526020600020906006020160030154815260200160068481548110611c91577f4e487b7100000000000000000000000000000000000000000000000000000000600052603260045260246000fd5b90600052602060002090600602016005015481525060076000838152602001908152602001600020600082015181600001556020820151816001019080519060200190611cdf92919061311d565b506040820151816002019080519060200190611cfc92919061311d565b50606082015181600301556080820151816004015560a08201518160050155905050611d416040518060600160405280602e8152602001614c8a602e91398284612c18565b6040518060c0016040528083815260200160068481548110611d8c577f4e487b7100000000000000000000000000000000000000000000000000000000600052603260045260246000fd5b90600052602060002090600602016001018054611da8906149f4565b80601f0160208091040260200160405190810160405280929190818152602001828054611dd4906149f4565b8015611e215780601f10611df657610100808354040283529160200191611e21565b820191906000526020600020905b815481529060010190602001808311611e0457829003601f168201915b5050505050815260200160068481548110611e65577f4e487b7100000000000000000000000000000000000000000000000000000000600052603260045260246000fd5b90600052602060002090600602016002018054611e81906149f4565b80601f0160208091040260200160405190810160405280929190818152602001828054611ead906149f4565b8015611efa5780601f10611ecf57610100808354040283529160200191611efa565b820191906000526020600020905b815481529060010190602001808311611edd57829003601f168201915b5050505050815260200160068481548110611f3e577f4e487b7100000000000000000000000000000000000000000000000000000000600052603260045260246000fd5b906000526020600020906006020160030154815260200160068481548110611f8f577f4e487b7100000000000000000000000000000000000000000000000000000000600052603260045260246000fd5b906000526020600020906006020160030154815260200160068481548110611fe0577f4e487b7100000000000000000000000000000000000000000000000000000000600052603260045260246000fd5b9060005260206000209060060201600501548152506007600083815260200190815260200160002060008201518160000155602082015181600101908051906020019061202e92919061311d565b50604082015181600201908051906020019061204b92919061311d565b50606082015181600301556080820151816004015560a08201518160050155905050600f604051806020016040528083815250908060018154018082558091505060019003906000526020600020016000909190919091506000820151816000015550506120d1604051806060016040528060328152602001614bca6032913982612b50565b80600860003373ffffffffffffffffffffffffffffffffffffffff1673ffffffffffffffffffffffffffffffffffffffff1681526020019081526020016000208190555061211f6009612200565b7f4bc303fd457a97b4691b9af582ce71868a3d258638c8d4f8c60988a0f0bfb8cd338284604051612152939291906141f7565b60405180910390a15050565b6121fa8484848460405160240161217894939291906142af565b6040516020818303038152906040527f8d142cdd000000000000000000000000000000000000000000000000000000007bffffffffffffffffffffffffffffffffffffffffffffffffffffffff19166020820180517bffffffffffffffffffffffffffffffffffffffffffffffffffffffff8381831617835250505050612cb7565b50505050565b6001816000016000828254019250508190555050565b60007f01ffc9a7000000000000000000000000000000000000000000000000000000007bffffffffffffffffffffffffffffffffffffffffffffffffffffffff1916827bffffffffffffffffffffffffffffffffffffffffffffffffffffffff1916149050919050565b60008073ffffffffffffffffffffffffffffffffffffffff166002600084815260200190815260200160002060009054906101000a900473ffffffffffffffffffffffffffffffffffffffff1673ffffffffffffffffffffffffffffffffffffffff1614159050919050565b600033905090565b816004600083815260200190815260200160002060006101000a81548173ffffffffffffffffffffffffffffffffffffffff021916908373ffffffffffffffffffffffffffffffffffffffff160217905550808273ffffffffffffffffffffffffffffffffffffffff1661236783610941565b73ffffffffffffffffffffffffffffffffffffffff167f8c5be1e5ebec7d5bd14f71427d1e84f3dd0314c0f7b2291e5b200ac8c7c3b92560405160405180910390a45050565b60006123b882612280565b6123f7576040517f08c379a00000000000000000000000000000000000000000000000000000000081526004016123ee906144cb565b60405180910390fd5b600061240283610941565b90508073ffffffffffffffffffffffffffffffffffffffff168473ffffffffffffffffffffffffffffffffffffffff16148061247157508373ffffffffffffffffffffffffffffffffffffffff1661245984610724565b73ffffffffffffffffffffffffffffffffffffffff16145b80612482575061248181856118e1565b5b91505092915050565b8273ffffffffffffffffffffffffffffffffffffffff166124ab82610941565b73ffffffffffffffffffffffffffffffffffffffff1614612501576040517f08c379a00000000000000000000000000000000000000000000000000000000081526004016124f8906145ab565b60405180910390fd5b600073ffffffffffffffffffffffffffffffffffffffff168273ffffffffffffffffffffffffffffffffffffffff161415612571576040517f08c379a00000000000000000000000000000000000000000000000000000000081526004016125689061448b565b60405180910390fd5b61257c838383612ce0565b6125876000826122f4565b6001600360008573ffffffffffffffffffffffffffffffffffffffff1673ffffffffffffffffffffffffffffffffffffffff16815260200190815260200160002060008282546125d7919061490a565b925050819055506001600360008473ffffffffffffffffffffffffffffffffffffffff1673ffffffffffffffffffffffffffffffffffffffff168152602001908152602001600020600082825461262e9190614829565b92505081905550816002600083815260200190815260200160002060006101000a81548173ffffffffffffffffffffffffffffffffffffffff021916908373ffffffffffffffffffffffffffffffffffffffff160217905550808273ffffffffffffffffffffffffffffffffffffffff168473ffffffffffffffffffffffffffffffffffffffff167fddf252ad1be2c89b69c2b068fc378daa952ba7f163c4a11628f55a4df523b3ef60405160405180910390a4505050565b6126f284848461248b565b6126fe84848484612ce5565b61273d576040517f08c379a00000000000000000000000000000000000000000000000000000000081526004016127349061442b565b60405180910390fd5b50505050565b6060600082141561278b576040518060400160405280600181526020017f300000000000000000000000000000000000000000000000000000000000000081525090506128eb565b600082905060005b600082146127bd5780806127a690614a26565b915050600a826127b6919061487f565b9150612793565b60008167ffffffffffffffff8111156127ff577f4e487b7100000000000000000000000000000000000000000000000000000000600052604160045260246000fd5b6040519080825280601f01601f1916602001820160405280156128315781602001600182028036833780820191505090505b5090505b600085146128e45760018261284a919061490a565b9150600a856128599190614a6f565b60306128659190614829565b60f81b8183815181106128a1577f4e487b7100000000000000000000000000000000000000000000000000000000600052603260045260246000fd5b60200101907effffffffffffffffffffffffffffffffffffffffffffffffffffffffffffff1916908160001a905350600a856128dd919061487f565b9450612835565b8093505050505b919050565b606060008251905060008114156129195760405180602001604052806000815250915050612aa9565b6000600360028361292a9190614829565b612934919061487f565b600461294091906148b0565b905060006020826129519190614829565b67ffffffffffffffff811115612990577f4e487b7100000000000000000000000000000000000000000000000000000000600052604160045260246000fd5b6040519080825280601f01601f1916602001820160405280156129c25781602001600182028036833780820191505090505b5090506000604051806060016040528060408152602001614c22604091399050600181016020830160005b86811015612a665760038101905062ffffff818a015116603f8160121c168401518060081b905060ff603f83600c1c1686015116810190508060081b905060ff603f8360061c1686015116810190508060081b905060ff603f831686015116810190508060e01b905080845260048401935050506129ed565b506003860660018114612a805760028114612a9057612a9b565b613d3d60f01b6002830352612a9b565b603d60f81b60018303525b508484525050819450505050505b919050565b612b4a84848484604051602401612ac89493929190614309565b6040516020818303038152906040527fd5cf17d0000000000000000000000000000000000000000000000000000000007bffffffffffffffffffffffffffffffffffffffffffffffffffffffff19166020820180517bffffffffffffffffffffffffffffffffffffffffffffffffffffffff8381831617835250505050612cb7565b50505050565b612be88282604051602401612b669291906143bd565b6040516020818303038152906040527f9710a9d0000000000000000000000000000000000000000000000000000000007bffffffffffffffffffffffffffffffffffffffffffffffffffffffff19166020820180517bffffffffffffffffffffffffffffffffffffffffffffffffffffffff8381831617835250505050612cb7565b5050565b600081600001549050919050565b612c14828260405180602001604052806000815250612e7c565b5050565b612cb2838383604051602401612c30939291906143ed565b6040516020818303038152906040527f969cdd03000000000000000000000000000000000000000000000000000000007bffffffffffffffffffffffffffffffffffffffffffffffffffffffff19166020820180517bffffffffffffffffffffffffffffffffffffffffffffffffffffffff8381831617835250505050612cb7565b505050565b60008151905060006a636f6e736f6c652e6c6f679050602083016000808483855afa5050505050565b505050565b6000612d068473ffffffffffffffffffffffffffffffffffffffff16612ed7565b15612e6f578373ffffffffffffffffffffffffffffffffffffffff1663150b7a02612d2f6122ec565b8786866040518563ffffffff1660e01b8152600401612d5194939291906141ab565b602060405180830381600087803b158015612d6b57600080fd5b505af1925050508015612d9c57506040513d601f19601f82011682018060405250810190612d999190613461565b60015b612e1f573d8060008114612dcc576040519150601f19603f3d011682016040523d82523d6000602084013e612dd1565b606091505b50600081511415612e17576040517f08c379a0000000000000000000000000000000000000000000000000000000008152600401612e0e9061442b565b60405180910390fd5b805181602001fd5b63150b7a0260e01b7bffffffffffffffffffffffffffffffffffffffffffffffffffffffff1916817bffffffffffffffffffffffffffffffffffffffffffffffffffffffff191614915050612e74565b600190505b949350505050565b612e868383612eea565b612e936000848484612ce5565b612ed2576040517f08c379a0000000000000000000000000000000000000000000000000000000008152600401612ec99061442b565b60405180910390fd5b505050565b600080823b905060008111915050919050565b600073ffffffffffffffffffffffffffffffffffffffff168273ffffffffffffffffffffffffffffffffffffffff161415612f5a576040517f08c379a0000000000000000000000000000000000000000000000000000000008152600401612f519061456b565b60405180910390fd5b612f6381612280565b15612fa3576040517f08c379a0000000000000000000000000000000000000000000000000000000008152600401612f9a9061446b565b60405180910390fd5b612faf60008383612ce0565b6001600360008473ffffffffffffffffffffffffffffffffffffffff1673ffffffffffffffffffffffffffffffffffffffff1681526020019081526020016000206000828254612fff9190614829565b92505081905550816002600083815260200190815260200160002060006101000a81548173ffffffffffffffffffffffffffffffffffffffff021916908373ffffffffffffffffffffffffffffffffffffffff160217905550808273ffffffffffffffffffffffffffffffffffffffff16600073ffffffffffffffffffffffffffffffffffffffff167fddf252ad1be2c89b69c2b068fc378daa952ba7f163c4a11628f55a4df523b3ef60405160405180910390a45050565b6040518060a0016040528060608152602001606081526020016000815260200160008152602001600081525090565b6040518060c001604052806000815260200160608152602001606081526020016000815260200160008152602001600081525090565b828054613129906149f4565b90600052602060002090601f01602090048101928261314b5760008555613192565b82601f1061316457805160ff1916838001178555613192565b82800160010185558215613192579182015b82811115613191578251825591602001919060010190613176565b5b50905061319f91906131a3565b5090565b5b808211156131bc5760008160009055506001016131a4565b5090565b60006131d36131ce84614733565b614702565b9050828152602081018484840111156131eb57600080fd5b6131f68482856149b2565b509392505050565b60008135905061320d81614b6d565b92915050565b60008135905061322281614b84565b92915050565b60008135905061323781614b9b565b92915050565b60008151905061324c81614b9b565b92915050565b600082601f83011261326357600080fd5b81356132738482602086016131c0565b91505092915050565b60008135905061328b81614bb2565b92915050565b6000602082840312156132a357600080fd5b60006132b1848285016131fe565b91505092915050565b600080604083850312156132cd57600080fd5b60006132db858286016131fe565b92505060206132ec858286016131fe565b9150509250929050565b60008060006060848603121561330b57600080fd5b6000613319868287016131fe565b935050602061332a868287016131fe565b925050604061333b8682870161327c565b9150509250925092565b6000806000806080858703121561335b57600080fd5b6000613369878288016131fe565b945050602061337a878288016131fe565b935050604061338b8782880161327c565b925050606085013567ffffffffffffffff8111156133a857600080fd5b6133b487828801613252565b91505092959194509250565b600080604083850312156133d357600080fd5b60006133e1858286016131fe565b92505060206133f285828601613213565b9150509250929050565b6000806040838503121561340f57600080fd5b600061341d858286016131fe565b925050602061342e8582860161327c565b9150509250929050565b60006020828403121561344a57600080fd5b600061345884828501613228565b91505092915050565b60006020828403121561347357600080fd5b60006134818482850161323d565b91505092915050565b60006020828403121561349c57600080fd5b60006134aa8482850161327c565b91505092915050565b60006134bf8383613ef2565b60208301905092915050565b60006134d78383613f8b565b905092915050565b6134e88161493e565b82525050565b60006134f982614783565b61350381856147c9565b935061350e83614763565b8060005b8381101561353f57815161352688826134b3565b9750613531836147af565b925050600181019050613512565b5085935050505092915050565b60006135578261478e565b61356181856147da565b93508360208202850161357385614773565b8060005b858110156135af578484038952815161359085826134cb565b945061359b836147bc565b925060208a01995050600181019050613577565b50829750879550505050505092915050565b6135ca81614950565b82525050565b60006135db82614799565b6135e581856147eb565b93506135f58185602086016149c1565b6135fe81614b5c565b840191505092915050565b6000613614826147a4565b61361e81856147fc565b935061362e8185602086016149c1565b61363781614b5c565b840191505092915050565b600061364d826147a4565b613657818561480d565b93506136678185602086016149c1565b61367081614b5c565b840191505092915050565b6000613686826147a4565b613690818561481e565b93506136a08185602086016149c1565b80840191505092915050565b60006136b9600b8361481e565b91507f202d2d204e465420233a200000000000000000000000000000000000000000006000830152600b82019050919050565b60006136f960328361480d565b91507f4552433732313a207472616e7366657220746f206e6f6e20455243373231526560008301527f63656976657220696d706c656d656e74657200000000000000000000000000006020830152604082019050919050565b600061375f60288361480d565b91507f4572726f723a20626f7373206d757374206861766520485020746f206174746160008301527f636b20626f73732e0000000000000000000000000000000000000000000000006020830152604082019050919050565b60006137c5601c8361480d565b91507f4552433732313a20746f6b656e20616c7265616479206d696e746564000000006000830152602082019050919050565b6000613805600e8361481e565b91507f2c20226d61785f76616c7565223a0000000000000000000000000000000000006000830152600e82019050919050565b600061384560248361480d565b91507f4552433732313a207472616e7366657220746f20746865207a65726f2061646460008301527f72657373000000000000000000000000000000000000000000000000000000006020830152604082019050919050565b60006138ab60198361480d565b91507f4552433732313a20617070726f766520746f2063616c6c6572000000000000006000830152602082019050919050565b60006138eb602c8361480d565b91507f4552433732313a206f70657261746f7220717565727920666f72206e6f6e657860008301527f697374656e7420746f6b656e00000000000000000000000000000000000000006020830152604082019050919050565b600061395160388361480d565b91507f4552433732313a20617070726f76652063616c6c6572206973206e6f74206f7760008301527f6e6572206e6f7220617070726f76656420666f7220616c6c00000000000000006020830152604082019050919050565b60006139b7602a8361480d565b91507f4552433732313a2062616c616e636520717565727920666f7220746865207a6560008301527f726f2061646472657373000000000000000000000000000000000000000000006020830152604082019050919050565b6000613a1d60298361480d565b91507f4552433732313a206f776e657220717565727920666f72206e6f6e657869737460008301527f656e7420746f6b656e00000000000000000000000000000000000000000000006020830152604082019050919050565b6000613a83602d8361480d565b91507f4572726f723a20636861726163746572206d757374206861766520485020746f60008301527f2061747461636b20626f73732e000000000000000000000000000000000000006020830152604082019050919050565b6000613ae960048361481e565b91507f7d205d7d000000000000000000000000000000000000000000000000000000006000830152600482019050919050565b6000613b2960208361480d565b91507f4552433732313a206d696e7420746f20746865207a65726f20616464726573736000830152602082019050919050565b6000613b69602c8361480d565b91507f4552433732313a20617070726f76656420717565727920666f72206e6f6e657860008301527f697374656e7420746f6b656e00000000000000000000000000000000000000006020830152604082019050919050565b6000613bcf60298361480d565b91507f4552433732313a207472616e73666572206f6620746f6b656e2074686174206960008301527f73206e6f74206f776e00000000000000000000000000000000000000000000006020830152604082019050919050565b6000613c3560648361481e565b91507f222c20226465736372697074696f6e223a20225468697320697320616e204e4660008301527f542074686174206c6574732070656f706c6520706c617920696e20746865204460208301527f776967687420436c75622067616d6521222c2022696d616765223a202269706660408301527f733a2f2f000000000000000000000000000000000000000000000000000000006060830152606482019050919050565b6000613ce7600a8361481e565b91507f7b226e616d65223a2022000000000000000000000000000000000000000000006000830152600a82019050919050565b6000613d2760218361480d565b91507f4552433732313a20617070726f76616c20746f2063757272656e74206f776e6560008301527f72000000000000000000000000000000000000000000000000000000000000006020830152604082019050919050565b6000613d8d601d8361481e565b91507f646174613a6170706c69636174696f6e2f6a736f6e3b6261736536342c0000006000830152601d82019050919050565b6000613dcd60318361480d565b91507f4552433732313a207472616e736665722063616c6c6572206973206e6f74206f60008301527f776e6572206e6f7220617070726f7665640000000000000000000000000000006020830152604082019050919050565b6000613e33603d8361481e565b91507f222c202261747472696275746573223a205b207b202274726169745f7479706560008301527f223a20224865616c746820506f696e7473222c202276616c7565223a200000006020830152603d82019050919050565b6000613e99602d8361481e565b91507f7d2c207b202274726169745f74797065223a202241747461636b2044616d616760008301527f65222c202276616c7565223a20000000000000000000000000000000000000006020830152602d82019050919050565b602082016000820151613f0860008501826140ab565b50505050565b600060a0830160008301518482036000860152613f2b8282613609565b91505060208301518482036020860152613f458282613609565b9150506040830151613f5a60408601826140ab565b506060830151613f6d60608601826140ab565b506080830151613f8060808601826140ab565b508091505092915050565b600060c083016000830151613fa360008601826140ab565b5060208301518482036020860152613fbb8282613609565b91505060408301518482036040860152613fd58282613609565b9150506060830151613fea60608601826140ab565b506080830151613ffd60808601826140ab565b5060a083015161401060a08601826140ab565b508091505092915050565b600060c08301600083015161403360008601826140ab565b506020830151848203602086015261404b8282613609565b915050604083015184820360408601526140658282613609565b915050606083015161407a60608601826140ab565b50608083015161408d60808601826140ab565b5060a08301516140a060a08601826140ab565b508091505092915050565b6140b4816149a8565b82525050565b6140c3816149a8565b82525050565b60006140d482613cda565b91506140e0828961367b565b91506140eb826136ac565b91506140f7828861367b565b915061410282613c28565b915061410e828761367b565b915061411982613e26565b9150614125828661367b565b9150614130826137f8565b915061413c828561367b565b915061414782613e8c565b9150614153828461367b565b915061415e82613adc565b9150819050979650505050505050565b600061417982613d80565b9150614185828461367b565b915081905092915050565b60006020820190506141a560008301846134df565b92915050565b60006080820190506141c060008301876134df565b6141cd60208301866134df565b6141da60408301856140ba565b81810360608301526141ec81846135d0565b905095945050505050565b600060608201905061420c60008301866134df565b61421960208301856140ba565b61422660408301846140ba565b949350505050565b6000602082019050818103600083015261424881846134ee565b905092915050565b6000602082019050818103600083015261426a818461354c565b905092915050565b600060208201905061428760008301846135c1565b92915050565b600060208201905081810360008301526142a78184613642565b905092915050565b600060808201905081810360008301526142c98187613642565b905081810360208301526142dd8186613642565b90506142ec60408301856140ba565b81810360608301526142fe8184613642565b905095945050505050565b600060808201905081810360008301526143238187613642565b905081810360208301526143378186613642565b905061434660408301856140ba565b61435360608301846140ba565b95945050505050565b600060a08201905081810360008301526143768188613642565b9050818103602083015261438a8187613642565b905061439960408301866140ba565b6143a660608301856140ba565b6143b360808301846140ba565b9695505050505050565b600060408201905081810360008301526143d78185613642565b90506143e660208301846140ba565b9392505050565b600060608201905081810360008301526144078186613642565b905061441660208301856140ba565b61442360408301846140ba565b949350505050565b60006020820190508181036000830152614444816136ec565b9050919050565b6000602082019050818103600083015261446481613752565b9050919050565b60006020820190508181036000830152614484816137b8565b9050919050565b600060208201905081810360008301526144a481613838565b9050919050565b600060208201905081810360008301526144c48161389e565b9050919050565b600060208201905081810360008301526144e4816138de565b9050919050565b6000602082019050818103600083015261450481613944565b9050919050565b60006020820190508181036000830152614524816139aa565b9050919050565b6000602082019050818103600083015261454481613a10565b9050919050565b6000602082019050818103600083015261456481613a76565b9050919050565b6000602082019050818103600083015261458481613b1c565b9050919050565b600060208201905081810360008301526145a481613b5c565b9050919050565b600060208201905081810360008301526145c481613bc2565b9050919050565b600060208201905081810360008301526145e481613d1a565b9050919050565b6000602082019050818103600083015261460481613dc0565b9050919050565b600060208201905081810360008301526146258184613f0e565b905092915050565b60006020820190508181036000830152614647818461401b565b905092915050565b600060208201905061466460008301846140ba565b92915050565b600060c08201905061467f60008301896140ba565b81810360208301526146918188613642565b905081810360408301526146a58187613642565b90506146b460608301866140ba565b6146c160808301856140ba565b6146ce60a08301846140ba565b979650505050505050565b60006040820190506146ee60008301856140ba565b6146fb60208301846140ba565b9392505050565b6000604051905081810181811067ffffffffffffffff8211171561472957614728614b2d565b5b8060405250919050565b600067ffffffffffffffff82111561474e5761474d614b2d565b5b601f19601f8301169050602081019050919050565b6000819050602082019050919050565b6000819050602082019050919050565b600081519050919050565b600081519050919050565b600081519050919050565b600081519050919050565b6000602082019050919050565b6000602082019050919050565b600082825260208201905092915050565b600082825260208201905092915050565b600082825260208201905092915050565b600082825260208201905092915050565b600082825260208201905092915050565b600081905092915050565b6000614834826149a8565b915061483f836149a8565b9250827fffffffffffffffffffffffffffffffffffffffffffffffffffffffffffffffff0382111561487457614873614aa0565b5b828201905092915050565b600061488a826149a8565b9150614895836149a8565b9250826148a5576148a4614acf565b5b828204905092915050565b60006148bb826149a8565b91506148c6836149a8565b9250817fffffffffffffffffffffffffffffffffffffffffffffffffffffffffffffffff04831182151516156148ff576148fe614aa0565b5b828202905092915050565b6000614915826149a8565b9150614920836149a8565b92508282101561493357614932614aa0565b5b828203905092915050565b600061494982614988565b9050919050565b60008115159050919050565b60007fffffffff0000000000000000000000000000000000000000000000000000000082169050919050565b600073ffffffffffffffffffffffffffffffffffffffff82169050919050565b6000819050919050565b82818337600083830152505050565b60005b838110156149df5780820151818401526020810190506149c4565b838111156149ee576000848401525b50505050565b60006002820490506001821680614a0c57607f821691505b60208210811415614a2057614a1f614afe565b5b50919050565b6000614a31826149a8565b91507fffffffffffffffffffffffffffffffffffffffffffffffffffffffffffffffff821415614a6457614a63614aa0565b5b600182019050919050565b6000614a7a826149a8565b9150614a85836149a8565b925082614a9557614a94614acf565b5b828206905092915050565b7f4e487b7100000000000000000000000000000000000000000000000000000000600052601160045260246000fd5b7f4e487b7100000000000000000000000000000000000000000000000000000000600052601260045260246000fd5b7f4e487b7100000000000000000000000000000000000000000000000000000000600052602260045260246000fd5b7f4e487b7100000000000000000000000000000000000000000000000000000000600052604160045260246000fd5b6000601f19601f8301169050919050565b614b768161493e565b8114614b8157600080fd5b50565b614b8d81614950565b8114614b9857600080fd5b50565b614ba48161495c565b8114614baf57600080fd5b50565b614bbb816149a8565b8114614bc657600080fd5b5056fe507573686564206e657720706c6179657220746f2067616d65557365727320617272617920772f20746f6b656e4964202573506c617965722061747461636b656420626f73732e204e657720626f73732068703a2025730a4142434445464748494a4b4c4d4e4f505152535455565758595a6162636465666768696a6b6c6d6e6f707172737475767778797a303132333435363738392b2f426f73732061747461636b656420706c617965722e204e657720706c617965722068703a2025730a4d696e746564204e465420772f20746f6b656e496420257320616e6420636861726163746572496e6465782025730a506c6179657220772f206368617261637465722025732061626f757420746f2061747461636b2e2048617320257320485020616e64202573204144a2646970667358221220c5c9f47d00680c6a8de48ad2166cc10998fd366d69f427676066a8da1499051564736f6c63430008000033446f6e6520696e697469616c697a696e6720257320772f2048502025732c20696d67202573446f6e6520696e697469616c697a696e6720626f737320257320772f2048502025732c20696d67202573",
  "linkReferences": {},
  "deployedLinkReferences": {}
}