{
  "_format": "hh-sol-artifact-1",
  "contractName": "MyEpicGame",
  "sourceName": "contracts/MyEpicGame.sol",
  "abi": [
    {
      "inputs": [
        {
          "internalType": "string[]",
          "name": "characterNames",
          "type": "string[]"
        },
        {
          "internalType": "string[]",
          "name": "characterImageURIs",
          "type": "string[]"
        },
        {
          "internalType": "uint256[]",
          "name": "characterHp",
          "type": "uint256[]"
        },
        {
          "internalType": "uint256[]",
          "name": "characterAttackDmg",
          "type": "uint256[]"
        },
        {
          "internalType": "uint256[]",
          "name": "characterDmgInflicted",
          "type": "uint256[]"
        },
        {
          "internalType": "string",
          "name": "bossName",
          "type": "string"
        },
        {
          "internalType": "string",
          "name": "bossImageURI",
          "type": "string"
        },
        {
          "internalType": "uint256",
          "name": "bossHp",
          "type": "uint256"
        },
        {
          "internalType": "uint256",
          "name": "bossAttackDamage",
          "type": "uint256"
        }
      ],
      "stateMutability": "nonpayable",
      "type": "constructor"
    },
    {
      "anonymous": false,
      "inputs": [
        {
          "indexed": true,
          "internalType": "address",
          "name": "owner",
          "type": "address"
        },
        {
          "indexed": true,
          "internalType": "address",
          "name": "approved",
          "type": "address"
        },
        {
          "indexed": true,
          "internalType": "uint256",
          "name": "tokenId",
          "type": "uint256"
        }
      ],
      "name": "Approval",
      "type": "event"
    },
    {
      "anonymous": false,
      "inputs": [
        {
          "indexed": true,
          "internalType": "address",
          "name": "owner",
          "type": "address"
        },
        {
          "indexed": true,
          "internalType": "address",
          "name": "operator",
          "type": "address"
        },
        {
          "indexed": false,
          "internalType": "bool",
          "name": "approved",
          "type": "bool"
        }
      ],
      "name": "ApprovalForAll",
      "type": "event"
    },
    {
      "anonymous": false,
      "inputs": [
        {
          "indexed": false,
          "internalType": "uint256",
          "name": "newBossHp",
          "type": "uint256"
        },
        {
          "indexed": false,
          "internalType": "uint256",
          "name": "newPlayerHp",
          "type": "uint256"
        },
        {
          "indexed": false,
          "internalType": "uint256",
          "name": "newPlayerDmgInflicted",
          "type": "uint256"
        }
      ],
      "name": "AttackComplete",
      "type": "event"
    },
    {
      "anonymous": false,
      "inputs": [
        {
          "indexed": false,
          "internalType": "address",
          "name": "sender",
          "type": "address"
        },
        {
          "indexed": false,
          "internalType": "uint256",
          "name": "tokenId",
          "type": "uint256"
        },
        {
          "indexed": false,
          "internalType": "uint256",
          "name": "characterIndex",
          "type": "uint256"
        }
      ],
      "name": "CharacterNFTMinted",
      "type": "event"
    },
    {
      "anonymous": false,
      "inputs": [
        {
          "indexed": false,
          "internalType": "uint256",
          "name": "characterIndex",
          "type": "uint256"
        }
      ],
      "name": "NFTMinted",
      "type": "event"
    },
    {
      "anonymous": false,
      "inputs": [
        {
          "indexed": true,
          "internalType": "address",
          "name": "from",
          "type": "address"
        },
        {
          "indexed": true,
          "internalType": "address",
          "name": "to",
          "type": "address"
        },
        {
          "indexed": true,
          "internalType": "uint256",
          "name": "tokenId",
          "type": "uint256"
        }
      ],
      "name": "Transfer",
      "type": "event"
    },
    {
      "inputs": [
        {
          "internalType": "address",
          "name": "to",
          "type": "address"
        },
        {
          "internalType": "uint256",
          "name": "tokenId",
          "type": "uint256"
        }
      ],
      "name": "approve",
      "outputs": [],
      "stateMutability": "nonpayable",
      "type": "function"
    },
    {
      "inputs": [],
      "name": "attackBoss",
      "outputs": [],
      "stateMutability": "nonpayable",
      "type": "function"
    },
    {
      "inputs": [
        {
          "internalType": "address",
          "name": "owner",
          "type": "address"
        }
      ],
      "name": "balanceOf",
      "outputs": [
        {
          "internalType": "uint256",
          "name": "",
          "type": "uint256"
        }
      ],
      "stateMutability": "view",
      "type": "function"
    },
    {
      "inputs": [],
      "name": "bigBoss",
      "outputs": [
        {
          "internalType": "string",
          "name": "name",
          "type": "string"
        },
        {
          "internalType": "string",
          "name": "imageURI",
          "type": "string"
        },
        {
          "internalType": "uint256",
          "name": "hp",
          "type": "uint256"
        },
        {
          "internalType": "uint256",
          "name": "maxHp",
          "type": "uint256"
        },
        {
          "internalType": "uint256",
          "name": "attackDamage",
          "type": "uint256"
        }
      ],
      "stateMutability": "view",
      "type": "function"
    },
    {
      "inputs": [],
      "name": "checkIfUserHasNFT",
      "outputs": [
        {
          "components": [
            {
              "internalType": "uint256",
              "name": "characterIndex",
              "type": "uint256"
            },
            {
              "internalType": "string",
              "name": "name",
              "type": "string"
            },
            {
              "internalType": "string",
              "name": "imageURI",
              "type": "string"
            },
            {
              "internalType": "uint256",
              "name": "hp",
              "type": "uint256"
            },
            {
              "internalType": "uint256",
              "name": "maxHp",
              "type": "uint256"
            },
            {
              "internalType": "uint256",
              "name": "attackDamage",
              "type": "uint256"
            },
            {
              "internalType": "uint256",
              "name": "damageInflicted",
              "type": "uint256"
            }
          ],
          "internalType": "struct MyEpicGame.CharacterAttributes",
          "name": "",
          "type": "tuple"
        }
      ],
      "stateMutability": "view",
      "type": "function"
    },
    {
      "inputs": [],
      "name": "getAllDefaultCharacters",
      "outputs": [
        {
          "components": [
            {
              "internalType": "uint256",
              "name": "characterIndex",
              "type": "uint256"
            },
            {
              "internalType": "string",
              "name": "name",
              "type": "string"
            },
            {
              "internalType": "string",
              "name": "imageURI",
              "type": "string"
            },
            {
              "internalType": "uint256",
              "name": "hp",
              "type": "uint256"
            },
            {
              "internalType": "uint256",
              "name": "maxHp",
              "type": "uint256"
            },
            {
              "internalType": "uint256",
              "name": "attackDamage",
              "type": "uint256"
            },
            {
              "internalType": "uint256",
              "name": "damageInflicted",
              "type": "uint256"
            }
          ],
          "internalType": "struct MyEpicGame.CharacterAttributes[]",
          "name": "",
          "type": "tuple[]"
        }
      ],
      "stateMutability": "view",
      "type": "function"
    },
    {
      "inputs": [],
      "name": "getAllPlayers",
      "outputs": [
        {
          "components": [
            {
              "internalType": "uint256",
              "name": "id",
              "type": "uint256"
            },
            {
              "internalType": "address",
              "name": "wallet",
              "type": "address"
            }
          ],
          "internalType": "struct MyEpicGame.AllPlayers[]",
          "name": "",
          "type": "tuple[]"
        }
      ],
      "stateMutability": "view",
      "type": "function"
    },
    {
      "inputs": [
        {
          "internalType": "uint256",
          "name": "tokenId",
          "type": "uint256"
        }
      ],
      "name": "getApproved",
      "outputs": [
        {
          "internalType": "address",
          "name": "",
          "type": "address"
        }
      ],
      "stateMutability": "view",
      "type": "function"
    },
    {
      "inputs": [],
      "name": "getBigBoss",
      "outputs": [
        {
          "components": [
            {
              "internalType": "string",
              "name": "name",
              "type": "string"
            },
            {
              "internalType": "string",
              "name": "imageURI",
              "type": "string"
            },
            {
              "internalType": "uint256",
              "name": "hp",
              "type": "uint256"
            },
            {
              "internalType": "uint256",
              "name": "maxHp",
              "type": "uint256"
            },
            {
              "internalType": "uint256",
              "name": "attackDamage",
              "type": "uint256"
            }
          ],
          "internalType": "struct MyEpicGame.BigBoss",
          "name": "",
          "type": "tuple"
        }
      ],
      "stateMutability": "view",
      "type": "function"
    },
    {
      "inputs": [
        {
          "internalType": "uint256",
          "name": "_tokenId",
          "type": "uint256"
        }
      ],
      "name": "getUserNFTCharacterAttributes",
      "outputs": [
        {
          "components": [
            {
              "internalType": "uint256",
              "name": "characterIndex",
              "type": "uint256"
            },
            {
              "internalType": "string",
              "name": "name",
              "type": "string"
            },
            {
              "internalType": "string",
              "name": "imageURI",
              "type": "string"
            },
            {
              "internalType": "uint256",
              "name": "hp",
              "type": "uint256"
            },
            {
              "internalType": "uint256",
              "name": "maxHp",
              "type": "uint256"
            },
            {
              "internalType": "uint256",
              "name": "attackDamage",
              "type": "uint256"
            },
            {
              "internalType": "uint256",
              "name": "damageInflicted",
              "type": "uint256"
            }
          ],
          "internalType": "struct MyEpicGame.CharacterAttributes",
          "name": "",
          "type": "tuple"
        }
      ],
      "stateMutability": "view",
      "type": "function"
    },
    {
      "inputs": [
        {
          "internalType": "address",
          "name": "owner",
          "type": "address"
        },
        {
          "internalType": "address",
          "name": "operator",
          "type": "address"
        }
      ],
      "name": "isApprovedForAll",
      "outputs": [
        {
          "internalType": "bool",
          "name": "",
          "type": "bool"
        }
      ],
      "stateMutability": "view",
      "type": "function"
    },
    {
      "inputs": [
        {
          "internalType": "uint256",
          "name": "_characterIndex",
          "type": "uint256"
        }
      ],
      "name": "mintCharacterNFT",
      "outputs": [],
      "stateMutability": "nonpayable",
      "type": "function"
    },
    {
      "inputs": [],
      "name": "name",
      "outputs": [
        {
          "internalType": "string",
          "name": "",
          "type": "string"
        }
      ],
      "stateMutability": "view",
      "type": "function"
    },
    {
      "inputs": [
        {
          "internalType": "uint256",
          "name": "",
          "type": "uint256"
        }
      ],
      "name": "nftHolderAttributes",
      "outputs": [
        {
          "internalType": "uint256",
          "name": "characterIndex",
          "type": "uint256"
        },
        {
          "internalType": "string",
          "name": "name",
          "type": "string"
        },
        {
          "internalType": "string",
          "name": "imageURI",
          "type": "string"
        },
        {
          "internalType": "uint256",
          "name": "hp",
          "type": "uint256"
        },
        {
          "internalType": "uint256",
          "name": "maxHp",
          "type": "uint256"
        },
        {
          "internalType": "uint256",
          "name": "attackDamage",
          "type": "uint256"
        },
        {
          "internalType": "uint256",
          "name": "damageInflicted",
          "type": "uint256"
        }
      ],
      "stateMutability": "view",
      "type": "function"
    },
    {
      "inputs": [
        {
          "internalType": "address",
          "name": "",
          "type": "address"
        }
      ],
      "name": "nftHolders",
      "outputs": [
        {
          "internalType": "uint256",
          "name": "",
          "type": "uint256"
        }
      ],
      "stateMutability": "view",
      "type": "function"
    },
    {
      "inputs": [
        {
          "internalType": "uint256",
          "name": "tokenId",
          "type": "uint256"
        }
      ],
      "name": "ownerOf",
      "outputs": [
        {
          "internalType": "address",
          "name": "",
          "type": "address"
        }
      ],
      "stateMutability": "view",
      "type": "function"
    },
    {
      "inputs": [
        {
          "internalType": "address",
          "name": "from",
          "type": "address"
        },
        {
          "internalType": "address",
          "name": "to",
          "type": "address"
        },
        {
          "internalType": "uint256",
          "name": "tokenId",
          "type": "uint256"
        }
      ],
      "name": "safeTransferFrom",
      "outputs": [],
      "stateMutability": "nonpayable",
      "type": "function"
    },
    {
      "inputs": [
        {
          "internalType": "address",
          "name": "from",
          "type": "address"
        },
        {
          "internalType": "address",
          "name": "to",
          "type": "address"
        },
        {
          "internalType": "uint256",
          "name": "tokenId",
          "type": "uint256"
        },
        {
          "internalType": "bytes",
          "name": "_data",
          "type": "bytes"
        }
      ],
      "name": "safeTransferFrom",
      "outputs": [],
      "stateMutability": "nonpayable",
      "type": "function"
    },
    {
      "inputs": [
        {
          "internalType": "address",
          "name": "operator",
          "type": "address"
        },
        {
          "internalType": "bool",
          "name": "approved",
          "type": "bool"
        }
      ],
      "name": "setApprovalForAll",
      "outputs": [],
      "stateMutability": "nonpayable",
      "type": "function"
    },
    {
      "inputs": [
        {
          "internalType": "bytes4",
          "name": "interfaceId",
          "type": "bytes4"
        }
      ],
      "name": "supportsInterface",
      "outputs": [
        {
          "internalType": "bool",
          "name": "",
          "type": "bool"
        }
      ],
      "stateMutability": "view",
      "type": "function"
    },
    {
      "inputs": [],
      "name": "symbol",
      "outputs": [
        {
          "internalType": "string",
          "name": "",
          "type": "string"
        }
      ],
      "stateMutability": "view",
      "type": "function"
    },
    {
      "inputs": [
        {
          "internalType": "uint256",
          "name": "_tokenId",
          "type": "uint256"
        }
      ],
      "name": "tokenURI",
      "outputs": [
        {
          "internalType": "string",
          "name": "",
          "type": "string"
        }
      ],
      "stateMutability": "view",
      "type": "function"
    },
    {
      "inputs": [
        {
          "internalType": "address",
          "name": "from",
          "type": "address"
        },
        {
          "internalType": "address",
          "name": "to",
          "type": "address"
        },
        {
          "internalType": "uint256",
          "name": "tokenId",
          "type": "uint256"
        }
      ],
      "name": "transferFrom",
      "outputs": [],
      "stateMutability": "nonpayable",
      "type": "function"
    }
  ],
  "bytecode": "0x60806040523480156200001157600080fd5b5060405162005f6538038062005f65833981810160405281019062000037919062000ab6565b6040518060400160405280600581526020017f44436c75620000000000000000000000000000000000000000000000000000008152506040518060400160405280600481526020017f54455354000000000000000000000000000000000000000000000000000000008152508160009080519060200190620000bb92919062000849565b508060019080519060200190620000d492919062000849565b5050506040518060a0016040528085815260200184815260200183815260200183815260200182815250600a60008201518160000190805190602001906200011e92919062000849565b5060208201518160010190805190602001906200013d92919062000849565b50604082015181600201556060820151816003015560808201518160040155905050620002c06040518060600160405280602a815260200162005f3b602a9139600a60000180546200018f9062000e70565b80601f0160208091040260200160405190810160405280929190818152602001828054620001bd9062000e70565b80156200020e5780601f10620001e2576101008083540402835291602001916200020e565b820191906000526020600020905b815481529060010190602001808311620001f057829003601f168201915b5050505050600a60020154600a60010180546200022b9062000e70565b80601f0160208091040260200160405190810160405280929190818152602001828054620002599062000e70565b8015620002aa5780601f106200027e57610100808354040283529160200191620002aa565b820191906000526020600020905b8154815290600101906020018083116200028c57829003601f168201915b50505050506200075e60201b620022091760201c565b60005b8951811015620007375760066040518060e001604052808381526020018c84815181106200031a577f4e487b7100000000000000000000000000000000000000000000000000000000600052603260045260246000fd5b602002602001015181526020018b848151811062000361577f4e487b7100000000000000000000000000000000000000000000000000000000600052603260045260246000fd5b602002602001015181526020018a8481518110620003a8577f4e487b7100000000000000000000000000000000000000000000000000000000600052603260045260246000fd5b602002602001015181526020018a8481518110620003ef577f4e487b7100000000000000000000000000000000000000000000000000000000600052603260045260246000fd5b6020026020010151815260200189848151811062000436577f4e487b7100000000000000000000000000000000000000000000000000000000600052603260045260246000fd5b602002602001015181526020018884815181106200047d577f4e487b7100000000000000000000000000000000000000000000000000000000600052603260045260246000fd5b60200260200101518152509080600181540180825580915050600190039060005260206000209060070201600090919091909150600082015181600001556020820151816001019080519060200190620004d992919062000849565b506040820151816002019080519060200190620004f892919062000849565b50606082015181600301556080820151816004015560a0820151816005015560c08201518160060155505060006006828154811062000560577f4e487b7100000000000000000000000000000000000000000000000000000000600052603260045260246000fd5b90600052602060002090600702016040518060e001604052908160008201548152602001600182018054620005959062000e70565b80601f0160208091040260200160405190810160405280929190818152602001828054620005c39062000e70565b8015620006145780601f10620005e85761010080835404028352916020019162000614565b820191906000526020600020905b815481529060010190602001808311620005f657829003601f168201915b505050505081526020016002820180546200062f9062000e70565b80601f01602080910402602001604051908101604052809291908181526020018280546200065d9062000e70565b8015620006ae5780601f106200068257610100808354040283529160200191620006ae565b820191906000526020600020905b8154815290600101906020018083116200069057829003601f168201915b5050505050815260200160038201548152602001600482015481526020016005820154815260200160068201548152505090506200071f60405180606001604052806025815260200162005f16602591398260200151836060015184604001516200075e60201b620022091760201c565b506001816200072f919062000dd3565b9050620002c3565b506200074f60096200080a60201b620022ab1760201c565b50505050505050505062000f5e565b62000804848484846040516024016200077b949392919062000c90565b6040516020818303038152906040527f8d142cdd000000000000000000000000000000000000000000000000000000007bffffffffffffffffffffffffffffffffffffffffffffffffffffffff19166020820180517bffffffffffffffffffffffffffffffffffffffffffffffffffffffff83818316178352505050506200082060201b60201c565b50505050565b6001816000016000828254019250508190555050565b60008151905060006a636f6e736f6c652e6c6f679050602083016000808483855afa5050505050565b828054620008579062000e70565b90600052602060002090601f0160209004810192826200087b5760008555620008c7565b82601f106200089657805160ff1916838001178555620008c7565b82800160010185558215620008c7579182015b82811115620008c6578251825591602001919060010190620008a9565b5b509050620008d69190620008da565b5090565b5b80821115620008f5576000816000905550600101620008db565b5090565b6000620009106200090a8462000d26565b62000cf2565b9050808382526020820190508260005b8581101562000954578151850162000939888262000a72565b84526020840193506020830192505060018101905062000920565b5050509392505050565b6000620009756200096f8462000d55565b62000cf2565b905080838252602082019050828560208602820111156200099557600080fd5b60005b85811015620009c95781620009ae888262000a9f565b84526020840193506020830192505060018101905062000998565b5050509392505050565b6000620009ea620009e48462000d84565b62000cf2565b90508281526020810184848401111562000a0357600080fd5b62000a1084828562000e3a565b509392505050565b600082601f83011262000a2a57600080fd5b815162000a3c848260208601620008f9565b91505092915050565b600082601f83011262000a5757600080fd5b815162000a698482602086016200095e565b91505092915050565b600082601f83011262000a8457600080fd5b815162000a96848260208601620009d3565b91505092915050565b60008151905062000ab08162000f44565b92915050565b60008060008060008060008060006101208a8c03121562000ad657600080fd5b60008a015167ffffffffffffffff81111562000af157600080fd5b62000aff8c828d0162000a18565b99505060208a015167ffffffffffffffff81111562000b1d57600080fd5b62000b2b8c828d0162000a18565b98505060408a015167ffffffffffffffff81111562000b4957600080fd5b62000b578c828d0162000a45565b97505060608a015167ffffffffffffffff81111562000b7557600080fd5b62000b838c828d0162000a45565b96505060808a015167ffffffffffffffff81111562000ba157600080fd5b62000baf8c828d0162000a45565b95505060a08a015167ffffffffffffffff81111562000bcd57600080fd5b62000bdb8c828d0162000a72565b94505060c08a015167ffffffffffffffff81111562000bf957600080fd5b62000c078c828d0162000a72565b93505060e062000c1a8c828d0162000a9f565b92505061010062000c2e8c828d0162000a9f565b9150509295985092959850929598565b600062000c4b8262000db7565b62000c57818562000dc2565b935062000c6981856020860162000e3a565b62000c748162000f33565b840191505092915050565b62000c8a8162000e30565b82525050565b6000608082019050818103600083015262000cac818762000c3e565b9050818103602083015262000cc2818662000c3e565b905062000cd3604083018562000c7f565b818103606083015262000ce7818462000c3e565b905095945050505050565b6000604051905081810181811067ffffffffffffffff8211171562000d1c5762000d1b62000f04565b5b8060405250919050565b600067ffffffffffffffff82111562000d445762000d4362000f04565b5b602082029050602081019050919050565b600067ffffffffffffffff82111562000d735762000d7262000f04565b5b602082029050602081019050919050565b600067ffffffffffffffff82111562000da25762000da162000f04565b5b601f19601f8301169050602081019050919050565b600081519050919050565b600082825260208201905092915050565b600062000de08262000e30565b915062000ded8362000e30565b9250827fffffffffffffffffffffffffffffffffffffffffffffffffffffffffffffffff0382111562000e255762000e2462000ea6565b5b828201905092915050565b6000819050919050565b60005b8381101562000e5a57808201518184015260208101905062000e3d565b8381111562000e6a576000848401525b50505050565b6000600282049050600182168062000e8957607f821691505b6020821081141562000ea05762000e9f62000ed5565b5b50919050565b7f4e487b7100000000000000000000000000000000000000000000000000000000600052601160045260246000fd5b7f4e487b7100000000000000000000000000000000000000000000000000000000600052602260045260246000fd5b7f4e487b7100000000000000000000000000000000000000000000000000000000600052604160045260246000fd5b6000601f19601f8301169050919050565b62000f4f8162000e30565b811462000f5b57600080fd5b50565b614fa88062000f6e6000396000f3fe608060405234801561001057600080fd5b506004361061014d5760003560e01c806398da4c95116100c3578063c8cf27f41161007c578063c8cf27f4146103ce578063d4f24c5b146103ec578063e985e9c5146103f6578063efa1c48214610426578063f8b81ef714610444578063fc02a139146104605761014d565b806398da4c95146102f0578063a22cb46514610326578063a9c3267914610342578063b88d4fde14610364578063b953084e14610380578063c87b56dd1461039e5761014d565b806323b872dd1161011557806323b872dd1461020a57806342842e0e146102265780636352211e1461024257806370a08231146102725780637df124a1146102a257806395d89b41146102d25761014d565b806301ffc9a7146101525780630665f9611461018257806306fdde03146101a0578063081812fc146101be578063095ea7b3146101ee575b600080fd5b61016c60048036038101906101679190613589565b610490565b6040516101799190614489565b60405180910390f35b61018a610572565b6040516101979190614860565b60405180910390f35b6101a86106ce565b6040516101b591906144a4565b60405180910390f35b6101d860048036038101906101d391906135db565b610760565b6040516101e591906143a7565b60405180910390f35b6102086004803603810190610203919061354d565b6107e5565b005b610224600480360381019061021f9190613447565b6108fd565b005b610240600480360381019061023b9190613447565b61095d565b005b61025c600480360381019061025791906135db565b61097d565b60405161026991906143a7565b60405180910390f35b61028c600480360381019061028791906133e2565b610a2f565b60405161029991906148a4565b60405180910390f35b6102bc60048036038101906102b791906133e2565b610ae7565b6040516102c991906148a4565b60405180910390f35b6102da610aff565b6040516102e791906144a4565b60405180910390f35b61030a600480360381019061030591906135db565b610b91565b60405161031d97969594939291906148bf565b60405180910390f35b610340600480360381019061033b9190613511565b610ce3565b005b61034a610e64565b60405161035b959493929190614573565b60405180910390f35b61037e60048036038101906103799190613496565b610f98565b005b610388610ffa565b6040516103959190614467565b60405180910390f35b6103b860048036038101906103b391906135db565b6111af565b6040516103c591906144a4565b60405180910390f35b6103d66113e8565b6040516103e39190614882565b60405180910390f35b6103f46115ca565b005b610410600480360381019061040b919061340b565b6119bf565b60405161041d9190614489565b60405180910390f35b61042e611a53565b60405161043b9190614445565b60405180910390f35b61045e600480360381019061045991906135db565b611b12565b005b61047a600480360381019061047591906135db565b612064565b6040516104879190614882565b60405180910390f35b60007f80ac58cd000000000000000000000000000000000000000000000000000000007bffffffffffffffffffffffffffffffffffffffffffffffffffffffff1916827bffffffffffffffffffffffffffffffffffffffffffffffffffffffff1916148061055b57507f5b5e139f000000000000000000000000000000000000000000000000000000007bffffffffffffffffffffffffffffffffffffffffffffffffffffffff1916827bffffffffffffffffffffffffffffffffffffffffffffffffffffffff1916145b8061056b575061056a826122c1565b5b9050919050565b61057a613202565b600a6040518060a001604052908160008201805461059790614c65565b80601f01602080910402602001604051908101604052809291908181526020018280546105c390614c65565b80156106105780601f106105e557610100808354040283529160200191610610565b820191906000526020600020905b8154815290600101906020018083116105f357829003601f168201915b5050505050815260200160018201805461062990614c65565b80601f016020809104026020016040519081016040528092919081815260200182805461065590614c65565b80156106a25780601f10610677576101008083540402835291602001916106a2565b820191906000526020600020905b81548152906001019060200180831161068557829003601f168201915b505050505081526020016002820154815260200160038201548152602001600482015481525050905090565b6060600080546106dd90614c65565b80601f016020809104026020016040519081016040528092919081815260200182805461070990614c65565b80156107565780601f1061072b57610100808354040283529160200191610756565b820191906000526020600020905b81548152906001019060200180831161073957829003601f168201915b5050505050905090565b600061076b8261232b565b6107aa576040517f08c379a00000000000000000000000000000000000000000000000000000000081526004016107a1906147e0565b60405180910390fd5b6004600083815260200190815260200160002060009054906101000a900473ffffffffffffffffffffffffffffffffffffffff169050919050565b60006107f08261097d565b90508073ffffffffffffffffffffffffffffffffffffffff168373ffffffffffffffffffffffffffffffffffffffff161415610861576040517f08c379a000000000000000000000000000000000000000000000000000000000815260040161085890614820565b60405180910390fd5b8073ffffffffffffffffffffffffffffffffffffffff16610880612397565b73ffffffffffffffffffffffffffffffffffffffff1614806108af57506108ae816108a9612397565b6119bf565b5b6108ee576040517f08c379a00000000000000000000000000000000000000000000000000000000081526004016108e590614740565b60405180910390fd5b6108f8838361239f565b505050565b61090e610908612397565b82612458565b61094d576040517f08c379a000000000000000000000000000000000000000000000000000000000815260040161094490614840565b60405180910390fd5b610958838383612536565b505050565b61097883838360405180602001604052806000815250610f98565b505050565b6000806002600084815260200190815260200160002060009054906101000a900473ffffffffffffffffffffffffffffffffffffffff169050600073ffffffffffffffffffffffffffffffffffffffff168173ffffffffffffffffffffffffffffffffffffffff161415610a26576040517f08c379a0000000000000000000000000000000000000000000000000000000008152600401610a1d90614780565b60405180910390fd5b80915050919050565b60008073ffffffffffffffffffffffffffffffffffffffff168273ffffffffffffffffffffffffffffffffffffffff161415610aa0576040517f08c379a0000000000000000000000000000000000000000000000000000000008152600401610a9790614760565b60405180910390fd5b600360008373ffffffffffffffffffffffffffffffffffffffff1673ffffffffffffffffffffffffffffffffffffffff168152602001908152602001600020549050919050565b60086020528060005260406000206000915090505481565b606060018054610b0e90614c65565b80601f0160208091040260200160405190810160405280929190818152602001828054610b3a90614c65565b8015610b875780601f10610b5c57610100808354040283529160200191610b87565b820191906000526020600020905b815481529060010190602001808311610b6a57829003601f168201915b5050505050905090565b6007602052806000526040600020600091509050806000015490806001018054610bba90614c65565b80601f0160208091040260200160405190810160405280929190818152602001828054610be690614c65565b8015610c335780601f10610c0857610100808354040283529160200191610c33565b820191906000526020600020905b815481529060010190602001808311610c1657829003601f168201915b505050505090806002018054610c4890614c65565b80601f0160208091040260200160405190810160405280929190818152602001828054610c7490614c65565b8015610cc15780601f10610c9657610100808354040283529160200191610cc1565b820191906000526020600020905b815481529060010190602001808311610ca457829003601f168201915b5050505050908060030154908060040154908060050154908060060154905087565b610ceb612397565b73ffffffffffffffffffffffffffffffffffffffff168273ffffffffffffffffffffffffffffffffffffffff161415610d59576040517f08c379a0000000000000000000000000000000000000000000000000000000008152600401610d5090614700565b60405180910390fd5b8060056000610d66612397565b73ffffffffffffffffffffffffffffffffffffffff1673ffffffffffffffffffffffffffffffffffffffff16815260200190815260200160002060008473ffffffffffffffffffffffffffffffffffffffff1673ffffffffffffffffffffffffffffffffffffffff16815260200190815260200160002060006101000a81548160ff0219169083151502179055508173ffffffffffffffffffffffffffffffffffffffff16610e13612397565b73ffffffffffffffffffffffffffffffffffffffff167f17307eab39ab6107e8899845ad3d59bd9653f200f220920489ca2b5937696c3183604051610e589190614489565b60405180910390a35050565b600a806000018054610e7590614c65565b80601f0160208091040260200160405190810160405280929190818152602001828054610ea190614c65565b8015610eee5780601f10610ec357610100808354040283529160200191610eee565b820191906000526020600020905b815481529060010190602001808311610ed157829003601f168201915b505050505090806001018054610f0390614c65565b80601f0160208091040260200160405190810160405280929190818152602001828054610f2f90614c65565b8015610f7c5780601f10610f5157610100808354040283529160200191610f7c565b820191906000526020600020905b815481529060010190602001808311610f5f57829003601f168201915b5050505050908060020154908060030154908060040154905085565b610fa9610fa3612397565b83612458565b610fe8576040517f08c379a0000000000000000000000000000000000000000000000000000000008152600401610fdf90614840565b60405180910390fd5b610ff484848484612792565b50505050565b60606006805480602002602001604051908101604052809291908181526020016000905b828210156111a657838290600052602060002090600702016040518060e00160405290816000820154815260200160018201805461105b90614c65565b80601f016020809104026020016040519081016040528092919081815260200182805461108790614c65565b80156110d45780601f106110a9576101008083540402835291602001916110d4565b820191906000526020600020905b8154815290600101906020018083116110b757829003601f168201915b505050505081526020016002820180546110ed90614c65565b80601f016020809104026020016040519081016040528092919081815260200182805461111990614c65565b80156111665780601f1061113b57610100808354040283529160200191611166565b820191906000526020600020905b81548152906001019060200180831161114957829003601f168201915b505050505081526020016003820154815260200160048201548152602001600582015481526020016006820154815250508152602001906001019061101e565b50505050905090565b60606000600760008481526020019081526020016000206040518060e0016040529081600082015481526020016001820180546111eb90614c65565b80601f016020809104026020016040519081016040528092919081815260200182805461121790614c65565b80156112645780601f1061123957610100808354040283529160200191611264565b820191906000526020600020905b81548152906001019060200180831161124757829003601f168201915b5050505050815260200160028201805461127d90614c65565b80601f01602080910402602001604051908101604052809291908181526020018280546112a990614c65565b80156112f65780601f106112cb576101008083540402835291602001916112f6565b820191906000526020600020905b8154815290600101906020018083116112d957829003601f168201915b505050505081526020016003820154815260200160048201548152602001600582015481526020016006820154815250509050600061133882606001516127ee565b9050600061134983608001516127ee565b9050600061135a8460a001516127ee565b9050600061136b8560c001516127ee565b905060006113b386602001516113808a6127ee565b88604001518888888860405160200161139f97969594939291906142c8565b60405160208183030381529060405261299b565b90506000816040516020016113c89190614385565b604051602081830303815290604052905080975050505050505050919050565b6113f0613231565b6000600860003373ffffffffffffffffffffffffffffffffffffffff1673ffffffffffffffffffffffffffffffffffffffff16815260200190815260200160002054905060008111156115b957600760008281526020019081526020016000206040518060e00160405290816000820154815260200160018201805461147590614c65565b80601f01602080910402602001604051908101604052809291908181526020018280546114a190614c65565b80156114ee5780601f106114c3576101008083540402835291602001916114ee565b820191906000526020600020905b8154815290600101906020018083116114d157829003601f168201915b5050505050815260200160028201805461150790614c65565b80601f016020809104026020016040519081016040528092919081815260200182805461153390614c65565b80156115805780601f1061155557610100808354040283529160200191611580565b820191906000526020600020905b81548152906001019060200180831161156357829003601f168201915b505050505081526020016003820154815260200160048201548152602001600582015481526020016006820154815250509150506115c7565b6115c1613231565b80925050505b90565b6000600860003373ffffffffffffffffffffffffffffffffffffffff1673ffffffffffffffffffffffffffffffffffffffff16815260200190815260200160002054905060006007600083815260200190815260200160002090506116dd6040518060600160405280603c8152602001614f37603c913982600101805461165090614c65565b80601f016020809104026020016040519081016040528092919081815260200182805461167c90614c65565b80156116c95780601f1061169e576101008083540402835291602001916116c9565b820191906000526020600020905b8154815290600101906020018083116116ac57829003601f168201915b505050505083600301548460050154612b59565b6117206040518060400160405280601081526020017f44616d61676520496e666c6963746564000000000000000000000000000000008152508260060154612bfb565b6117f86040518060400160405280601b81526020017f426f73732025732068617320257320485020616e642025732041440000000000815250600a600001805461176990614c65565b80601f016020809104026020016040519081016040528092919081815260200182805461179590614c65565b80156117e25780601f106117b7576101008083540402835291602001916117e2565b820191906000526020600020905b8154815290600101906020018083116117c557829003601f168201915b5050505050600a60020154600a60040154612b59565b600081600301541161183f576040517f08c379a0000000000000000000000000000000000000000000000000000000008152600401611836906147a0565b60405180910390fd5b6000600a6002015411611887576040517f08c379a000000000000000000000000000000000000000000000000000000000815260040161187e906146a0565b60405180910390fd5b8060050154600a6002015410156118a8576000600a600201819055506118e3565b8060050154600a600201546118bd9190614b7b565b600a60020181905550806005015481600601546118da9190614a9a565b81600601819055505b600a60040154816003015410156119035760008160030181905550611921565b600a6004015481600301546119189190614b7b565b81600301819055505b7fa8f68fa0afad68f1577a1c5c66c297b751442bbab5e98c25f07ee510a921558c600a60020154826003015483600601546040516119619392919061493c565b60405180910390a1611990604051806060016040528060268152602001614e7b60269139600a60020154612bfb565b6119bb604051806060016040528060288152602001614ee16028913982600301548360060154612c97565b5050565b6000600560008473ffffffffffffffffffffffffffffffffffffffff1673ffffffffffffffffffffffffffffffffffffffff16815260200190815260200160002060008373ffffffffffffffffffffffffffffffffffffffff1673ffffffffffffffffffffffffffffffffffffffff16815260200190815260200160002060009054906101000a900460ff16905092915050565b6060600f805480602002602001604051908101604052809291908181526020016000905b82821015611b095783829060005260206000209060020201604051806040016040529081600082015481526020016001820160009054906101000a900473ffffffffffffffffffffffffffffffffffffffff1673ffffffffffffffffffffffffffffffffffffffff1673ffffffffffffffffffffffffffffffffffffffff168152505081526020019060010190611a77565b50505050905090565b6000611b1e6009612d36565b9050611b2a3382612d44565b6040518060e0016040528083815260200160068481548110611b75577f4e487b7100000000000000000000000000000000000000000000000000000000600052603260045260246000fd5b90600052602060002090600702016001018054611b9190614c65565b80601f0160208091040260200160405190810160405280929190818152602001828054611bbd90614c65565b8015611c0a5780601f10611bdf57610100808354040283529160200191611c0a565b820191906000526020600020905b815481529060010190602001808311611bed57829003601f168201915b5050505050815260200160068481548110611c4e577f4e487b7100000000000000000000000000000000000000000000000000000000600052603260045260246000fd5b90600052602060002090600702016002018054611c6a90614c65565b80601f0160208091040260200160405190810160405280929190818152602001828054611c9690614c65565b8015611ce35780601f10611cb857610100808354040283529160200191611ce3565b820191906000526020600020905b815481529060010190602001808311611cc657829003601f168201915b5050505050815260200160068481548110611d27577f4e487b7100000000000000000000000000000000000000000000000000000000600052603260045260246000fd5b906000526020600020906007020160030154815260200160068481548110611d78577f4e487b7100000000000000000000000000000000000000000000000000000000600052603260045260246000fd5b906000526020600020906007020160030154815260200160068481548110611dc9577f4e487b7100000000000000000000000000000000000000000000000000000000600052603260045260246000fd5b906000526020600020906007020160050154815260200160068481548110611e1a577f4e487b7100000000000000000000000000000000000000000000000000000000600052603260045260246000fd5b90600052602060002090600702016006015481525060076000838152602001908152602001600020600082015181600001556020820151816001019080519060200190611e6892919061326e565b506040820151816002019080519060200190611e8592919061326e565b50606082015181600301556080820151816004015560a0820151816005015560c08201518160060155905050611ed46040518060600160405280602e8152602001614f09602e91398284612c97565b600f60405180604001604052808381526020013373ffffffffffffffffffffffffffffffffffffffff1681525090806001815401808255809150506001900390600052602060002090600202016000909190919091506000820151816000015560208201518160010160006101000a81548173ffffffffffffffffffffffffffffffffffffffff021916908373ffffffffffffffffffffffffffffffffffffffff1602179055505050611fa0604051806060016040528060408152602001614e3b604091398233612d62565b80600860003373ffffffffffffffffffffffffffffffffffffffff1673ffffffffffffffffffffffffffffffffffffffff16815260200190815260200160002081905550611fee60096122ab565b7f4bc303fd457a97b4691b9af582ce71868a3d258638c8d4f8c60988a0f0bfb8cd3382846040516120219392919061440e565b60405180910390a17fd9dc24857f317ed9abbbb42e920ede0104231eb1d3d70236a74887ffaf1598688260405161205891906148a4565b60405180910390a15050565b61206c613231565b600082905060008111156121f657600760008281526020019081526020016000206040518060e0016040529081600082015481526020016001820180546120b290614c65565b80601f01602080910402602001604051908101604052809291908181526020018280546120de90614c65565b801561212b5780601f106121005761010080835404028352916020019161212b565b820191906000526020600020905b81548152906001019060200180831161210e57829003601f168201915b5050505050815260200160028201805461214490614c65565b80601f016020809104026020016040519081016040528092919081815260200182805461217090614c65565b80156121bd5780601f10612192576101008083540402835291602001916121bd565b820191906000526020600020905b8154815290600101906020018083116121a057829003601f168201915b50505050508152602001600382015481526020016004820154815260200160058201548152602001600682015481525050915050612204565b6121fe613231565b80925050505b919050565b6122a58484848460405160240161222394939291906144c6565b6040516020818303038152906040527f8d142cdd000000000000000000000000000000000000000000000000000000007bffffffffffffffffffffffffffffffffffffffffffffffffffffffff19166020820180517bffffffffffffffffffffffffffffffffffffffffffffffffffffffff8381831617835250505050612e01565b50505050565b6001816000016000828254019250508190555050565b60007f01ffc9a7000000000000000000000000000000000000000000000000000000007bffffffffffffffffffffffffffffffffffffffffffffffffffffffff1916827bffffffffffffffffffffffffffffffffffffffffffffffffffffffff1916149050919050565b60008073ffffffffffffffffffffffffffffffffffffffff166002600084815260200190815260200160002060009054906101000a900473ffffffffffffffffffffffffffffffffffffffff1673ffffffffffffffffffffffffffffffffffffffff1614159050919050565b600033905090565b816004600083815260200190815260200160002060006101000a81548173ffffffffffffffffffffffffffffffffffffffff021916908373ffffffffffffffffffffffffffffffffffffffff160217905550808273ffffffffffffffffffffffffffffffffffffffff166124128361097d565b73ffffffffffffffffffffffffffffffffffffffff167f8c5be1e5ebec7d5bd14f71427d1e84f3dd0314c0f7b2291e5b200ac8c7c3b92560405160405180910390a45050565b60006124638261232b565b6124a2576040517f08c379a000000000000000000000000000000000000000000000000000000000815260040161249990614720565b60405180910390fd5b60006124ad8361097d565b90508073ffffffffffffffffffffffffffffffffffffffff168473ffffffffffffffffffffffffffffffffffffffff16148061251c57508373ffffffffffffffffffffffffffffffffffffffff1661250484610760565b73ffffffffffffffffffffffffffffffffffffffff16145b8061252d575061252c81856119bf565b5b91505092915050565b8273ffffffffffffffffffffffffffffffffffffffff166125568261097d565b73ffffffffffffffffffffffffffffffffffffffff16146125ac576040517f08c379a00000000000000000000000000000000000000000000000000000000081526004016125a390614800565b60405180910390fd5b600073ffffffffffffffffffffffffffffffffffffffff168273ffffffffffffffffffffffffffffffffffffffff16141561261c576040517f08c379a0000000000000000000000000000000000000000000000000000000008152600401612613906146e0565b60405180910390fd5b612627838383612e2a565b61263260008261239f565b6001600360008573ffffffffffffffffffffffffffffffffffffffff1673ffffffffffffffffffffffffffffffffffffffff16815260200190815260200160002060008282546126829190614b7b565b925050819055506001600360008473ffffffffffffffffffffffffffffffffffffffff1673ffffffffffffffffffffffffffffffffffffffff16815260200190815260200160002060008282546126d99190614a9a565b92505081905550816002600083815260200190815260200160002060006101000a81548173ffffffffffffffffffffffffffffffffffffffff021916908373ffffffffffffffffffffffffffffffffffffffff160217905550808273ffffffffffffffffffffffffffffffffffffffff168473ffffffffffffffffffffffffffffffffffffffff167fddf252ad1be2c89b69c2b068fc378daa952ba7f163c4a11628f55a4df523b3ef60405160405180910390a4505050565b61279d848484612536565b6127a984848484612e2f565b6127e8576040517f08c379a00000000000000000000000000000000000000000000000000000000081526004016127df90614680565b60405180910390fd5b50505050565b60606000821415612836576040518060400160405280600181526020017f30000000000000000000000000000000000000000000000000000000000000008152509050612996565b600082905060005b6000821461286857808061285190614c97565b915050600a826128619190614af0565b915061283e565b60008167ffffffffffffffff8111156128aa577f4e487b7100000000000000000000000000000000000000000000000000000000600052604160045260246000fd5b6040519080825280601f01601f1916602001820160405280156128dc5781602001600182028036833780820191505090505b5090505b6000851461298f576001826128f59190614b7b565b9150600a856129049190614ce0565b60306129109190614a9a565b60f81b81838151811061294c577f4e487b7100000000000000000000000000000000000000000000000000000000600052603260045260246000fd5b60200101907effffffffffffffffffffffffffffffffffffffffffffffffffffffffffffff1916908160001a905350600a856129889190614af0565b94506128e0565b8093505050505b919050565b606060008251905060008114156129c45760405180602001604052806000815250915050612b54565b600060036002836129d59190614a9a565b6129df9190614af0565b60046129eb9190614b21565b905060006020826129fc9190614a9a565b67ffffffffffffffff811115612a3b577f4e487b7100000000000000000000000000000000000000000000000000000000600052604160045260246000fd5b6040519080825280601f01601f191660200182016040528015612a6d5781602001600182028036833780820191505090505b5090506000604051806060016040528060408152602001614ea1604091399050600181016020830160005b86811015612b115760038101905062ffffff818a015116603f8160121c168401518060081b905060ff603f83600c1c1686015116810190508060081b905060ff603f8360061c1686015116810190508060081b905060ff603f831686015116810190508060e01b90508084526004840193505050612a98565b506003860660018114612b2b5760028114612b3b57612b46565b613d3d60f01b6002830352612b46565b603d60f81b60018303525b508484525050819450505050505b919050565b612bf584848484604051602401612b739493929190614520565b6040516020818303038152906040527fd5cf17d0000000000000000000000000000000000000000000000000000000007bffffffffffffffffffffffffffffffffffffffffffffffffffffffff19166020820180517bffffffffffffffffffffffffffffffffffffffffffffffffffffffff8381831617835250505050612e01565b50505050565b612c938282604051602401612c119291906145d4565b6040516020818303038152906040527f9710a9d0000000000000000000000000000000000000000000000000000000007bffffffffffffffffffffffffffffffffffffffffffffffffffffffff19166020820180517bffffffffffffffffffffffffffffffffffffffffffffffffffffffff8381831617835250505050612e01565b5050565b612d31838383604051602401612caf93929190614642565b6040516020818303038152906040527f969cdd03000000000000000000000000000000000000000000000000000000007bffffffffffffffffffffffffffffffffffffffffffffffffffffffff19166020820180517bffffffffffffffffffffffffffffffffffffffffffffffffffffffff8381831617835250505050612e01565b505050565b600081600001549050919050565b612d5e828260405180602001604052806000815250612fc6565b5050565b612dfc838383604051602401612d7a93929190614604565b6040516020818303038152906040527fe3849f79000000000000000000000000000000000000000000000000000000007bffffffffffffffffffffffffffffffffffffffffffffffffffffffff19166020820180517bffffffffffffffffffffffffffffffffffffffffffffffffffffffff8381831617835250505050612e01565b505050565b60008151905060006a636f6e736f6c652e6c6f679050602083016000808483855afa5050505050565b505050565b6000612e508473ffffffffffffffffffffffffffffffffffffffff16613021565b15612fb9578373ffffffffffffffffffffffffffffffffffffffff1663150b7a02612e79612397565b8786866040518563ffffffff1660e01b8152600401612e9b94939291906143c2565b602060405180830381600087803b158015612eb557600080fd5b505af1925050508015612ee657506040513d601f19601f82011682018060405250810190612ee391906135b2565b60015b612f69573d8060008114612f16576040519150601f19603f3d011682016040523d82523d6000602084013e612f1b565b606091505b50600081511415612f61576040517f08c379a0000000000000000000000000000000000000000000000000000000008152600401612f5890614680565b60405180910390fd5b805181602001fd5b63150b7a0260e01b7bffffffffffffffffffffffffffffffffffffffffffffffffffffffff1916817bffffffffffffffffffffffffffffffffffffffffffffffffffffffff191614915050612fbe565b600190505b949350505050565b612fd08383613034565b612fdd6000848484612e2f565b61301c576040517f08c379a000000000000000000000000000000000000000000000000000000000815260040161301390614680565b60405180910390fd5b505050565b600080823b905060008111915050919050565b600073ffffffffffffffffffffffffffffffffffffffff168273ffffffffffffffffffffffffffffffffffffffff1614156130a4576040517f08c379a000000000000000000000000000000000000000000000000000000000815260040161309b906147c0565b60405180910390fd5b6130ad8161232b565b156130ed576040517f08c379a00000000000000000000000000000000000000000000000000000000081526004016130e4906146c0565b60405180910390fd5b6130f960008383612e2a565b6001600360008473ffffffffffffffffffffffffffffffffffffffff1673ffffffffffffffffffffffffffffffffffffffff16815260200190815260200160002060008282546131499190614a9a565b92505081905550816002600083815260200190815260200160002060006101000a81548173ffffffffffffffffffffffffffffffffffffffff021916908373ffffffffffffffffffffffffffffffffffffffff160217905550808273ffffffffffffffffffffffffffffffffffffffff16600073ffffffffffffffffffffffffffffffffffffffff167fddf252ad1be2c89b69c2b068fc378daa952ba7f163c4a11628f55a4df523b3ef60405160405180910390a45050565b6040518060a0016040528060608152602001606081526020016000815260200160008152602001600081525090565b6040518060e00160405280600081526020016060815260200160608152602001600081526020016000815260200160008152602001600081525090565b82805461327a90614c65565b90600052602060002090601f01602090048101928261329c57600085556132e3565b82601f106132b557805160ff19168380011785556132e3565b828001600101855582156132e3579182015b828111156132e25782518255916020019190600101906132c7565b5b5090506132f091906132f4565b5090565b5b8082111561330d5760008160009055506001016132f5565b5090565b600061332461331f846149a4565b614973565b90508281526020810184848401111561333c57600080fd5b613347848285614c23565b509392505050565b60008135905061335e81614dde565b92915050565b60008135905061337381614df5565b92915050565b60008135905061338881614e0c565b92915050565b60008151905061339d81614e0c565b92915050565b600082601f8301126133b457600080fd5b81356133c4848260208601613311565b91505092915050565b6000813590506133dc81614e23565b92915050565b6000602082840312156133f457600080fd5b60006134028482850161334f565b91505092915050565b6000806040838503121561341e57600080fd5b600061342c8582860161334f565b925050602061343d8582860161334f565b9150509250929050565b60008060006060848603121561345c57600080fd5b600061346a8682870161334f565b935050602061347b8682870161334f565b925050604061348c868287016133cd565b9150509250925092565b600080600080608085870312156134ac57600080fd5b60006134ba8782880161334f565b94505060206134cb8782880161334f565b93505060406134dc878288016133cd565b925050606085013567ffffffffffffffff8111156134f957600080fd5b613505878288016133a3565b91505092959194509250565b6000806040838503121561352457600080fd5b60006135328582860161334f565b925050602061354385828601613364565b9150509250929050565b6000806040838503121561356057600080fd5b600061356e8582860161334f565b925050602061357f858286016133cd565b9150509250929050565b60006020828403121561359b57600080fd5b60006135a984828501613379565b91505092915050565b6000602082840312156135c457600080fd5b60006135d28482850161338e565b91505092915050565b6000602082840312156135ed57600080fd5b60006135fb848285016133cd565b91505092915050565b600061361083836140b8565b60408301905092915050565b60006136288383614164565b905092915050565b61363981614baf565b82525050565b61364881614baf565b82525050565b6000613659826149f4565b6136638185614a3a565b935061366e836149d4565b8060005b8381101561369f5781516136868882613604565b975061369183614a20565b925050600181019050613672565b5085935050505092915050565b60006136b7826149ff565b6136c18185614a4b565b9350836020820285016136d3856149e4565b8060005b8581101561370f57848403895281516136f0858261361c565b94506136fb83614a2d565b925060208a019950506001810190506136d7565b50829750879550505050505092915050565b61372a81614bc1565b82525050565b600061373b82614a0a565b6137458185614a5c565b9350613755818560208601614c32565b61375e81614dcd565b840191505092915050565b600061377482614a15565b61377e8185614a6d565b935061378e818560208601614c32565b61379781614dcd565b840191505092915050565b60006137ad82614a15565b6137b78185614a7e565b93506137c7818560208601614c32565b6137d081614dcd565b840191505092915050565b60006137e682614a15565b6137f08185614a8f565b9350613800818560208601614c32565b80840191505092915050565b6000613819600b83614a8f565b91507f202d2d204e465420233a200000000000000000000000000000000000000000006000830152600b82019050919050565b6000613859603283614a7e565b91507f4552433732313a207472616e7366657220746f206e6f6e20455243373231526560008301527f63656976657220696d706c656d656e74657200000000000000000000000000006020830152604082019050919050565b60006138bf602883614a7e565b91507f4572726f723a20626f7373206d757374206861766520485020746f206174746160008301527f636b20626f73732e0000000000000000000000000000000000000000000000006020830152604082019050919050565b6000613925601c83614a7e565b91507f4552433732313a20746f6b656e20616c7265616479206d696e746564000000006000830152602082019050919050565b6000613965600e83614a8f565b91507f2c20226d61785f76616c7565223a0000000000000000000000000000000000006000830152600e82019050919050565b60006139a5602483614a7e565b91507f4552433732313a207472616e7366657220746f20746865207a65726f2061646460008301527f72657373000000000000000000000000000000000000000000000000000000006020830152604082019050919050565b6000613a0b601983614a7e565b91507f4552433732313a20617070726f766520746f2063616c6c6572000000000000006000830152602082019050919050565b6000613a4b602c83614a7e565b91507f4552433732313a206f70657261746f7220717565727920666f72206e6f6e657860008301527f697374656e7420746f6b656e00000000000000000000000000000000000000006020830152604082019050919050565b6000613ab1603883614a7e565b91507f4552433732313a20617070726f76652063616c6c6572206973206e6f74206f7760008301527f6e6572206e6f7220617070726f76656420666f7220616c6c00000000000000006020830152604082019050919050565b6000613b17602a83614a7e565b91507f4552433732313a2062616c616e636520717565727920666f7220746865207a6560008301527f726f2061646472657373000000000000000000000000000000000000000000006020830152604082019050919050565b6000613b7d602983614a7e565b91507f4552433732313a206f776e657220717565727920666f72206e6f6e657869737460008301527f656e7420746f6b656e00000000000000000000000000000000000000000000006020830152604082019050919050565b6000613be3602d83614a7e565b91507f4572726f723a20636861726163746572206d757374206861766520485020746f60008301527f2061747461636b20626f73732e000000000000000000000000000000000000006020830152604082019050919050565b6000613c49600483614a8f565b91507f7d205d7d000000000000000000000000000000000000000000000000000000006000830152600482019050919050565b6000613c89602083614a7e565b91507f4552433732313a206d696e7420746f20746865207a65726f20616464726573736000830152602082019050919050565b6000613cc9603083614a8f565b91507f7d2c207b202274726169745f74797065223a202244616d61676520496e666c6960008301527f63746564222c202276616c7565223a20000000000000000000000000000000006020830152603082019050919050565b6000613d2f602c83614a7e565b91507f4552433732313a20617070726f76656420717565727920666f72206e6f6e657860008301527f697374656e7420746f6b656e00000000000000000000000000000000000000006020830152604082019050919050565b6000613d95602983614a7e565b91507f4552433732313a207472616e73666572206f6620746f6b656e2074686174206960008301527f73206e6f74206f776e00000000000000000000000000000000000000000000006020830152604082019050919050565b6000613dfb600a83614a8f565b91507f7b226e616d65223a2022000000000000000000000000000000000000000000006000830152600a82019050919050565b6000613e3b602183614a7e565b91507f4552433732313a20617070726f76616c20746f2063757272656e74206f776e6560008301527f72000000000000000000000000000000000000000000000000000000000000006020830152604082019050919050565b6000613ea1601d83614a8f565b91507f646174613a6170706c69636174696f6e2f6a736f6e3b6261736536342c0000006000830152601d82019050919050565b6000613ee1603183614a7e565b91507f4552433732313a207472616e736665722063616c6c6572206973206e6f74206f60008301527f776e6572206e6f7220617070726f7665640000000000000000000000000000006020830152604082019050919050565b6000613f47603d83614a8f565b91507f222c202261747472696275746573223a205b207b202274726169745f7479706560008301527f223a20224865616c746820506f696e7473222c202276616c7565223a200000006020830152603d82019050919050565b6000613fad602d83614a8f565b91507f7d2c207b202274726169745f74797065223a202241747461636b2044616d616760008301527f65222c202276616c7565223a20000000000000000000000000000000000000006020830152602d82019050919050565b6000614013606383614a8f565b91507f222c20226465736372697074696f6e223a20225468697320697320616e204e4660008301527f54207468617420676976657320796f7520656e74727920746f2074686520447760208301527f6967687420436c75622067616d6521222c2022696d616765223a20226970667360408301527f3a2f2f00000000000000000000000000000000000000000000000000000000006060830152606382019050919050565b6040820160008201516140ce60008501826142aa565b5060208201516140e16020850182613630565b50505050565b600060a08301600083015184820360008601526141048282613769565b9150506020830151848203602086015261411e8282613769565b915050604083015161413360408601826142aa565b50606083015161414660608601826142aa565b50608083015161415960808601826142aa565b508091505092915050565b600060e08301600083015161417c60008601826142aa565b50602083015184820360208601526141948282613769565b915050604083015184820360408601526141ae8282613769565b91505060608301516141c360608601826142aa565b5060808301516141d660808601826142aa565b5060a08301516141e960a08601826142aa565b5060c08301516141fc60c08601826142aa565b508091505092915050565b600060e08301600083015161421f60008601826142aa565b50602083015184820360208601526142378282613769565b915050604083015184820360408601526142518282613769565b915050606083015161426660608601826142aa565b50608083015161427960808601826142aa565b5060a083015161428c60a08601826142aa565b5060c083015161429f60c08601826142aa565b508091505092915050565b6142b381614c19565b82525050565b6142c281614c19565b82525050565b60006142d382613dee565b91506142df828a6137db565b91506142ea8261380c565b91506142f682896137db565b915061430182614006565b915061430d82886137db565b915061431882613f3a565b915061432482876137db565b915061432f82613958565b915061433b82866137db565b915061434682613fa0565b915061435282856137db565b915061435d82613cbc565b915061436982846137db565b915061437482613c3c565b915081905098975050505050505050565b600061439082613e94565b915061439c82846137db565b915081905092915050565b60006020820190506143bc600083018461363f565b92915050565b60006080820190506143d7600083018761363f565b6143e4602083018661363f565b6143f160408301856142b9565b81810360608301526144038184613730565b905095945050505050565b6000606082019050614423600083018661363f565b61443060208301856142b9565b61443d60408301846142b9565b949350505050565b6000602082019050818103600083015261445f818461364e565b905092915050565b6000602082019050818103600083015261448181846136ac565b905092915050565b600060208201905061449e6000830184613721565b92915050565b600060208201905081810360008301526144be81846137a2565b905092915050565b600060808201905081810360008301526144e081876137a2565b905081810360208301526144f481866137a2565b905061450360408301856142b9565b818103606083015261451581846137a2565b905095945050505050565b6000608082019050818103600083015261453a81876137a2565b9050818103602083015261454e81866137a2565b905061455d60408301856142b9565b61456a60608301846142b9565b95945050505050565b600060a082019050818103600083015261458d81886137a2565b905081810360208301526145a181876137a2565b90506145b060408301866142b9565b6145bd60608301856142b9565b6145ca60808301846142b9565b9695505050505050565b600060408201905081810360008301526145ee81856137a2565b90506145fd60208301846142b9565b9392505050565b6000606082019050818103600083015261461e81866137a2565b905061462d60208301856142b9565b61463a604083018461363f565b949350505050565b6000606082019050818103600083015261465c81866137a2565b905061466b60208301856142b9565b61467860408301846142b9565b949350505050565b600060208201905081810360008301526146998161384c565b9050919050565b600060208201905081810360008301526146b9816138b2565b9050919050565b600060208201905081810360008301526146d981613918565b9050919050565b600060208201905081810360008301526146f981613998565b9050919050565b60006020820190508181036000830152614719816139fe565b9050919050565b6000602082019050818103600083015261473981613a3e565b9050919050565b6000602082019050818103600083015261475981613aa4565b9050919050565b6000602082019050818103600083015261477981613b0a565b9050919050565b6000602082019050818103600083015261479981613b70565b9050919050565b600060208201905081810360008301526147b981613bd6565b9050919050565b600060208201905081810360008301526147d981613c7c565b9050919050565b600060208201905081810360008301526147f981613d22565b9050919050565b6000602082019050818103600083015261481981613d88565b9050919050565b6000602082019050818103600083015261483981613e2e565b9050919050565b6000602082019050818103600083015261485981613ed4565b9050919050565b6000602082019050818103600083015261487a81846140e7565b905092915050565b6000602082019050818103600083015261489c8184614207565b905092915050565b60006020820190506148b960008301846142b9565b92915050565b600060e0820190506148d4600083018a6142b9565b81810360208301526148e681896137a2565b905081810360408301526148fa81886137a2565b905061490960608301876142b9565b61491660808301866142b9565b61492360a08301856142b9565b61493060c08301846142b9565b98975050505050505050565b600060608201905061495160008301866142b9565b61495e60208301856142b9565b61496b60408301846142b9565b949350505050565b6000604051905081810181811067ffffffffffffffff8211171561499a57614999614d9e565b5b8060405250919050565b600067ffffffffffffffff8211156149bf576149be614d9e565b5b601f19601f8301169050602081019050919050565b6000819050602082019050919050565b6000819050602082019050919050565b600081519050919050565b600081519050919050565b600081519050919050565b600081519050919050565b6000602082019050919050565b6000602082019050919050565b600082825260208201905092915050565b600082825260208201905092915050565b600082825260208201905092915050565b600082825260208201905092915050565b600082825260208201905092915050565b600081905092915050565b6000614aa582614c19565b9150614ab083614c19565b9250827fffffffffffffffffffffffffffffffffffffffffffffffffffffffffffffffff03821115614ae557614ae4614d11565b5b828201905092915050565b6000614afb82614c19565b9150614b0683614c19565b925082614b1657614b15614d40565b5b828204905092915050565b6000614b2c82614c19565b9150614b3783614c19565b9250817fffffffffffffffffffffffffffffffffffffffffffffffffffffffffffffffff0483118215151615614b7057614b6f614d11565b5b828202905092915050565b6000614b8682614c19565b9150614b9183614c19565b925082821015614ba457614ba3614d11565b5b828203905092915050565b6000614bba82614bf9565b9050919050565b60008115159050919050565b60007fffffffff0000000000000000000000000000000000000000000000000000000082169050919050565b600073ffffffffffffffffffffffffffffffffffffffff82169050919050565b6000819050919050565b82818337600083830152505050565b60005b83811015614c50578082015181840152602081019050614c35565b83811115614c5f576000848401525b50505050565b60006002820490506001821680614c7d57607f821691505b60208210811415614c9157614c90614d6f565b5b50919050565b6000614ca282614c19565b91507fffffffffffffffffffffffffffffffffffffffffffffffffffffffffffffffff821415614cd557614cd4614d11565b5b600182019050919050565b6000614ceb82614c19565b9150614cf683614c19565b925082614d0657614d05614d40565b5b828206905092915050565b7f4e487b7100000000000000000000000000000000000000000000000000000000600052601160045260246000fd5b7f4e487b7100000000000000000000000000000000000000000000000000000000600052601260045260246000fd5b7f4e487b7100000000000000000000000000000000000000000000000000000000600052602260045260246000fd5b7f4e487b7100000000000000000000000000000000000000000000000000000000600052604160045260246000fd5b6000601f19601f8301169050919050565b614de781614baf565b8114614df257600080fd5b50565b614dfe81614bc1565b8114614e0957600080fd5b50565b614e1581614bcd565b8114614e2057600080fd5b50565b614e2c81614c19565b8114614e3757600080fd5b5056fe507573686564206e657720706c6179657220746f2067616d65557365727320617272617920772f20746f6b656e496420257320616e642077616c6c6574202573506c617965722061747461636b656420626f73732e204e657720626f73732068703a2025730a4142434445464748494a4b4c4d4e4f505152535455565758595a6162636465666768696a6b6c6d6e6f707172737475767778797a303132333435363738392b2f426f73732061747461636b656420706c617965722e204e657720706c617965722068703a2025730a4d696e746564204e465420772f20746f6b656e496420257320616e6420636861726163746572496e6465782025730a506c6179657220772f206368617261637465722025732061626f757420746f2061747461636b2e2048617320257320485020616e64202573204144a2646970667358221220a26be2bd416eefb4aae141d5e0d3112b77783d2dcbc8f9b9646b631570e286a164736f6c63430008000033446f6e6520696e697469616c697a696e6720257320772f2048502025732c20696d67202573446f6e6520696e697469616c697a696e6720626f737320257320772f2048502025732c20696d67202573",
  "linkReferences": {},
  "deployedLinkReferences": {}
}