{
  "_format": "hh-sol-artifact-1",
  "contractName": "MyEpicGame",
  "sourceName": "contracts/MyEpicGame.sol",
  "abi": [
    {
      "inputs": [
        {
          "internalType": "string[]",
          "name": "characterNames",
          "type": "string[]"
        },
        {
          "internalType": "string[]",
          "name": "characterImageURIs",
          "type": "string[]"
        },
        {
          "internalType": "uint256[]",
          "name": "characterHp",
          "type": "uint256[]"
        },
        {
          "internalType": "uint256[]",
          "name": "characterAttackDmg",
          "type": "uint256[]"
        },
        {
          "internalType": "uint256[]",
          "name": "characterDmgInflicted",
          "type": "uint256[]"
        },
        {
          "internalType": "string",
          "name": "bossName",
          "type": "string"
        },
        {
          "internalType": "string",
          "name": "bossImageURI",
          "type": "string"
        },
        {
          "internalType": "uint256",
          "name": "bossHp",
          "type": "uint256"
        },
        {
          "internalType": "uint256",
          "name": "bossAttackDamage",
          "type": "uint256"
        },
        {
          "internalType": "address",
          "name": "vrfCoordinatorAddress",
          "type": "address"
        },
        {
          "internalType": "address",
          "name": "linkTokenAddress",
          "type": "address"
        }
      ],
      "stateMutability": "nonpayable",
      "type": "constructor"
    },
    {
      "anonymous": false,
      "inputs": [
        {
          "indexed": true,
          "internalType": "address",
          "name": "owner",
          "type": "address"
        },
        {
          "indexed": true,
          "internalType": "address",
          "name": "approved",
          "type": "address"
        },
        {
          "indexed": true,
          "internalType": "uint256",
          "name": "tokenId",
          "type": "uint256"
        }
      ],
      "name": "Approval",
      "type": "event"
    },
    {
      "anonymous": false,
      "inputs": [
        {
          "indexed": true,
          "internalType": "address",
          "name": "owner",
          "type": "address"
        },
        {
          "indexed": true,
          "internalType": "address",
          "name": "operator",
          "type": "address"
        },
        {
          "indexed": false,
          "internalType": "bool",
          "name": "approved",
          "type": "bool"
        }
      ],
      "name": "ApprovalForAll",
      "type": "event"
    },
    {
      "anonymous": false,
      "inputs": [
        {
          "indexed": false,
          "internalType": "uint256",
          "name": "newBossHp",
          "type": "uint256"
        },
        {
          "indexed": false,
          "internalType": "uint256",
          "name": "newPlayerHp",
          "type": "uint256"
        },
        {
          "indexed": false,
          "internalType": "uint256",
          "name": "newPlayerDmgInflicted",
          "type": "uint256"
        }
      ],
      "name": "AttackComplete",
      "type": "event"
    },
    {
      "anonymous": false,
      "inputs": [
        {
          "indexed": false,
          "internalType": "address",
          "name": "sender",
          "type": "address"
        },
        {
          "indexed": false,
          "internalType": "uint256",
          "name": "tokenId",
          "type": "uint256"
        },
        {
          "indexed": false,
          "internalType": "uint256",
          "name": "characterIndex",
          "type": "uint256"
        }
      ],
      "name": "CharacterNFTMinted",
      "type": "event"
    },
    {
      "anonymous": false,
      "inputs": [
        {
          "indexed": false,
          "internalType": "uint256",
          "name": "characterIndex",
          "type": "uint256"
        }
      ],
      "name": "NFTMinted",
      "type": "event"
    },
    {
      "anonymous": false,
      "inputs": [
        {
          "indexed": true,
          "internalType": "address",
          "name": "from",
          "type": "address"
        },
        {
          "indexed": true,
          "internalType": "address",
          "name": "to",
          "type": "address"
        },
        {
          "indexed": true,
          "internalType": "uint256",
          "name": "tokenId",
          "type": "uint256"
        }
      ],
      "name": "Transfer",
      "type": "event"
    },
    {
      "inputs": [],
      "name": "LinkToken",
      "outputs": [
        {
          "internalType": "address",
          "name": "",
          "type": "address"
        }
      ],
      "stateMutability": "view",
      "type": "function"
    },
    {
      "inputs": [],
      "name": "VRFCoordinator",
      "outputs": [
        {
          "internalType": "address",
          "name": "",
          "type": "address"
        }
      ],
      "stateMutability": "view",
      "type": "function"
    },
    {
      "inputs": [
        {
          "internalType": "address",
          "name": "to",
          "type": "address"
        },
        {
          "internalType": "uint256",
          "name": "tokenId",
          "type": "uint256"
        }
      ],
      "name": "approve",
      "outputs": [],
      "stateMutability": "nonpayable",
      "type": "function"
    },
    {
      "inputs": [],
      "name": "attackBoss",
      "outputs": [],
      "stateMutability": "nonpayable",
      "type": "function"
    },
    {
      "inputs": [
        {
          "internalType": "address",
          "name": "owner",
          "type": "address"
        }
      ],
      "name": "balanceOf",
      "outputs": [
        {
          "internalType": "uint256",
          "name": "",
          "type": "uint256"
        }
      ],
      "stateMutability": "view",
      "type": "function"
    },
    {
      "inputs": [],
      "name": "bigBoss",
      "outputs": [
        {
          "internalType": "string",
          "name": "name",
          "type": "string"
        },
        {
          "internalType": "string",
          "name": "imageURI",
          "type": "string"
        },
        {
          "internalType": "uint256",
          "name": "hp",
          "type": "uint256"
        },
        {
          "internalType": "uint256",
          "name": "maxHp",
          "type": "uint256"
        },
        {
          "internalType": "uint256",
          "name": "attackDamage",
          "type": "uint256"
        }
      ],
      "stateMutability": "view",
      "type": "function"
    },
    {
      "inputs": [],
      "name": "checkIfUserHasNFT",
      "outputs": [
        {
          "components": [
            {
              "internalType": "uint256",
              "name": "characterIndex",
              "type": "uint256"
            },
            {
              "internalType": "string",
              "name": "name",
              "type": "string"
            },
            {
              "internalType": "string",
              "name": "imageURI",
              "type": "string"
            },
            {
              "internalType": "uint256",
              "name": "hp",
              "type": "uint256"
            },
            {
              "internalType": "uint256",
              "name": "maxHp",
              "type": "uint256"
            },
            {
              "internalType": "uint256",
              "name": "attackDamage",
              "type": "uint256"
            },
            {
              "internalType": "uint256",
              "name": "damageInflicted",
              "type": "uint256"
            }
          ],
          "internalType": "struct MyEpicGame.CharacterAttributes",
          "name": "",
          "type": "tuple"
        }
      ],
      "stateMutability": "view",
      "type": "function"
    },
    {
      "inputs": [],
      "name": "getAllDefaultCharacters",
      "outputs": [
        {
          "components": [
            {
              "internalType": "uint256",
              "name": "characterIndex",
              "type": "uint256"
            },
            {
              "internalType": "string",
              "name": "name",
              "type": "string"
            },
            {
              "internalType": "string",
              "name": "imageURI",
              "type": "string"
            },
            {
              "internalType": "uint256",
              "name": "hp",
              "type": "uint256"
            },
            {
              "internalType": "uint256",
              "name": "maxHp",
              "type": "uint256"
            },
            {
              "internalType": "uint256",
              "name": "attackDamage",
              "type": "uint256"
            },
            {
              "internalType": "uint256",
              "name": "damageInflicted",
              "type": "uint256"
            }
          ],
          "internalType": "struct MyEpicGame.CharacterAttributes[]",
          "name": "",
          "type": "tuple[]"
        }
      ],
      "stateMutability": "view",
      "type": "function"
    },
    {
      "inputs": [],
      "name": "getAllPlayers",
      "outputs": [
        {
          "components": [
            {
              "internalType": "uint256",
              "name": "id",
              "type": "uint256"
            },
            {
              "internalType": "address",
              "name": "wallet",
              "type": "address"
            }
          ],
          "internalType": "struct MyEpicGame.AllPlayers[]",
          "name": "",
          "type": "tuple[]"
        }
      ],
      "stateMutability": "view",
      "type": "function"
    },
    {
      "inputs": [
        {
          "internalType": "uint256",
          "name": "tokenId",
          "type": "uint256"
        }
      ],
      "name": "getApproved",
      "outputs": [
        {
          "internalType": "address",
          "name": "",
          "type": "address"
        }
      ],
      "stateMutability": "view",
      "type": "function"
    },
    {
      "inputs": [],
      "name": "getBigBoss",
      "outputs": [
        {
          "components": [
            {
              "internalType": "string",
              "name": "name",
              "type": "string"
            },
            {
              "internalType": "string",
              "name": "imageURI",
              "type": "string"
            },
            {
              "internalType": "uint256",
              "name": "hp",
              "type": "uint256"
            },
            {
              "internalType": "uint256",
              "name": "maxHp",
              "type": "uint256"
            },
            {
              "internalType": "uint256",
              "name": "attackDamage",
              "type": "uint256"
            }
          ],
          "internalType": "struct MyEpicGame.BigBoss",
          "name": "",
          "type": "tuple"
        }
      ],
      "stateMutability": "view",
      "type": "function"
    },
    {
      "inputs": [],
      "name": "getRandomNumber",
      "outputs": [
        {
          "internalType": "bytes32",
          "name": "requestId",
          "type": "bytes32"
        }
      ],
      "stateMutability": "nonpayable",
      "type": "function"
    },
    {
      "inputs": [
        {
          "internalType": "uint256",
          "name": "_tokenId",
          "type": "uint256"
        }
      ],
      "name": "getUserNFTCharacterAttributes",
      "outputs": [
        {
          "components": [
            {
              "internalType": "uint256",
              "name": "characterIndex",
              "type": "uint256"
            },
            {
              "internalType": "string",
              "name": "name",
              "type": "string"
            },
            {
              "internalType": "string",
              "name": "imageURI",
              "type": "string"
            },
            {
              "internalType": "uint256",
              "name": "hp",
              "type": "uint256"
            },
            {
              "internalType": "uint256",
              "name": "maxHp",
              "type": "uint256"
            },
            {
              "internalType": "uint256",
              "name": "attackDamage",
              "type": "uint256"
            },
            {
              "internalType": "uint256",
              "name": "damageInflicted",
              "type": "uint256"
            }
          ],
          "internalType": "struct MyEpicGame.CharacterAttributes",
          "name": "",
          "type": "tuple"
        }
      ],
      "stateMutability": "view",
      "type": "function"
    },
    {
      "inputs": [
        {
          "internalType": "address",
          "name": "owner",
          "type": "address"
        },
        {
          "internalType": "address",
          "name": "operator",
          "type": "address"
        }
      ],
      "name": "isApprovedForAll",
      "outputs": [
        {
          "internalType": "bool",
          "name": "",
          "type": "bool"
        }
      ],
      "stateMutability": "view",
      "type": "function"
    },
    {
      "inputs": [
        {
          "internalType": "uint256",
          "name": "_characterIndex",
          "type": "uint256"
        }
      ],
      "name": "mintCharacterNFT",
      "outputs": [],
      "stateMutability": "nonpayable",
      "type": "function"
    },
    {
      "inputs": [],
      "name": "name",
      "outputs": [
        {
          "internalType": "string",
          "name": "",
          "type": "string"
        }
      ],
      "stateMutability": "view",
      "type": "function"
    },
    {
      "inputs": [
        {
          "internalType": "uint256",
          "name": "",
          "type": "uint256"
        }
      ],
      "name": "nftHolderAttributes",
      "outputs": [
        {
          "internalType": "uint256",
          "name": "characterIndex",
          "type": "uint256"
        },
        {
          "internalType": "string",
          "name": "name",
          "type": "string"
        },
        {
          "internalType": "string",
          "name": "imageURI",
          "type": "string"
        },
        {
          "internalType": "uint256",
          "name": "hp",
          "type": "uint256"
        },
        {
          "internalType": "uint256",
          "name": "maxHp",
          "type": "uint256"
        },
        {
          "internalType": "uint256",
          "name": "attackDamage",
          "type": "uint256"
        },
        {
          "internalType": "uint256",
          "name": "damageInflicted",
          "type": "uint256"
        }
      ],
      "stateMutability": "view",
      "type": "function"
    },
    {
      "inputs": [
        {
          "internalType": "address",
          "name": "",
          "type": "address"
        }
      ],
      "name": "nftHolders",
      "outputs": [
        {
          "internalType": "uint256",
          "name": "",
          "type": "uint256"
        }
      ],
      "stateMutability": "view",
      "type": "function"
    },
    {
      "inputs": [
        {
          "internalType": "uint256",
          "name": "tokenId",
          "type": "uint256"
        }
      ],
      "name": "ownerOf",
      "outputs": [
        {
          "internalType": "address",
          "name": "",
          "type": "address"
        }
      ],
      "stateMutability": "view",
      "type": "function"
    },
    {
      "inputs": [],
      "name": "randomResult",
      "outputs": [
        {
          "internalType": "uint256",
          "name": "",
          "type": "uint256"
        }
      ],
      "stateMutability": "view",
      "type": "function"
    },
    {
      "inputs": [
        {
          "internalType": "bytes32",
          "name": "requestId",
          "type": "bytes32"
        },
        {
          "internalType": "uint256",
          "name": "randomness",
          "type": "uint256"
        }
      ],
      "name": "rawFulfillRandomness",
      "outputs": [],
      "stateMutability": "nonpayable",
      "type": "function"
    },
    {
      "inputs": [
        {
          "internalType": "address",
          "name": "from",
          "type": "address"
        },
        {
          "internalType": "address",
          "name": "to",
          "type": "address"
        },
        {
          "internalType": "uint256",
          "name": "tokenId",
          "type": "uint256"
        }
      ],
      "name": "safeTransferFrom",
      "outputs": [],
      "stateMutability": "nonpayable",
      "type": "function"
    },
    {
      "inputs": [
        {
          "internalType": "address",
          "name": "from",
          "type": "address"
        },
        {
          "internalType": "address",
          "name": "to",
          "type": "address"
        },
        {
          "internalType": "uint256",
          "name": "tokenId",
          "type": "uint256"
        },
        {
          "internalType": "bytes",
          "name": "_data",
          "type": "bytes"
        }
      ],
      "name": "safeTransferFrom",
      "outputs": [],
      "stateMutability": "nonpayable",
      "type": "function"
    },
    {
      "inputs": [
        {
          "internalType": "address",
          "name": "operator",
          "type": "address"
        },
        {
          "internalType": "bool",
          "name": "approved",
          "type": "bool"
        }
      ],
      "name": "setApprovalForAll",
      "outputs": [],
      "stateMutability": "nonpayable",
      "type": "function"
    },
    {
      "inputs": [
        {
          "internalType": "bytes4",
          "name": "interfaceId",
          "type": "bytes4"
        }
      ],
      "name": "supportsInterface",
      "outputs": [
        {
          "internalType": "bool",
          "name": "",
          "type": "bool"
        }
      ],
      "stateMutability": "view",
      "type": "function"
    },
    {
      "inputs": [],
      "name": "symbol",
      "outputs": [
        {
          "internalType": "string",
          "name": "",
          "type": "string"
        }
      ],
      "stateMutability": "view",
      "type": "function"
    },
    {
      "inputs": [
        {
          "internalType": "uint256",
          "name": "_tokenId",
          "type": "uint256"
        }
      ],
      "name": "tokenURI",
      "outputs": [
        {
          "internalType": "string",
          "name": "",
          "type": "string"
        }
      ],
      "stateMutability": "view",
      "type": "function"
    },
    {
      "inputs": [
        {
          "internalType": "address",
          "name": "from",
          "type": "address"
        },
        {
          "internalType": "address",
          "name": "to",
          "type": "address"
        },
        {
          "internalType": "uint256",
          "name": "tokenId",
          "type": "uint256"
        }
      ],
      "name": "transferFrom",
      "outputs": [],
      "stateMutability": "nonpayable",
      "type": "function"
    }
  ],
  "bytecode": "0x60c06040523480156200001157600080fd5b50604051620064ed380380620064ed833981810160405281019062000037919062000c04565b81816040518060400160405280600581526020017f44436c75620000000000000000000000000000000000000000000000000000008152506040518060400160405280600481526020017f54455354000000000000000000000000000000000000000000000000000000008152508160009080519060200190620000bd92919062000980565b508060019080519060200190620000d692919062000980565b5050508173ffffffffffffffffffffffffffffffffffffffff1660a08173ffffffffffffffffffffffffffffffffffffffff1660601b815250508073ffffffffffffffffffffffffffffffffffffffff1660808173ffffffffffffffffffffffffffffffffffffffff1660601b8152505050507f2ed0feb3e7fd2022120aa84fab1945545a9f2ffc9076fd6156fa96eaff4c131160001b60118190555067016345785d8a000060128190555081601360006101000a81548173ffffffffffffffffffffffffffffffffffffffff021916908373ffffffffffffffffffffffffffffffffffffffff16021790555080601460006101000a81548173ffffffffffffffffffffffffffffffffffffffff021916908373ffffffffffffffffffffffffffffffffffffffff16021790555060016015819055506040518060a0016040528087815260200186815260200185815260200185815260200184815250600b60008201518160000190805190602001906200025392919062000980565b5060208201518160010190805190602001906200027292919062000980565b50604082015181600201556060820151816003015560808201518160040155905050620003f56040518060600160405280602a8152602001620064c3602a9139600b6000018054620002c49062001020565b80601f0160208091040260200160405190810160405280929190818152602001828054620002f29062001020565b8015620003435780601f10620003175761010080835404028352916020019162000343565b820191906000526020600020905b8154815290600101906020018083116200032557829003601f168201915b5050505050600b60020154600b6001018054620003609062001020565b80601f01602080910402602001604051908101604052809291908181526020018280546200038e9062001020565b8015620003df5780601f10620003b357610100808354040283529160200191620003df565b820191906000526020600020905b815481529060010190602001808311620003c157829003601f168201915b50505050506200089560201b620022e81760201c565b60005b8b518110156200086c5760076040518060e001604052808381526020018e84815181106200044f577f4e487b7100000000000000000000000000000000000000000000000000000000600052603260045260246000fd5b602002602001015181526020018d848151811062000496577f4e487b7100000000000000000000000000000000000000000000000000000000600052603260045260246000fd5b602002602001015181526020018c8481518110620004dd577f4e487b7100000000000000000000000000000000000000000000000000000000600052603260045260246000fd5b602002602001015181526020018c848151811062000524577f4e487b7100000000000000000000000000000000000000000000000000000000600052603260045260246000fd5b602002602001015181526020018b84815181106200056b577f4e487b7100000000000000000000000000000000000000000000000000000000600052603260045260246000fd5b602002602001015181526020018a8481518110620005b2577f4e487b7100000000000000000000000000000000000000000000000000000000600052603260045260246000fd5b602002602001015181525090806001815401808255809150506001900390600052602060002090600702016000909190919091506000820151816000015560208201518160010190805190602001906200060e92919062000980565b5060408201518160020190805190602001906200062d92919062000980565b50606082015181600301556080820151816004015560a0820151816005015560c08201518160060155505060006007828154811062000695577f4e487b7100000000000000000000000000000000000000000000000000000000600052603260045260246000fd5b90600052602060002090600702016040518060e001604052908160008201548152602001600182018054620006ca9062001020565b80601f0160208091040260200160405190810160405280929190818152602001828054620006f89062001020565b8015620007495780601f106200071d5761010080835404028352916020019162000749565b820191906000526020600020905b8154815290600101906020018083116200072b57829003601f168201915b50505050508152602001600282018054620007649062001020565b80601f0160208091040260200160405190810160405280929190818152602001828054620007929062001020565b8015620007e35780601f10620007b757610100808354040283529160200191620007e3565b820191906000526020600020905b815481529060010190602001808311620007c557829003601f168201915b505050505081526020016003820154815260200160048201548152602001600582015481526020016006820154815250509050620008546040518060600160405280602581526020016200649e602591398260200151836060015184604001516200089560201b620022e81760201c565b5060018162000864919062000f4f565b9050620003f8565b5062000884600a6200094160201b6200238a1760201c565b505050505050505050505062001128565b6200093b84848484604051602401620008b2949392919062000e0c565b6040516020818303038152906040527f8d142cdd000000000000000000000000000000000000000000000000000000007bffffffffffffffffffffffffffffffffffffffffffffffffffffffff19166020820180517bffffffffffffffffffffffffffffffffffffffffffffffffffffffff83818316178352505050506200095760201b60201c565b50505050565b6001816000016000828254019250508190555050565b60008151905060006a636f6e736f6c652e6c6f679050602083016000808483855afa5050505050565b8280546200098e9062001020565b90600052602060002090601f016020900481019282620009b25760008555620009fe565b82601f10620009cd57805160ff1916838001178555620009fe565b82800160010185558215620009fe579182015b82811115620009fd578251825591602001919060010190620009e0565b5b50905062000a0d919062000a11565b5090565b5b8082111562000a2c57600081600090555060010162000a12565b5090565b600062000a4762000a418462000ea2565b62000e6e565b9050808382526020820190508260005b8581101562000a8b578151850162000a70888262000bc0565b84526020840193506020830192505060018101905062000a57565b5050509392505050565b600062000aac62000aa68462000ed1565b62000e6e565b9050808382526020820190508285602086028201111562000acc57600080fd5b60005b8581101562000b00578162000ae5888262000bed565b84526020840193506020830192505060018101905062000acf565b5050509392505050565b600062000b2162000b1b8462000f00565b62000e6e565b90508281526020810184848401111562000b3a57600080fd5b62000b4784828562000fea565b509392505050565b60008151905062000b6081620010f4565b92915050565b600082601f83011262000b7857600080fd5b815162000b8a84826020860162000a30565b91505092915050565b600082601f83011262000ba557600080fd5b815162000bb784826020860162000a95565b91505092915050565b600082601f83011262000bd257600080fd5b815162000be484826020860162000b0a565b91505092915050565b60008151905062000bfe816200110e565b92915050565b60008060008060008060008060008060006101608c8e03121562000c2757600080fd5b60008c015167ffffffffffffffff81111562000c4257600080fd5b62000c508e828f0162000b66565b9b505060208c015167ffffffffffffffff81111562000c6e57600080fd5b62000c7c8e828f0162000b66565b9a505060408c015167ffffffffffffffff81111562000c9a57600080fd5b62000ca88e828f0162000b93565b99505060608c015167ffffffffffffffff81111562000cc657600080fd5b62000cd48e828f0162000b93565b98505060808c015167ffffffffffffffff81111562000cf257600080fd5b62000d008e828f0162000b93565b97505060a08c015167ffffffffffffffff81111562000d1e57600080fd5b62000d2c8e828f0162000bc0565b96505060c08c015167ffffffffffffffff81111562000d4a57600080fd5b62000d588e828f0162000bc0565b95505060e062000d6b8e828f0162000bed565b94505061010062000d7f8e828f0162000bed565b93505061012062000d938e828f0162000b4f565b92505061014062000da78e828f0162000b4f565b9150509295989b509295989b9093969950565b600062000dc78262000f33565b62000dd3818562000f3e565b935062000de581856020860162000fea565b62000df081620010e3565b840191505092915050565b62000e068162000fe0565b82525050565b6000608082019050818103600083015262000e28818762000dba565b9050818103602083015262000e3e818662000dba565b905062000e4f604083018562000dfb565b818103606083015262000e63818462000dba565b905095945050505050565b6000604051905081810181811067ffffffffffffffff8211171562000e985762000e97620010b4565b5b8060405250919050565b600067ffffffffffffffff82111562000ec05762000ebf620010b4565b5b602082029050602081019050919050565b600067ffffffffffffffff82111562000eef5762000eee620010b4565b5b602082029050602081019050919050565b600067ffffffffffffffff82111562000f1e5762000f1d620010b4565b5b601f19601f8301169050602081019050919050565b600081519050919050565b600082825260208201905092915050565b600062000f5c8262000fe0565b915062000f698362000fe0565b9250827fffffffffffffffffffffffffffffffffffffffffffffffffffffffffffffffff0382111562000fa15762000fa062001056565b5b828201905092915050565b600062000fb98262000fc0565b9050919050565b600073ffffffffffffffffffffffffffffffffffffffff82169050919050565b6000819050919050565b60005b838110156200100a57808201518184015260208101905062000fed565b838111156200101a576000848401525b50505050565b600060028204905060018216806200103957607f821691505b6020821081141562001050576200104f62001085565b5b50919050565b7f4e487b7100000000000000000000000000000000000000000000000000000000600052601160045260246000fd5b7f4e487b7100000000000000000000000000000000000000000000000000000000600052602260045260246000fd5b7f4e487b7100000000000000000000000000000000000000000000000000000000600052604160045260246000fd5b6000601f19601f8301169050919050565b620010ff8162000fac565b81146200110b57600080fd5b50565b620011198162000fe0565b81146200112557600080fd5b50565b60805160601c60a05160601c61533c6200116260003960008181610c5e0152612c8f0152600081816119a30152612c53015261533c6000f3fe608060405234801561001057600080fd5b50600436106101c45760003560e01c806395d89b41116100f9578063c8cf27f411610097578063e985e9c511610071578063e985e9c514610501578063efa1c48214610531578063f8b81ef71461054f578063fc02a1391461056b576101c4565b8063c8cf27f4146104bb578063d4f24c5b146104d9578063dbdff2c1146104e3576101c4565b8063a9c32679116100d3578063a9c326791461042f578063b88d4fde14610451578063b953084e1461046d578063c87b56dd1461048b576101c4565b806395d89b41146103bf57806398da4c95146103dd578063a22cb46514610413576101c4565b806342619f66116101665780636352211e116101405780636352211e1461031357806370a08231146103435780637df124a11461037357806394985ddd146103a3576101c4565b806342619f66146102bb57806342842e0e146102d95780634f8e2fdf146102f5576101c4565b8063081812fc116101a2578063081812fc14610235578063095ea7b31461026557806323b872dd1461028157806333b608631461029d576101c4565b806301ffc9a7146101c95780630665f961146101f957806306fdde0314610217575b600080fd5b6101e360048036038101906101de91906137b6565b61059b565b6040516101f0919061482c565b60405180910390f35b61020161067d565b60405161020e9190614c49565b60405180910390f35b61021f6107d9565b60405161022c91906148d0565b60405180910390f35b61024f600480360381019061024a9190613808565b61086b565b60405161025c919061470c565b60405180910390f35b61027f600480360381019061027a9190613715565b6108f0565b005b61029b6004803603810190610296919061360f565b610a08565b005b6102a5610a68565b6040516102b2919061470c565b60405180910390f35b6102c3610a8e565b6040516102d09190614c8d565b60405180910390f35b6102f360048036038101906102ee919061360f565b610a94565b005b6102fd610ab4565b60405161030a919061470c565b60405180910390f35b61032d60048036038101906103289190613808565b610ada565b60405161033a919061470c565b60405180910390f35b61035d600480360381019061035891906135aa565b610b8c565b60405161036a9190614c8d565b60405180910390f35b61038d600480360381019061038891906135aa565b610c44565b60405161039a9190614c8d565b60405180910390f35b6103bd60048036038101906103b8919061377a565b610c5c565b005b6103c7610cf8565b6040516103d491906148d0565b60405180910390f35b6103f760048036038101906103f29190613808565b610d8a565b60405161040a9796959493929190614ca8565b60405180910390f35b61042d600480360381019061042891906136d9565b610edc565b005b61043761105d565b60405161044895949392919061494c565b60405180910390f35b61046b6004803603810190610466919061365e565b611191565b005b6104756111f3565b604051610482919061480a565b60405180910390f35b6104a560048036038101906104a09190613808565b6113a8565b6040516104b291906148d0565b60405180910390f35b6104c36115e1565b6040516104d09190614c6b565b60405180910390f35b6104e16117c3565b005b6104eb61199c565b6040516104f89190614847565b60405180910390f35b61051b600480360381019061051691906135d3565b611a9e565b604051610528919061482c565b60405180910390f35b610539611b32565b60405161054691906147e8565b60405180910390f35b61056960048036038101906105649190613808565b611bf1565b005b61058560048036038101906105809190613808565b612143565b6040516105929190614c6b565b60405180910390f35b60007f80ac58cd000000000000000000000000000000000000000000000000000000007bffffffffffffffffffffffffffffffffffffffffffffffffffffffff1916827bffffffffffffffffffffffffffffffffffffffffffffffffffffffff1916148061066657507f5b5e139f000000000000000000000000000000000000000000000000000000007bffffffffffffffffffffffffffffffffffffffffffffffffffffffff1916827bffffffffffffffffffffffffffffffffffffffffffffffffffffffff1916145b806106765750610675826123a0565b5b9050919050565b61068561338b565b600b6040518060a00160405290816000820180546106a290615058565b80601f01602080910402602001604051908101604052809291908181526020018280546106ce90615058565b801561071b5780601f106106f05761010080835404028352916020019161071b565b820191906000526020600020905b8154815290600101906020018083116106fe57829003601f168201915b5050505050815260200160018201805461073490615058565b80601f016020809104026020016040519081016040528092919081815260200182805461076090615058565b80156107ad5780601f10610782576101008083540402835291602001916107ad565b820191906000526020600020905b81548152906001019060200180831161079057829003601f168201915b505050505081526020016002820154815260200160038201548152602001600482015481525050905090565b6060600080546107e890615058565b80601f016020809104026020016040519081016040528092919081815260200182805461081490615058565b80156108615780601f1061083657610100808354040283529160200191610861565b820191906000526020600020905b81548152906001019060200180831161084457829003601f168201915b5050505050905090565b60006108768261240a565b6108b5576040517f08c379a00000000000000000000000000000000000000000000000000000000081526004016108ac90614ba9565b60405180910390fd5b6004600083815260200190815260200160002060009054906101000a900473ffffffffffffffffffffffffffffffffffffffff169050919050565b60006108fb82610ada565b90508073ffffffffffffffffffffffffffffffffffffffff168373ffffffffffffffffffffffffffffffffffffffff16141561096c576040517f08c379a000000000000000000000000000000000000000000000000000000000815260040161096390614c09565b60405180910390fd5b8073ffffffffffffffffffffffffffffffffffffffff1661098b612476565b73ffffffffffffffffffffffffffffffffffffffff1614806109ba57506109b9816109b4612476565b611a9e565b5b6109f9576040517f08c379a00000000000000000000000000000000000000000000000000000000081526004016109f090614b09565b60405180910390fd5b610a03838361247e565b505050565b610a19610a13612476565b82612537565b610a58576040517f08c379a0000000000000000000000000000000000000000000000000000000008152600401610a4f90614c29565b60405180910390fd5b610a63838383612615565b505050565b601360009054906101000a900473ffffffffffffffffffffffffffffffffffffffff1681565b60155481565b610aaf83838360405180602001604052806000815250611191565b505050565b601460009054906101000a900473ffffffffffffffffffffffffffffffffffffffff1681565b6000806002600084815260200190815260200160002060009054906101000a900473ffffffffffffffffffffffffffffffffffffffff169050600073ffffffffffffffffffffffffffffffffffffffff168173ffffffffffffffffffffffffffffffffffffffff161415610b83576040517f08c379a0000000000000000000000000000000000000000000000000000000008152600401610b7a90614b49565b60405180910390fd5b80915050919050565b60008073ffffffffffffffffffffffffffffffffffffffff168273ffffffffffffffffffffffffffffffffffffffff161415610bfd576040517f08c379a0000000000000000000000000000000000000000000000000000000008152600401610bf490614b29565b60405180910390fd5b600360008373ffffffffffffffffffffffffffffffffffffffff1673ffffffffffffffffffffffffffffffffffffffff168152602001908152602001600020549050919050565b60096020528060005260406000206000915090505481565b7f000000000000000000000000000000000000000000000000000000000000000073ffffffffffffffffffffffffffffffffffffffff163373ffffffffffffffffffffffffffffffffffffffff1614610cea576040517f08c379a0000000000000000000000000000000000000000000000000000000008152600401610ce190614be9565b60405180910390fd5b610cf48282612871565b5050565b606060018054610d0790615058565b80601f0160208091040260200160405190810160405280929190818152602001828054610d3390615058565b8015610d805780601f10610d5557610100808354040283529160200191610d80565b820191906000526020600020905b815481529060010190602001808311610d6357829003601f168201915b5050505050905090565b6008602052806000526040600020600091509050806000015490806001018054610db390615058565b80601f0160208091040260200160405190810160405280929190818152602001828054610ddf90615058565b8015610e2c5780601f10610e0157610100808354040283529160200191610e2c565b820191906000526020600020905b815481529060010190602001808311610e0f57829003601f168201915b505050505090806002018054610e4190615058565b80601f0160208091040260200160405190810160405280929190818152602001828054610e6d90615058565b8015610eba5780601f10610e8f57610100808354040283529160200191610eba565b820191906000526020600020905b815481529060010190602001808311610e9d57829003601f168201915b5050505050908060030154908060040154908060050154908060060154905087565b610ee4612476565b73ffffffffffffffffffffffffffffffffffffffff168273ffffffffffffffffffffffffffffffffffffffff161415610f52576040517f08c379a0000000000000000000000000000000000000000000000000000000008152600401610f4990614aa9565b60405180910390fd5b8060056000610f5f612476565b73ffffffffffffffffffffffffffffffffffffffff1673ffffffffffffffffffffffffffffffffffffffff16815260200190815260200160002060008473ffffffffffffffffffffffffffffffffffffffff1673ffffffffffffffffffffffffffffffffffffffff16815260200190815260200160002060006101000a81548160ff0219169083151502179055508173ffffffffffffffffffffffffffffffffffffffff1661100c612476565b73ffffffffffffffffffffffffffffffffffffffff167f17307eab39ab6107e8899845ad3d59bd9653f200f220920489ca2b5937696c3183604051611051919061482c565b60405180910390a35050565b600b80600001805461106e90615058565b80601f016020809104026020016040519081016040528092919081815260200182805461109a90615058565b80156110e75780601f106110bc576101008083540402835291602001916110e7565b820191906000526020600020905b8154815290600101906020018083116110ca57829003601f168201915b5050505050908060010180546110fc90615058565b80601f016020809104026020016040519081016040528092919081815260200182805461112890615058565b80156111755780601f1061114a57610100808354040283529160200191611175565b820191906000526020600020905b81548152906001019060200180831161115857829003601f168201915b5050505050908060020154908060030154908060040154905085565b6111a261119c612476565b83612537565b6111e1576040517f08c379a00000000000000000000000000000000000000000000000000000000081526004016111d890614c29565b60405180910390fd5b6111ed84848484612888565b50505050565b60606007805480602002602001604051908101604052809291908181526020016000905b8282101561139f57838290600052602060002090600702016040518060e00160405290816000820154815260200160018201805461125490615058565b80601f016020809104026020016040519081016040528092919081815260200182805461128090615058565b80156112cd5780601f106112a2576101008083540402835291602001916112cd565b820191906000526020600020905b8154815290600101906020018083116112b057829003601f168201915b505050505081526020016002820180546112e690615058565b80601f016020809104026020016040519081016040528092919081815260200182805461131290615058565b801561135f5780601f106113345761010080835404028352916020019161135f565b820191906000526020600020905b81548152906001019060200180831161134257829003601f168201915b5050505050815260200160038201548152602001600482015481526020016005820154815260200160068201548152505081526020019060010190611217565b50505050905090565b60606000600860008481526020019081526020016000206040518060e0016040529081600082015481526020016001820180546113e490615058565b80601f016020809104026020016040519081016040528092919081815260200182805461141090615058565b801561145d5780601f106114325761010080835404028352916020019161145d565b820191906000526020600020905b81548152906001019060200180831161144057829003601f168201915b5050505050815260200160028201805461147690615058565b80601f01602080910402602001604051908101604052809291908181526020018280546114a290615058565b80156114ef5780601f106114c4576101008083540402835291602001916114ef565b820191906000526020600020905b8154815290600101906020018083116114d257829003601f168201915b505050505081526020016003820154815260200160048201548152602001600582015481526020016006820154815250509050600061153182606001516128e4565b9050600061154283608001516128e4565b905060006115538460a001516128e4565b905060006115648560c001516128e4565b905060006115ac86602001516115798a6128e4565b886040015188888888604051602001611598979695949392919061462d565b604051602081830303815290604052612a91565b90506000816040516020016115c191906146ea565b604051602081830303815290604052905080975050505050505050919050565b6115e96133ba565b6000600960003373ffffffffffffffffffffffffffffffffffffffff1673ffffffffffffffffffffffffffffffffffffffff16815260200190815260200160002054905060008111156117b257600860008281526020019081526020016000206040518060e00160405290816000820154815260200160018201805461166e90615058565b80601f016020809104026020016040519081016040528092919081815260200182805461169a90615058565b80156116e75780601f106116bc576101008083540402835291602001916116e7565b820191906000526020600020905b8154815290600101906020018083116116ca57829003601f168201915b5050505050815260200160028201805461170090615058565b80601f016020809104026020016040519081016040528092919081815260200182805461172c90615058565b80156117795780601f1061174e57610100808354040283529160200191611779565b820191906000526020600020905b81548152906001019060200180831161175c57829003601f168201915b505050505081526020016003820154815260200160048201548152602001600582015481526020016006820154815250509150506117c0565b6117ba6133ba565b80925050505b90565b6000600960003373ffffffffffffffffffffffffffffffffffffffff1673ffffffffffffffffffffffffffffffffffffffff16815260200190815260200160002054905060006008600083815260200190815260200160002090506000816003015411611865576040517f08c379a000000000000000000000000000000000000000000000000000000000815260040161185c90614b69565b60405180910390fd5b6000600b60020154116118ad576040517f08c379a00000000000000000000000000000000000000000000000000000000081526004016118a490614a49565b60405180910390fd5b8060050154600b6002015410156118ce576000600b60020181905550611909565b8060050154600b600201546118e39190614f64565b600b60020181905550806005015481600601546119009190614e83565b81600601819055505b600b60040154816003015410156119295760008160030181905550611947565b600b60040154816003015461193e9190614f64565b81600301819055505b61194f61199c565b507fa8f68fa0afad68f1577a1c5c66c297b751442bbab5e98c25f07ee510a921558c600b600201548260030154836006015460405161199093929190614d25565b60405180910390a15050565b60006012547f000000000000000000000000000000000000000000000000000000000000000073ffffffffffffffffffffffffffffffffffffffff166370a08231306040518263ffffffff1660e01b81526004016119fa919061470c565b60206040518083038186803b158015611a1257600080fd5b505afa158015611a26573d6000803e3d6000fd5b505050506040513d601f19601f82011682018060405250810190611a4a9190613831565b1015611a8b576040517f08c379a0000000000000000000000000000000000000000000000000000000008152600401611a8290614ac9565b60405180910390fd5b611a99601154601254612c4f565b905090565b6000600560008473ffffffffffffffffffffffffffffffffffffffff1673ffffffffffffffffffffffffffffffffffffffff16815260200190815260200160002060008373ffffffffffffffffffffffffffffffffffffffff1673ffffffffffffffffffffffffffffffffffffffff16815260200190815260200160002060009054906101000a900460ff16905092915050565b60606010805480602002602001604051908101604052809291908181526020016000905b82821015611be85783829060005260206000209060020201604051806040016040529081600082015481526020016001820160009054906101000a900473ffffffffffffffffffffffffffffffffffffffff1673ffffffffffffffffffffffffffffffffffffffff1673ffffffffffffffffffffffffffffffffffffffff168152505081526020019060010190611b56565b50505050905090565b6000611bfd600a612db1565b9050611c093382612dbf565b6040518060e0016040528083815260200160078481548110611c54577f4e487b7100000000000000000000000000000000000000000000000000000000600052603260045260246000fd5b90600052602060002090600702016001018054611c7090615058565b80601f0160208091040260200160405190810160405280929190818152602001828054611c9c90615058565b8015611ce95780601f10611cbe57610100808354040283529160200191611ce9565b820191906000526020600020905b815481529060010190602001808311611ccc57829003601f168201915b5050505050815260200160078481548110611d2d577f4e487b7100000000000000000000000000000000000000000000000000000000600052603260045260246000fd5b90600052602060002090600702016002018054611d4990615058565b80601f0160208091040260200160405190810160405280929190818152602001828054611d7590615058565b8015611dc25780601f10611d9757610100808354040283529160200191611dc2565b820191906000526020600020905b815481529060010190602001808311611da557829003601f168201915b5050505050815260200160078481548110611e06577f4e487b7100000000000000000000000000000000000000000000000000000000600052603260045260246000fd5b906000526020600020906007020160030154815260200160078481548110611e57577f4e487b7100000000000000000000000000000000000000000000000000000000600052603260045260246000fd5b906000526020600020906007020160030154815260200160078481548110611ea8577f4e487b7100000000000000000000000000000000000000000000000000000000600052603260045260246000fd5b906000526020600020906007020160050154815260200160078481548110611ef9577f4e487b7100000000000000000000000000000000000000000000000000000000600052603260045260246000fd5b90600052602060002090600702016006015481525060086000838152602001908152602001600020600082015181600001556020820151816001019080519060200190611f479291906133f7565b506040820151816002019080519060200190611f649291906133f7565b50606082015181600301556080820151816004015560a0820151816005015560c08201518160060155905050611fb36040518060600160405280602e81526020016152d9602e91398284612ddd565b601060405180604001604052808381526020013373ffffffffffffffffffffffffffffffffffffffff1681525090806001815401808255809150506001900390600052602060002090600202016000909190919091506000820151816000015560208201518160010160006101000a81548173ffffffffffffffffffffffffffffffffffffffff021916908373ffffffffffffffffffffffffffffffffffffffff160217905550505061207f604051806060016040528060408152602001615259604091398233612e7c565b80600960003373ffffffffffffffffffffffffffffffffffffffff1673ffffffffffffffffffffffffffffffffffffffff168152602001908152602001600020819055506120cd600a61238a565b7f4bc303fd457a97b4691b9af582ce71868a3d258638c8d4f8c60988a0f0bfb8cd338284604051612100939291906147b1565b60405180910390a17fd9dc24857f317ed9abbbb42e920ede0104231eb1d3d70236a74887ffaf159868826040516121379190614c8d565b60405180910390a15050565b61214b6133ba565b600082905060008111156122d557600860008281526020019081526020016000206040518060e00160405290816000820154815260200160018201805461219190615058565b80601f01602080910402602001604051908101604052809291908181526020018280546121bd90615058565b801561220a5780601f106121df5761010080835404028352916020019161220a565b820191906000526020600020905b8154815290600101906020018083116121ed57829003601f168201915b5050505050815260200160028201805461222390615058565b80601f016020809104026020016040519081016040528092919081815260200182805461224f90615058565b801561229c5780601f106122715761010080835404028352916020019161229c565b820191906000526020600020905b81548152906001019060200180831161227f57829003601f168201915b505050505081526020016003820154815260200160048201548152602001600582015481526020016006820154815250509150506122e3565b6122dd6133ba565b80925050505b919050565b6123848484848460405160240161230294939291906148f2565b6040516020818303038152906040527f8d142cdd000000000000000000000000000000000000000000000000000000007bffffffffffffffffffffffffffffffffffffffffffffffffffffffff19166020820180517bffffffffffffffffffffffffffffffffffffffffffffffffffffffff8381831617835250505050612f1b565b50505050565b6001816000016000828254019250508190555050565b60007f01ffc9a7000000000000000000000000000000000000000000000000000000007bffffffffffffffffffffffffffffffffffffffffffffffffffffffff1916827bffffffffffffffffffffffffffffffffffffffffffffffffffffffff1916149050919050565b60008073ffffffffffffffffffffffffffffffffffffffff166002600084815260200190815260200160002060009054906101000a900473ffffffffffffffffffffffffffffffffffffffff1673ffffffffffffffffffffffffffffffffffffffff1614159050919050565b600033905090565b816004600083815260200190815260200160002060006101000a81548173ffffffffffffffffffffffffffffffffffffffff021916908373ffffffffffffffffffffffffffffffffffffffff160217905550808273ffffffffffffffffffffffffffffffffffffffff166124f183610ada565b73ffffffffffffffffffffffffffffffffffffffff167f8c5be1e5ebec7d5bd14f71427d1e84f3dd0314c0f7b2291e5b200ac8c7c3b92560405160405180910390a45050565b60006125428261240a565b612581576040517f08c379a000000000000000000000000000000000000000000000000000000000815260040161257890614ae9565b60405180910390fd5b600061258c83610ada565b90508073ffffffffffffffffffffffffffffffffffffffff168473ffffffffffffffffffffffffffffffffffffffff1614806125fb57508373ffffffffffffffffffffffffffffffffffffffff166125e38461086b565b73ffffffffffffffffffffffffffffffffffffffff16145b8061260c575061260b8185611a9e565b5b91505092915050565b8273ffffffffffffffffffffffffffffffffffffffff1661263582610ada565b73ffffffffffffffffffffffffffffffffffffffff161461268b576040517f08c379a000000000000000000000000000000000000000000000000000000000815260040161268290614bc9565b60405180910390fd5b600073ffffffffffffffffffffffffffffffffffffffff168273ffffffffffffffffffffffffffffffffffffffff1614156126fb576040517f08c379a00000000000000000000000000000000000000000000000000000000081526004016126f290614a89565b60405180910390fd5b612706838383612f44565b61271160008261247e565b6001600360008573ffffffffffffffffffffffffffffffffffffffff1673ffffffffffffffffffffffffffffffffffffffff16815260200190815260200160002060008282546127619190614f64565b925050819055506001600360008473ffffffffffffffffffffffffffffffffffffffff1673ffffffffffffffffffffffffffffffffffffffff16815260200190815260200160002060008282546127b89190614e83565b92505081905550816002600083815260200190815260200160002060006101000a81548173ffffffffffffffffffffffffffffffffffffffff021916908373ffffffffffffffffffffffffffffffffffffffff160217905550808273ffffffffffffffffffffffffffffffffffffffff168473ffffffffffffffffffffffffffffffffffffffff167fddf252ad1be2c89b69c2b068fc378daa952ba7f163c4a11628f55a4df523b3ef60405160405180910390a4505050565b60648161287e91906150e7565b6015819055505050565b612893848484612615565b61289f84848484612f49565b6128de576040517f08c379a00000000000000000000000000000000000000000000000000000000081526004016128d590614a29565b60405180910390fd5b50505050565b6060600082141561292c576040518060400160405280600181526020017f30000000000000000000000000000000000000000000000000000000000000008152509050612a8c565b600082905060005b6000821461295e5780806129479061508a565b915050600a826129579190614ed9565b9150612934565b60008167ffffffffffffffff8111156129a0577f4e487b7100000000000000000000000000000000000000000000000000000000600052604160045260246000fd5b6040519080825280601f01601f1916602001820160405280156129d25781602001600182028036833780820191505090505b5090505b60008514612a85576001826129eb9190614f64565b9150600a856129fa91906150e7565b6030612a069190614e83565b60f81b818381518110612a42577f4e487b7100000000000000000000000000000000000000000000000000000000600052603260045260246000fd5b60200101907effffffffffffffffffffffffffffffffffffffffffffffffffffffffffffff1916908160001a905350600a85612a7e9190614ed9565b94506129d6565b8093505050505b919050565b60606000825190506000811415612aba5760405180602001604052806000815250915050612c4a565b60006003600283612acb9190614e83565b612ad59190614ed9565b6004612ae19190614f0a565b90506000602082612af29190614e83565b67ffffffffffffffff811115612b31577f4e487b7100000000000000000000000000000000000000000000000000000000600052604160045260246000fd5b6040519080825280601f01601f191660200182016040528015612b635781602001600182028036833780820191505090505b5090506000604051806060016040528060408152602001615299604091399050600181016020830160005b86811015612c075760038101905062ffffff818a015116603f8160121c168401518060081b905060ff603f83600c1c1686015116810190508060081b905060ff603f8360061c1686015116810190508060081b905060ff603f831686015116810190508060e01b90508084526004840193505050612b8e565b506003860660018114612c215760028114612c3157612c3c565b613d3d60f01b6002830352612c3c565b603d60f81b60018303525b508484525050819450505050505b919050565b60007f000000000000000000000000000000000000000000000000000000000000000073ffffffffffffffffffffffffffffffffffffffff16634000aea07f000000000000000000000000000000000000000000000000000000000000000084866000604051602001612cc3929190614862565b6040516020818303038152906040526040518463ffffffff1660e01b8152600401612cf093929190614773565b602060405180830381600087803b158015612d0a57600080fd5b505af1158015612d1e573d6000803e3d6000fd5b505050506040513d601f19601f82011682018060405250810190612d429190613751565b506000612d658460003060066000898152602001908152602001600020546130e0565b905060016006600086815260200190815260200160002054612d879190614e83565b6006600086815260200190815260200160002081905550612da8848261311c565b91505092915050565b600081600001549050919050565b612dd982826040518060200160405280600081525061314f565b5050565b612e77838383604051602401612df5939291906149eb565b6040516020818303038152906040527f969cdd03000000000000000000000000000000000000000000000000000000007bffffffffffffffffffffffffffffffffffffffffffffffffffffffff19166020820180517bffffffffffffffffffffffffffffffffffffffffffffffffffffffff8381831617835250505050612f1b565b505050565b612f16838383604051602401612e94939291906149ad565b6040516020818303038152906040527fe3849f79000000000000000000000000000000000000000000000000000000007bffffffffffffffffffffffffffffffffffffffffffffffffffffffff19166020820180517bffffffffffffffffffffffffffffffffffffffffffffffffffffffff8381831617835250505050612f1b565b505050565b60008151905060006a636f6e736f6c652e6c6f679050602083016000808483855afa5050505050565b505050565b6000612f6a8473ffffffffffffffffffffffffffffffffffffffff166131aa565b156130d3578373ffffffffffffffffffffffffffffffffffffffff1663150b7a02612f93612476565b8786866040518563ffffffff1660e01b8152600401612fb59493929190614727565b602060405180830381600087803b158015612fcf57600080fd5b505af192505050801561300057506040513d601f19601f82011682018060405250810190612ffd91906137df565b60015b613083573d8060008114613030576040519150601f19603f3d011682016040523d82523d6000602084013e613035565b606091505b5060008151141561307b576040517f08c379a000000000000000000000000000000000000000000000000000000000815260040161307290614a29565b60405180910390fd5b805181602001fd5b63150b7a0260e01b7bffffffffffffffffffffffffffffffffffffffffffffffffffffffff1916817bffffffffffffffffffffffffffffffffffffffffffffffffffffffff1916149150506130d8565b600190505b949350505050565b6000848484846040516020016130f9949392919061488b565b6040516020818303038152906040528051906020012060001c9050949350505050565b60008282604051602001613131929190614601565b60405160208183030381529060405280519060200120905092915050565b61315983836131bd565b6131666000848484612f49565b6131a5576040517f08c379a000000000000000000000000000000000000000000000000000000000815260040161319c90614a29565b60405180910390fd5b505050565b600080823b905060008111915050919050565b600073ffffffffffffffffffffffffffffffffffffffff168273ffffffffffffffffffffffffffffffffffffffff16141561322d576040517f08c379a000000000000000000000000000000000000000000000000000000000815260040161322490614b89565b60405180910390fd5b6132368161240a565b15613276576040517f08c379a000000000000000000000000000000000000000000000000000000000815260040161326d90614a69565b60405180910390fd5b61328260008383612f44565b6001600360008473ffffffffffffffffffffffffffffffffffffffff1673ffffffffffffffffffffffffffffffffffffffff16815260200190815260200160002060008282546132d29190614e83565b92505081905550816002600083815260200190815260200160002060006101000a81548173ffffffffffffffffffffffffffffffffffffffff021916908373ffffffffffffffffffffffffffffffffffffffff160217905550808273ffffffffffffffffffffffffffffffffffffffff16600073ffffffffffffffffffffffffffffffffffffffff167fddf252ad1be2c89b69c2b068fc378daa952ba7f163c4a11628f55a4df523b3ef60405160405180910390a45050565b6040518060a0016040528060608152602001606081526020016000815260200160008152602001600081525090565b6040518060e00160405280600081526020016060815260200160608152602001600081526020016000815260200160008152602001600081525090565b82805461340390615058565b90600052602060002090601f016020900481019282613425576000855561346c565b82601f1061343e57805160ff191683800117855561346c565b8280016001018555821561346c579182015b8281111561346b578251825591602001919060010190613450565b5b509050613479919061347d565b5090565b5b8082111561349657600081600090555060010161347e565b5090565b60006134ad6134a884614d8d565b614d5c565b9050828152602081018484840111156134c557600080fd5b6134d0848285615016565b509392505050565b6000813590506134e7816151e5565b92915050565b6000813590506134fc816151fc565b92915050565b600081519050613511816151fc565b92915050565b60008135905061352681615213565b92915050565b60008135905061353b8161522a565b92915050565b6000815190506135508161522a565b92915050565b600082601f83011261356757600080fd5b813561357784826020860161349a565b91505092915050565b60008135905061358f81615241565b92915050565b6000815190506135a481615241565b92915050565b6000602082840312156135bc57600080fd5b60006135ca848285016134d8565b91505092915050565b600080604083850312156135e657600080fd5b60006135f4858286016134d8565b9250506020613605858286016134d8565b9150509250929050565b60008060006060848603121561362457600080fd5b6000613632868287016134d8565b9350506020613643868287016134d8565b925050604061365486828701613580565b9150509250925092565b6000806000806080858703121561367457600080fd5b6000613682878288016134d8565b9450506020613693878288016134d8565b93505060406136a487828801613580565b925050606085013567ffffffffffffffff8111156136c157600080fd5b6136cd87828801613556565b91505092959194509250565b600080604083850312156136ec57600080fd5b60006136fa858286016134d8565b925050602061370b858286016134ed565b9150509250929050565b6000806040838503121561372857600080fd5b6000613736858286016134d8565b925050602061374785828601613580565b9150509250929050565b60006020828403121561376357600080fd5b600061377184828501613502565b91505092915050565b6000806040838503121561378d57600080fd5b600061379b85828601613517565b92505060206137ac85828601613580565b9150509250929050565b6000602082840312156137c857600080fd5b60006137d68482850161352c565b91505092915050565b6000602082840312156137f157600080fd5b60006137ff84828501613541565b91505092915050565b60006020828403121561381a57600080fd5b600061382884828501613580565b91505092915050565b60006020828403121561384357600080fd5b600061385184828501613595565b91505092915050565b600061386683836143da565b60408301905092915050565b600061387e8383614486565b905092915050565b61388f81614f98565b82525050565b61389e81614f98565b82525050565b60006138af82614ddd565b6138b98185614e23565b93506138c483614dbd565b8060005b838110156138f55781516138dc888261385a565b97506138e783614e09565b9250506001810190506138c8565b5085935050505092915050565b600061390d82614de8565b6139178185614e34565b93508360208202850161392985614dcd565b8060005b8581101561396557848403895281516139468582613872565b945061395183614e16565b925060208a0199505060018101905061392d565b50829750879550505050505092915050565b61398081614faa565b82525050565b61398f81614fb6565b82525050565b6139a66139a182614fb6565b6150d3565b82525050565b60006139b782614df3565b6139c18185614e45565b93506139d1818560208601615025565b6139da816151d4565b840191505092915050565b60006139f082614dfe565b6139fa8185614e56565b9350613a0a818560208601615025565b613a13816151d4565b840191505092915050565b6000613a2982614dfe565b613a338185614e67565b9350613a43818560208601615025565b613a4c816151d4565b840191505092915050565b6000613a6282614dfe565b613a6c8185614e78565b9350613a7c818560208601615025565b80840191505092915050565b6000613a95600b83614e78565b91507f202d2d204e465420233a200000000000000000000000000000000000000000006000830152600b82019050919050565b6000613ad5603283614e67565b91507f4552433732313a207472616e7366657220746f206e6f6e20455243373231526560008301527f63656976657220696d706c656d656e74657200000000000000000000000000006020830152604082019050919050565b6000613b3b602883614e67565b91507f4572726f723a20626f7373206d757374206861766520485020746f206174746160008301527f636b20626f73732e0000000000000000000000000000000000000000000000006020830152604082019050919050565b6000613ba1601c83614e67565b91507f4552433732313a20746f6b656e20616c7265616479206d696e746564000000006000830152602082019050919050565b6000613be1600e83614e78565b91507f2c20226d61785f76616c7565223a0000000000000000000000000000000000006000830152600e82019050919050565b6000613c21602483614e67565b91507f4552433732313a207472616e7366657220746f20746865207a65726f2061646460008301527f72657373000000000000000000000000000000000000000000000000000000006020830152604082019050919050565b6000613c87601983614e67565b91507f4552433732313a20617070726f766520746f2063616c6c6572000000000000006000830152602082019050919050565b6000613cc7602b83614e67565b91507f4e6f7420656e6f756768204c494e4b202d2066696c6c20636f6e74726163742060008301527f77697468206661756365740000000000000000000000000000000000000000006020830152604082019050919050565b6000613d2d602c83614e67565b91507f4552433732313a206f70657261746f7220717565727920666f72206e6f6e657860008301527f697374656e7420746f6b656e00000000000000000000000000000000000000006020830152604082019050919050565b6000613d93603883614e67565b91507f4552433732313a20617070726f76652063616c6c6572206973206e6f74206f7760008301527f6e6572206e6f7220617070726f76656420666f7220616c6c00000000000000006020830152604082019050919050565b6000613df9602a83614e67565b91507f4552433732313a2062616c616e636520717565727920666f7220746865207a6560008301527f726f2061646472657373000000000000000000000000000000000000000000006020830152604082019050919050565b6000613e5f602983614e67565b91507f4552433732313a206f776e657220717565727920666f72206e6f6e657869737460008301527f656e7420746f6b656e00000000000000000000000000000000000000000000006020830152604082019050919050565b6000613ec5602d83614e67565b91507f4572726f723a20636861726163746572206d757374206861766520485020746f60008301527f2061747461636b20626f73732e000000000000000000000000000000000000006020830152604082019050919050565b6000613f2b600483614e78565b91507f7d205d7d000000000000000000000000000000000000000000000000000000006000830152600482019050919050565b6000613f6b602083614e67565b91507f4552433732313a206d696e7420746f20746865207a65726f20616464726573736000830152602082019050919050565b6000613fab603083614e78565b91507f7d2c207b202274726169745f74797065223a202244616d61676520496e666c6960008301527f63746564222c202276616c7565223a20000000000000000000000000000000006020830152603082019050919050565b6000614011602c83614e67565b91507f4552433732313a20617070726f76656420717565727920666f72206e6f6e657860008301527f697374656e7420746f6b656e00000000000000000000000000000000000000006020830152604082019050919050565b6000614077602983614e67565b91507f4552433732313a207472616e73666572206f6620746f6b656e2074686174206960008301527f73206e6f74206f776e00000000000000000000000000000000000000000000006020830152604082019050919050565b60006140dd600a83614e78565b91507f7b226e616d65223a2022000000000000000000000000000000000000000000006000830152600a82019050919050565b600061411d601f83614e67565b91507f4f6e6c7920565246436f6f7264696e61746f722063616e2066756c66696c6c006000830152602082019050919050565b600061415d602183614e67565b91507f4552433732313a20617070726f76616c20746f2063757272656e74206f776e6560008301527f72000000000000000000000000000000000000000000000000000000000000006020830152604082019050919050565b60006141c3601d83614e78565b91507f646174613a6170706c69636174696f6e2f6a736f6e3b6261736536342c0000006000830152601d82019050919050565b6000614203603183614e67565b91507f4552433732313a207472616e736665722063616c6c6572206973206e6f74206f60008301527f776e6572206e6f7220617070726f7665640000000000000000000000000000006020830152604082019050919050565b6000614269603d83614e78565b91507f222c202261747472696275746573223a205b207b202274726169745f7479706560008301527f223a20224865616c746820506f696e7473222c202276616c7565223a200000006020830152603d82019050919050565b60006142cf602d83614e78565b91507f7d2c207b202274726169745f74797065223a202241747461636b2044616d616760008301527f65222c202276616c7565223a20000000000000000000000000000000000000006020830152602d82019050919050565b6000614335606383614e78565b91507f222c20226465736372697074696f6e223a20225468697320697320616e204e4660008301527f54207468617420676976657320796f7520656e74727920746f2074686520447760208301527f6967687420436c75622067616d6521222c2022696d616765223a20226970667360408301527f3a2f2f00000000000000000000000000000000000000000000000000000000006060830152606382019050919050565b6040820160008201516143f060008501826145cc565b5060208201516144036020850182613886565b50505050565b600060a083016000830151848203600086015261442682826139e5565b9150506020830151848203602086015261444082826139e5565b915050604083015161445560408601826145cc565b50606083015161446860608601826145cc565b50608083015161447b60808601826145cc565b508091505092915050565b600060e08301600083015161449e60008601826145cc565b50602083015184820360208601526144b682826139e5565b915050604083015184820360408601526144d082826139e5565b91505060608301516144e560608601826145cc565b5060808301516144f860808601826145cc565b5060a083015161450b60a08601826145cc565b5060c083015161451e60c08601826145cc565b508091505092915050565b600060e08301600083015161454160008601826145cc565b506020830151848203602086015261455982826139e5565b9150506040830151848203604086015261457382826139e5565b915050606083015161458860608601826145cc565b50608083015161459b60808601826145cc565b5060a08301516145ae60a08601826145cc565b5060c08301516145c160c08601826145cc565b508091505092915050565b6145d58161500c565b82525050565b6145e48161500c565b82525050565b6145fb6145f68261500c565b6150dd565b82525050565b600061460d8285613995565b60208201915061461d82846145ea565b6020820191508190509392505050565b6000614638826140d0565b9150614644828a613a57565b915061464f82613a88565b915061465b8289613a57565b915061466682614328565b91506146728288613a57565b915061467d8261425c565b91506146898287613a57565b915061469482613bd4565b91506146a08286613a57565b91506146ab826142c2565b91506146b78285613a57565b91506146c282613f9e565b91506146ce8284613a57565b91506146d982613f1e565b915081905098975050505050505050565b60006146f5826141b6565b91506147018284613a57565b915081905092915050565b60006020820190506147216000830184613895565b92915050565b600060808201905061473c6000830187613895565b6147496020830186613895565b61475660408301856145db565b818103606083015261476881846139ac565b905095945050505050565b60006060820190506147886000830186613895565b61479560208301856145db565b81810360408301526147a781846139ac565b9050949350505050565b60006060820190506147c66000830186613895565b6147d360208301856145db565b6147e060408301846145db565b949350505050565b6000602082019050818103600083015261480281846138a4565b905092915050565b600060208201905081810360008301526148248184613902565b905092915050565b60006020820190506148416000830184613977565b92915050565b600060208201905061485c6000830184613986565b92915050565b60006040820190506148776000830185613986565b61488460208301846145db565b9392505050565b60006080820190506148a06000830187613986565b6148ad60208301866145db565b6148ba6040830185613895565b6148c760608301846145db565b95945050505050565b600060208201905081810360008301526148ea8184613a1e565b905092915050565b6000608082019050818103600083015261490c8187613a1e565b905081810360208301526149208186613a1e565b905061492f60408301856145db565b81810360608301526149418184613a1e565b905095945050505050565b600060a08201905081810360008301526149668188613a1e565b9050818103602083015261497a8187613a1e565b905061498960408301866145db565b61499660608301856145db565b6149a360808301846145db565b9695505050505050565b600060608201905081810360008301526149c78186613a1e565b90506149d660208301856145db565b6149e36040830184613895565b949350505050565b60006060820190508181036000830152614a058186613a1e565b9050614a1460208301856145db565b614a2160408301846145db565b949350505050565b60006020820190508181036000830152614a4281613ac8565b9050919050565b60006020820190508181036000830152614a6281613b2e565b9050919050565b60006020820190508181036000830152614a8281613b94565b9050919050565b60006020820190508181036000830152614aa281613c14565b9050919050565b60006020820190508181036000830152614ac281613c7a565b9050919050565b60006020820190508181036000830152614ae281613cba565b9050919050565b60006020820190508181036000830152614b0281613d20565b9050919050565b60006020820190508181036000830152614b2281613d86565b9050919050565b60006020820190508181036000830152614b4281613dec565b9050919050565b60006020820190508181036000830152614b6281613e52565b9050919050565b60006020820190508181036000830152614b8281613eb8565b9050919050565b60006020820190508181036000830152614ba281613f5e565b9050919050565b60006020820190508181036000830152614bc281614004565b9050919050565b60006020820190508181036000830152614be28161406a565b9050919050565b60006020820190508181036000830152614c0281614110565b9050919050565b60006020820190508181036000830152614c2281614150565b9050919050565b60006020820190508181036000830152614c42816141f6565b9050919050565b60006020820190508181036000830152614c638184614409565b905092915050565b60006020820190508181036000830152614c858184614529565b905092915050565b6000602082019050614ca260008301846145db565b92915050565b600060e082019050614cbd600083018a6145db565b8181036020830152614ccf8189613a1e565b90508181036040830152614ce38188613a1e565b9050614cf260608301876145db565b614cff60808301866145db565b614d0c60a08301856145db565b614d1960c08301846145db565b98975050505050505050565b6000606082019050614d3a60008301866145db565b614d4760208301856145db565b614d5460408301846145db565b949350505050565b6000604051905081810181811067ffffffffffffffff82111715614d8357614d826151a5565b5b8060405250919050565b600067ffffffffffffffff821115614da857614da76151a5565b5b601f19601f8301169050602081019050919050565b6000819050602082019050919050565b6000819050602082019050919050565b600081519050919050565b600081519050919050565b600081519050919050565b600081519050919050565b6000602082019050919050565b6000602082019050919050565b600082825260208201905092915050565b600082825260208201905092915050565b600082825260208201905092915050565b600082825260208201905092915050565b600082825260208201905092915050565b600081905092915050565b6000614e8e8261500c565b9150614e998361500c565b9250827fffffffffffffffffffffffffffffffffffffffffffffffffffffffffffffffff03821115614ece57614ecd615118565b5b828201905092915050565b6000614ee48261500c565b9150614eef8361500c565b925082614eff57614efe615147565b5b828204905092915050565b6000614f158261500c565b9150614f208361500c565b9250817fffffffffffffffffffffffffffffffffffffffffffffffffffffffffffffffff0483118215151615614f5957614f58615118565b5b828202905092915050565b6000614f6f8261500c565b9150614f7a8361500c565b925082821015614f8d57614f8c615118565b5b828203905092915050565b6000614fa382614fec565b9050919050565b60008115159050919050565b6000819050919050565b60007fffffffff0000000000000000000000000000000000000000000000000000000082169050919050565b600073ffffffffffffffffffffffffffffffffffffffff82169050919050565b6000819050919050565b82818337600083830152505050565b60005b83811015615043578082015181840152602081019050615028565b83811115615052576000848401525b50505050565b6000600282049050600182168061507057607f821691505b6020821081141561508457615083615176565b5b50919050565b60006150958261500c565b91507fffffffffffffffffffffffffffffffffffffffffffffffffffffffffffffffff8214156150c8576150c7615118565b5b600182019050919050565b6000819050919050565b6000819050919050565b60006150f28261500c565b91506150fd8361500c565b92508261510d5761510c615147565b5b828206905092915050565b7f4e487b7100000000000000000000000000000000000000000000000000000000600052601160045260246000fd5b7f4e487b7100000000000000000000000000000000000000000000000000000000600052601260045260246000fd5b7f4e487b7100000000000000000000000000000000000000000000000000000000600052602260045260246000fd5b7f4e487b7100000000000000000000000000000000000000000000000000000000600052604160045260246000fd5b6000601f19601f8301169050919050565b6151ee81614f98565b81146151f957600080fd5b50565b61520581614faa565b811461521057600080fd5b50565b61521c81614fb6565b811461522757600080fd5b50565b61523381614fc0565b811461523e57600080fd5b50565b61524a8161500c565b811461525557600080fd5b5056fe507573686564206e657720706c6179657220746f2067616d65557365727320617272617920772f20746f6b656e496420257320616e642077616c6c65742025734142434445464748494a4b4c4d4e4f505152535455565758595a6162636465666768696a6b6c6d6e6f707172737475767778797a303132333435363738392b2f4d696e746564204e465420772f20746f6b656e496420257320616e6420636861726163746572496e646578202573a2646970667358221220f60fb9d959cd3e4942caf488af6cf376f808ba45b3375070c437daf3bd38fa3264736f6c63430008000033446f6e6520696e697469616c697a696e6720257320772f2048502025732c20696d67202573446f6e6520696e697469616c697a696e6720626f737320257320772f2048502025732c20696d67202573",
  "linkReferences": {},
  "deployedLinkReferences": {}
}