{
  "_format": "hh-sol-artifact-1",
  "contractName": "MyEpicGame",
  "sourceName": "contracts/MyEpicGame.sol",
  "abi": [
    {
      "inputs": [
        {
          "internalType": "string[]",
          "name": "characterNames",
          "type": "string[]"
        },
        {
          "internalType": "string[]",
          "name": "characterImageURIs",
          "type": "string[]"
        },
        {
          "internalType": "uint256[]",
          "name": "characterHp",
          "type": "uint256[]"
        },
        {
          "internalType": "uint256[]",
          "name": "characterAttackDmg",
          "type": "uint256[]"
        },
        {
          "internalType": "uint256[]",
          "name": "characterDmgInflicted",
          "type": "uint256[]"
        },
        {
          "internalType": "string",
          "name": "bossName",
          "type": "string"
        },
        {
          "internalType": "string",
          "name": "bossImageURI",
          "type": "string"
        },
        {
          "internalType": "uint256",
          "name": "bossHp",
          "type": "uint256"
        },
        {
          "internalType": "uint256",
          "name": "bossAttackDamage",
          "type": "uint256"
        },
        {
          "internalType": "address",
          "name": "vrfCoordinatorAddress",
          "type": "address"
        },
        {
          "internalType": "address",
          "name": "linkTokenAddress",
          "type": "address"
        }
      ],
      "stateMutability": "nonpayable",
      "type": "constructor"
    },
    {
      "anonymous": false,
      "inputs": [
        {
          "indexed": true,
          "internalType": "address",
          "name": "owner",
          "type": "address"
        },
        {
          "indexed": true,
          "internalType": "address",
          "name": "approved",
          "type": "address"
        },
        {
          "indexed": true,
          "internalType": "uint256",
          "name": "tokenId",
          "type": "uint256"
        }
      ],
      "name": "Approval",
      "type": "event"
    },
    {
      "anonymous": false,
      "inputs": [
        {
          "indexed": true,
          "internalType": "address",
          "name": "owner",
          "type": "address"
        },
        {
          "indexed": true,
          "internalType": "address",
          "name": "operator",
          "type": "address"
        },
        {
          "indexed": false,
          "internalType": "bool",
          "name": "approved",
          "type": "bool"
        }
      ],
      "name": "ApprovalForAll",
      "type": "event"
    },
    {
      "anonymous": false,
      "inputs": [
        {
          "indexed": false,
          "internalType": "uint256",
          "name": "newBossHp",
          "type": "uint256"
        },
        {
          "indexed": false,
          "internalType": "uint256",
          "name": "newPlayerHp",
          "type": "uint256"
        },
        {
          "indexed": false,
          "internalType": "uint256",
          "name": "newPlayerDmgInflicted",
          "type": "uint256"
        },
        {
          "indexed": false,
          "internalType": "string",
          "name": "randomFactor",
          "type": "string"
        },
        {
          "indexed": false,
          "internalType": "uint256",
          "name": "originalRandom",
          "type": "uint256"
        },
        {
          "indexed": false,
          "internalType": "uint256",
          "name": "newRandom",
          "type": "uint256"
        }
      ],
      "name": "AttackComplete",
      "type": "event"
    },
    {
      "anonymous": false,
      "inputs": [
        {
          "indexed": false,
          "internalType": "address",
          "name": "sender",
          "type": "address"
        },
        {
          "indexed": false,
          "internalType": "uint256",
          "name": "tokenId",
          "type": "uint256"
        },
        {
          "indexed": false,
          "internalType": "uint256",
          "name": "characterIndex",
          "type": "uint256"
        }
      ],
      "name": "CharacterNFTMinted",
      "type": "event"
    },
    {
      "anonymous": false,
      "inputs": [
        {
          "indexed": false,
          "internalType": "uint256",
          "name": "playerHpReset",
          "type": "uint256"
        }
      ],
      "name": "HpPurchaseComplete",
      "type": "event"
    },
    {
      "anonymous": false,
      "inputs": [
        {
          "indexed": false,
          "internalType": "uint256",
          "name": "characterIndex",
          "type": "uint256"
        }
      ],
      "name": "NFTMinted",
      "type": "event"
    },
    {
      "anonymous": false,
      "inputs": [
        {
          "indexed": true,
          "internalType": "address",
          "name": "from",
          "type": "address"
        },
        {
          "indexed": true,
          "internalType": "address",
          "name": "to",
          "type": "address"
        },
        {
          "indexed": true,
          "internalType": "uint256",
          "name": "tokenId",
          "type": "uint256"
        }
      ],
      "name": "Transfer",
      "type": "event"
    },
    {
      "inputs": [],
      "name": "LinkToken",
      "outputs": [
        {
          "internalType": "address",
          "name": "",
          "type": "address"
        }
      ],
      "stateMutability": "view",
      "type": "function"
    },
    {
      "inputs": [],
      "name": "VRFCoordinator",
      "outputs": [
        {
          "internalType": "address",
          "name": "",
          "type": "address"
        }
      ],
      "stateMutability": "view",
      "type": "function"
    },
    {
      "inputs": [
        {
          "internalType": "address",
          "name": "to",
          "type": "address"
        },
        {
          "internalType": "uint256",
          "name": "tokenId",
          "type": "uint256"
        }
      ],
      "name": "approve",
      "outputs": [],
      "stateMutability": "nonpayable",
      "type": "function"
    },
    {
      "inputs": [],
      "name": "attackBoss",
      "outputs": [],
      "stateMutability": "nonpayable",
      "type": "function"
    },
    {
      "inputs": [
        {
          "internalType": "address",
          "name": "owner",
          "type": "address"
        }
      ],
      "name": "balanceOf",
      "outputs": [
        {
          "internalType": "uint256",
          "name": "",
          "type": "uint256"
        }
      ],
      "stateMutability": "view",
      "type": "function"
    },
    {
      "inputs": [],
      "name": "bigBoss",
      "outputs": [
        {
          "internalType": "string",
          "name": "name",
          "type": "string"
        },
        {
          "internalType": "string",
          "name": "imageURI",
          "type": "string"
        },
        {
          "internalType": "uint256",
          "name": "hp",
          "type": "uint256"
        },
        {
          "internalType": "uint256",
          "name": "maxHp",
          "type": "uint256"
        },
        {
          "internalType": "uint256",
          "name": "attackDamage",
          "type": "uint256"
        }
      ],
      "stateMutability": "view",
      "type": "function"
    },
    {
      "inputs": [],
      "name": "checkIfUserHasNFT",
      "outputs": [
        {
          "components": [
            {
              "internalType": "uint256",
              "name": "characterIndex",
              "type": "uint256"
            },
            {
              "internalType": "string",
              "name": "name",
              "type": "string"
            },
            {
              "internalType": "string",
              "name": "imageURI",
              "type": "string"
            },
            {
              "internalType": "uint256",
              "name": "hp",
              "type": "uint256"
            },
            {
              "internalType": "uint256",
              "name": "maxHp",
              "type": "uint256"
            },
            {
              "internalType": "uint256",
              "name": "attackDamage",
              "type": "uint256"
            },
            {
              "internalType": "uint256",
              "name": "damageInflicted",
              "type": "uint256"
            }
          ],
          "internalType": "struct MyEpicGame.CharacterAttributes",
          "name": "",
          "type": "tuple"
        }
      ],
      "stateMutability": "view",
      "type": "function"
    },
    {
      "inputs": [],
      "name": "getAllDefaultCharacters",
      "outputs": [
        {
          "components": [
            {
              "internalType": "uint256",
              "name": "characterIndex",
              "type": "uint256"
            },
            {
              "internalType": "string",
              "name": "name",
              "type": "string"
            },
            {
              "internalType": "string",
              "name": "imageURI",
              "type": "string"
            },
            {
              "internalType": "uint256",
              "name": "hp",
              "type": "uint256"
            },
            {
              "internalType": "uint256",
              "name": "maxHp",
              "type": "uint256"
            },
            {
              "internalType": "uint256",
              "name": "attackDamage",
              "type": "uint256"
            },
            {
              "internalType": "uint256",
              "name": "damageInflicted",
              "type": "uint256"
            }
          ],
          "internalType": "struct MyEpicGame.CharacterAttributes[]",
          "name": "",
          "type": "tuple[]"
        }
      ],
      "stateMutability": "view",
      "type": "function"
    },
    {
      "inputs": [],
      "name": "getAllPlayers",
      "outputs": [
        {
          "components": [
            {
              "internalType": "uint256",
              "name": "id",
              "type": "uint256"
            },
            {
              "internalType": "address",
              "name": "wallet",
              "type": "address"
            }
          ],
          "internalType": "struct MyEpicGame.AllPlayers[]",
          "name": "",
          "type": "tuple[]"
        }
      ],
      "stateMutability": "view",
      "type": "function"
    },
    {
      "inputs": [
        {
          "internalType": "uint256",
          "name": "tokenId",
          "type": "uint256"
        }
      ],
      "name": "getApproved",
      "outputs": [
        {
          "internalType": "address",
          "name": "",
          "type": "address"
        }
      ],
      "stateMutability": "view",
      "type": "function"
    },
    {
      "inputs": [],
      "name": "getBigBoss",
      "outputs": [
        {
          "components": [
            {
              "internalType": "string",
              "name": "name",
              "type": "string"
            },
            {
              "internalType": "string",
              "name": "imageURI",
              "type": "string"
            },
            {
              "internalType": "uint256",
              "name": "hp",
              "type": "uint256"
            },
            {
              "internalType": "uint256",
              "name": "maxHp",
              "type": "uint256"
            },
            {
              "internalType": "uint256",
              "name": "attackDamage",
              "type": "uint256"
            }
          ],
          "internalType": "struct MyEpicGame.BigBoss",
          "name": "",
          "type": "tuple"
        }
      ],
      "stateMutability": "view",
      "type": "function"
    },
    {
      "inputs": [],
      "name": "getRandomNumber",
      "outputs": [
        {
          "internalType": "bytes32",
          "name": "requestId",
          "type": "bytes32"
        }
      ],
      "stateMutability": "nonpayable",
      "type": "function"
    },
    {
      "inputs": [
        {
          "internalType": "uint256",
          "name": "_tokenId",
          "type": "uint256"
        }
      ],
      "name": "getUserNFTCharacterAttributes",
      "outputs": [
        {
          "components": [
            {
              "internalType": "uint256",
              "name": "characterIndex",
              "type": "uint256"
            },
            {
              "internalType": "string",
              "name": "name",
              "type": "string"
            },
            {
              "internalType": "string",
              "name": "imageURI",
              "type": "string"
            },
            {
              "internalType": "uint256",
              "name": "hp",
              "type": "uint256"
            },
            {
              "internalType": "uint256",
              "name": "maxHp",
              "type": "uint256"
            },
            {
              "internalType": "uint256",
              "name": "attackDamage",
              "type": "uint256"
            },
            {
              "internalType": "uint256",
              "name": "damageInflicted",
              "type": "uint256"
            }
          ],
          "internalType": "struct MyEpicGame.CharacterAttributes",
          "name": "",
          "type": "tuple"
        }
      ],
      "stateMutability": "view",
      "type": "function"
    },
    {
      "inputs": [
        {
          "internalType": "address",
          "name": "_addr",
          "type": "address"
        }
      ],
      "name": "getUserNftId",
      "outputs": [
        {
          "internalType": "uint256",
          "name": "",
          "type": "uint256"
        }
      ],
      "stateMutability": "view",
      "type": "function"
    },
    {
      "inputs": [
        {
          "internalType": "address",
          "name": "owner",
          "type": "address"
        },
        {
          "internalType": "address",
          "name": "operator",
          "type": "address"
        }
      ],
      "name": "isApprovedForAll",
      "outputs": [
        {
          "internalType": "bool",
          "name": "",
          "type": "bool"
        }
      ],
      "stateMutability": "view",
      "type": "function"
    },
    {
      "inputs": [
        {
          "internalType": "uint256",
          "name": "_characterIndex",
          "type": "uint256"
        }
      ],
      "name": "mintCharacterNFT",
      "outputs": [],
      "stateMutability": "nonpayable",
      "type": "function"
    },
    {
      "inputs": [],
      "name": "name",
      "outputs": [
        {
          "internalType": "string",
          "name": "",
          "type": "string"
        }
      ],
      "stateMutability": "view",
      "type": "function"
    },
    {
      "inputs": [
        {
          "internalType": "uint256",
          "name": "",
          "type": "uint256"
        }
      ],
      "name": "nftHolderAttributes",
      "outputs": [
        {
          "internalType": "uint256",
          "name": "characterIndex",
          "type": "uint256"
        },
        {
          "internalType": "string",
          "name": "name",
          "type": "string"
        },
        {
          "internalType": "string",
          "name": "imageURI",
          "type": "string"
        },
        {
          "internalType": "uint256",
          "name": "hp",
          "type": "uint256"
        },
        {
          "internalType": "uint256",
          "name": "maxHp",
          "type": "uint256"
        },
        {
          "internalType": "uint256",
          "name": "attackDamage",
          "type": "uint256"
        },
        {
          "internalType": "uint256",
          "name": "damageInflicted",
          "type": "uint256"
        }
      ],
      "stateMutability": "view",
      "type": "function"
    },
    {
      "inputs": [
        {
          "internalType": "address",
          "name": "",
          "type": "address"
        }
      ],
      "name": "nftHolders",
      "outputs": [
        {
          "internalType": "uint256",
          "name": "",
          "type": "uint256"
        }
      ],
      "stateMutability": "view",
      "type": "function"
    },
    {
      "inputs": [],
      "name": "owner",
      "outputs": [
        {
          "internalType": "address",
          "name": "",
          "type": "address"
        }
      ],
      "stateMutability": "view",
      "type": "function"
    },
    {
      "inputs": [
        {
          "internalType": "uint256",
          "name": "tokenId",
          "type": "uint256"
        }
      ],
      "name": "ownerOf",
      "outputs": [
        {
          "internalType": "address",
          "name": "",
          "type": "address"
        }
      ],
      "stateMutability": "view",
      "type": "function"
    },
    {
      "inputs": [],
      "name": "purchaseHp",
      "outputs": [],
      "stateMutability": "nonpayable",
      "type": "function"
    },
    {
      "inputs": [],
      "name": "randomResult",
      "outputs": [
        {
          "internalType": "uint256",
          "name": "",
          "type": "uint256"
        }
      ],
      "stateMutability": "view",
      "type": "function"
    },
    {
      "inputs": [
        {
          "internalType": "bytes32",
          "name": "requestId",
          "type": "bytes32"
        },
        {
          "internalType": "uint256",
          "name": "randomness",
          "type": "uint256"
        }
      ],
      "name": "rawFulfillRandomness",
      "outputs": [],
      "stateMutability": "nonpayable",
      "type": "function"
    },
    {
      "inputs": [
        {
          "internalType": "address",
          "name": "from",
          "type": "address"
        },
        {
          "internalType": "address",
          "name": "to",
          "type": "address"
        },
        {
          "internalType": "uint256",
          "name": "tokenId",
          "type": "uint256"
        }
      ],
      "name": "safeTransferFrom",
      "outputs": [],
      "stateMutability": "nonpayable",
      "type": "function"
    },
    {
      "inputs": [
        {
          "internalType": "address",
          "name": "from",
          "type": "address"
        },
        {
          "internalType": "address",
          "name": "to",
          "type": "address"
        },
        {
          "internalType": "uint256",
          "name": "tokenId",
          "type": "uint256"
        },
        {
          "internalType": "bytes",
          "name": "_data",
          "type": "bytes"
        }
      ],
      "name": "safeTransferFrom",
      "outputs": [],
      "stateMutability": "nonpayable",
      "type": "function"
    },
    {
      "inputs": [
        {
          "internalType": "address",
          "name": "operator",
          "type": "address"
        },
        {
          "internalType": "bool",
          "name": "approved",
          "type": "bool"
        }
      ],
      "name": "setApprovalForAll",
      "outputs": [],
      "stateMutability": "nonpayable",
      "type": "function"
    },
    {
      "inputs": [
        {
          "internalType": "bytes4",
          "name": "interfaceId",
          "type": "bytes4"
        }
      ],
      "name": "supportsInterface",
      "outputs": [
        {
          "internalType": "bool",
          "name": "",
          "type": "bool"
        }
      ],
      "stateMutability": "view",
      "type": "function"
    },
    {
      "inputs": [],
      "name": "symbol",
      "outputs": [
        {
          "internalType": "string",
          "name": "",
          "type": "string"
        }
      ],
      "stateMutability": "view",
      "type": "function"
    },
    {
      "inputs": [
        {
          "internalType": "uint256",
          "name": "_tokenId",
          "type": "uint256"
        }
      ],
      "name": "tokenURI",
      "outputs": [
        {
          "internalType": "string",
          "name": "",
          "type": "string"
        }
      ],
      "stateMutability": "view",
      "type": "function"
    },
    {
      "inputs": [
        {
          "internalType": "address",
          "name": "from",
          "type": "address"
        },
        {
          "internalType": "address",
          "name": "to",
          "type": "address"
        },
        {
          "internalType": "uint256",
          "name": "tokenId",
          "type": "uint256"
        }
      ],
      "name": "transferFrom",
      "outputs": [],
      "stateMutability": "nonpayable",
      "type": "function"
    },
    {
      "inputs": [
        {
          "internalType": "address",
          "name": "to",
          "type": "address"
        },
        {
          "internalType": "uint256",
          "name": "value",
          "type": "uint256"
        }
      ],
      "name": "withdrawLINK",
      "outputs": [],
      "stateMutability": "nonpayable",
      "type": "function"
    }
  ],
  "bytecode": "0x60c06040523480156200001157600080fd5b506040516200461c3803806200461c833981016040819052620000349162000960565b60408051808201825260058152642221b63ab160d91b602080830191825283518085019094526004845263151154d560e21b9084015281518593859392909162000081916000916200075a565b508051620000979060019060208401906200075a565b505050606091821b6001600160601b031990811660a090815291831b16608090815260168054336001600160a01b0319918216179091557f2ed0feb3e7fd2022120aa84fab1945545a9f2ffc9076fd6156fa96eaff4c131160115567016345785d8a00006012556013805482166001600160a01b038881169190911790915560148054909216908616179055600160155560408051928301815289835260208381018a9052908301889052928201879052810185905287519091600b9162000165918391908b01906200075a565b5060208281015180516200018092600185019201906200075a565b50604082015181600201556060820151816003015560808201518160040155905050620002fd6040518060600160405280602a8152602001620045f2602a9139600b8054620001cf9062000c16565b80601f0160208091040260200160405190810160405280929190818152602001828054620001fd9062000c16565b80156200024e5780601f1062000222576101008083540402835291602001916200024e565b820191906000526020600020905b8154815290600101906020018083116200023057829003601f168201915b5050600d54600c8054919450925062000268915062000c16565b80601f0160208091040260200160405190810160405280929190818152602001828054620002969062000c16565b8015620002e75780601f10620002bb57610100808354040283529160200191620002e7565b820191906000526020600020905b815481529060010190602001808311620002c957829003601f168201915b5050505050620006d960201b62001d1c1760201c565b60005b8b51811015620006b05760076040518060e001604052808381526020018e84815181106200033e57634e487b7160e01b600052603260045260246000fd5b602002602001015181526020018d84815181106200036c57634e487b7160e01b600052603260045260246000fd5b602002602001015181526020018c84815181106200039a57634e487b7160e01b600052603260045260246000fd5b602002602001015181526020018c8481518110620003c857634e487b7160e01b600052603260045260246000fd5b602002602001015181526020018b8481518110620003f657634e487b7160e01b600052603260045260246000fd5b602002602001015181526020018a84815181106200042457634e487b7160e01b600052603260045260246000fd5b6020908102919091018101519091528254600181810185556000948552938290208351600790920201908155828201518051939491936200046e939285019291909101906200075a565b50604082015180516200048c9160028401916020909101906200075a565b50606082015181600301556080820151816004015560a0820151816005015560c082015181600601555050600060078281548110620004db57634e487b7160e01b600052603260045260246000fd5b90600052602060002090600702016040518060e001604052908160008201548152602001600182018054620005109062000c16565b80601f01602080910402602001604051908101604052809291908181526020018280546200053e9062000c16565b80156200058f5780601f1062000563576101008083540402835291602001916200058f565b820191906000526020600020905b8154815290600101906020018083116200057157829003601f168201915b50505050508152602001600282018054620005aa9062000c16565b80601f0160208091040260200160405190810160405280929190818152602001828054620005d89062000c16565b8015620006295780601f10620005fd5761010080835404028352916020019162000629565b820191906000526020600020905b8154815290600101906020018083116200060b57829003601f168201915b5050505050815260200160038201548152602001600482015481526020016005820154815260200160068201548152505090506200069a604051806060016040528060258152602001620045cd60259139826020015183606001518460400151620006d960201b62001d1c1760201c565b50620006a860018262000bc2565b905062000300565b50620006c8600a6200073060201b62001d651760201c565b505050505050505050505062000c69565b6200072a84848484604051602401620006f6949392919062000b20565b60408051601f198184030181529190526020810180516001600160e01b03908116638d142cdd60e01b179091526200073916565b50505050565b80546001019055565b80516a636f6e736f6c652e6c6f67602083016000808483855afa5050505050565b828054620007689062000c16565b90600052602060002090601f0160209004810192826200078c5760008555620007d7565b82601f10620007a757805160ff1916838001178555620007d7565b82800160010185558215620007d7579182015b82811115620007d7578251825591602001919060010190620007ba565b50620007e5929150620007e9565b5090565b5b80821115620007e55760008155600101620007ea565b80516001600160a01b03811681146200081857600080fd5b919050565b600082601f8301126200082e578081fd5b8151602062000847620008418362000b9c565b62000b70565b82815281810190858301855b8581101562000880576200086d898684518b0101620008ee565b8452928401929084019060010162000853565b5090979650505050505050565b600082601f8301126200089e578081fd5b81516020620008b1620008418362000b9c565b8281528181019085830183850287018401881015620008ce578586fd5b855b858110156200088057815184529284019290840190600101620008d0565b600082601f830112620008ff578081fd5b81516001600160401b038111156200091b576200091b62000c53565b62000930601f8201601f191660200162000b70565b81815284602083860101111562000945578283fd5b6200095882602083016020870162000be7565b949350505050565b60008060008060008060008060008060006101608c8e03121562000982578687fd5b8b516001600160401b0381111562000998578788fd5b620009a68e828f016200081d565b60208e0151909c5090506001600160401b03811115620009c4578788fd5b620009d28e828f016200081d565b60408e0151909b5090506001600160401b03811115620009f0578788fd5b620009fe8e828f016200088d565b60608e0151909a5090506001600160401b0381111562000a1c578788fd5b62000a2a8e828f016200088d565b60808e015190995090506001600160401b0381111562000a48578788fd5b62000a568e828f016200088d565b60a08e015190985090506001600160401b0381111562000a74578687fd5b62000a828e828f01620008ee565b60c08e015190975090506001600160401b0381111562000aa0578586fd5b62000aae8e828f01620008ee565b95505060e08c015193506101008c0151925062000acf6101208d0162000800565b915062000ae06101408d0162000800565b90509295989b509295989b9093969950565b6000815180845262000b0c81602086016020860162000be7565b601f01601f19169290920160200192915050565b60006080825262000b35608083018762000af2565b828103602084015262000b49818762000af2565b9050846040840152828103606084015262000b65818562000af2565b979650505050505050565b6040518181016001600160401b038111828210171562000b945762000b9462000c53565b604052919050565b60006001600160401b0382111562000bb85762000bb862000c53565b5060209081020190565b6000821982111562000be257634e487b7160e01b81526011600452602481fd5b500190565b60005b8381101562000c0457818101518382015260200162000bea565b838111156200072a5750506000910152565b60028104600182168062000c2b57607f821691505b6020821081141562000c4d57634e487b7160e01b600052602260045260246000fd5b50919050565b634e487b7160e01b600052604160045260246000fd5b60805160601c60a05160601c61392362000caa600039600081816108a401526122c301526000818161093f015281816115bb015261229401526139236000f3fe608060405234801561001057600080fd5b50600436106101f05760003560e01c806395d89b411161010f578063c87b56dd116100a2578063e985e9c511610071578063e985e9c514610404578063efa1c48214610417578063f8b81ef71461042c578063fc02a1391461043f576101f0565b8063c87b56dd146103cc578063c8cf27f4146103df578063d4f24c5b146103f4578063dbdff2c1146103fc576101f0565b8063a9c32679116100de578063a9c3267914610383578063b65426c31461039c578063b88d4fde146103a4578063b953084e146103b7576101f0565b806395d89b411461032f578063983fbab21461033757806398da4c951461034a578063a22cb46514610370576101f0565b806342842e0e1161018757806370a082311161015657806370a08231146102ee5780637df124a1146103015780638da5cb5b1461031457806394985ddd1461031c576101f0565b806342842e0e146102ad5780634f8e2fdf146102c0578063530a7848146102c85780636352211e146102db576101f0565b8063095ea7b3116101c3578063095ea7b31461026857806323b872dd1461027d57806333b608631461029057806342619f6614610298576101f0565b806301ffc9a7146101f55780630665f9611461021e57806306fdde0314610233578063081812fc14610248575b600080fd5b610208610203366004612a3d565b610452565b6040516102159190612f4d565b60405180910390f35b61022661049a565b60405161021591906135e1565b61023b6105f7565b6040516102159190612f85565b61025b610256366004612a75565b610689565b6040516102159190612dda565b61027b6102763660046129d7565b6106d5565b005b61027b61028b36600461289a565b61076d565b61025b6107a5565b6102a06107b4565b6040516102159190612f58565b61027b6102bb36600461289a565b6107ba565b61025b6107d5565b6102a06102d6366004612847565b6107e4565b61025b6102e9366004612a75565b6107ff565b6102a06102fc366004612847565b610834565b6102a061030f366004612847565b610878565b61025b61088a565b61027b61032a366004612a1c565b610899565b61023b6108ef565b61027b6103453660046129d7565b6108fe565b61035d610358366004612a75565b6109e4565b6040516102159796959493929190613658565b61027b61037e3660046129a1565b610b2f565b61038b610bfd565b604051610215959493929190612fe2565b61027b610d2f565b61027b6103b23660046128d5565b610dc4565b6103bf610e03565b6040516102159190612eed565b61023b6103da366004612a75565b610fb8565b6103e76111e7565b6040516102159190613645565b61027b611396565b6102a06115b4565b610208610412366004612868565b611686565b61041f6116b4565b6040516102159190612e95565b61027b61043a366004612a75565b611720565b6103e761044d366004612a75565b611b7a565b60006001600160e01b031982166380ac58cd60e01b148061048357506001600160e01b03198216635b5e139f60e01b145b80610492575061049282611d6e565b90505b919050565b6104a2612734565b600b6040518060a00160405290816000820180546104bf90613772565b80601f01602080910402602001604051908101604052809291908181526020018280546104eb90613772565b80156105385780601f1061050d57610100808354040283529160200191610538565b820191906000526020600020905b81548152906001019060200180831161051b57829003601f168201915b5050505050815260200160018201805461055190613772565b80601f016020809104026020016040519081016040528092919081815260200182805461057d90613772565b80156105ca5780601f1061059f576101008083540402835291602001916105ca565b820191906000526020600020905b8154815290600101906020018083116105ad57829003601f168201915b50505050508152602001600282015481526020016003820154815260200160048201548152505090505b90565b60606000805461060690613772565b80601f016020809104026020016040519081016040528092919081815260200182805461063290613772565b801561067f5780601f106106545761010080835404028352916020019161067f565b820191906000526020600020905b81548152906001019060200180831161066257829003601f168201915b5050505050905090565b600061069482611d87565b6106b95760405162461bcd60e51b81526004016106b0906133b3565b60405180910390fd5b506000908152600460205260409020546001600160a01b031690565b60006106e0826107ff565b9050806001600160a01b0316836001600160a01b031614156107145760405162461bcd60e51b81526004016106b09061351f565b806001600160a01b0316610726611da4565b6001600160a01b03161480610742575061074281610412611da4565b61075e5760405162461bcd60e51b81526004016106b090613241565b6107688383611da8565b505050565b61077e610778611da4565b82611e16565b61079a5760405162461bcd60e51b81526004016106b090613560565b610768838383611e9b565b6013546001600160a01b031681565b60155481565b61076883838360405180602001604052806000815250610dc4565b6014546001600160a01b031681565b6001600160a01b031660009081526009602052604090205490565b6000818152600260205260408120546001600160a01b0316806104925760405162461bcd60e51b81526004016106b0906132e8565b60006001600160a01b03821661085c5760405162461bcd60e51b81526004016106b09061329e565b506001600160a01b031660009081526003602052604090205490565b60096020526000908152604090205481565b6016546001600160a01b031681565b336001600160a01b037f000000000000000000000000000000000000000000000000000000000000000016146108e15760405162461bcd60e51b81526004016106b0906134a5565b6108eb8282611fc8565b5050565b60606001805461060690613772565b6016546001600160a01b031633146109285760405162461bcd60e51b81526004016106b0906135b1565b60405163a9059cbb60e01b81526001600160a01b037f0000000000000000000000000000000000000000000000000000000000000000169063a9059cbb906109769085908590600401612e2b565b602060405180830381600087803b15801561099057600080fd5b505af11580156109a4573d6000803e3d6000fd5b505050506040513d601f19601f820116820180604052508101906109c89190612a00565b6108eb5760405162461bcd60e51b81526004016106b090613218565b60086020526000908152604090208054600182018054919291610a0690613772565b80601f0160208091040260200160405190810160405280929190818152602001828054610a3290613772565b8015610a7f5780601f10610a5457610100808354040283529160200191610a7f565b820191906000526020600020905b815481529060010190602001808311610a6257829003601f168201915b505050505090806002018054610a9490613772565b80601f0160208091040260200160405190810160405280929190818152602001828054610ac090613772565b8015610b0d5780601f10610ae257610100808354040283529160200191610b0d565b820191906000526020600020905b815481529060010190602001808311610af057829003601f168201915b5050505050908060030154908060040154908060050154908060060154905087565b610b37611da4565b6001600160a01b0316826001600160a01b03161415610b685760405162461bcd60e51b81526004016106b09061314a565b8060056000610b75611da4565b6001600160a01b03908116825260208083019390935260409182016000908120918716808252919093529120805460ff191692151592909217909155610bb9611da4565b6001600160a01b03167f17307eab39ab6107e8899845ad3d59bd9653f200f220920489ca2b5937696c3183604051610bf19190612f4d565b60405180910390a35050565b600b80548190610c0c90613772565b80601f0160208091040260200160405190810160405280929190818152602001828054610c3890613772565b8015610c855780601f10610c5a57610100808354040283529160200191610c85565b820191906000526020600020905b815481529060010190602001808311610c6857829003601f168201915b505050505090806001018054610c9a90613772565b80601f0160208091040260200160405190810160405280929190818152602001828054610cc690613772565b8015610d135780601f10610ce857610100808354040283529160200191610d13565b820191906000526020600020905b815481529060010190602001808311610cf657829003601f168201915b5050505050908060020154908060030154908060040154905085565b336000908152600960209081526040808320548084526008909252909120600381015415610d6f5760405162461bcd60e51b81526004016106b0906133ff565b80600401548160030154610d8391906136e4565b600382018190556040517f5d40119f7d0b83acbe37043bb35b88565cd8174d2a14740ab3cb13f90bbb2ffa91610db891612f58565b60405180910390a15050565b610dd5610dcf611da4565b83611e16565b610df15760405162461bcd60e51b81526004016106b090613560565b610dfd84848484611fce565b50505050565b60606007805480602002602001604051908101604052809291908181526020016000905b82821015610faf57838290600052602060002090600702016040518060e001604052908160008201548152602001600182018054610e6490613772565b80601f0160208091040260200160405190810160405280929190818152602001828054610e9090613772565b8015610edd5780601f10610eb257610100808354040283529160200191610edd565b820191906000526020600020905b815481529060010190602001808311610ec057829003601f168201915b50505050508152602001600282018054610ef690613772565b80601f0160208091040260200160405190810160405280929190818152602001828054610f2290613772565b8015610f6f5780601f10610f4457610100808354040283529160200191610f6f565b820191906000526020600020905b815481529060010190602001808311610f5257829003601f168201915b5050505050815260200160038201548152602001600482015481526020016005820154815260200160068201548152505081526020019060010190610e27565b50505050905090565b6000818152600860209081526040808320815160e08101909252805482526001810180546060959484019190610fed90613772565b80601f016020809104026020016040519081016040528092919081815260200182805461101990613772565b80156110665780601f1061103b57610100808354040283529160200191611066565b820191906000526020600020905b81548152906001019060200180831161104957829003601f168201915b5050505050815260200160028201805461107f90613772565b80601f01602080910402602001604051908101604052809291908181526020018280546110ab90613772565b80156110f85780601f106110cd576101008083540402835291602001916110f8565b820191906000526020600020905b8154815290600101906020018083116110db57829003601f168201915b505050505081526020016003820154815260200160048201548152602001600582015481526020016006820154815250509050600061113a8260600151612001565b9050600061114b8360800151612001565b9050600061115c8460a00151612001565b9050600061116d8560c00151612001565b905060006111b586602001516111828a612001565b8860400151888887896040516020016111a19796959493929190612c13565b60405160208183030381529060405261211c565b90506000816040516020016111ca9190612d95565b60408051808303601f190181529190529998505050505050505050565b6111ef612763565b33600090815260096020526040902054801561138157600860008281526020019081526020016000206040518060e00160405290816000820154815260200160018201805461123d90613772565b80601f016020809104026020016040519081016040528092919081815260200182805461126990613772565b80156112b65780601f1061128b576101008083540402835291602001916112b6565b820191906000526020600020905b81548152906001019060200180831161129957829003601f168201915b505050505081526020016002820180546112cf90613772565b80601f01602080910402602001604051908101604052809291908181526020018280546112fb90613772565b80156113485780601f1061131d57610100808354040283529160200191611348565b820191906000526020600020905b81548152906001019060200180831161132b57829003601f168201915b505050505081526020016003820154815260200160048201548152602001600582015481526020016006820154815250509150506105f4565b611389612763565b91506105f49050565b5090565b3360009081526009602090815260408083205480845260089092529091206113bc6115b4565b5060006113c944426136e4565b905060006064826015546113dd91906136e4565b6113e791906137c2565b9050600083600301541161140d5760405162461bcd60e51b81526004016106b090613331565b600d5461142c5760405162461bcd60e51b81526004016106b0906134dc565b6040805180820190915260068152651b9bdc9b585b60d21b60208201526005840154600d541015611461576000600d55611500565b60328211156114d15750604080518082019091526006815265646f75626c6560d01b60208201526005840154611498906002613710565b600d546114a5919061372f565b600d5560058401546114b8906002613710565b84600601546114c791906136e4565b6006850155611500565b6005840154600d546114e3919061372f565b600d55600584015460068501546114fa91906136e4565b60068501555b600f546003850154101561151a576000600385015561155d565b6032821161154557506040805180820190915260068152651b5a5cdcd95960d21b602082015261155d565b600f546003850154611557919061372f565b60038501555b7f6dcfae3ef855faaa1372fd0403c20c87b35ac0c92445211eb381bc2e823e82ac600b600201548560030154866006015484601554876040516115a5969594939291906136aa565b60405180910390a15050505050565b60006012547f00000000000000000000000000000000000000000000000000000000000000006001600160a01b03166370a08231306040518263ffffffff1660e01b81526004016116059190612dda565b60206040518083038186803b15801561161d57600080fd5b505afa158015611631573d6000803e3d6000fd5b505050506040513d601f19601f820116820180604052508101906116559190612a8d565b10156116735760405162461bcd60e51b81526004016106b090613181565b611681601154601254612290565b905090565b6001600160a01b03918216600090815260056020908152604080832093909416825291909152205460ff1690565b60606010805480602002602001604051908101604052809291908181526020016000905b82821015610faf5760008481526020908190206040805180820190915260028502909101805482526001908101546001600160a01b03168284015290835290920191016116d8565b600061172c600a6123cb565b905061173833826123cf565b6040518060e001604052808381526020016007848154811061176a57634e487b7160e01b600052603260045260246000fd5b9060005260206000209060070201600101805461178690613772565b80601f01602080910402602001604051908101604052809291908181526020018280546117b290613772565b80156117ff5780601f106117d4576101008083540402835291602001916117ff565b820191906000526020600020905b8154815290600101906020018083116117e257829003601f168201915b505050505081526020016007848154811061182a57634e487b7160e01b600052603260045260246000fd5b9060005260206000209060070201600201805461184690613772565b80601f016020809104026020016040519081016040528092919081815260200182805461187290613772565b80156118bf5780601f10611894576101008083540402835291602001916118bf565b820191906000526020600020905b8154815290600101906020018083116118a257829003601f168201915b50505050508152602001600784815481106118ea57634e487b7160e01b600052603260045260246000fd5b90600052602060002090600702016003015481526020016007848154811061192257634e487b7160e01b600052603260045260246000fd5b90600052602060002090600702016003015481526020016007848154811061195a57634e487b7160e01b600052603260045260246000fd5b90600052602060002090600702016005015481526020016007848154811061199257634e487b7160e01b600052603260045260246000fd5b600091825260208083206006600790930201919091015490925283815260088252604090208251815582820151805191926119d5926001850192909101906127a0565b50604082015180516119f19160028401916020909101906127a0565b50606082015181600301556080820151816004015560a0820151816005015560c08201518160060155905050611a406040518060600160405280602e81526020016138c0602e913982846123e9565b6040805180820182528281523360208083019182526010805460018101825560009190915292517f1b6847dc741a1b0cd08d278845f9d819d87b734759afb55fe2de5cb82a9ae67260029094029384015590517f1b6847dc741a1b0cd08d278845f9d819d87b734759afb55fe2de5cb82a9ae67390920180546001600160a01b0319166001600160a01b03909316929092179091558151606081018352828152611af4929091613840908301398233612430565b336000908152600960205260409020819055611b10600a611d65565b7f4bc303fd457a97b4691b9af582ce71868a3d258638c8d4f8c60988a0f0bfb8cd338284604051611b4393929190612e74565b60405180910390a17fd9dc24857f317ed9abbbb42e920ede0104231eb1d3d70236a74887ffaf15986882604051610db89190612f58565b611b82612763565b818015611d0557600860008281526020019081526020016000206040518060e001604052908160008201548152602001600182018054611bc190613772565b80601f0160208091040260200160405190810160405280929190818152602001828054611bed90613772565b8015611c3a5780601f10611c0f57610100808354040283529160200191611c3a565b820191906000526020600020905b815481529060010190602001808311611c1d57829003601f168201915b50505050508152602001600282018054611c5390613772565b80601f0160208091040260200160405190810160405280929190818152602001828054611c7f90613772565b8015611ccc5780601f10611ca157610100808354040283529160200191611ccc565b820191906000526020600020905b815481529060010190602001808311611caf57829003601f168201915b50505050508152602001600382015481526020016004820154815260200160058201548152602001600682015481525050915050610495565b611d0d612763565b91506104959050565b50919050565b610dfd84848484604051602401611d369493929190612f98565b60408051601f198184030181529190526020810180516001600160e01b0316638d142cdd60e01b179052612473565b80546001019055565b6001600160e01b031981166301ffc9a760e01b14919050565b6000908152600260205260409020546001600160a01b0316151590565b3390565b600081815260046020526040902080546001600160a01b0319166001600160a01b0384169081179091558190611ddd826107ff565b6001600160a01b03167f8c5be1e5ebec7d5bd14f71427d1e84f3dd0314c0f7b2291e5b200ac8c7c3b92560405160405180910390a45050565b6000611e2182611d87565b611e3d5760405162461bcd60e51b81526004016106b0906131cc565b6000611e48836107ff565b9050806001600160a01b0316846001600160a01b03161480611e835750836001600160a01b0316611e7884610689565b6001600160a01b0316145b80611e935750611e938185611686565b949350505050565b826001600160a01b0316611eae826107ff565b6001600160a01b031614611ed45760405162461bcd60e51b81526004016106b09061345c565b6001600160a01b038216611efa5760405162461bcd60e51b81526004016106b090613106565b611f05838383610768565b611f10600082611da8565b6001600160a01b0383166000908152600360205260408120805460019290611f3990849061372f565b90915550506001600160a01b0382166000908152600360205260408120805460019290611f679084906136e4565b909155505060008181526002602052604080822080546001600160a01b0319166001600160a01b0386811691821790925591518493918716917fddf252ad1be2c89b69c2b068fc378daa952ba7f163c4a11628f55a4df523b3ef91a4505050565b60155550565b611fd9848484611e9b565b611fe584848484612494565b610dfd5760405162461bcd60e51b81526004016106b09061307d565b60608161202657506040805180820190915260018152600360fc1b6020820152610495565b8160005b8115612050578061203a816137a7565b91506120499050600a836136fc565b915061202a565b60008167ffffffffffffffff81111561207957634e487b7160e01b600052604160045260246000fd5b6040519080825280601f01601f1916602001820160405280156120a3576020820181803683370190505b5090505b8415611e93576120b860018361372f565b91506120c5600a866137c2565b6120d09060306136e4565b60f81b8183815181106120f357634e487b7160e01b600052603260045260246000fd5b60200101906001600160f81b031916908160001a905350612115600a866136fc565b94506120a7565b80516060908061213c575050604080516020810190915260008152610495565b6000600361214b8360026136e4565b61215591906136fc565b612160906004613710565b9050600061216f8260206136e4565b67ffffffffffffffff81111561219557634e487b7160e01b600052604160045260246000fd5b6040519080825280601f01601f1916602001820160405280156121bf576020820181803683370190505b5090506000604051806060016040528060408152602001613880604091399050600181016020830160005b8681101561224b576003818a01810151603f601282901c8116860151600c83901c8216870151600684901c831688015192909316870151600891821b60ff94851601821b92841692909201901b91160160e01b8352600490920191016121ea565b506003860660018114612265576002811461227657612282565b613d3d60f01b600119830152612282565b603d60f81b6000198301525b505050918152949350505050565b60007f00000000000000000000000000000000000000000000000000000000000000006001600160a01b0316634000aea07f0000000000000000000000000000000000000000000000000000000000000000848660006040516020016122f7929190612c05565b6040516020818303038152906040526040518463ffffffff1660e01b815260040161232493929190612e44565b602060405180830381600087803b15801561233e57600080fd5b505af1158015612352573d6000803e3d6000fd5b505050506040513d601f19601f820116820180604052508101906123769190612a00565b50600083815260066020526040812054612395908590839030906125af565b6000858152600660205260409020549091506123b29060016136e4565b600085815260066020526040902055611e9384826125e9565b5490565b6108eb82826040518060200160405280600081525061261c565b61076883838360405160240161240193929190613058565b60408051601f198184030181529190526020810180516001600160e01b031663969cdd0360e01b179052612473565b61076883838360405160240161244893929190613025565b60408051601f198184030181529190526020810180516001600160e01b031663e3849f7960e01b1790525b80516a636f6e736f6c652e6c6f67602083016000808483855afa5050505050565b60006124a8846001600160a01b031661264f565b156125a457836001600160a01b031663150b7a026124c4611da4565b8786866040518563ffffffff1660e01b81526004016124e69493929190612dee565b602060405180830381600087803b15801561250057600080fd5b505af1925050508015612530575060408051601f3d908101601f1916820190925261252d91810190612a59565b60015b61258a573d80801561255e576040519150601f19603f3d011682016040523d82523d6000602084013e612563565b606091505b5080516125825760405162461bcd60e51b81526004016106b09061307d565b805181602001fd5b6001600160e01b031916630a85bd0160e11b149050611e93565b506001949350505050565b6000848484846040516020016125c89493929190612f61565b60408051601f19818403018152919052805160209091012095945050505050565b600082826040516020016125fe929190612c05565b60405160208183030381529060405280519060200120905092915050565b6126268383612655565b6126336000848484612494565b6107685760405162461bcd60e51b81526004016106b09061307d565b3b151590565b6001600160a01b03821661267b5760405162461bcd60e51b81526004016106b09061337e565b61268481611d87565b156126a15760405162461bcd60e51b81526004016106b0906130cf565b6126ad60008383610768565b6001600160a01b03821660009081526003602052604081208054600192906126d69084906136e4565b909155505060008181526002602052604080822080546001600160a01b0319166001600160a01b03861690811790915590518392907fddf252ad1be2c89b69c2b068fc378daa952ba7f163c4a11628f55a4df523b3ef908290a45050565b6040518060a0016040528060608152602001606081526020016000815260200160008152602001600081525090565b6040518060e00160405280600081526020016060815260200160608152602001600081526020016000815260200160008152602001600081525090565b8280546127ac90613772565b90600052602060002090601f0160209004810192826127ce5760008555612814565b82601f106127e757805160ff1916838001178555612814565b82800160010185558215612814579182015b828111156128145782518255916020019190600101906127f9565b506113929291505b80821115611392576000815560010161281c565b80356001600160a01b038116811461049557600080fd5b600060208284031215612858578081fd5b61286182612830565b9392505050565b6000806040838503121561287a578081fd5b61288383612830565b915061289160208401612830565b90509250929050565b6000806000606084860312156128ae578081fd5b6128b784612830565b92506128c560208501612830565b9150604084013590509250925092565b600080600080608085870312156128ea578081fd5b6128f385612830565b93506020612902818701612830565b935060408601359250606086013567ffffffffffffffff80821115612925578384fd5b818801915088601f830112612938578384fd5b81358181111561294a5761294a613802565b604051601f8201601f191681018501838111828210171561296d5761296d613802565b60405281815283820185018b1015612983578586fd5b81858501868301379081019093019390935250939692955090935050565b600080604083850312156129b3578182fd5b6129bc83612830565b915060208301356129cc81613818565b809150509250929050565b600080604083850312156129e9578182fd5b6129f283612830565b946020939093013593505050565b600060208284031215612a11578081fd5b815161286181613818565b60008060408385031215612a2e578182fd5b50508035926020909101359150565b600060208284031215612a4e578081fd5b813561286181613829565b600060208284031215612a6a578081fd5b815161286181613829565b600060208284031215612a86578081fd5b5035919050565b600060208284031215612a9e578081fd5b5051919050565b60008151808452612abd816020860160208601613746565b601f01601f19169290920160200192915050565b60008151612ae3818560208601613746565b9290920192915050565b6d16101136b0bc2fbb30b63ab2911d60911b8152600e0190565b637d205d7d60e01b815260040190565b7f7d2c207b202274726169745f74797065223a202244616d61676520496e666c6981526f031ba32b2111610113b30b63ab2911d160851b602082015260300190565b7f7d2c207b202274726169745f74797065223a202241747461636b2044616d616781526c032911610113b30b63ab2911d1609d1b6020820152602d0190565b600081518352602082015160e06020850152612bb760e0850182612aa5565b905060408301518482036040860152612bd08282612aa5565b915050606083015160608501526080830151608085015260a083015160a085015260c083015160c08501528091505092915050565b918252602082015260400190565b693d913730b6b2911d101160b11b81528751600090612c3981600a850160208d01613746565b6a01016969027232a10119d160ad1b600a918401918201528851612c64816015840160208d01613746565b7f222c20226465736372697074696f6e223a20225468697320697320616e204e46601592909101918201527f54207468617420676976657320796f7520656e74727920746f2074686520447760358201527f6967687420436c75622067616d652e222c2022696d616765223a20220000000060558201528751612cee816071840160208c01613746565b7f222c202261747472696275746573223a205b207b202274726169745f74797065607192909101918201527f223a20224865616c746820506f696e7473222c202276616c7565223a200000006091820152612d87612d82612d7c612d77612d71612d6c612d66612d6160ae89018f612ad1565b612aed565b8c612ad1565b612b17565b89612ad1565b612b59565b86612ad1565b612b07565b9a9950505050505050505050565b60007f646174613a6170706c69636174696f6e2f6a736f6e3b6261736536342c00000082528251612dcd81601d850160208701613746565b91909101601d0192915050565b6001600160a01b0391909116815260200190565b6001600160a01b0385811682528416602082015260408101839052608060608201819052600090612e2190830184612aa5565b9695505050505050565b6001600160a01b03929092168252602082015260400190565b600060018060a01b038516825283602083015260606040830152612e6b6060830184612aa5565b95945050505050565b6001600160a01b039390931683526020830191909152604082015260600190565b602080825282518282018190526000919060409081850190868401855b82811015612ee0578151805185528601516001600160a01b0316868501529284019290850190600101612eb2565b5091979650505050505050565b6000602080830181845280855180835260408601915060408482028701019250838701855b82811015612f4057603f19888603018452612f2e858351612b98565b94509285019290850190600101612f12565b5092979650505050505050565b901515815260200190565b90815260200190565b93845260208401929092526001600160a01b03166040830152606082015260800190565b6000602082526128616020830184612aa5565b600060808252612fab6080830187612aa5565b8281036020840152612fbd8187612aa5565b90508460408401528281036060840152612fd78185612aa5565b979650505050505050565b600060a08252612ff560a0830188612aa5565b82810360208401526130078188612aa5565b60408401969096525050606081019290925260809091015292915050565b6000606082526130386060830186612aa5565b6020830194909452506001600160a01b0391909116604090910152919050565b60006060825261306b6060830186612aa5565b60208301949094525060400152919050565b60208082526032908201527f4552433732313a207472616e7366657220746f206e6f6e20455243373231526560408201527131b2b4bb32b91034b6b83632b6b2b73a32b960711b606082015260800190565b6020808252601c908201527f4552433732313a20746f6b656e20616c7265616479206d696e74656400000000604082015260600190565b60208082526024908201527f4552433732313a207472616e7366657220746f20746865207a65726f206164646040820152637265737360e01b606082015260800190565b60208082526019908201527f4552433732313a20617070726f766520746f2063616c6c657200000000000000604082015260600190565b6020808252602b908201527f4e6f7420656e6f756768204c494e4b202d2066696c6c20636f6e74726163742060408201526a1dda5d1a0819985d58d95d60aa1b606082015260800190565b6020808252602c908201527f4552433732313a206f70657261746f7220717565727920666f72206e6f6e657860408201526b34b9ba32b73a103a37b5b2b760a11b606082015260800190565b6020808252600f908201526e4e6f7420656e6f756768204c494e4b60881b604082015260600190565b60208082526038908201527f4552433732313a20617070726f76652063616c6c6572206973206e6f74206f7760408201527f6e6572206e6f7220617070726f76656420666f7220616c6c0000000000000000606082015260800190565b6020808252602a908201527f4552433732313a2062616c616e636520717565727920666f7220746865207a65604082015269726f206164647265737360b01b606082015260800190565b60208082526029908201527f4552433732313a206f776e657220717565727920666f72206e6f6e657869737460408201526832b73a103a37b5b2b760b91b606082015260800190565b6020808252602d908201527f4572726f723a20636861726163746572206d757374206861766520485020746f60408201526c1030ba3a30b1b5903137b9b99760991b606082015260800190565b6020808252818101527f4552433732313a206d696e7420746f20746865207a65726f2061646472657373604082015260600190565b6020808252602c908201527f4552433732313a20617070726f76656420717565727920666f72206e6f6e657860408201526b34b9ba32b73a103a37b5b2b760a11b606082015260800190565b6020808252603a908201527f4572726f723a20636861726163746572206d757374206861766520302048502060408201527f6265666f726520726573657474696e672074686569722048502e000000000000606082015260800190565b60208082526029908201527f4552433732313a207472616e73666572206f6620746f6b656e2074686174206960408201526839903737ba1037bbb760b91b606082015260800190565b6020808252601f908201527f4f6e6c7920565246436f6f7264696e61746f722063616e2066756c66696c6c00604082015260600190565b60208082526023908201527f4572726f723a20626f7373206d757374206861766520485020746f206174746160408201526231b59760e91b606082015260800190565b60208082526021908201527f4552433732313a20617070726f76616c20746f2063757272656e74206f776e656040820152603960f91b606082015260800190565b60208082526031908201527f4552433732313a207472616e736665722063616c6c6572206973206e6f74206f6040820152701ddb995c881b9bdc88185c1c1c9bdd9959607a1b606082015260800190565b6020808252601690820152752cb7ba9030b932903737ba103a34329037bbb732b91760511b604082015260600190565b600060208252825160a060208401526135fd60c0840182612aa5565b90506020840151601f1984830301604085015261361a8282612aa5565b9150506040840151606084015260608401516080840152608084015160a08401528091505092915050565b6000602082526128616020830184612b98565b600088825260e0602083015261367160e0830189612aa5565b82810360408401526136838189612aa5565b9150508560608301528460808301528360a08301528260c083015298975050505050505050565b600087825286602083015285604083015260c060608301526136cf60c0830186612aa5565b60808301949094525060a00152949350505050565b600082198211156136f7576136f76137d6565b500190565b60008261370b5761370b6137ec565b500490565b600081600019048311821515161561372a5761372a6137d6565b500290565b600082821015613741576137416137d6565b500390565b60005b83811015613761578181015183820152602001613749565b83811115610dfd5750506000910152565b60028104600182168061378657607f821691505b60208210811415611d1657634e487b7160e01b600052602260045260246000fd5b60006000198214156137bb576137bb6137d6565b5060010190565b6000826137d1576137d16137ec565b500690565b634e487b7160e01b600052601160045260246000fd5b634e487b7160e01b600052601260045260246000fd5b634e487b7160e01b600052604160045260246000fd5b801515811461382657600080fd5b50565b6001600160e01b03198116811461382657600080fdfe507573686564206e657720706c6179657220746f2067616d65557365727320617272617920772f20746f6b656e496420257320616e642077616c6c65742025734142434445464748494a4b4c4d4e4f505152535455565758595a6162636465666768696a6b6c6d6e6f707172737475767778797a303132333435363738392b2f4d696e746564204e465420772f20746f6b656e496420257320616e6420636861726163746572496e646578202573a264697066735822122034e6d08e8484c7214c2a89a638e0a6f434cb10b2a79d0546d8403fbc1f55c31d64736f6c63430008000033446f6e6520696e697469616c697a696e6720257320772f2048502025732c20696d67202573446f6e6520696e697469616c697a696e6720626f737320257320772f2048502025732c20696d67202573",
  "linkReferences": {},
  "deployedLinkReferences": {}
}