{
  "_format": "hh-sol-artifact-1",
  "contractName": "MyEpicGame",
  "sourceName": "contracts/MyEpicGame.sol",
  "abi": [
    {
      "inputs": [
        {
          "internalType": "string[]",
          "name": "characterNames",
          "type": "string[]"
        },
        {
          "internalType": "string[]",
          "name": "characterImageURIs",
          "type": "string[]"
        },
        {
          "internalType": "uint256[]",
          "name": "characterHp",
          "type": "uint256[]"
        },
        {
          "internalType": "uint256[]",
          "name": "characterAttackDmg",
          "type": "uint256[]"
        },
        {
          "internalType": "uint256[]",
          "name": "characterDmgInflicted",
          "type": "uint256[]"
        },
        {
          "internalType": "string",
          "name": "bossName",
          "type": "string"
        },
        {
          "internalType": "string",
          "name": "bossImageURI",
          "type": "string"
        },
        {
          "internalType": "uint256",
          "name": "bossHp",
          "type": "uint256"
        },
        {
          "internalType": "uint256",
          "name": "bossAttackDamage",
          "type": "uint256"
        },
        {
          "internalType": "address",
          "name": "vrfCoordinatorAddress",
          "type": "address"
        },
        {
          "internalType": "address",
          "name": "linkTokenAddress",
          "type": "address"
        }
      ],
      "stateMutability": "nonpayable",
      "type": "constructor"
    },
    {
      "anonymous": false,
      "inputs": [
        {
          "indexed": true,
          "internalType": "address",
          "name": "owner",
          "type": "address"
        },
        {
          "indexed": true,
          "internalType": "address",
          "name": "approved",
          "type": "address"
        },
        {
          "indexed": true,
          "internalType": "uint256",
          "name": "tokenId",
          "type": "uint256"
        }
      ],
      "name": "Approval",
      "type": "event"
    },
    {
      "anonymous": false,
      "inputs": [
        {
          "indexed": true,
          "internalType": "address",
          "name": "owner",
          "type": "address"
        },
        {
          "indexed": true,
          "internalType": "address",
          "name": "operator",
          "type": "address"
        },
        {
          "indexed": false,
          "internalType": "bool",
          "name": "approved",
          "type": "bool"
        }
      ],
      "name": "ApprovalForAll",
      "type": "event"
    },
    {
      "anonymous": false,
      "inputs": [
        {
          "indexed": false,
          "internalType": "uint256",
          "name": "newBossHp",
          "type": "uint256"
        },
        {
          "indexed": false,
          "internalType": "uint256",
          "name": "newPlayerHp",
          "type": "uint256"
        },
        {
          "indexed": false,
          "internalType": "uint256",
          "name": "newPlayerDmgInflicted",
          "type": "uint256"
        },
        {
          "indexed": false,
          "internalType": "string",
          "name": "randomFactor",
          "type": "string"
        },
        {
          "indexed": false,
          "internalType": "uint256",
          "name": "originalRandom",
          "type": "uint256"
        },
        {
          "indexed": false,
          "internalType": "uint256",
          "name": "newRandom",
          "type": "uint256"
        }
      ],
      "name": "AttackComplete",
      "type": "event"
    },
    {
      "anonymous": false,
      "inputs": [
        {
          "indexed": false,
          "internalType": "address",
          "name": "sender",
          "type": "address"
        },
        {
          "indexed": false,
          "internalType": "uint256",
          "name": "tokenId",
          "type": "uint256"
        },
        {
          "indexed": false,
          "internalType": "uint256",
          "name": "characterIndex",
          "type": "uint256"
        }
      ],
      "name": "CharacterNFTMinted",
      "type": "event"
    },
    {
      "anonymous": false,
      "inputs": [
        {
          "indexed": false,
          "internalType": "uint256",
          "name": "playerHpReset",
          "type": "uint256"
        }
      ],
      "name": "HpPurchaseComplete",
      "type": "event"
    },
    {
      "anonymous": false,
      "inputs": [
        {
          "indexed": false,
          "internalType": "uint256",
          "name": "characterIndex",
          "type": "uint256"
        }
      ],
      "name": "NFTMinted",
      "type": "event"
    },
    {
      "anonymous": false,
      "inputs": [
        {
          "indexed": true,
          "internalType": "address",
          "name": "from",
          "type": "address"
        },
        {
          "indexed": true,
          "internalType": "address",
          "name": "to",
          "type": "address"
        },
        {
          "indexed": true,
          "internalType": "uint256",
          "name": "tokenId",
          "type": "uint256"
        }
      ],
      "name": "Transfer",
      "type": "event"
    },
    {
      "inputs": [],
      "name": "LinkToken",
      "outputs": [
        {
          "internalType": "address",
          "name": "",
          "type": "address"
        }
      ],
      "stateMutability": "view",
      "type": "function"
    },
    {
      "inputs": [],
      "name": "VRFCoordinator",
      "outputs": [
        {
          "internalType": "address",
          "name": "",
          "type": "address"
        }
      ],
      "stateMutability": "view",
      "type": "function"
    },
    {
      "inputs": [
        {
          "internalType": "address",
          "name": "to",
          "type": "address"
        },
        {
          "internalType": "uint256",
          "name": "tokenId",
          "type": "uint256"
        }
      ],
      "name": "approve",
      "outputs": [],
      "stateMutability": "nonpayable",
      "type": "function"
    },
    {
      "inputs": [],
      "name": "attackBoss",
      "outputs": [],
      "stateMutability": "nonpayable",
      "type": "function"
    },
    {
      "inputs": [
        {
          "internalType": "address",
          "name": "owner",
          "type": "address"
        }
      ],
      "name": "balanceOf",
      "outputs": [
        {
          "internalType": "uint256",
          "name": "",
          "type": "uint256"
        }
      ],
      "stateMutability": "view",
      "type": "function"
    },
    {
      "inputs": [],
      "name": "bigBoss",
      "outputs": [
        {
          "internalType": "string",
          "name": "name",
          "type": "string"
        },
        {
          "internalType": "string",
          "name": "imageURI",
          "type": "string"
        },
        {
          "internalType": "uint256",
          "name": "hp",
          "type": "uint256"
        },
        {
          "internalType": "uint256",
          "name": "maxHp",
          "type": "uint256"
        },
        {
          "internalType": "uint256",
          "name": "attackDamage",
          "type": "uint256"
        }
      ],
      "stateMutability": "view",
      "type": "function"
    },
    {
      "inputs": [],
      "name": "checkIfUserHasNFT",
      "outputs": [
        {
          "components": [
            {
              "internalType": "uint256",
              "name": "characterIndex",
              "type": "uint256"
            },
            {
              "internalType": "string",
              "name": "name",
              "type": "string"
            },
            {
              "internalType": "string",
              "name": "imageURI",
              "type": "string"
            },
            {
              "internalType": "uint256",
              "name": "hp",
              "type": "uint256"
            },
            {
              "internalType": "uint256",
              "name": "maxHp",
              "type": "uint256"
            },
            {
              "internalType": "uint256",
              "name": "attackDamage",
              "type": "uint256"
            },
            {
              "internalType": "uint256",
              "name": "damageInflicted",
              "type": "uint256"
            }
          ],
          "internalType": "struct MyEpicGame.CharacterAttributes",
          "name": "",
          "type": "tuple"
        }
      ],
      "stateMutability": "view",
      "type": "function"
    },
    {
      "inputs": [],
      "name": "getAllDefaultCharacters",
      "outputs": [
        {
          "components": [
            {
              "internalType": "uint256",
              "name": "characterIndex",
              "type": "uint256"
            },
            {
              "internalType": "string",
              "name": "name",
              "type": "string"
            },
            {
              "internalType": "string",
              "name": "imageURI",
              "type": "string"
            },
            {
              "internalType": "uint256",
              "name": "hp",
              "type": "uint256"
            },
            {
              "internalType": "uint256",
              "name": "maxHp",
              "type": "uint256"
            },
            {
              "internalType": "uint256",
              "name": "attackDamage",
              "type": "uint256"
            },
            {
              "internalType": "uint256",
              "name": "damageInflicted",
              "type": "uint256"
            }
          ],
          "internalType": "struct MyEpicGame.CharacterAttributes[]",
          "name": "",
          "type": "tuple[]"
        }
      ],
      "stateMutability": "view",
      "type": "function"
    },
    {
      "inputs": [],
      "name": "getAllPlayers",
      "outputs": [
        {
          "components": [
            {
              "internalType": "uint256",
              "name": "id",
              "type": "uint256"
            },
            {
              "internalType": "address",
              "name": "wallet",
              "type": "address"
            }
          ],
          "internalType": "struct MyEpicGame.AllPlayers[]",
          "name": "",
          "type": "tuple[]"
        }
      ],
      "stateMutability": "view",
      "type": "function"
    },
    {
      "inputs": [
        {
          "internalType": "uint256",
          "name": "tokenId",
          "type": "uint256"
        }
      ],
      "name": "getApproved",
      "outputs": [
        {
          "internalType": "address",
          "name": "",
          "type": "address"
        }
      ],
      "stateMutability": "view",
      "type": "function"
    },
    {
      "inputs": [],
      "name": "getBigBoss",
      "outputs": [
        {
          "components": [
            {
              "internalType": "string",
              "name": "name",
              "type": "string"
            },
            {
              "internalType": "string",
              "name": "imageURI",
              "type": "string"
            },
            {
              "internalType": "uint256",
              "name": "hp",
              "type": "uint256"
            },
            {
              "internalType": "uint256",
              "name": "maxHp",
              "type": "uint256"
            },
            {
              "internalType": "uint256",
              "name": "attackDamage",
              "type": "uint256"
            }
          ],
          "internalType": "struct MyEpicGame.BigBoss",
          "name": "",
          "type": "tuple"
        }
      ],
      "stateMutability": "view",
      "type": "function"
    },
    {
      "inputs": [],
      "name": "getRandomNumber",
      "outputs": [
        {
          "internalType": "bytes32",
          "name": "requestId",
          "type": "bytes32"
        }
      ],
      "stateMutability": "nonpayable",
      "type": "function"
    },
    {
      "inputs": [
        {
          "internalType": "uint256",
          "name": "_tokenId",
          "type": "uint256"
        }
      ],
      "name": "getUserNFTCharacterAttributes",
      "outputs": [
        {
          "components": [
            {
              "internalType": "uint256",
              "name": "characterIndex",
              "type": "uint256"
            },
            {
              "internalType": "string",
              "name": "name",
              "type": "string"
            },
            {
              "internalType": "string",
              "name": "imageURI",
              "type": "string"
            },
            {
              "internalType": "uint256",
              "name": "hp",
              "type": "uint256"
            },
            {
              "internalType": "uint256",
              "name": "maxHp",
              "type": "uint256"
            },
            {
              "internalType": "uint256",
              "name": "attackDamage",
              "type": "uint256"
            },
            {
              "internalType": "uint256",
              "name": "damageInflicted",
              "type": "uint256"
            }
          ],
          "internalType": "struct MyEpicGame.CharacterAttributes",
          "name": "",
          "type": "tuple"
        }
      ],
      "stateMutability": "view",
      "type": "function"
    },
    {
      "inputs": [
        {
          "internalType": "address",
          "name": "owner",
          "type": "address"
        },
        {
          "internalType": "address",
          "name": "operator",
          "type": "address"
        }
      ],
      "name": "isApprovedForAll",
      "outputs": [
        {
          "internalType": "bool",
          "name": "",
          "type": "bool"
        }
      ],
      "stateMutability": "view",
      "type": "function"
    },
    {
      "inputs": [
        {
          "internalType": "uint256",
          "name": "_characterIndex",
          "type": "uint256"
        }
      ],
      "name": "mintCharacterNFT",
      "outputs": [],
      "stateMutability": "nonpayable",
      "type": "function"
    },
    {
      "inputs": [],
      "name": "name",
      "outputs": [
        {
          "internalType": "string",
          "name": "",
          "type": "string"
        }
      ],
      "stateMutability": "view",
      "type": "function"
    },
    {
      "inputs": [
        {
          "internalType": "uint256",
          "name": "",
          "type": "uint256"
        }
      ],
      "name": "nftHolderAttributes",
      "outputs": [
        {
          "internalType": "uint256",
          "name": "characterIndex",
          "type": "uint256"
        },
        {
          "internalType": "string",
          "name": "name",
          "type": "string"
        },
        {
          "internalType": "string",
          "name": "imageURI",
          "type": "string"
        },
        {
          "internalType": "uint256",
          "name": "hp",
          "type": "uint256"
        },
        {
          "internalType": "uint256",
          "name": "maxHp",
          "type": "uint256"
        },
        {
          "internalType": "uint256",
          "name": "attackDamage",
          "type": "uint256"
        },
        {
          "internalType": "uint256",
          "name": "damageInflicted",
          "type": "uint256"
        }
      ],
      "stateMutability": "view",
      "type": "function"
    },
    {
      "inputs": [
        {
          "internalType": "address",
          "name": "",
          "type": "address"
        }
      ],
      "name": "nftHolders",
      "outputs": [
        {
          "internalType": "uint256",
          "name": "",
          "type": "uint256"
        }
      ],
      "stateMutability": "view",
      "type": "function"
    },
    {
      "inputs": [],
      "name": "owner",
      "outputs": [
        {
          "internalType": "address",
          "name": "",
          "type": "address"
        }
      ],
      "stateMutability": "view",
      "type": "function"
    },
    {
      "inputs": [
        {
          "internalType": "uint256",
          "name": "tokenId",
          "type": "uint256"
        }
      ],
      "name": "ownerOf",
      "outputs": [
        {
          "internalType": "address",
          "name": "",
          "type": "address"
        }
      ],
      "stateMutability": "view",
      "type": "function"
    },
    {
      "inputs": [],
      "name": "purchaseHp",
      "outputs": [],
      "stateMutability": "nonpayable",
      "type": "function"
    },
    {
      "inputs": [],
      "name": "randomResult",
      "outputs": [
        {
          "internalType": "uint256",
          "name": "",
          "type": "uint256"
        }
      ],
      "stateMutability": "view",
      "type": "function"
    },
    {
      "inputs": [
        {
          "internalType": "bytes32",
          "name": "requestId",
          "type": "bytes32"
        },
        {
          "internalType": "uint256",
          "name": "randomness",
          "type": "uint256"
        }
      ],
      "name": "rawFulfillRandomness",
      "outputs": [],
      "stateMutability": "nonpayable",
      "type": "function"
    },
    {
      "inputs": [
        {
          "internalType": "address",
          "name": "from",
          "type": "address"
        },
        {
          "internalType": "address",
          "name": "to",
          "type": "address"
        },
        {
          "internalType": "uint256",
          "name": "tokenId",
          "type": "uint256"
        }
      ],
      "name": "safeTransferFrom",
      "outputs": [],
      "stateMutability": "nonpayable",
      "type": "function"
    },
    {
      "inputs": [
        {
          "internalType": "address",
          "name": "from",
          "type": "address"
        },
        {
          "internalType": "address",
          "name": "to",
          "type": "address"
        },
        {
          "internalType": "uint256",
          "name": "tokenId",
          "type": "uint256"
        },
        {
          "internalType": "bytes",
          "name": "_data",
          "type": "bytes"
        }
      ],
      "name": "safeTransferFrom",
      "outputs": [],
      "stateMutability": "nonpayable",
      "type": "function"
    },
    {
      "inputs": [
        {
          "internalType": "address",
          "name": "operator",
          "type": "address"
        },
        {
          "internalType": "bool",
          "name": "approved",
          "type": "bool"
        }
      ],
      "name": "setApprovalForAll",
      "outputs": [],
      "stateMutability": "nonpayable",
      "type": "function"
    },
    {
      "inputs": [
        {
          "internalType": "bytes4",
          "name": "interfaceId",
          "type": "bytes4"
        }
      ],
      "name": "supportsInterface",
      "outputs": [
        {
          "internalType": "bool",
          "name": "",
          "type": "bool"
        }
      ],
      "stateMutability": "view",
      "type": "function"
    },
    {
      "inputs": [],
      "name": "symbol",
      "outputs": [
        {
          "internalType": "string",
          "name": "",
          "type": "string"
        }
      ],
      "stateMutability": "view",
      "type": "function"
    },
    {
      "inputs": [
        {
          "internalType": "uint256",
          "name": "_tokenId",
          "type": "uint256"
        }
      ],
      "name": "tokenURI",
      "outputs": [
        {
          "internalType": "string",
          "name": "",
          "type": "string"
        }
      ],
      "stateMutability": "view",
      "type": "function"
    },
    {
      "inputs": [
        {
          "internalType": "address",
          "name": "from",
          "type": "address"
        },
        {
          "internalType": "address",
          "name": "to",
          "type": "address"
        },
        {
          "internalType": "uint256",
          "name": "tokenId",
          "type": "uint256"
        }
      ],
      "name": "transferFrom",
      "outputs": [],
      "stateMutability": "nonpayable",
      "type": "function"
    },
    {
      "inputs": [
        {
          "internalType": "address",
          "name": "to",
          "type": "address"
        },
        {
          "internalType": "uint256",
          "name": "value",
          "type": "uint256"
        }
      ],
      "name": "withdrawLINK",
      "outputs": [],
      "stateMutability": "nonpayable",
      "type": "function"
    }
  ],
  "bytecode": "0x60c06040523480156200001157600080fd5b5060405162006b3038038062006b30833981810160405281019062000037919062000c45565b81816040518060400160405280600581526020017f44436c75620000000000000000000000000000000000000000000000000000008152506040518060400160405280600481526020017f54455354000000000000000000000000000000000000000000000000000000008152508160009080519060200190620000bd929190620009c1565b508060019080519060200190620000d6929190620009c1565b5050508173ffffffffffffffffffffffffffffffffffffffff1660a08173ffffffffffffffffffffffffffffffffffffffff1660601b815250508073ffffffffffffffffffffffffffffffffffffffff1660808173ffffffffffffffffffffffffffffffffffffffff1660601b81525050505033601660006101000a81548173ffffffffffffffffffffffffffffffffffffffff021916908373ffffffffffffffffffffffffffffffffffffffff1602179055507f2ed0feb3e7fd2022120aa84fab1945545a9f2ffc9076fd6156fa96eaff4c131160001b60118190555067016345785d8a000060128190555081601360006101000a81548173ffffffffffffffffffffffffffffffffffffffff021916908373ffffffffffffffffffffffffffffffffffffffff16021790555080601460006101000a81548173ffffffffffffffffffffffffffffffffffffffff021916908373ffffffffffffffffffffffffffffffffffffffff16021790555060016015819055506040518060a0016040528087815260200186815260200185815260200185815260200184815250600b600082015181600001908051906020019062000294929190620009c1565b506020820151816001019080519060200190620002b3929190620009c1565b50604082015181600201556060820151816003015560808201518160040155905050620004366040518060600160405280602a815260200162006b06602a9139600b6000018054620003059062001061565b80601f0160208091040260200160405190810160405280929190818152602001828054620003339062001061565b8015620003845780601f10620003585761010080835404028352916020019162000384565b820191906000526020600020905b8154815290600101906020018083116200036657829003601f168201915b5050505050600b60020154600b6001018054620003a19062001061565b80601f0160208091040260200160405190810160405280929190818152602001828054620003cf9062001061565b8015620004205780601f10620003f45761010080835404028352916020019162000420565b820191906000526020600020905b8154815290600101906020018083116200040257829003601f168201915b5050505050620008d660201b6200274f1760201c565b60005b8b51811015620008ad5760076040518060e001604052808381526020018e848151811062000490577f4e487b7100000000000000000000000000000000000000000000000000000000600052603260045260246000fd5b602002602001015181526020018d8481518110620004d7577f4e487b7100000000000000000000000000000000000000000000000000000000600052603260045260246000fd5b602002602001015181526020018c84815181106200051e577f4e487b7100000000000000000000000000000000000000000000000000000000600052603260045260246000fd5b602002602001015181526020018c848151811062000565577f4e487b7100000000000000000000000000000000000000000000000000000000600052603260045260246000fd5b602002602001015181526020018b8481518110620005ac577f4e487b7100000000000000000000000000000000000000000000000000000000600052603260045260246000fd5b602002602001015181526020018a8481518110620005f3577f4e487b7100000000000000000000000000000000000000000000000000000000600052603260045260246000fd5b602002602001015181525090806001815401808255809150506001900390600052602060002090600702016000909190919091506000820151816000015560208201518160010190805190602001906200064f929190620009c1565b5060408201518160020190805190602001906200066e929190620009c1565b50606082015181600301556080820151816004015560a0820151816005015560c082015181600601555050600060078281548110620006d6577f4e487b7100000000000000000000000000000000000000000000000000000000600052603260045260246000fd5b90600052602060002090600702016040518060e0016040529081600082015481526020016001820180546200070b9062001061565b80601f0160208091040260200160405190810160405280929190818152602001828054620007399062001061565b80156200078a5780601f106200075e576101008083540402835291602001916200078a565b820191906000526020600020905b8154815290600101906020018083116200076c57829003601f168201915b50505050508152602001600282018054620007a59062001061565b80601f0160208091040260200160405190810160405280929190818152602001828054620007d39062001061565b8015620008245780601f10620007f85761010080835404028352916020019162000824565b820191906000526020600020905b8154815290600101906020018083116200080657829003601f168201915b5050505050815260200160038201548152602001600482015481526020016005820154815260200160068201548152505090506200089560405180606001604052806025815260200162006ae160259139826020015183606001518460400151620008d660201b6200274f1760201c565b50600181620008a5919062000f90565b905062000439565b50620008c5600a6200098260201b620027f11760201c565b505050505050505050505062001169565b6200097c84848484604051602401620008f3949392919062000e4d565b6040516020818303038152906040527f8d142cdd000000000000000000000000000000000000000000000000000000007bffffffffffffffffffffffffffffffffffffffffffffffffffffffff19166020820180517bffffffffffffffffffffffffffffffffffffffffffffffffffffffff83818316178352505050506200099860201b60201c565b50505050565b6001816000016000828254019250508190555050565b60008151905060006a636f6e736f6c652e6c6f679050602083016000808483855afa5050505050565b828054620009cf9062001061565b90600052602060002090601f016020900481019282620009f3576000855562000a3f565b82601f1062000a0e57805160ff191683800117855562000a3f565b8280016001018555821562000a3f579182015b8281111562000a3e57825182559160200191906001019062000a21565b5b50905062000a4e919062000a52565b5090565b5b8082111562000a6d57600081600090555060010162000a53565b5090565b600062000a8862000a828462000ee3565b62000eaf565b9050808382526020820190508260005b8581101562000acc578151850162000ab1888262000c01565b84526020840193506020830192505060018101905062000a98565b5050509392505050565b600062000aed62000ae78462000f12565b62000eaf565b9050808382526020820190508285602086028201111562000b0d57600080fd5b60005b8581101562000b41578162000b26888262000c2e565b84526020840193506020830192505060018101905062000b10565b5050509392505050565b600062000b6262000b5c8462000f41565b62000eaf565b90508281526020810184848401111562000b7b57600080fd5b62000b888482856200102b565b509392505050565b60008151905062000ba18162001135565b92915050565b600082601f83011262000bb957600080fd5b815162000bcb84826020860162000a71565b91505092915050565b600082601f83011262000be657600080fd5b815162000bf884826020860162000ad6565b91505092915050565b600082601f83011262000c1357600080fd5b815162000c2584826020860162000b4b565b91505092915050565b60008151905062000c3f816200114f565b92915050565b60008060008060008060008060008060006101608c8e03121562000c6857600080fd5b60008c015167ffffffffffffffff81111562000c8357600080fd5b62000c918e828f0162000ba7565b9b505060208c015167ffffffffffffffff81111562000caf57600080fd5b62000cbd8e828f0162000ba7565b9a505060408c015167ffffffffffffffff81111562000cdb57600080fd5b62000ce98e828f0162000bd4565b99505060608c015167ffffffffffffffff81111562000d0757600080fd5b62000d158e828f0162000bd4565b98505060808c015167ffffffffffffffff81111562000d3357600080fd5b62000d418e828f0162000bd4565b97505060a08c015167ffffffffffffffff81111562000d5f57600080fd5b62000d6d8e828f0162000c01565b96505060c08c015167ffffffffffffffff81111562000d8b57600080fd5b62000d998e828f0162000c01565b95505060e062000dac8e828f0162000c2e565b94505061010062000dc08e828f0162000c2e565b93505061012062000dd48e828f0162000b90565b92505061014062000de88e828f0162000b90565b9150509295989b509295989b9093969950565b600062000e088262000f74565b62000e14818562000f7f565b935062000e268185602086016200102b565b62000e318162001124565b840191505092915050565b62000e478162001021565b82525050565b6000608082019050818103600083015262000e69818762000dfb565b9050818103602083015262000e7f818662000dfb565b905062000e90604083018562000e3c565b818103606083015262000ea4818462000dfb565b905095945050505050565b6000604051905081810181811067ffffffffffffffff8211171562000ed95762000ed8620010f5565b5b8060405250919050565b600067ffffffffffffffff82111562000f015762000f00620010f5565b5b602082029050602081019050919050565b600067ffffffffffffffff82111562000f305762000f2f620010f5565b5b602082029050602081019050919050565b600067ffffffffffffffff82111562000f5f5762000f5e620010f5565b5b601f19601f8301169050602081019050919050565b600081519050919050565b600082825260208201905092915050565b600062000f9d8262001021565b915062000faa8362001021565b9250827fffffffffffffffffffffffffffffffffffffffffffffffffffffffffffffffff0382111562000fe25762000fe162001097565b5b828201905092915050565b600062000ffa8262001001565b9050919050565b600073ffffffffffffffffffffffffffffffffffffffff82169050919050565b6000819050919050565b60005b838110156200104b5780820151818401526020810190506200102e565b838111156200105b576000848401525b50505050565b600060028204905060018216806200107a57607f821691505b60208210811415620010915762001090620010c6565b5b50919050565b7f4e487b7100000000000000000000000000000000000000000000000000000000600052601160045260246000fd5b7f4e487b7100000000000000000000000000000000000000000000000000000000600052602260045260246000fd5b7f4e487b7100000000000000000000000000000000000000000000000000000000600052604160045260246000fd5b6000601f19601f8301169050919050565b620011408162000fed565b81146200114c57600080fd5b50565b6200115a8162001021565b81146200116657600080fd5b50565b60805160601c60a05160601c615937620011aa60003960008181610ce901526130ea015260008181610ea701528181611e0a01526130ae01526159376000f3fe608060405234801561001057600080fd5b50600436106101e55760003560e01c806395d89b411161010f578063c87b56dd116100a2578063e985e9c511610071578063e985e9c514610566578063efa1c48214610596578063f8b81ef7146105b4578063fc02a139146105d0576101e5565b8063c87b56dd146104f0578063c8cf27f414610520578063d4f24c5b1461053e578063dbdff2c114610548576101e5565b8063a9c32679116100de578063a9c326791461048a578063b65426c3146104ac578063b88d4fde146104b6578063b953084e146104d2576101e5565b806395d89b41146103fe578063983fbab21461041c57806398da4c9514610438578063a22cb4651461046e576101e5565b806342619f661161018757806370a082311161015657806370a08231146103645780637df124a1146103945780638da5cb5b146103c457806394985ddd146103e2576101e5565b806342619f66146102dc57806342842e0e146102fa5780634f8e2fdf146103165780636352211e14610334576101e5565b8063081812fc116101c3578063081812fc14610256578063095ea7b31461028657806323b872dd146102a257806333b60863146102be576101e5565b806301ffc9a7146101ea5780630665f9611461021a57806306fdde0314610238575b600080fd5b61020460048036038101906101ff9190613c11565b610600565b6040516102119190614d96565b60405180910390f35b6102226106e2565b60405161022f9190615213565b60405180910390f35b61024061083e565b60405161024d9190614e3a565b60405180910390f35b610270600480360381019061026b9190613c63565b6108d0565b60405161027d9190614c4d565b60405180910390f35b6102a0600480360381019061029b9190613b70565b610955565b005b6102bc60048036038101906102b79190613a6a565b610a6d565b005b6102c6610acd565b6040516102d39190614c4d565b60405180910390f35b6102e4610af3565b6040516102f19190615257565b60405180910390f35b610314600480360381019061030f9190613a6a565b610af9565b005b61031e610b19565b60405161032b9190614c4d565b60405180910390f35b61034e60048036038101906103499190613c63565b610b3f565b60405161035b9190614c4d565b60405180910390f35b61037e60048036038101906103799190613a05565b610bf1565b60405161038b9190615257565b60405180910390f35b6103ae60048036038101906103a99190613a05565b610ca9565b6040516103bb9190615257565b60405180910390f35b6103cc610cc1565b6040516103d99190614c4d565b60405180910390f35b6103fc60048036038101906103f79190613bd5565b610ce7565b005b610406610d83565b6040516104139190614e3a565b60405180910390f35b61043660048036038101906104319190613b70565b610e15565b005b610452600480360381019061044d9190613c63565b610f95565b6040516104659796959493929190615272565b60405180910390f35b61048860048036038101906104839190613b34565b6110e7565b005b610492611268565b6040516104a3959493929190614eb6565b60405180910390f35b6104b461139c565b005b6104d060048036038101906104cb9190613ab9565b611499565b005b6104da6114fb565b6040516104e79190614d74565b60405180910390f35b61050a60048036038101906105059190613c63565b6116b0565b6040516105179190614e3a565b60405180910390f35b6105286118e9565b6040516105359190615235565b60405180910390f35b610546611acb565b005b610550611e03565b60405161055d9190614db1565b60405180910390f35b610580600480360381019061057b9190613a2e565b611f05565b60405161058d9190614d96565b60405180910390f35b61059e611f99565b6040516105ab9190614d52565b60405180910390f35b6105ce60048036038101906105c99190613c63565b612058565b005b6105ea60048036038101906105e59190613c63565b6125aa565b6040516105f79190615235565b60405180910390f35b60007f80ac58cd000000000000000000000000000000000000000000000000000000007bffffffffffffffffffffffffffffffffffffffffffffffffffffffff1916827bffffffffffffffffffffffffffffffffffffffffffffffffffffffff191614806106cb57507f5b5e139f000000000000000000000000000000000000000000000000000000007bffffffffffffffffffffffffffffffffffffffffffffffffffffffff1916827bffffffffffffffffffffffffffffffffffffffffffffffffffffffff1916145b806106db57506106da82612807565b5b9050919050565b6106ea6137e6565b600b6040518060a001604052908160008201805461070790615653565b80601f016020809104026020016040519081016040528092919081815260200182805461073390615653565b80156107805780601f1061075557610100808354040283529160200191610780565b820191906000526020600020905b81548152906001019060200180831161076357829003601f168201915b5050505050815260200160018201805461079990615653565b80601f01602080910402602001604051908101604052809291908181526020018280546107c590615653565b80156108125780601f106107e757610100808354040283529160200191610812565b820191906000526020600020905b8154815290600101906020018083116107f557829003601f168201915b505050505081526020016002820154815260200160038201548152602001600482015481525050905090565b60606000805461084d90615653565b80601f016020809104026020016040519081016040528092919081815260200182805461087990615653565b80156108c65780601f1061089b576101008083540402835291602001916108c6565b820191906000526020600020905b8154815290600101906020018083116108a957829003601f168201915b5050505050905090565b60006108db82612871565b61091a576040517f08c379a000000000000000000000000000000000000000000000000000000000815260040161091190615133565b60405180910390fd5b6004600083815260200190815260200160002060009054906101000a900473ffffffffffffffffffffffffffffffffffffffff169050919050565b600061096082610b3f565b90508073ffffffffffffffffffffffffffffffffffffffff168373ffffffffffffffffffffffffffffffffffffffff1614156109d1576040517f08c379a00000000000000000000000000000000000000000000000000000000081526004016109c8906151b3565b60405180910390fd5b8073ffffffffffffffffffffffffffffffffffffffff166109f06128dd565b73ffffffffffffffffffffffffffffffffffffffff161480610a1f5750610a1e81610a196128dd565b611f05565b5b610a5e576040517f08c379a0000000000000000000000000000000000000000000000000000000008152600401610a5590615093565b60405180910390fd5b610a6883836128e5565b505050565b610a7e610a786128dd565b8261299e565b610abd576040517f08c379a0000000000000000000000000000000000000000000000000000000008152600401610ab4906151d3565b60405180910390fd5b610ac8838383612a7c565b505050565b601360009054906101000a900473ffffffffffffffffffffffffffffffffffffffff1681565b60155481565b610b1483838360405180602001604052806000815250611499565b505050565b601460009054906101000a900473ffffffffffffffffffffffffffffffffffffffff1681565b6000806002600084815260200190815260200160002060009054906101000a900473ffffffffffffffffffffffffffffffffffffffff169050600073ffffffffffffffffffffffffffffffffffffffff168173ffffffffffffffffffffffffffffffffffffffff161415610be8576040517f08c379a0000000000000000000000000000000000000000000000000000000008152600401610bdf906150d3565b60405180910390fd5b80915050919050565b60008073ffffffffffffffffffffffffffffffffffffffff168273ffffffffffffffffffffffffffffffffffffffff161415610c62576040517f08c379a0000000000000000000000000000000000000000000000000000000008152600401610c59906150b3565b60405180910390fd5b600360008373ffffffffffffffffffffffffffffffffffffffff1673ffffffffffffffffffffffffffffffffffffffff168152602001908152602001600020549050919050565b60096020528060005260406000206000915090505481565b601660009054906101000a900473ffffffffffffffffffffffffffffffffffffffff1681565b7f000000000000000000000000000000000000000000000000000000000000000073ffffffffffffffffffffffffffffffffffffffff163373ffffffffffffffffffffffffffffffffffffffff1614610d75576040517f08c379a0000000000000000000000000000000000000000000000000000000008152600401610d6c90615193565b60405180910390fd5b610d7f8282612cd8565b5050565b606060018054610d9290615653565b80601f0160208091040260200160405190810160405280929190818152602001828054610dbe90615653565b8015610e0b5780601f10610de057610100808354040283529160200191610e0b565b820191906000526020600020905b815481529060010190602001808311610dee57829003601f168201915b5050505050905090565b601660009054906101000a900473ffffffffffffffffffffffffffffffffffffffff1673ffffffffffffffffffffffffffffffffffffffff163373ffffffffffffffffffffffffffffffffffffffff1614610ea5576040517f08c379a0000000000000000000000000000000000000000000000000000000008152600401610e9c906151f3565b60405180910390fd5b7f000000000000000000000000000000000000000000000000000000000000000073ffffffffffffffffffffffffffffffffffffffff1663a9059cbb83836040518363ffffffff1660e01b8152600401610f00929190614cb4565b602060405180830381600087803b158015610f1a57600080fd5b505af1158015610f2e573d6000803e3d6000fd5b505050506040513d601f19601f82011682018060405250810190610f529190613bac565b610f91576040517f08c379a0000000000000000000000000000000000000000000000000000000008152600401610f8890615073565b60405180910390fd5b5050565b6008602052806000526040600020600091509050806000015490806001018054610fbe90615653565b80601f0160208091040260200160405190810160405280929190818152602001828054610fea90615653565b80156110375780601f1061100c57610100808354040283529160200191611037565b820191906000526020600020905b81548152906001019060200180831161101a57829003601f168201915b50505050509080600201805461104c90615653565b80601f016020809104026020016040519081016040528092919081815260200182805461107890615653565b80156110c55780601f1061109a576101008083540402835291602001916110c5565b820191906000526020600020905b8154815290600101906020018083116110a857829003601f168201915b5050505050908060030154908060040154908060050154908060060154905087565b6110ef6128dd565b73ffffffffffffffffffffffffffffffffffffffff168273ffffffffffffffffffffffffffffffffffffffff16141561115d576040517f08c379a000000000000000000000000000000000000000000000000000000000815260040161115490615013565b60405180910390fd5b806005600061116a6128dd565b73ffffffffffffffffffffffffffffffffffffffff1673ffffffffffffffffffffffffffffffffffffffff16815260200190815260200160002060008473ffffffffffffffffffffffffffffffffffffffff1673ffffffffffffffffffffffffffffffffffffffff16815260200190815260200160002060006101000a81548160ff0219169083151502179055508173ffffffffffffffffffffffffffffffffffffffff166112176128dd565b73ffffffffffffffffffffffffffffffffffffffff167f17307eab39ab6107e8899845ad3d59bd9653f200f220920489ca2b5937696c318360405161125c9190614d96565b60405180910390a35050565b600b80600001805461127990615653565b80601f01602080910402602001604051908101604052809291908181526020018280546112a590615653565b80156112f25780601f106112c7576101008083540402835291602001916112f2565b820191906000526020600020905b8154815290600101906020018083116112d557829003601f168201915b50505050509080600101805461130790615653565b80601f016020809104026020016040519081016040528092919081815260200182805461133390615653565b80156113805780601f1061135557610100808354040283529160200191611380565b820191906000526020600020905b81548152906001019060200180831161136357829003601f168201915b5050505050908060020154908060030154908060040154905085565b6000600960003373ffffffffffffffffffffffffffffffffffffffff1673ffffffffffffffffffffffffffffffffffffffff1681526020019081526020016000205490506000600860008381526020019081526020016000209050600081600301541461143e576040517f08c379a000000000000000000000000000000000000000000000000000000000815260040161143590615153565b60405180910390fd5b80600401548160030154611452919061547e565b81600301819055507f5d40119f7d0b83acbe37043bb35b88565cd8174d2a14740ab3cb13f90bbb2ffa816003015460405161148d9190615257565b60405180910390a15050565b6114aa6114a46128dd565b8361299e565b6114e9576040517f08c379a00000000000000000000000000000000000000000000000000000000081526004016114e0906151d3565b60405180910390fd5b6114f584848484612ce3565b50505050565b60606007805480602002602001604051908101604052809291908181526020016000905b828210156116a757838290600052602060002090600702016040518060e00160405290816000820154815260200160018201805461155c90615653565b80601f016020809104026020016040519081016040528092919081815260200182805461158890615653565b80156115d55780601f106115aa576101008083540402835291602001916115d5565b820191906000526020600020905b8154815290600101906020018083116115b857829003601f168201915b505050505081526020016002820180546115ee90615653565b80601f016020809104026020016040519081016040528092919081815260200182805461161a90615653565b80156116675780601f1061163c57610100808354040283529160200191611667565b820191906000526020600020905b81548152906001019060200180831161164a57829003601f168201915b505050505081526020016003820154815260200160048201548152602001600582015481526020016006820154815250508152602001906001019061151f565b50505050905090565b60606000600860008481526020019081526020016000206040518060e0016040529081600082015481526020016001820180546116ec90615653565b80601f016020809104026020016040519081016040528092919081815260200182805461171890615653565b80156117655780601f1061173a57610100808354040283529160200191611765565b820191906000526020600020905b81548152906001019060200180831161174857829003601f168201915b5050505050815260200160028201805461177e90615653565b80601f01602080910402602001604051908101604052809291908181526020018280546117aa90615653565b80156117f75780601f106117cc576101008083540402835291602001916117f7565b820191906000526020600020905b8154815290600101906020018083116117da57829003601f168201915b50505050508152602001600382015481526020016004820154815260200160058201548152602001600682015481525050905060006118398260600151612d3f565b9050600061184a8360800151612d3f565b9050600061185b8460a00151612d3f565b9050600061186c8560c00151612d3f565b905060006118b486602001516118818a612d3f565b8860400151888888886040516020016118a09796959493929190614b6e565b604051602081830303815290604052612eec565b90506000816040516020016118c99190614c2b565b604051602081830303815290604052905080975050505050505050919050565b6118f1613815565b6000600960003373ffffffffffffffffffffffffffffffffffffffff1673ffffffffffffffffffffffffffffffffffffffff1681526020019081526020016000205490506000811115611aba57600860008281526020019081526020016000206040518060e00160405290816000820154815260200160018201805461197690615653565b80601f01602080910402602001604051908101604052809291908181526020018280546119a290615653565b80156119ef5780601f106119c4576101008083540402835291602001916119ef565b820191906000526020600020905b8154815290600101906020018083116119d257829003601f168201915b50505050508152602001600282018054611a0890615653565b80601f0160208091040260200160405190810160405280929190818152602001828054611a3490615653565b8015611a815780601f10611a5657610100808354040283529160200191611a81565b820191906000526020600020905b815481529060010190602001808311611a6457829003601f168201915b50505050508152602001600382015481526020016004820154815260200160058201548152602001600682015481525050915050611ac8565b611ac2613815565b80925050505b90565b6000600960003373ffffffffffffffffffffffffffffffffffffffff1673ffffffffffffffffffffffffffffffffffffffff1681526020019081526020016000205490506000600860008381526020019081526020016000209050611b2e611e03565b5060004442611b3d919061547e565b90506000606482601554611b51919061547e565b611b5b91906156e2565b90506000836003015411611ba4576040517f08c379a0000000000000000000000000000000000000000000000000000000008152600401611b9b906150f3565b60405180910390fd5b6000600b6002015411611bec576040517f08c379a0000000000000000000000000000000000000000000000000000000008152600401611be390614fb3565b60405180910390fd5b60006040518060400160405280600681526020017f6e6f726d616c000000000000000000000000000000000000000000000000000081525090508360050154600b600201541015611c47576000600b60020181905550611d1b565b6032821115611cdf576040518060400160405280600681526020017f646f75626c650000000000000000000000000000000000000000000000000000815250905060028460050154611c999190615505565b600b60020154611ca9919061555f565b600b6002018190555060028460050154611cc39190615505565b8460060154611cd2919061547e565b8460060181905550611d1a565b8360050154600b60020154611cf4919061555f565b600b6002018190555083600501548460060154611d11919061547e565b84600601819055505b5b600b6004015484600301541015611d3b5760008460030181905550611dac565b60328211611d8d576040518060400160405280600681526020017f6d69737365640000000000000000000000000000000000000000000000000000815250905083600301548460030181905550611dab565b600b600401548460030154611da2919061555f565b84600301819055505b5b7f6dcfae3ef855faaa1372fd0403c20c87b35ac0c92445211eb381bc2e823e82ac600b60020154856003015486600601548460155487604051611df4969594939291906152ef565b60405180910390a15050505050565b60006012547f000000000000000000000000000000000000000000000000000000000000000073ffffffffffffffffffffffffffffffffffffffff166370a08231306040518263ffffffff1660e01b8152600401611e619190614c4d565b60206040518083038186803b158015611e7957600080fd5b505afa158015611e8d573d6000803e3d6000fd5b505050506040513d601f19601f82011682018060405250810190611eb19190613c8c565b1015611ef2576040517f08c379a0000000000000000000000000000000000000000000000000000000008152600401611ee990615033565b60405180910390fd5b611f006011546012546130aa565b905090565b6000600560008473ffffffffffffffffffffffffffffffffffffffff1673ffffffffffffffffffffffffffffffffffffffff16815260200190815260200160002060008373ffffffffffffffffffffffffffffffffffffffff1673ffffffffffffffffffffffffffffffffffffffff16815260200190815260200160002060009054906101000a900460ff16905092915050565b60606010805480602002602001604051908101604052809291908181526020016000905b8282101561204f5783829060005260206000209060020201604051806040016040529081600082015481526020016001820160009054906101000a900473ffffffffffffffffffffffffffffffffffffffff1673ffffffffffffffffffffffffffffffffffffffff1673ffffffffffffffffffffffffffffffffffffffff168152505081526020019060010190611fbd565b50505050905090565b6000612064600a61320c565b9050612070338261321a565b6040518060e00160405280838152602001600784815481106120bb577f4e487b7100000000000000000000000000000000000000000000000000000000600052603260045260246000fd5b906000526020600020906007020160010180546120d790615653565b80601f016020809104026020016040519081016040528092919081815260200182805461210390615653565b80156121505780601f1061212557610100808354040283529160200191612150565b820191906000526020600020905b81548152906001019060200180831161213357829003601f168201915b5050505050815260200160078481548110612194577f4e487b7100000000000000000000000000000000000000000000000000000000600052603260045260246000fd5b906000526020600020906007020160020180546121b090615653565b80601f01602080910402602001604051908101604052809291908181526020018280546121dc90615653565b80156122295780601f106121fe57610100808354040283529160200191612229565b820191906000526020600020905b81548152906001019060200180831161220c57829003601f168201915b505050505081526020016007848154811061226d577f4e487b7100000000000000000000000000000000000000000000000000000000600052603260045260246000fd5b9060005260206000209060070201600301548152602001600784815481106122be577f4e487b7100000000000000000000000000000000000000000000000000000000600052603260045260246000fd5b90600052602060002090600702016003015481526020016007848154811061230f577f4e487b7100000000000000000000000000000000000000000000000000000000600052603260045260246000fd5b906000526020600020906007020160050154815260200160078481548110612360577f4e487b7100000000000000000000000000000000000000000000000000000000600052603260045260246000fd5b906000526020600020906007020160060154815250600860008381526020019081526020016000206000820151816000015560208201518160010190805190602001906123ae929190613852565b5060408201518160020190805190602001906123cb929190613852565b50606082015181600301556080820151816004015560a0820151816005015560c0820151816006015590505061241a6040518060600160405280602e81526020016158d4602e91398284613238565b601060405180604001604052808381526020013373ffffffffffffffffffffffffffffffffffffffff1681525090806001815401808255809150506001900390600052602060002090600202016000909190919091506000820151816000015560208201518160010160006101000a81548173ffffffffffffffffffffffffffffffffffffffff021916908373ffffffffffffffffffffffffffffffffffffffff16021790555050506124e66040518060600160405280604081526020016158546040913982336132d7565b80600960003373ffffffffffffffffffffffffffffffffffffffff1673ffffffffffffffffffffffffffffffffffffffff16815260200190815260200160002081905550612534600a6127f1565b7f4bc303fd457a97b4691b9af582ce71868a3d258638c8d4f8c60988a0f0bfb8cd33828460405161256793929190614d1b565b60405180910390a17fd9dc24857f317ed9abbbb42e920ede0104231eb1d3d70236a74887ffaf1598688260405161259e9190615257565b60405180910390a15050565b6125b2613815565b6000829050600081111561273c57600860008281526020019081526020016000206040518060e0016040529081600082015481526020016001820180546125f890615653565b80601f016020809104026020016040519081016040528092919081815260200182805461262490615653565b80156126715780601f1061264657610100808354040283529160200191612671565b820191906000526020600020905b81548152906001019060200180831161265457829003601f168201915b5050505050815260200160028201805461268a90615653565b80601f01602080910402602001604051908101604052809291908181526020018280546126b690615653565b80156127035780601f106126d857610100808354040283529160200191612703565b820191906000526020600020905b8154815290600101906020018083116126e657829003601f168201915b5050505050815260200160038201548152602001600482015481526020016005820154815260200160068201548152505091505061274a565b612744613815565b80925050505b919050565b6127eb848484846040516024016127699493929190614e5c565b6040516020818303038152906040527f8d142cdd000000000000000000000000000000000000000000000000000000007bffffffffffffffffffffffffffffffffffffffffffffffffffffffff19166020820180517bffffffffffffffffffffffffffffffffffffffffffffffffffffffff8381831617835250505050613376565b50505050565b6001816000016000828254019250508190555050565b60007f01ffc9a7000000000000000000000000000000000000000000000000000000007bffffffffffffffffffffffffffffffffffffffffffffffffffffffff1916827bffffffffffffffffffffffffffffffffffffffffffffffffffffffff1916149050919050565b60008073ffffffffffffffffffffffffffffffffffffffff166002600084815260200190815260200160002060009054906101000a900473ffffffffffffffffffffffffffffffffffffffff1673ffffffffffffffffffffffffffffffffffffffff1614159050919050565b600033905090565b816004600083815260200190815260200160002060006101000a81548173ffffffffffffffffffffffffffffffffffffffff021916908373ffffffffffffffffffffffffffffffffffffffff160217905550808273ffffffffffffffffffffffffffffffffffffffff1661295883610b3f565b73ffffffffffffffffffffffffffffffffffffffff167f8c5be1e5ebec7d5bd14f71427d1e84f3dd0314c0f7b2291e5b200ac8c7c3b92560405160405180910390a45050565b60006129a982612871565b6129e8576040517f08c379a00000000000000000000000000000000000000000000000000000000081526004016129df90615053565b60405180910390fd5b60006129f383610b3f565b90508073ffffffffffffffffffffffffffffffffffffffff168473ffffffffffffffffffffffffffffffffffffffff161480612a6257508373ffffffffffffffffffffffffffffffffffffffff16612a4a846108d0565b73ffffffffffffffffffffffffffffffffffffffff16145b80612a735750612a728185611f05565b5b91505092915050565b8273ffffffffffffffffffffffffffffffffffffffff16612a9c82610b3f565b73ffffffffffffffffffffffffffffffffffffffff1614612af2576040517f08c379a0000000000000000000000000000000000000000000000000000000008152600401612ae990615173565b60405180910390fd5b600073ffffffffffffffffffffffffffffffffffffffff168273ffffffffffffffffffffffffffffffffffffffff161415612b62576040517f08c379a0000000000000000000000000000000000000000000000000000000008152600401612b5990614ff3565b60405180910390fd5b612b6d83838361339f565b612b786000826128e5565b6001600360008573ffffffffffffffffffffffffffffffffffffffff1673ffffffffffffffffffffffffffffffffffffffff1681526020019081526020016000206000828254612bc8919061555f565b925050819055506001600360008473ffffffffffffffffffffffffffffffffffffffff1673ffffffffffffffffffffffffffffffffffffffff1681526020019081526020016000206000828254612c1f919061547e565b92505081905550816002600083815260200190815260200160002060006101000a81548173ffffffffffffffffffffffffffffffffffffffff021916908373ffffffffffffffffffffffffffffffffffffffff160217905550808273ffffffffffffffffffffffffffffffffffffffff168473ffffffffffffffffffffffffffffffffffffffff167fddf252ad1be2c89b69c2b068fc378daa952ba7f163c4a11628f55a4df523b3ef60405160405180910390a4505050565b806015819055505050565b612cee848484612a7c565b612cfa848484846133a4565b612d39576040517f08c379a0000000000000000000000000000000000000000000000000000000008152600401612d3090614f93565b60405180910390fd5b50505050565b60606000821415612d87576040518060400160405280600181526020017f30000000000000000000000000000000000000000000000000000000000000008152509050612ee7565b600082905060005b60008214612db9578080612da290615685565b915050600a82612db291906154d4565b9150612d8f565b60008167ffffffffffffffff811115612dfb577f4e487b7100000000000000000000000000000000000000000000000000000000600052604160045260246000fd5b6040519080825280601f01601f191660200182016040528015612e2d5781602001600182028036833780820191505090505b5090505b60008514612ee057600182612e46919061555f565b9150600a85612e5591906156e2565b6030612e61919061547e565b60f81b818381518110612e9d577f4e487b7100000000000000000000000000000000000000000000000000000000600052603260045260246000fd5b60200101907effffffffffffffffffffffffffffffffffffffffffffffffffffffffffffff1916908160001a905350600a85612ed991906154d4565b9450612e31565b8093505050505b919050565b60606000825190506000811415612f1557604051806020016040528060008152509150506130a5565b60006003600283612f26919061547e565b612f3091906154d4565b6004612f3c9190615505565b90506000602082612f4d919061547e565b67ffffffffffffffff811115612f8c577f4e487b7100000000000000000000000000000000000000000000000000000000600052604160045260246000fd5b6040519080825280601f01601f191660200182016040528015612fbe5781602001600182028036833780820191505090505b5090506000604051806060016040528060408152602001615894604091399050600181016020830160005b868110156130625760038101905062ffffff818a015116603f8160121c168401518060081b905060ff603f83600c1c1686015116810190508060081b905060ff603f8360061c1686015116810190508060081b905060ff603f831686015116810190508060e01b90508084526004840193505050612fe9565b50600386066001811461307c576002811461308c57613097565b613d3d60f01b6002830352613097565b603d60f81b60018303525b508484525050819450505050505b919050565b60007f000000000000000000000000000000000000000000000000000000000000000073ffffffffffffffffffffffffffffffffffffffff16634000aea07f00000000000000000000000000000000000000000000000000000000000000008486600060405160200161311e929190614dcc565b6040516020818303038152906040526040518463ffffffff1660e01b815260040161314b93929190614cdd565b602060405180830381600087803b15801561316557600080fd5b505af1158015613179573d6000803e3d6000fd5b505050506040513d601f19601f8201168201806040525081019061319d9190613bac565b5060006131c084600030600660008981526020019081526020016000205461353b565b9050600160066000868152602001908152602001600020546131e2919061547e565b60066000868152602001908152602001600020819055506132038482613577565b91505092915050565b600081600001549050919050565b6132348282604051806020016040528060008152506135aa565b5050565b6132d283838360405160240161325093929190614f55565b6040516020818303038152906040527f969cdd03000000000000000000000000000000000000000000000000000000007bffffffffffffffffffffffffffffffffffffffffffffffffffffffff19166020820180517bffffffffffffffffffffffffffffffffffffffffffffffffffffffff8381831617835250505050613376565b505050565b6133718383836040516024016132ef93929190614f17565b6040516020818303038152906040527fe3849f79000000000000000000000000000000000000000000000000000000007bffffffffffffffffffffffffffffffffffffffffffffffffffffffff19166020820180517bffffffffffffffffffffffffffffffffffffffffffffffffffffffff8381831617835250505050613376565b505050565b60008151905060006a636f6e736f6c652e6c6f679050602083016000808483855afa5050505050565b505050565b60006133c58473ffffffffffffffffffffffffffffffffffffffff16613605565b1561352e578373ffffffffffffffffffffffffffffffffffffffff1663150b7a026133ee6128dd565b8786866040518563ffffffff1660e01b81526004016134109493929190614c68565b602060405180830381600087803b15801561342a57600080fd5b505af192505050801561345b57506040513d601f19601f820116820180604052508101906134589190613c3a565b60015b6134de573d806000811461348b576040519150601f19603f3d011682016040523d82523d6000602084013e613490565b606091505b506000815114156134d6576040517f08c379a00000000000000000000000000000000000000000000000000000000081526004016134cd90614f93565b60405180910390fd5b805181602001fd5b63150b7a0260e01b7bffffffffffffffffffffffffffffffffffffffffffffffffffffffff1916817bffffffffffffffffffffffffffffffffffffffffffffffffffffffff191614915050613533565b600190505b949350505050565b6000848484846040516020016135549493929190614df5565b6040516020818303038152906040528051906020012060001c9050949350505050565b6000828260405160200161358c929190614b42565b60405160208183030381529060405280519060200120905092915050565b6135b48383613618565b6135c160008484846133a4565b613600576040517f08c379a00000000000000000000000000000000000000000000000000000000081526004016135f790614f93565b60405180910390fd5b505050565b600080823b905060008111915050919050565b600073ffffffffffffffffffffffffffffffffffffffff168273ffffffffffffffffffffffffffffffffffffffff161415613688576040517f08c379a000000000000000000000000000000000000000000000000000000000815260040161367f90615113565b60405180910390fd5b61369181612871565b156136d1576040517f08c379a00000000000000000000000000000000000000000000000000000000081526004016136c890614fd3565b60405180910390fd5b6136dd6000838361339f565b6001600360008473ffffffffffffffffffffffffffffffffffffffff1673ffffffffffffffffffffffffffffffffffffffff168152602001908152602001600020600082825461372d919061547e565b92505081905550816002600083815260200190815260200160002060006101000a81548173ffffffffffffffffffffffffffffffffffffffff021916908373ffffffffffffffffffffffffffffffffffffffff160217905550808273ffffffffffffffffffffffffffffffffffffffff16600073ffffffffffffffffffffffffffffffffffffffff167fddf252ad1be2c89b69c2b068fc378daa952ba7f163c4a11628f55a4df523b3ef60405160405180910390a45050565b6040518060a0016040528060608152602001606081526020016000815260200160008152602001600081525090565b6040518060e00160405280600081526020016060815260200160608152602001600081526020016000815260200160008152602001600081525090565b82805461385e90615653565b90600052602060002090601f01602090048101928261388057600085556138c7565b82601f1061389957805160ff19168380011785556138c7565b828001600101855582156138c7579182015b828111156138c65782518255916020019190600101906138ab565b5b5090506138d491906138d8565b5090565b5b808211156138f15760008160009055506001016138d9565b5090565b600061390861390384615388565b615357565b90508281526020810184848401111561392057600080fd5b61392b848285615611565b509392505050565b600081359050613942816157e0565b92915050565b600081359050613957816157f7565b92915050565b60008151905061396c816157f7565b92915050565b6000813590506139818161580e565b92915050565b60008135905061399681615825565b92915050565b6000815190506139ab81615825565b92915050565b600082601f8301126139c257600080fd5b81356139d28482602086016138f5565b91505092915050565b6000813590506139ea8161583c565b92915050565b6000815190506139ff8161583c565b92915050565b600060208284031215613a1757600080fd5b6000613a2584828501613933565b91505092915050565b60008060408385031215613a4157600080fd5b6000613a4f85828601613933565b9250506020613a6085828601613933565b9150509250929050565b600080600060608486031215613a7f57600080fd5b6000613a8d86828701613933565b9350506020613a9e86828701613933565b9250506040613aaf868287016139db565b9150509250925092565b60008060008060808587031215613acf57600080fd5b6000613add87828801613933565b9450506020613aee87828801613933565b9350506040613aff878288016139db565b925050606085013567ffffffffffffffff811115613b1c57600080fd5b613b28878288016139b1565b91505092959194509250565b60008060408385031215613b4757600080fd5b6000613b5585828601613933565b9250506020613b6685828601613948565b9150509250929050565b60008060408385031215613b8357600080fd5b6000613b9185828601613933565b9250506020613ba2858286016139db565b9150509250929050565b600060208284031215613bbe57600080fd5b6000613bcc8482850161395d565b91505092915050565b60008060408385031215613be857600080fd5b6000613bf685828601613972565b9250506020613c07858286016139db565b9150509250929050565b600060208284031215613c2357600080fd5b6000613c3184828501613987565b91505092915050565b600060208284031215613c4c57600080fd5b6000613c5a8482850161399c565b91505092915050565b600060208284031215613c7557600080fd5b6000613c83848285016139db565b91505092915050565b600060208284031215613c9e57600080fd5b6000613cac848285016139f0565b91505092915050565b6000613cc1838361491b565b60408301905092915050565b6000613cd983836149c7565b905092915050565b613cea81615593565b82525050565b613cf981615593565b82525050565b6000613d0a826153d8565b613d14818561541e565b9350613d1f836153b8565b8060005b83811015613d50578151613d378882613cb5565b9750613d4283615404565b925050600181019050613d23565b5085935050505092915050565b6000613d68826153e3565b613d72818561542f565b935083602082028501613d84856153c8565b8060005b85811015613dc05784840389528151613da18582613ccd565b9450613dac83615411565b925060208a01995050600181019050613d88565b50829750879550505050505092915050565b613ddb816155a5565b82525050565b613dea816155b1565b82525050565b613e01613dfc826155b1565b6156ce565b82525050565b6000613e12826153ee565b613e1c8185615440565b9350613e2c818560208601615620565b613e35816157cf565b840191505092915050565b6000613e4b826153f9565b613e558185615451565b9350613e65818560208601615620565b613e6e816157cf565b840191505092915050565b6000613e84826153f9565b613e8e8185615462565b9350613e9e818560208601615620565b613ea7816157cf565b840191505092915050565b6000613ebd826153f9565b613ec78185615473565b9350613ed7818560208601615620565b80840191505092915050565b6000613ef0600b83615473565b91507f202d2d204e465420233a200000000000000000000000000000000000000000006000830152600b82019050919050565b6000613f30603283615462565b91507f4552433732313a207472616e7366657220746f206e6f6e20455243373231526560008301527f63656976657220696d706c656d656e74657200000000000000000000000000006020830152604082019050919050565b6000613f96602883615462565b91507f4572726f723a20626f7373206d757374206861766520485020746f206174746160008301527f636b20626f73732e0000000000000000000000000000000000000000000000006020830152604082019050919050565b6000613ffc601c83615462565b91507f4552433732313a20746f6b656e20616c7265616479206d696e746564000000006000830152602082019050919050565b600061403c600e83615473565b91507f2c20226d61785f76616c7565223a0000000000000000000000000000000000006000830152600e82019050919050565b600061407c602483615462565b91507f4552433732313a207472616e7366657220746f20746865207a65726f2061646460008301527f72657373000000000000000000000000000000000000000000000000000000006020830152604082019050919050565b60006140e2601983615462565b91507f4552433732313a20617070726f766520746f2063616c6c6572000000000000006000830152602082019050919050565b6000614122602b83615462565b91507f4e6f7420656e6f756768204c494e4b202d2066696c6c20636f6e74726163742060008301527f77697468206661756365740000000000000000000000000000000000000000006020830152604082019050919050565b6000614188602c83615462565b91507f4552433732313a206f70657261746f7220717565727920666f72206e6f6e657860008301527f697374656e7420746f6b656e00000000000000000000000000000000000000006020830152604082019050919050565b60006141ee600f83615462565b91507f4e6f7420656e6f756768204c494e4b00000000000000000000000000000000006000830152602082019050919050565b600061422e603883615462565b91507f4552433732313a20617070726f76652063616c6c6572206973206e6f74206f7760008301527f6e6572206e6f7220617070726f76656420666f7220616c6c00000000000000006020830152604082019050919050565b6000614294602a83615462565b91507f4552433732313a2062616c616e636520717565727920666f7220746865207a6560008301527f726f2061646472657373000000000000000000000000000000000000000000006020830152604082019050919050565b60006142fa602983615462565b91507f4552433732313a206f776e657220717565727920666f72206e6f6e657869737460008301527f656e7420746f6b656e00000000000000000000000000000000000000000000006020830152604082019050919050565b6000614360602d83615462565b91507f4572726f723a20636861726163746572206d757374206861766520485020746f60008301527f2061747461636b20626f73732e000000000000000000000000000000000000006020830152604082019050919050565b60006143c6600483615473565b91507f7d205d7d000000000000000000000000000000000000000000000000000000006000830152600482019050919050565b6000614406602083615462565b91507f4552433732313a206d696e7420746f20746865207a65726f20616464726573736000830152602082019050919050565b6000614446603083615473565b91507f7d2c207b202274726169745f74797065223a202244616d61676520496e666c6960008301527f63746564222c202276616c7565223a20000000000000000000000000000000006020830152603082019050919050565b60006144ac602c83615462565b91507f4552433732313a20617070726f76656420717565727920666f72206e6f6e657860008301527f697374656e7420746f6b656e00000000000000000000000000000000000000006020830152604082019050919050565b6000614512603a83615462565b91507f4572726f723a20636861726163746572206d757374206861766520302048502060008301527f6265666f726520726573657474696e672074686569722048502e0000000000006020830152604082019050919050565b6000614578602983615462565b91507f4552433732313a207472616e73666572206f6620746f6b656e2074686174206960008301527f73206e6f74206f776e00000000000000000000000000000000000000000000006020830152604082019050919050565b60006145de600a83615473565b91507f7b226e616d65223a2022000000000000000000000000000000000000000000006000830152600a82019050919050565b600061461e601f83615462565b91507f4f6e6c7920565246436f6f7264696e61746f722063616e2066756c66696c6c006000830152602082019050919050565b600061465e602183615462565b91507f4552433732313a20617070726f76616c20746f2063757272656e74206f776e6560008301527f72000000000000000000000000000000000000000000000000000000000000006020830152604082019050919050565b60006146c4601d83615473565b91507f646174613a6170706c69636174696f6e2f6a736f6e3b6261736536342c0000006000830152601d82019050919050565b6000614704603183615462565b91507f4552433732313a207472616e736665722063616c6c6572206973206e6f74206f60008301527f776e6572206e6f7220617070726f7665640000000000000000000000000000006020830152604082019050919050565b600061476a601683615462565b91507f596f7520617265206e6f7420746865206f776e65722e000000000000000000006000830152602082019050919050565b60006147aa603d83615473565b91507f222c202261747472696275746573223a205b207b202274726169745f7479706560008301527f223a20224865616c746820506f696e7473222c202276616c7565223a200000006020830152603d82019050919050565b6000614810602d83615473565b91507f7d2c207b202274726169745f74797065223a202241747461636b2044616d616760008301527f65222c202276616c7565223a20000000000000000000000000000000000000006020830152602d82019050919050565b6000614876606383615473565b91507f222c20226465736372697074696f6e223a20225468697320697320616e204e4660008301527f54207468617420676976657320796f7520656e74727920746f2074686520447760208301527f6967687420436c75622067616d6521222c2022696d616765223a20226970667360408301527f3a2f2f00000000000000000000000000000000000000000000000000000000006060830152606382019050919050565b6040820160008201516149316000850182614b0d565b5060208201516149446020850182613ce1565b50505050565b600060a08301600083015184820360008601526149678282613e40565b915050602083015184820360208601526149818282613e40565b91505060408301516149966040860182614b0d565b5060608301516149a96060860182614b0d565b5060808301516149bc6080860182614b0d565b508091505092915050565b600060e0830160008301516149df6000860182614b0d565b50602083015184820360208601526149f78282613e40565b91505060408301518482036040860152614a118282613e40565b9150506060830151614a266060860182614b0d565b506080830151614a396080860182614b0d565b5060a0830151614a4c60a0860182614b0d565b5060c0830151614a5f60c0860182614b0d565b508091505092915050565b600060e083016000830151614a826000860182614b0d565b5060208301518482036020860152614a9a8282613e40565b91505060408301518482036040860152614ab48282613e40565b9150506060830151614ac96060860182614b0d565b506080830151614adc6080860182614b0d565b5060a0830151614aef60a0860182614b0d565b5060c0830151614b0260c0860182614b0d565b508091505092915050565b614b1681615607565b82525050565b614b2581615607565b82525050565b614b3c614b3782615607565b6156d8565b82525050565b6000614b4e8285613df0565b602082019150614b5e8284614b2b565b6020820191508190509392505050565b6000614b79826145d1565b9150614b85828a613eb2565b9150614b9082613ee3565b9150614b9c8289613eb2565b9150614ba782614869565b9150614bb38288613eb2565b9150614bbe8261479d565b9150614bca8287613eb2565b9150614bd58261402f565b9150614be18286613eb2565b9150614bec82614803565b9150614bf88285613eb2565b9150614c0382614439565b9150614c0f8284613eb2565b9150614c1a826143b9565b915081905098975050505050505050565b6000614c36826146b7565b9150614c428284613eb2565b915081905092915050565b6000602082019050614c626000830184613cf0565b92915050565b6000608082019050614c7d6000830187613cf0565b614c8a6020830186613cf0565b614c976040830185614b1c565b8181036060830152614ca98184613e07565b905095945050505050565b6000604082019050614cc96000830185613cf0565b614cd66020830184614b1c565b9392505050565b6000606082019050614cf26000830186613cf0565b614cff6020830185614b1c565b8181036040830152614d118184613e07565b9050949350505050565b6000606082019050614d306000830186613cf0565b614d3d6020830185614b1c565b614d4a6040830184614b1c565b949350505050565b60006020820190508181036000830152614d6c8184613cff565b905092915050565b60006020820190508181036000830152614d8e8184613d5d565b905092915050565b6000602082019050614dab6000830184613dd2565b92915050565b6000602082019050614dc66000830184613de1565b92915050565b6000604082019050614de16000830185613de1565b614dee6020830184614b1c565b9392505050565b6000608082019050614e0a6000830187613de1565b614e176020830186614b1c565b614e246040830185613cf0565b614e316060830184614b1c565b95945050505050565b60006020820190508181036000830152614e548184613e79565b905092915050565b60006080820190508181036000830152614e768187613e79565b90508181036020830152614e8a8186613e79565b9050614e996040830185614b1c565b8181036060830152614eab8184613e79565b905095945050505050565b600060a0820190508181036000830152614ed08188613e79565b90508181036020830152614ee48187613e79565b9050614ef36040830186614b1c565b614f006060830185614b1c565b614f0d6080830184614b1c565b9695505050505050565b60006060820190508181036000830152614f318186613e79565b9050614f406020830185614b1c565b614f4d6040830184613cf0565b949350505050565b60006060820190508181036000830152614f6f8186613e79565b9050614f7e6020830185614b1c565b614f8b6040830184614b1c565b949350505050565b60006020820190508181036000830152614fac81613f23565b9050919050565b60006020820190508181036000830152614fcc81613f89565b9050919050565b60006020820190508181036000830152614fec81613fef565b9050919050565b6000602082019050818103600083015261500c8161406f565b9050919050565b6000602082019050818103600083015261502c816140d5565b9050919050565b6000602082019050818103600083015261504c81614115565b9050919050565b6000602082019050818103600083015261506c8161417b565b9050919050565b6000602082019050818103600083015261508c816141e1565b9050919050565b600060208201905081810360008301526150ac81614221565b9050919050565b600060208201905081810360008301526150cc81614287565b9050919050565b600060208201905081810360008301526150ec816142ed565b9050919050565b6000602082019050818103600083015261510c81614353565b9050919050565b6000602082019050818103600083015261512c816143f9565b9050919050565b6000602082019050818103600083015261514c8161449f565b9050919050565b6000602082019050818103600083015261516c81614505565b9050919050565b6000602082019050818103600083015261518c8161456b565b9050919050565b600060208201905081810360008301526151ac81614611565b9050919050565b600060208201905081810360008301526151cc81614651565b9050919050565b600060208201905081810360008301526151ec816146f7565b9050919050565b6000602082019050818103600083015261520c8161475d565b9050919050565b6000602082019050818103600083015261522d818461494a565b905092915050565b6000602082019050818103600083015261524f8184614a6a565b905092915050565b600060208201905061526c6000830184614b1c565b92915050565b600060e082019050615287600083018a614b1c565b81810360208301526152998189613e79565b905081810360408301526152ad8188613e79565b90506152bc6060830187614b1c565b6152c96080830186614b1c565b6152d660a0830185614b1c565b6152e360c0830184614b1c565b98975050505050505050565b600060c0820190506153046000830189614b1c565b6153116020830188614b1c565b61531e6040830187614b1c565b81810360608301526153308186613e79565b905061533f6080830185614b1c565b61534c60a0830184614b1c565b979650505050505050565b6000604051905081810181811067ffffffffffffffff8211171561537e5761537d6157a0565b5b8060405250919050565b600067ffffffffffffffff8211156153a3576153a26157a0565b5b601f19601f8301169050602081019050919050565b6000819050602082019050919050565b6000819050602082019050919050565b600081519050919050565b600081519050919050565b600081519050919050565b600081519050919050565b6000602082019050919050565b6000602082019050919050565b600082825260208201905092915050565b600082825260208201905092915050565b600082825260208201905092915050565b600082825260208201905092915050565b600082825260208201905092915050565b600081905092915050565b600061548982615607565b915061549483615607565b9250827fffffffffffffffffffffffffffffffffffffffffffffffffffffffffffffffff038211156154c9576154c8615713565b5b828201905092915050565b60006154df82615607565b91506154ea83615607565b9250826154fa576154f9615742565b5b828204905092915050565b600061551082615607565b915061551b83615607565b9250817fffffffffffffffffffffffffffffffffffffffffffffffffffffffffffffffff048311821515161561555457615553615713565b5b828202905092915050565b600061556a82615607565b915061557583615607565b92508282101561558857615587615713565b5b828203905092915050565b600061559e826155e7565b9050919050565b60008115159050919050565b6000819050919050565b60007fffffffff0000000000000000000000000000000000000000000000000000000082169050919050565b600073ffffffffffffffffffffffffffffffffffffffff82169050919050565b6000819050919050565b82818337600083830152505050565b60005b8381101561563e578082015181840152602081019050615623565b8381111561564d576000848401525b50505050565b6000600282049050600182168061566b57607f821691505b6020821081141561567f5761567e615771565b5b50919050565b600061569082615607565b91507fffffffffffffffffffffffffffffffffffffffffffffffffffffffffffffffff8214156156c3576156c2615713565b5b600182019050919050565b6000819050919050565b6000819050919050565b60006156ed82615607565b91506156f883615607565b92508261570857615707615742565b5b828206905092915050565b7f4e487b7100000000000000000000000000000000000000000000000000000000600052601160045260246000fd5b7f4e487b7100000000000000000000000000000000000000000000000000000000600052601260045260246000fd5b7f4e487b7100000000000000000000000000000000000000000000000000000000600052602260045260246000fd5b7f4e487b7100000000000000000000000000000000000000000000000000000000600052604160045260246000fd5b6000601f19601f8301169050919050565b6157e981615593565b81146157f457600080fd5b50565b615800816155a5565b811461580b57600080fd5b50565b615817816155b1565b811461582257600080fd5b50565b61582e816155bb565b811461583957600080fd5b50565b61584581615607565b811461585057600080fd5b5056fe507573686564206e657720706c6179657220746f2067616d65557365727320617272617920772f20746f6b656e496420257320616e642077616c6c65742025734142434445464748494a4b4c4d4e4f505152535455565758595a6162636465666768696a6b6c6d6e6f707172737475767778797a303132333435363738392b2f4d696e746564204e465420772f20746f6b656e496420257320616e6420636861726163746572496e646578202573a2646970667358221220889ecd37dc64c9f4c8b869c754d0ac9cffe761eb182794671d2c4a9cadb6f09c64736f6c63430008000033446f6e6520696e697469616c697a696e6720257320772f2048502025732c20696d67202573446f6e6520696e697469616c697a696e6720626f737320257320772f2048502025732c20696d67202573",
  "linkReferences": {},
  "deployedLinkReferences": {}
}