{
  "_format": "hh-sol-artifact-1",
  "contractName": "MyEpicGame",
  "sourceName": "contracts/MyEpicGame.sol",
  "abi": [
    {
      "inputs": [
        {
          "internalType": "string[]",
          "name": "characterNames",
          "type": "string[]"
        },
        {
          "internalType": "string[]",
          "name": "characterImageURIs",
          "type": "string[]"
        },
        {
          "internalType": "uint256[]",
          "name": "characterHp",
          "type": "uint256[]"
        },
        {
          "internalType": "uint256[]",
          "name": "characterAttackDmg",
          "type": "uint256[]"
        },
        {
          "internalType": "uint256[]",
          "name": "characterDmgInflicted",
          "type": "uint256[]"
        },
        {
          "internalType": "string",
          "name": "bossName",
          "type": "string"
        },
        {
          "internalType": "string",
          "name": "bossImageURI",
          "type": "string"
        },
        {
          "internalType": "uint256",
          "name": "bossHp",
          "type": "uint256"
        },
        {
          "internalType": "uint256",
          "name": "bossAttackDamage",
          "type": "uint256"
        },
        {
          "internalType": "address",
          "name": "vrfCoordinatorAddress",
          "type": "address"
        },
        {
          "internalType": "address",
          "name": "linkTokenAddress",
          "type": "address"
        }
      ],
      "stateMutability": "nonpayable",
      "type": "constructor"
    },
    {
      "anonymous": false,
      "inputs": [
        {
          "indexed": true,
          "internalType": "address",
          "name": "owner",
          "type": "address"
        },
        {
          "indexed": true,
          "internalType": "address",
          "name": "approved",
          "type": "address"
        },
        {
          "indexed": true,
          "internalType": "uint256",
          "name": "tokenId",
          "type": "uint256"
        }
      ],
      "name": "Approval",
      "type": "event"
    },
    {
      "anonymous": false,
      "inputs": [
        {
          "indexed": true,
          "internalType": "address",
          "name": "owner",
          "type": "address"
        },
        {
          "indexed": true,
          "internalType": "address",
          "name": "operator",
          "type": "address"
        },
        {
          "indexed": false,
          "internalType": "bool",
          "name": "approved",
          "type": "bool"
        }
      ],
      "name": "ApprovalForAll",
      "type": "event"
    },
    {
      "anonymous": false,
      "inputs": [
        {
          "indexed": false,
          "internalType": "uint256",
          "name": "newBossHp",
          "type": "uint256"
        },
        {
          "indexed": false,
          "internalType": "uint256",
          "name": "newPlayerHp",
          "type": "uint256"
        },
        {
          "indexed": false,
          "internalType": "uint256",
          "name": "newPlayerDmgInflicted",
          "type": "uint256"
        },
        {
          "indexed": false,
          "internalType": "string",
          "name": "randomFactor",
          "type": "string"
        },
        {
          "indexed": false,
          "internalType": "uint256",
          "name": "originalRandom",
          "type": "uint256"
        },
        {
          "indexed": false,
          "internalType": "uint256",
          "name": "newRandom",
          "type": "uint256"
        }
      ],
      "name": "AttackComplete",
      "type": "event"
    },
    {
      "anonymous": false,
      "inputs": [
        {
          "indexed": false,
          "internalType": "address",
          "name": "sender",
          "type": "address"
        },
        {
          "indexed": false,
          "internalType": "uint256",
          "name": "tokenId",
          "type": "uint256"
        },
        {
          "indexed": false,
          "internalType": "uint256",
          "name": "characterIndex",
          "type": "uint256"
        }
      ],
      "name": "CharacterNFTMinted",
      "type": "event"
    },
    {
      "anonymous": false,
      "inputs": [
        {
          "indexed": false,
          "internalType": "uint256",
          "name": "playerHpReset",
          "type": "uint256"
        }
      ],
      "name": "HpPurchaseComplete",
      "type": "event"
    },
    {
      "anonymous": false,
      "inputs": [
        {
          "indexed": false,
          "internalType": "uint256",
          "name": "characterIndex",
          "type": "uint256"
        }
      ],
      "name": "NFTMinted",
      "type": "event"
    },
    {
      "anonymous": false,
      "inputs": [
        {
          "indexed": true,
          "internalType": "address",
          "name": "from",
          "type": "address"
        },
        {
          "indexed": true,
          "internalType": "address",
          "name": "to",
          "type": "address"
        },
        {
          "indexed": true,
          "internalType": "uint256",
          "name": "tokenId",
          "type": "uint256"
        }
      ],
      "name": "Transfer",
      "type": "event"
    },
    {
      "inputs": [],
      "name": "LinkToken",
      "outputs": [
        {
          "internalType": "address",
          "name": "",
          "type": "address"
        }
      ],
      "stateMutability": "view",
      "type": "function"
    },
    {
      "inputs": [],
      "name": "VRFCoordinator",
      "outputs": [
        {
          "internalType": "address",
          "name": "",
          "type": "address"
        }
      ],
      "stateMutability": "view",
      "type": "function"
    },
    {
      "inputs": [
        {
          "internalType": "address",
          "name": "to",
          "type": "address"
        },
        {
          "internalType": "uint256",
          "name": "tokenId",
          "type": "uint256"
        }
      ],
      "name": "approve",
      "outputs": [],
      "stateMutability": "nonpayable",
      "type": "function"
    },
    {
      "inputs": [],
      "name": "attackBoss",
      "outputs": [],
      "stateMutability": "nonpayable",
      "type": "function"
    },
    {
      "inputs": [
        {
          "internalType": "address",
          "name": "owner",
          "type": "address"
        }
      ],
      "name": "balanceOf",
      "outputs": [
        {
          "internalType": "uint256",
          "name": "",
          "type": "uint256"
        }
      ],
      "stateMutability": "view",
      "type": "function"
    },
    {
      "inputs": [],
      "name": "bigBoss",
      "outputs": [
        {
          "internalType": "string",
          "name": "name",
          "type": "string"
        },
        {
          "internalType": "string",
          "name": "imageURI",
          "type": "string"
        },
        {
          "internalType": "uint256",
          "name": "hp",
          "type": "uint256"
        },
        {
          "internalType": "uint256",
          "name": "maxHp",
          "type": "uint256"
        },
        {
          "internalType": "uint256",
          "name": "attackDamage",
          "type": "uint256"
        }
      ],
      "stateMutability": "view",
      "type": "function"
    },
    {
      "inputs": [],
      "name": "checkIfUserHasNFT",
      "outputs": [
        {
          "components": [
            {
              "internalType": "uint256",
              "name": "characterIndex",
              "type": "uint256"
            },
            {
              "internalType": "string",
              "name": "name",
              "type": "string"
            },
            {
              "internalType": "string",
              "name": "imageURI",
              "type": "string"
            },
            {
              "internalType": "uint256",
              "name": "hp",
              "type": "uint256"
            },
            {
              "internalType": "uint256",
              "name": "maxHp",
              "type": "uint256"
            },
            {
              "internalType": "uint256",
              "name": "attackDamage",
              "type": "uint256"
            },
            {
              "internalType": "uint256",
              "name": "damageInflicted",
              "type": "uint256"
            }
          ],
          "internalType": "struct MyEpicGame.CharacterAttributes",
          "name": "",
          "type": "tuple"
        }
      ],
      "stateMutability": "view",
      "type": "function"
    },
    {
      "inputs": [],
      "name": "getAllDefaultCharacters",
      "outputs": [
        {
          "components": [
            {
              "internalType": "uint256",
              "name": "characterIndex",
              "type": "uint256"
            },
            {
              "internalType": "string",
              "name": "name",
              "type": "string"
            },
            {
              "internalType": "string",
              "name": "imageURI",
              "type": "string"
            },
            {
              "internalType": "uint256",
              "name": "hp",
              "type": "uint256"
            },
            {
              "internalType": "uint256",
              "name": "maxHp",
              "type": "uint256"
            },
            {
              "internalType": "uint256",
              "name": "attackDamage",
              "type": "uint256"
            },
            {
              "internalType": "uint256",
              "name": "damageInflicted",
              "type": "uint256"
            }
          ],
          "internalType": "struct MyEpicGame.CharacterAttributes[]",
          "name": "",
          "type": "tuple[]"
        }
      ],
      "stateMutability": "view",
      "type": "function"
    },
    {
      "inputs": [],
      "name": "getAllPlayers",
      "outputs": [
        {
          "components": [
            {
              "internalType": "uint256",
              "name": "id",
              "type": "uint256"
            },
            {
              "internalType": "address",
              "name": "wallet",
              "type": "address"
            }
          ],
          "internalType": "struct MyEpicGame.AllPlayers[]",
          "name": "",
          "type": "tuple[]"
        }
      ],
      "stateMutability": "view",
      "type": "function"
    },
    {
      "inputs": [
        {
          "internalType": "uint256",
          "name": "tokenId",
          "type": "uint256"
        }
      ],
      "name": "getApproved",
      "outputs": [
        {
          "internalType": "address",
          "name": "",
          "type": "address"
        }
      ],
      "stateMutability": "view",
      "type": "function"
    },
    {
      "inputs": [],
      "name": "getBigBoss",
      "outputs": [
        {
          "components": [
            {
              "internalType": "string",
              "name": "name",
              "type": "string"
            },
            {
              "internalType": "string",
              "name": "imageURI",
              "type": "string"
            },
            {
              "internalType": "uint256",
              "name": "hp",
              "type": "uint256"
            },
            {
              "internalType": "uint256",
              "name": "maxHp",
              "type": "uint256"
            },
            {
              "internalType": "uint256",
              "name": "attackDamage",
              "type": "uint256"
            }
          ],
          "internalType": "struct MyEpicGame.BigBoss",
          "name": "",
          "type": "tuple"
        }
      ],
      "stateMutability": "view",
      "type": "function"
    },
    {
      "inputs": [],
      "name": "getRandomNumber",
      "outputs": [
        {
          "internalType": "bytes32",
          "name": "requestId",
          "type": "bytes32"
        }
      ],
      "stateMutability": "nonpayable",
      "type": "function"
    },
    {
      "inputs": [
        {
          "internalType": "uint256",
          "name": "_tokenId",
          "type": "uint256"
        }
      ],
      "name": "getUserNFTCharacterAttributes",
      "outputs": [
        {
          "components": [
            {
              "internalType": "uint256",
              "name": "characterIndex",
              "type": "uint256"
            },
            {
              "internalType": "string",
              "name": "name",
              "type": "string"
            },
            {
              "internalType": "string",
              "name": "imageURI",
              "type": "string"
            },
            {
              "internalType": "uint256",
              "name": "hp",
              "type": "uint256"
            },
            {
              "internalType": "uint256",
              "name": "maxHp",
              "type": "uint256"
            },
            {
              "internalType": "uint256",
              "name": "attackDamage",
              "type": "uint256"
            },
            {
              "internalType": "uint256",
              "name": "damageInflicted",
              "type": "uint256"
            }
          ],
          "internalType": "struct MyEpicGame.CharacterAttributes",
          "name": "",
          "type": "tuple"
        }
      ],
      "stateMutability": "view",
      "type": "function"
    },
    {
      "inputs": [
        {
          "internalType": "address",
          "name": "_addr",
          "type": "address"
        }
      ],
      "name": "getUserNftId",
      "outputs": [
        {
          "internalType": "uint256",
          "name": "",
          "type": "uint256"
        }
      ],
      "stateMutability": "view",
      "type": "function"
    },
    {
      "inputs": [
        {
          "internalType": "address",
          "name": "owner",
          "type": "address"
        },
        {
          "internalType": "address",
          "name": "operator",
          "type": "address"
        }
      ],
      "name": "isApprovedForAll",
      "outputs": [
        {
          "internalType": "bool",
          "name": "",
          "type": "bool"
        }
      ],
      "stateMutability": "view",
      "type": "function"
    },
    {
      "inputs": [
        {
          "internalType": "uint256",
          "name": "_characterIndex",
          "type": "uint256"
        }
      ],
      "name": "mintCharacterNFT",
      "outputs": [],
      "stateMutability": "nonpayable",
      "type": "function"
    },
    {
      "inputs": [],
      "name": "name",
      "outputs": [
        {
          "internalType": "string",
          "name": "",
          "type": "string"
        }
      ],
      "stateMutability": "view",
      "type": "function"
    },
    {
      "inputs": [
        {
          "internalType": "uint256",
          "name": "",
          "type": "uint256"
        }
      ],
      "name": "nftHolderAttributes",
      "outputs": [
        {
          "internalType": "uint256",
          "name": "characterIndex",
          "type": "uint256"
        },
        {
          "internalType": "string",
          "name": "name",
          "type": "string"
        },
        {
          "internalType": "string",
          "name": "imageURI",
          "type": "string"
        },
        {
          "internalType": "uint256",
          "name": "hp",
          "type": "uint256"
        },
        {
          "internalType": "uint256",
          "name": "maxHp",
          "type": "uint256"
        },
        {
          "internalType": "uint256",
          "name": "attackDamage",
          "type": "uint256"
        },
        {
          "internalType": "uint256",
          "name": "damageInflicted",
          "type": "uint256"
        }
      ],
      "stateMutability": "view",
      "type": "function"
    },
    {
      "inputs": [
        {
          "internalType": "address",
          "name": "",
          "type": "address"
        }
      ],
      "name": "nftHolders",
      "outputs": [
        {
          "internalType": "uint256",
          "name": "",
          "type": "uint256"
        }
      ],
      "stateMutability": "view",
      "type": "function"
    },
    {
      "inputs": [],
      "name": "owner",
      "outputs": [
        {
          "internalType": "address",
          "name": "",
          "type": "address"
        }
      ],
      "stateMutability": "view",
      "type": "function"
    },
    {
      "inputs": [
        {
          "internalType": "uint256",
          "name": "tokenId",
          "type": "uint256"
        }
      ],
      "name": "ownerOf",
      "outputs": [
        {
          "internalType": "address",
          "name": "",
          "type": "address"
        }
      ],
      "stateMutability": "view",
      "type": "function"
    },
    {
      "inputs": [],
      "name": "purchaseHp",
      "outputs": [],
      "stateMutability": "nonpayable",
      "type": "function"
    },
    {
      "inputs": [],
      "name": "randomResult",
      "outputs": [
        {
          "internalType": "uint256",
          "name": "",
          "type": "uint256"
        }
      ],
      "stateMutability": "view",
      "type": "function"
    },
    {
      "inputs": [
        {
          "internalType": "bytes32",
          "name": "requestId",
          "type": "bytes32"
        },
        {
          "internalType": "uint256",
          "name": "randomness",
          "type": "uint256"
        }
      ],
      "name": "rawFulfillRandomness",
      "outputs": [],
      "stateMutability": "nonpayable",
      "type": "function"
    },
    {
      "inputs": [
        {
          "internalType": "address",
          "name": "from",
          "type": "address"
        },
        {
          "internalType": "address",
          "name": "to",
          "type": "address"
        },
        {
          "internalType": "uint256",
          "name": "tokenId",
          "type": "uint256"
        }
      ],
      "name": "safeTransferFrom",
      "outputs": [],
      "stateMutability": "nonpayable",
      "type": "function"
    },
    {
      "inputs": [
        {
          "internalType": "address",
          "name": "from",
          "type": "address"
        },
        {
          "internalType": "address",
          "name": "to",
          "type": "address"
        },
        {
          "internalType": "uint256",
          "name": "tokenId",
          "type": "uint256"
        },
        {
          "internalType": "bytes",
          "name": "_data",
          "type": "bytes"
        }
      ],
      "name": "safeTransferFrom",
      "outputs": [],
      "stateMutability": "nonpayable",
      "type": "function"
    },
    {
      "inputs": [
        {
          "internalType": "address",
          "name": "operator",
          "type": "address"
        },
        {
          "internalType": "bool",
          "name": "approved",
          "type": "bool"
        }
      ],
      "name": "setApprovalForAll",
      "outputs": [],
      "stateMutability": "nonpayable",
      "type": "function"
    },
    {
      "inputs": [
        {
          "internalType": "bytes4",
          "name": "interfaceId",
          "type": "bytes4"
        }
      ],
      "name": "supportsInterface",
      "outputs": [
        {
          "internalType": "bool",
          "name": "",
          "type": "bool"
        }
      ],
      "stateMutability": "view",
      "type": "function"
    },
    {
      "inputs": [],
      "name": "symbol",
      "outputs": [
        {
          "internalType": "string",
          "name": "",
          "type": "string"
        }
      ],
      "stateMutability": "view",
      "type": "function"
    },
    {
      "inputs": [
        {
          "internalType": "uint256",
          "name": "_tokenId",
          "type": "uint256"
        }
      ],
      "name": "tokenURI",
      "outputs": [
        {
          "internalType": "string",
          "name": "",
          "type": "string"
        }
      ],
      "stateMutability": "view",
      "type": "function"
    },
    {
      "inputs": [
        {
          "internalType": "address",
          "name": "from",
          "type": "address"
        },
        {
          "internalType": "address",
          "name": "to",
          "type": "address"
        },
        {
          "internalType": "uint256",
          "name": "tokenId",
          "type": "uint256"
        }
      ],
      "name": "transferFrom",
      "outputs": [],
      "stateMutability": "nonpayable",
      "type": "function"
    },
    {
      "inputs": [
        {
          "internalType": "address",
          "name": "to",
          "type": "address"
        },
        {
          "internalType": "uint256",
          "name": "value",
          "type": "uint256"
        }
      ],
      "name": "withdrawLINK",
      "outputs": [],
      "stateMutability": "nonpayable",
      "type": "function"
    }
  ],
  "bytecode": "0x60c06040523480156200001157600080fd5b5060405162006b8e38038062006b8e833981810160405281019062000037919062000c45565b81816040518060400160405280600581526020017f44436c75620000000000000000000000000000000000000000000000000000008152506040518060400160405280600481526020017f54455354000000000000000000000000000000000000000000000000000000008152508160009080519060200190620000bd929190620009c1565b508060019080519060200190620000d6929190620009c1565b5050508173ffffffffffffffffffffffffffffffffffffffff1660a08173ffffffffffffffffffffffffffffffffffffffff1660601b815250508073ffffffffffffffffffffffffffffffffffffffff1660808173ffffffffffffffffffffffffffffffffffffffff1660601b81525050505033601660006101000a81548173ffffffffffffffffffffffffffffffffffffffff021916908373ffffffffffffffffffffffffffffffffffffffff1602179055507f2ed0feb3e7fd2022120aa84fab1945545a9f2ffc9076fd6156fa96eaff4c131160001b60118190555067016345785d8a000060128190555081601360006101000a81548173ffffffffffffffffffffffffffffffffffffffff021916908373ffffffffffffffffffffffffffffffffffffffff16021790555080601460006101000a81548173ffffffffffffffffffffffffffffffffffffffff021916908373ffffffffffffffffffffffffffffffffffffffff16021790555060016015819055506040518060a0016040528087815260200186815260200185815260200185815260200184815250600b600082015181600001908051906020019062000294929190620009c1565b506020820151816001019080519060200190620002b3929190620009c1565b50604082015181600201556060820151816003015560808201518160040155905050620004366040518060600160405280602a815260200162006b64602a9139600b6000018054620003059062001061565b80601f0160208091040260200160405190810160405280929190818152602001828054620003339062001061565b8015620003845780601f10620003585761010080835404028352916020019162000384565b820191906000526020600020905b8154815290600101906020018083116200036657829003601f168201915b5050505050600b60020154600b6001018054620003a19062001061565b80601f0160208091040260200160405190810160405280929190818152602001828054620003cf9062001061565b8015620004205780601f10620003f45761010080835404028352916020019162000420565b820191906000526020600020905b8154815290600101906020018083116200040257829003601f168201915b5050505050620008d660201b620027d31760201c565b60005b8b51811015620008ad5760076040518060e001604052808381526020018e848151811062000490577f4e487b7100000000000000000000000000000000000000000000000000000000600052603260045260246000fd5b602002602001015181526020018d8481518110620004d7577f4e487b7100000000000000000000000000000000000000000000000000000000600052603260045260246000fd5b602002602001015181526020018c84815181106200051e577f4e487b7100000000000000000000000000000000000000000000000000000000600052603260045260246000fd5b602002602001015181526020018c848151811062000565577f4e487b7100000000000000000000000000000000000000000000000000000000600052603260045260246000fd5b602002602001015181526020018b8481518110620005ac577f4e487b7100000000000000000000000000000000000000000000000000000000600052603260045260246000fd5b602002602001015181526020018a8481518110620005f3577f4e487b7100000000000000000000000000000000000000000000000000000000600052603260045260246000fd5b602002602001015181525090806001815401808255809150506001900390600052602060002090600702016000909190919091506000820151816000015560208201518160010190805190602001906200064f929190620009c1565b5060408201518160020190805190602001906200066e929190620009c1565b50606082015181600301556080820151816004015560a0820151816005015560c082015181600601555050600060078281548110620006d6577f4e487b7100000000000000000000000000000000000000000000000000000000600052603260045260246000fd5b90600052602060002090600702016040518060e0016040529081600082015481526020016001820180546200070b9062001061565b80601f0160208091040260200160405190810160405280929190818152602001828054620007399062001061565b80156200078a5780601f106200075e576101008083540402835291602001916200078a565b820191906000526020600020905b8154815290600101906020018083116200076c57829003601f168201915b50505050508152602001600282018054620007a59062001061565b80601f0160208091040260200160405190810160405280929190818152602001828054620007d39062001061565b8015620008245780601f10620007f85761010080835404028352916020019162000824565b820191906000526020600020905b8154815290600101906020018083116200080657829003601f168201915b5050505050815260200160038201548152602001600482015481526020016005820154815260200160068201548152505090506200089560405180606001604052806025815260200162006b3f60259139826020015183606001518460400151620008d660201b620027d31760201c565b50600181620008a5919062000f90565b905062000439565b50620008c5600a6200098260201b620028751760201c565b505050505050505050505062001169565b6200097c84848484604051602401620008f3949392919062000e4d565b6040516020818303038152906040527f8d142cdd000000000000000000000000000000000000000000000000000000007bffffffffffffffffffffffffffffffffffffffffffffffffffffffff19166020820180517bffffffffffffffffffffffffffffffffffffffffffffffffffffffff83818316178352505050506200099860201b60201c565b50505050565b6001816000016000828254019250508190555050565b60008151905060006a636f6e736f6c652e6c6f679050602083016000808483855afa5050505050565b828054620009cf9062001061565b90600052602060002090601f016020900481019282620009f3576000855562000a3f565b82601f1062000a0e57805160ff191683800117855562000a3f565b8280016001018555821562000a3f579182015b8281111562000a3e57825182559160200191906001019062000a21565b5b50905062000a4e919062000a52565b5090565b5b8082111562000a6d57600081600090555060010162000a53565b5090565b600062000a8862000a828462000ee3565b62000eaf565b9050808382526020820190508260005b8581101562000acc578151850162000ab1888262000c01565b84526020840193506020830192505060018101905062000a98565b5050509392505050565b600062000aed62000ae78462000f12565b62000eaf565b9050808382526020820190508285602086028201111562000b0d57600080fd5b60005b8581101562000b41578162000b26888262000c2e565b84526020840193506020830192505060018101905062000b10565b5050509392505050565b600062000b6262000b5c8462000f41565b62000eaf565b90508281526020810184848401111562000b7b57600080fd5b62000b888482856200102b565b509392505050565b60008151905062000ba18162001135565b92915050565b600082601f83011262000bb957600080fd5b815162000bcb84826020860162000a71565b91505092915050565b600082601f83011262000be657600080fd5b815162000bf884826020860162000ad6565b91505092915050565b600082601f83011262000c1357600080fd5b815162000c2584826020860162000b4b565b91505092915050565b60008151905062000c3f816200114f565b92915050565b60008060008060008060008060008060006101608c8e03121562000c6857600080fd5b60008c015167ffffffffffffffff81111562000c8357600080fd5b62000c918e828f0162000ba7565b9b505060208c015167ffffffffffffffff81111562000caf57600080fd5b62000cbd8e828f0162000ba7565b9a505060408c015167ffffffffffffffff81111562000cdb57600080fd5b62000ce98e828f0162000bd4565b99505060608c015167ffffffffffffffff81111562000d0757600080fd5b62000d158e828f0162000bd4565b98505060808c015167ffffffffffffffff81111562000d3357600080fd5b62000d418e828f0162000bd4565b97505060a08c015167ffffffffffffffff81111562000d5f57600080fd5b62000d6d8e828f0162000c01565b96505060c08c015167ffffffffffffffff81111562000d8b57600080fd5b62000d998e828f0162000c01565b95505060e062000dac8e828f0162000c2e565b94505061010062000dc08e828f0162000c2e565b93505061012062000dd48e828f0162000b90565b92505061014062000de88e828f0162000b90565b9150509295989b509295989b9093969950565b600062000e088262000f74565b62000e14818562000f7f565b935062000e268185602086016200102b565b62000e318162001124565b840191505092915050565b62000e478162001021565b82525050565b6000608082019050818103600083015262000e69818762000dfb565b9050818103602083015262000e7f818662000dfb565b905062000e90604083018562000e3c565b818103606083015262000ea4818462000dfb565b905095945050505050565b6000604051905081810181811067ffffffffffffffff8211171562000ed95762000ed8620010f5565b5b8060405250919050565b600067ffffffffffffffff82111562000f015762000f00620010f5565b5b602082029050602081019050919050565b600067ffffffffffffffff82111562000f305762000f2f620010f5565b5b602082029050602081019050919050565b600067ffffffffffffffff82111562000f5f5762000f5e620010f5565b5b601f19601f8301169050602081019050919050565b600081519050919050565b600082825260208201905092915050565b600062000f9d8262001021565b915062000faa8362001021565b9250827fffffffffffffffffffffffffffffffffffffffffffffffffffffffffffffffff0382111562000fe25762000fe162001097565b5b828201905092915050565b600062000ffa8262001001565b9050919050565b600073ffffffffffffffffffffffffffffffffffffffff82169050919050565b6000819050919050565b60005b838110156200104b5780820151818401526020810190506200102e565b838111156200105b576000848401525b50505050565b600060028204905060018216806200107a57607f821691505b60208210811415620010915762001090620010c6565b5b50919050565b7f4e487b7100000000000000000000000000000000000000000000000000000000600052601160045260246000fd5b7f4e487b7100000000000000000000000000000000000000000000000000000000600052602260045260246000fd5b7f4e487b7100000000000000000000000000000000000000000000000000000000600052604160045260246000fd5b6000601f19601f8301169050919050565b620011408162000fed565b81146200114c57600080fd5b50565b6200115a8162001021565b81146200116657600080fd5b50565b60805160601c60a05160601c615995620011aa60003960008181610d6d015261316e015260008181610f2b01528181611e8e015261313201526159956000f3fe608060405234801561001057600080fd5b50600436106101f05760003560e01c806395d89b411161010f578063c87b56dd116100a2578063e985e9c511610071578063e985e9c5146105a1578063efa1c482146105d1578063f8b81ef7146105ef578063fc02a1391461060b576101f0565b8063c87b56dd1461052b578063c8cf27f41461055b578063d4f24c5b14610579578063dbdff2c114610583576101f0565b8063a9c32679116100de578063a9c32679146104c5578063b65426c3146104e7578063b88d4fde146104f1578063b953084e1461050d576101f0565b806395d89b4114610439578063983fbab21461045757806398da4c9514610473578063a22cb465146104a9576101f0565b806342842e0e1161018757806370a082311161015657806370a082311461039f5780637df124a1146103cf5780638da5cb5b146103ff57806394985ddd1461041d576101f0565b806342842e0e146103055780634f8e2fdf14610321578063530a78481461033f5780636352211e1461036f576101f0565b8063095ea7b3116101c3578063095ea7b31461029157806323b872dd146102ad57806333b60863146102c957806342619f66146102e7576101f0565b806301ffc9a7146101f55780630665f9611461022557806306fdde0314610243578063081812fc14610261575b600080fd5b61020f600480360381019061020a9190613c95565b61063b565b60405161021c9190614df4565b60405180910390f35b61022d61071d565b60405161023a9190615271565b60405180910390f35b61024b610879565b6040516102589190614e98565b60405180910390f35b61027b60048036038101906102769190613ce7565b61090b565b6040516102889190614cab565b60405180910390f35b6102ab60048036038101906102a69190613bf4565b610990565b005b6102c760048036038101906102c29190613aee565b610aa8565b005b6102d1610b08565b6040516102de9190614cab565b60405180910390f35b6102ef610b2e565b6040516102fc91906152b5565b60405180910390f35b61031f600480360381019061031a9190613aee565b610b34565b005b610329610b54565b6040516103369190614cab565b60405180910390f35b61035960048036038101906103549190613a89565b610b7a565b60405161036691906152b5565b60405180910390f35b61038960048036038101906103849190613ce7565b610bc3565b6040516103969190614cab565b60405180910390f35b6103b960048036038101906103b49190613a89565b610c75565b6040516103c691906152b5565b60405180910390f35b6103e960048036038101906103e49190613a89565b610d2d565b6040516103f691906152b5565b60405180910390f35b610407610d45565b6040516104149190614cab565b60405180910390f35b61043760048036038101906104329190613c59565b610d6b565b005b610441610e07565b60405161044e9190614e98565b60405180910390f35b610471600480360381019061046c9190613bf4565b610e99565b005b61048d60048036038101906104889190613ce7565b611019565b6040516104a097969594939291906152d0565b60405180910390f35b6104c360048036038101906104be9190613bb8565b61116b565b005b6104cd6112ec565b6040516104de959493929190614f14565b60405180910390f35b6104ef611420565b005b61050b60048036038101906105069190613b3d565b61151d565b005b61051561157f565b6040516105229190614dd2565b60405180910390f35b61054560048036038101906105409190613ce7565b611734565b6040516105529190614e98565b60405180910390f35b61056361196d565b6040516105709190615293565b60405180910390f35b610581611b4f565b005b61058b611e87565b6040516105989190614e0f565b60405180910390f35b6105bb60048036038101906105b69190613ab2565b611f89565b6040516105c89190614df4565b60405180910390f35b6105d961201d565b6040516105e69190614db0565b60405180910390f35b61060960048036038101906106049190613ce7565b6120dc565b005b61062560048036038101906106209190613ce7565b61262e565b6040516106329190615293565b60405180910390f35b60007f80ac58cd000000000000000000000000000000000000000000000000000000007bffffffffffffffffffffffffffffffffffffffffffffffffffffffff1916827bffffffffffffffffffffffffffffffffffffffffffffffffffffffff1916148061070657507f5b5e139f000000000000000000000000000000000000000000000000000000007bffffffffffffffffffffffffffffffffffffffffffffffffffffffff1916827bffffffffffffffffffffffffffffffffffffffffffffffffffffffff1916145b8061071657506107158261288b565b5b9050919050565b61072561386a565b600b6040518060a0016040529081600082018054610742906156b1565b80601f016020809104026020016040519081016040528092919081815260200182805461076e906156b1565b80156107bb5780601f10610790576101008083540402835291602001916107bb565b820191906000526020600020905b81548152906001019060200180831161079e57829003601f168201915b505050505081526020016001820180546107d4906156b1565b80601f0160208091040260200160405190810160405280929190818152602001828054610800906156b1565b801561084d5780601f106108225761010080835404028352916020019161084d565b820191906000526020600020905b81548152906001019060200180831161083057829003601f168201915b505050505081526020016002820154815260200160038201548152602001600482015481525050905090565b606060008054610888906156b1565b80601f01602080910402602001604051908101604052809291908181526020018280546108b4906156b1565b80156109015780601f106108d657610100808354040283529160200191610901565b820191906000526020600020905b8154815290600101906020018083116108e457829003601f168201915b5050505050905090565b6000610916826128f5565b610955576040517f08c379a000000000000000000000000000000000000000000000000000000000815260040161094c90615171565b60405180910390fd5b6004600083815260200190815260200160002060009054906101000a900473ffffffffffffffffffffffffffffffffffffffff169050919050565b600061099b82610bc3565b90508073ffffffffffffffffffffffffffffffffffffffff168373ffffffffffffffffffffffffffffffffffffffff161415610a0c576040517f08c379a0000000000000000000000000000000000000000000000000000000008152600401610a0390615211565b60405180910390fd5b8073ffffffffffffffffffffffffffffffffffffffff16610a2b612961565b73ffffffffffffffffffffffffffffffffffffffff161480610a5a5750610a5981610a54612961565b611f89565b5b610a99576040517f08c379a0000000000000000000000000000000000000000000000000000000008152600401610a90906150d1565b60405180910390fd5b610aa38383612969565b505050565b610ab9610ab3612961565b82612a22565b610af8576040517f08c379a0000000000000000000000000000000000000000000000000000000008152600401610aef90615231565b60405180910390fd5b610b03838383612b00565b505050565b601360009054906101000a900473ffffffffffffffffffffffffffffffffffffffff1681565b60155481565b610b4f8383836040518060200160405280600081525061151d565b505050565b601460009054906101000a900473ffffffffffffffffffffffffffffffffffffffff1681565b6000600960008373ffffffffffffffffffffffffffffffffffffffff1673ffffffffffffffffffffffffffffffffffffffff168152602001908152602001600020549050919050565b6000806002600084815260200190815260200160002060009054906101000a900473ffffffffffffffffffffffffffffffffffffffff169050600073ffffffffffffffffffffffffffffffffffffffff168173ffffffffffffffffffffffffffffffffffffffff161415610c6c576040517f08c379a0000000000000000000000000000000000000000000000000000000008152600401610c6390615111565b60405180910390fd5b80915050919050565b60008073ffffffffffffffffffffffffffffffffffffffff168273ffffffffffffffffffffffffffffffffffffffff161415610ce6576040517f08c379a0000000000000000000000000000000000000000000000000000000008152600401610cdd906150f1565b60405180910390fd5b600360008373ffffffffffffffffffffffffffffffffffffffff1673ffffffffffffffffffffffffffffffffffffffff168152602001908152602001600020549050919050565b60096020528060005260406000206000915090505481565b601660009054906101000a900473ffffffffffffffffffffffffffffffffffffffff1681565b7f000000000000000000000000000000000000000000000000000000000000000073ffffffffffffffffffffffffffffffffffffffff163373ffffffffffffffffffffffffffffffffffffffff1614610df9576040517f08c379a0000000000000000000000000000000000000000000000000000000008152600401610df0906151d1565b60405180910390fd5b610e038282612d5c565b5050565b606060018054610e16906156b1565b80601f0160208091040260200160405190810160405280929190818152602001828054610e42906156b1565b8015610e8f5780601f10610e6457610100808354040283529160200191610e8f565b820191906000526020600020905b815481529060010190602001808311610e7257829003601f168201915b5050505050905090565b601660009054906101000a900473ffffffffffffffffffffffffffffffffffffffff1673ffffffffffffffffffffffffffffffffffffffff163373ffffffffffffffffffffffffffffffffffffffff1614610f29576040517f08c379a0000000000000000000000000000000000000000000000000000000008152600401610f2090615251565b60405180910390fd5b7f000000000000000000000000000000000000000000000000000000000000000073ffffffffffffffffffffffffffffffffffffffff1663a9059cbb83836040518363ffffffff1660e01b8152600401610f84929190614d12565b602060405180830381600087803b158015610f9e57600080fd5b505af1158015610fb2573d6000803e3d6000fd5b505050506040513d601f19601f82011682018060405250810190610fd69190613c30565b611015576040517f08c379a000000000000000000000000000000000000000000000000000000000815260040161100c906150b1565b60405180910390fd5b5050565b6008602052806000526040600020600091509050806000015490806001018054611042906156b1565b80601f016020809104026020016040519081016040528092919081815260200182805461106e906156b1565b80156110bb5780601f10611090576101008083540402835291602001916110bb565b820191906000526020600020905b81548152906001019060200180831161109e57829003601f168201915b5050505050908060020180546110d0906156b1565b80601f01602080910402602001604051908101604052809291908181526020018280546110fc906156b1565b80156111495780601f1061111e57610100808354040283529160200191611149565b820191906000526020600020905b81548152906001019060200180831161112c57829003601f168201915b5050505050908060030154908060040154908060050154908060060154905087565b611173612961565b73ffffffffffffffffffffffffffffffffffffffff168273ffffffffffffffffffffffffffffffffffffffff1614156111e1576040517f08c379a00000000000000000000000000000000000000000000000000000000081526004016111d890615051565b60405180910390fd5b80600560006111ee612961565b73ffffffffffffffffffffffffffffffffffffffff1673ffffffffffffffffffffffffffffffffffffffff16815260200190815260200160002060008473ffffffffffffffffffffffffffffffffffffffff1673ffffffffffffffffffffffffffffffffffffffff16815260200190815260200160002060006101000a81548160ff0219169083151502179055508173ffffffffffffffffffffffffffffffffffffffff1661129b612961565b73ffffffffffffffffffffffffffffffffffffffff167f17307eab39ab6107e8899845ad3d59bd9653f200f220920489ca2b5937696c31836040516112e09190614df4565b60405180910390a35050565b600b8060000180546112fd906156b1565b80601f0160208091040260200160405190810160405280929190818152602001828054611329906156b1565b80156113765780601f1061134b57610100808354040283529160200191611376565b820191906000526020600020905b81548152906001019060200180831161135957829003601f168201915b50505050509080600101805461138b906156b1565b80601f01602080910402602001604051908101604052809291908181526020018280546113b7906156b1565b80156114045780601f106113d957610100808354040283529160200191611404565b820191906000526020600020905b8154815290600101906020018083116113e757829003601f168201915b5050505050908060020154908060030154908060040154905085565b6000600960003373ffffffffffffffffffffffffffffffffffffffff1673ffffffffffffffffffffffffffffffffffffffff168152602001908152602001600020549050600060086000838152602001908152602001600020905060008160030154146114c2576040517f08c379a00000000000000000000000000000000000000000000000000000000081526004016114b990615191565b60405180910390fd5b806004015481600301546114d691906154dc565b81600301819055507f5d40119f7d0b83acbe37043bb35b88565cd8174d2a14740ab3cb13f90bbb2ffa816003015460405161151191906152b5565b60405180910390a15050565b61152e611528612961565b83612a22565b61156d576040517f08c379a000000000000000000000000000000000000000000000000000000000815260040161156490615231565b60405180910390fd5b61157984848484612d67565b50505050565b60606007805480602002602001604051908101604052809291908181526020016000905b8282101561172b57838290600052602060002090600702016040518060e0016040529081600082015481526020016001820180546115e0906156b1565b80601f016020809104026020016040519081016040528092919081815260200182805461160c906156b1565b80156116595780601f1061162e57610100808354040283529160200191611659565b820191906000526020600020905b81548152906001019060200180831161163c57829003601f168201915b50505050508152602001600282018054611672906156b1565b80601f016020809104026020016040519081016040528092919081815260200182805461169e906156b1565b80156116eb5780601f106116c0576101008083540402835291602001916116eb565b820191906000526020600020905b8154815290600101906020018083116116ce57829003601f168201915b50505050508152602001600382015481526020016004820154815260200160058201548152602001600682015481525050815260200190600101906115a3565b50505050905090565b60606000600860008481526020019081526020016000206040518060e001604052908160008201548152602001600182018054611770906156b1565b80601f016020809104026020016040519081016040528092919081815260200182805461179c906156b1565b80156117e95780601f106117be576101008083540402835291602001916117e9565b820191906000526020600020905b8154815290600101906020018083116117cc57829003601f168201915b50505050508152602001600282018054611802906156b1565b80601f016020809104026020016040519081016040528092919081815260200182805461182e906156b1565b801561187b5780601f106118505761010080835404028352916020019161187b565b820191906000526020600020905b81548152906001019060200180831161185e57829003601f168201915b50505050508152602001600382015481526020016004820154815260200160058201548152602001600682015481525050905060006118bd8260600151612dc3565b905060006118ce8360800151612dc3565b905060006118df8460a00151612dc3565b905060006118f08560c00151612dc3565b9050600061193886602001516119058a612dc3565b8860400151888887896040516020016119249796959493929190614bcc565b604051602081830303815290604052612f70565b905060008160405160200161194d9190614c89565b604051602081830303815290604052905080975050505050505050919050565b611975613899565b6000600960003373ffffffffffffffffffffffffffffffffffffffff1673ffffffffffffffffffffffffffffffffffffffff1681526020019081526020016000205490506000811115611b3e57600860008281526020019081526020016000206040518060e0016040529081600082015481526020016001820180546119fa906156b1565b80601f0160208091040260200160405190810160405280929190818152602001828054611a26906156b1565b8015611a735780601f10611a4857610100808354040283529160200191611a73565b820191906000526020600020905b815481529060010190602001808311611a5657829003601f168201915b50505050508152602001600282018054611a8c906156b1565b80601f0160208091040260200160405190810160405280929190818152602001828054611ab8906156b1565b8015611b055780601f10611ada57610100808354040283529160200191611b05565b820191906000526020600020905b815481529060010190602001808311611ae857829003601f168201915b50505050508152602001600382015481526020016004820154815260200160058201548152602001600682015481525050915050611b4c565b611b46613899565b80925050505b90565b6000600960003373ffffffffffffffffffffffffffffffffffffffff1673ffffffffffffffffffffffffffffffffffffffff1681526020019081526020016000205490506000600860008381526020019081526020016000209050611bb2611e87565b5060004442611bc191906154dc565b90506000606482601554611bd591906154dc565b611bdf9190615740565b90506000836003015411611c28576040517f08c379a0000000000000000000000000000000000000000000000000000000008152600401611c1f90615131565b60405180910390fd5b6000600b6002015411611c70576040517f08c379a0000000000000000000000000000000000000000000000000000000008152600401611c67906151f1565b60405180910390fd5b60006040518060400160405280600681526020017f6e6f726d616c000000000000000000000000000000000000000000000000000081525090508360050154600b600201541015611ccb576000600b60020181905550611d9f565b6032821115611d63576040518060400160405280600681526020017f646f75626c650000000000000000000000000000000000000000000000000000815250905060028460050154611d1d9190615563565b600b60020154611d2d91906155bd565b600b6002018190555060028460050154611d479190615563565b8460060154611d5691906154dc565b8460060181905550611d9e565b8360050154600b60020154611d7891906155bd565b600b6002018190555083600501548460060154611d9591906154dc565b84600601819055505b5b600b6004015484600301541015611dbf5760008460030181905550611e30565b60328211611e11576040518060400160405280600681526020017f6d69737365640000000000000000000000000000000000000000000000000000815250905083600301548460030181905550611e2f565b600b600401548460030154611e2691906155bd565b84600301819055505b5b7f6dcfae3ef855faaa1372fd0403c20c87b35ac0c92445211eb381bc2e823e82ac600b60020154856003015486600601548460155487604051611e789695949392919061534d565b60405180910390a15050505050565b60006012547f000000000000000000000000000000000000000000000000000000000000000073ffffffffffffffffffffffffffffffffffffffff166370a08231306040518263ffffffff1660e01b8152600401611ee59190614cab565b60206040518083038186803b158015611efd57600080fd5b505afa158015611f11573d6000803e3d6000fd5b505050506040513d601f19601f82011682018060405250810190611f359190613d10565b1015611f76576040517f08c379a0000000000000000000000000000000000000000000000000000000008152600401611f6d90615071565b60405180910390fd5b611f8460115460125461312e565b905090565b6000600560008473ffffffffffffffffffffffffffffffffffffffff1673ffffffffffffffffffffffffffffffffffffffff16815260200190815260200160002060008373ffffffffffffffffffffffffffffffffffffffff1673ffffffffffffffffffffffffffffffffffffffff16815260200190815260200160002060009054906101000a900460ff16905092915050565b60606010805480602002602001604051908101604052809291908181526020016000905b828210156120d35783829060005260206000209060020201604051806040016040529081600082015481526020016001820160009054906101000a900473ffffffffffffffffffffffffffffffffffffffff1673ffffffffffffffffffffffffffffffffffffffff1673ffffffffffffffffffffffffffffffffffffffff168152505081526020019060010190612041565b50505050905090565b60006120e8600a613290565b90506120f4338261329e565b6040518060e001604052808381526020016007848154811061213f577f4e487b7100000000000000000000000000000000000000000000000000000000600052603260045260246000fd5b9060005260206000209060070201600101805461215b906156b1565b80601f0160208091040260200160405190810160405280929190818152602001828054612187906156b1565b80156121d45780601f106121a9576101008083540402835291602001916121d4565b820191906000526020600020905b8154815290600101906020018083116121b757829003601f168201915b5050505050815260200160078481548110612218577f4e487b7100000000000000000000000000000000000000000000000000000000600052603260045260246000fd5b90600052602060002090600702016002018054612234906156b1565b80601f0160208091040260200160405190810160405280929190818152602001828054612260906156b1565b80156122ad5780601f10612282576101008083540402835291602001916122ad565b820191906000526020600020905b81548152906001019060200180831161229057829003601f168201915b50505050508152602001600784815481106122f1577f4e487b7100000000000000000000000000000000000000000000000000000000600052603260045260246000fd5b906000526020600020906007020160030154815260200160078481548110612342577f4e487b7100000000000000000000000000000000000000000000000000000000600052603260045260246000fd5b906000526020600020906007020160030154815260200160078481548110612393577f4e487b7100000000000000000000000000000000000000000000000000000000600052603260045260246000fd5b9060005260206000209060070201600501548152602001600784815481106123e4577f4e487b7100000000000000000000000000000000000000000000000000000000600052603260045260246000fd5b906000526020600020906007020160060154815250600860008381526020019081526020016000206000820151816000015560208201518160010190805190602001906124329291906138d6565b50604082015181600201908051906020019061244f9291906138d6565b50606082015181600301556080820151816004015560a0820151816005015560c0820151816006015590505061249e6040518060600160405280602e8152602001615932602e913982846132bc565b601060405180604001604052808381526020013373ffffffffffffffffffffffffffffffffffffffff1681525090806001815401808255809150506001900390600052602060002090600202016000909190919091506000820151816000015560208201518160010160006101000a81548173ffffffffffffffffffffffffffffffffffffffff021916908373ffffffffffffffffffffffffffffffffffffffff160217905550505061256a6040518060600160405280604081526020016158b260409139823361335b565b80600960003373ffffffffffffffffffffffffffffffffffffffff1673ffffffffffffffffffffffffffffffffffffffff168152602001908152602001600020819055506125b8600a612875565b7f4bc303fd457a97b4691b9af582ce71868a3d258638c8d4f8c60988a0f0bfb8cd3382846040516125eb93929190614d79565b60405180910390a17fd9dc24857f317ed9abbbb42e920ede0104231eb1d3d70236a74887ffaf1598688260405161262291906152b5565b60405180910390a15050565b612636613899565b600082905060008111156127c057600860008281526020019081526020016000206040518060e00160405290816000820154815260200160018201805461267c906156b1565b80601f01602080910402602001604051908101604052809291908181526020018280546126a8906156b1565b80156126f55780601f106126ca576101008083540402835291602001916126f5565b820191906000526020600020905b8154815290600101906020018083116126d857829003601f168201915b5050505050815260200160028201805461270e906156b1565b80601f016020809104026020016040519081016040528092919081815260200182805461273a906156b1565b80156127875780601f1061275c57610100808354040283529160200191612787565b820191906000526020600020905b81548152906001019060200180831161276a57829003601f168201915b505050505081526020016003820154815260200160048201548152602001600582015481526020016006820154815250509150506127ce565b6127c8613899565b80925050505b919050565b61286f848484846040516024016127ed9493929190614eba565b6040516020818303038152906040527f8d142cdd000000000000000000000000000000000000000000000000000000007bffffffffffffffffffffffffffffffffffffffffffffffffffffffff19166020820180517bffffffffffffffffffffffffffffffffffffffffffffffffffffffff83818316178352505050506133fa565b50505050565b6001816000016000828254019250508190555050565b60007f01ffc9a7000000000000000000000000000000000000000000000000000000007bffffffffffffffffffffffffffffffffffffffffffffffffffffffff1916827bffffffffffffffffffffffffffffffffffffffffffffffffffffffff1916149050919050565b60008073ffffffffffffffffffffffffffffffffffffffff166002600084815260200190815260200160002060009054906101000a900473ffffffffffffffffffffffffffffffffffffffff1673ffffffffffffffffffffffffffffffffffffffff1614159050919050565b600033905090565b816004600083815260200190815260200160002060006101000a81548173ffffffffffffffffffffffffffffffffffffffff021916908373ffffffffffffffffffffffffffffffffffffffff160217905550808273ffffffffffffffffffffffffffffffffffffffff166129dc83610bc3565b73ffffffffffffffffffffffffffffffffffffffff167f8c5be1e5ebec7d5bd14f71427d1e84f3dd0314c0f7b2291e5b200ac8c7c3b92560405160405180910390a45050565b6000612a2d826128f5565b612a6c576040517f08c379a0000000000000000000000000000000000000000000000000000000008152600401612a6390615091565b60405180910390fd5b6000612a7783610bc3565b90508073ffffffffffffffffffffffffffffffffffffffff168473ffffffffffffffffffffffffffffffffffffffff161480612ae657508373ffffffffffffffffffffffffffffffffffffffff16612ace8461090b565b73ffffffffffffffffffffffffffffffffffffffff16145b80612af75750612af68185611f89565b5b91505092915050565b8273ffffffffffffffffffffffffffffffffffffffff16612b2082610bc3565b73ffffffffffffffffffffffffffffffffffffffff1614612b76576040517f08c379a0000000000000000000000000000000000000000000000000000000008152600401612b6d906151b1565b60405180910390fd5b600073ffffffffffffffffffffffffffffffffffffffff168273ffffffffffffffffffffffffffffffffffffffff161415612be6576040517f08c379a0000000000000000000000000000000000000000000000000000000008152600401612bdd90615031565b60405180910390fd5b612bf1838383613423565b612bfc600082612969565b6001600360008573ffffffffffffffffffffffffffffffffffffffff1673ffffffffffffffffffffffffffffffffffffffff1681526020019081526020016000206000828254612c4c91906155bd565b925050819055506001600360008473ffffffffffffffffffffffffffffffffffffffff1673ffffffffffffffffffffffffffffffffffffffff1681526020019081526020016000206000828254612ca391906154dc565b92505081905550816002600083815260200190815260200160002060006101000a81548173ffffffffffffffffffffffffffffffffffffffff021916908373ffffffffffffffffffffffffffffffffffffffff160217905550808273ffffffffffffffffffffffffffffffffffffffff168473ffffffffffffffffffffffffffffffffffffffff167fddf252ad1be2c89b69c2b068fc378daa952ba7f163c4a11628f55a4df523b3ef60405160405180910390a4505050565b806015819055505050565b612d72848484612b00565b612d7e84848484613428565b612dbd576040517f08c379a0000000000000000000000000000000000000000000000000000000008152600401612db490614ff1565b60405180910390fd5b50505050565b60606000821415612e0b576040518060400160405280600181526020017f30000000000000000000000000000000000000000000000000000000000000008152509050612f6b565b600082905060005b60008214612e3d578080612e26906156e3565b915050600a82612e369190615532565b9150612e13565b60008167ffffffffffffffff811115612e7f577f4e487b7100000000000000000000000000000000000000000000000000000000600052604160045260246000fd5b6040519080825280601f01601f191660200182016040528015612eb15781602001600182028036833780820191505090505b5090505b60008514612f6457600182612eca91906155bd565b9150600a85612ed99190615740565b6030612ee591906154dc565b60f81b818381518110612f21577f4e487b7100000000000000000000000000000000000000000000000000000000600052603260045260246000fd5b60200101907effffffffffffffffffffffffffffffffffffffffffffffffffffffffffffff1916908160001a905350600a85612f5d9190615532565b9450612eb5565b8093505050505b919050565b60606000825190506000811415612f995760405180602001604052806000815250915050613129565b60006003600283612faa91906154dc565b612fb49190615532565b6004612fc09190615563565b90506000602082612fd191906154dc565b67ffffffffffffffff811115613010577f4e487b7100000000000000000000000000000000000000000000000000000000600052604160045260246000fd5b6040519080825280601f01601f1916602001820160405280156130425781602001600182028036833780820191505090505b50905060006040518060600160405280604081526020016158f2604091399050600181016020830160005b868110156130e65760038101905062ffffff818a015116603f8160121c168401518060081b905060ff603f83600c1c1686015116810190508060081b905060ff603f8360061c1686015116810190508060081b905060ff603f831686015116810190508060e01b9050808452600484019350505061306d565b50600386066001811461310057600281146131105761311b565b613d3d60f01b600283035261311b565b603d60f81b60018303525b508484525050819450505050505b919050565b60007f000000000000000000000000000000000000000000000000000000000000000073ffffffffffffffffffffffffffffffffffffffff16634000aea07f0000000000000000000000000000000000000000000000000000000000000000848660006040516020016131a2929190614e2a565b6040516020818303038152906040526040518463ffffffff1660e01b81526004016131cf93929190614d3b565b602060405180830381600087803b1580156131e957600080fd5b505af11580156131fd573d6000803e3d6000fd5b505050506040513d601f19601f820116820180604052508101906132219190613c30565b5060006132448460003060066000898152602001908152602001600020546135bf565b90506001600660008681526020019081526020016000205461326691906154dc565b600660008681526020019081526020016000208190555061328784826135fb565b91505092915050565b600081600001549050919050565b6132b882826040518060200160405280600081525061362e565b5050565b6133568383836040516024016132d493929190614fb3565b6040516020818303038152906040527f969cdd03000000000000000000000000000000000000000000000000000000007bffffffffffffffffffffffffffffffffffffffffffffffffffffffff19166020820180517bffffffffffffffffffffffffffffffffffffffffffffffffffffffff83818316178352505050506133fa565b505050565b6133f583838360405160240161337393929190614f75565b6040516020818303038152906040527fe3849f79000000000000000000000000000000000000000000000000000000007bffffffffffffffffffffffffffffffffffffffffffffffffffffffff19166020820180517bffffffffffffffffffffffffffffffffffffffffffffffffffffffff83818316178352505050506133fa565b505050565b60008151905060006a636f6e736f6c652e6c6f679050602083016000808483855afa5050505050565b505050565b60006134498473ffffffffffffffffffffffffffffffffffffffff16613689565b156135b2578373ffffffffffffffffffffffffffffffffffffffff1663150b7a02613472612961565b8786866040518563ffffffff1660e01b81526004016134949493929190614cc6565b602060405180830381600087803b1580156134ae57600080fd5b505af19250505080156134df57506040513d601f19601f820116820180604052508101906134dc9190613cbe565b60015b613562573d806000811461350f576040519150601f19603f3d011682016040523d82523d6000602084013e613514565b606091505b5060008151141561355a576040517f08c379a000000000000000000000000000000000000000000000000000000000815260040161355190614ff1565b60405180910390fd5b805181602001fd5b63150b7a0260e01b7bffffffffffffffffffffffffffffffffffffffffffffffffffffffff1916817bffffffffffffffffffffffffffffffffffffffffffffffffffffffff1916149150506135b7565b600190505b949350505050565b6000848484846040516020016135d89493929190614e53565b6040516020818303038152906040528051906020012060001c9050949350505050565b60008282604051602001613610929190614ba0565b60405160208183030381529060405280519060200120905092915050565b613638838361369c565b6136456000848484613428565b613684576040517f08c379a000000000000000000000000000000000000000000000000000000000815260040161367b90614ff1565b60405180910390fd5b505050565b600080823b905060008111915050919050565b600073ffffffffffffffffffffffffffffffffffffffff168273ffffffffffffffffffffffffffffffffffffffff16141561370c576040517f08c379a000000000000000000000000000000000000000000000000000000000815260040161370390615151565b60405180910390fd5b613715816128f5565b15613755576040517f08c379a000000000000000000000000000000000000000000000000000000000815260040161374c90615011565b60405180910390fd5b61376160008383613423565b6001600360008473ffffffffffffffffffffffffffffffffffffffff1673ffffffffffffffffffffffffffffffffffffffff16815260200190815260200160002060008282546137b191906154dc565b92505081905550816002600083815260200190815260200160002060006101000a81548173ffffffffffffffffffffffffffffffffffffffff021916908373ffffffffffffffffffffffffffffffffffffffff160217905550808273ffffffffffffffffffffffffffffffffffffffff16600073ffffffffffffffffffffffffffffffffffffffff167fddf252ad1be2c89b69c2b068fc378daa952ba7f163c4a11628f55a4df523b3ef60405160405180910390a45050565b6040518060a0016040528060608152602001606081526020016000815260200160008152602001600081525090565b6040518060e00160405280600081526020016060815260200160608152602001600081526020016000815260200160008152602001600081525090565b8280546138e2906156b1565b90600052602060002090601f016020900481019282613904576000855561394b565b82601f1061391d57805160ff191683800117855561394b565b8280016001018555821561394b579182015b8281111561394a57825182559160200191906001019061392f565b5b509050613958919061395c565b5090565b5b8082111561397557600081600090555060010161395d565b5090565b600061398c613987846153e6565b6153b5565b9050828152602081018484840111156139a457600080fd5b6139af84828561566f565b509392505050565b6000813590506139c68161583e565b92915050565b6000813590506139db81615855565b92915050565b6000815190506139f081615855565b92915050565b600081359050613a058161586c565b92915050565b600081359050613a1a81615883565b92915050565b600081519050613a2f81615883565b92915050565b600082601f830112613a4657600080fd5b8135613a56848260208601613979565b91505092915050565b600081359050613a6e8161589a565b92915050565b600081519050613a838161589a565b92915050565b600060208284031215613a9b57600080fd5b6000613aa9848285016139b7565b91505092915050565b60008060408385031215613ac557600080fd5b6000613ad3858286016139b7565b9250506020613ae4858286016139b7565b9150509250929050565b600080600060608486031215613b0357600080fd5b6000613b11868287016139b7565b9350506020613b22868287016139b7565b9250506040613b3386828701613a5f565b9150509250925092565b60008060008060808587031215613b5357600080fd5b6000613b61878288016139b7565b9450506020613b72878288016139b7565b9350506040613b8387828801613a5f565b925050606085013567ffffffffffffffff811115613ba057600080fd5b613bac87828801613a35565b91505092959194509250565b60008060408385031215613bcb57600080fd5b6000613bd9858286016139b7565b9250506020613bea858286016139cc565b9150509250929050565b60008060408385031215613c0757600080fd5b6000613c15858286016139b7565b9250506020613c2685828601613a5f565b9150509250929050565b600060208284031215613c4257600080fd5b6000613c50848285016139e1565b91505092915050565b60008060408385031215613c6c57600080fd5b6000613c7a858286016139f6565b9250506020613c8b85828601613a5f565b9150509250929050565b600060208284031215613ca757600080fd5b6000613cb584828501613a0b565b91505092915050565b600060208284031215613cd057600080fd5b6000613cde84828501613a20565b91505092915050565b600060208284031215613cf957600080fd5b6000613d0784828501613a5f565b91505092915050565b600060208284031215613d2257600080fd5b6000613d3084828501613a74565b91505092915050565b6000613d458383614979565b60408301905092915050565b6000613d5d8383614a25565b905092915050565b613d6e816155f1565b82525050565b613d7d816155f1565b82525050565b6000613d8e82615436565b613d98818561547c565b9350613da383615416565b8060005b83811015613dd4578151613dbb8882613d39565b9750613dc683615462565b925050600181019050613da7565b5085935050505092915050565b6000613dec82615441565b613df6818561548d565b935083602082028501613e0885615426565b8060005b85811015613e445784840389528151613e258582613d51565b9450613e308361546f565b925060208a01995050600181019050613e0c565b50829750879550505050505092915050565b613e5f81615603565b82525050565b613e6e8161560f565b82525050565b613e85613e808261560f565b61572c565b82525050565b6000613e968261544c565b613ea0818561549e565b9350613eb081856020860161567e565b613eb98161582d565b840191505092915050565b6000613ecf82615457565b613ed981856154af565b9350613ee981856020860161567e565b613ef28161582d565b840191505092915050565b6000613f0882615457565b613f1281856154c0565b9350613f2281856020860161567e565b613f2b8161582d565b840191505092915050565b6000613f4182615457565b613f4b81856154d1565b9350613f5b81856020860161567e565b80840191505092915050565b6000613f74600b836154d1565b91507f202d2d204e465420233a200000000000000000000000000000000000000000006000830152600b82019050919050565b6000613fb46032836154c0565b91507f4552433732313a207472616e7366657220746f206e6f6e20455243373231526560008301527f63656976657220696d706c656d656e74657200000000000000000000000000006020830152604082019050919050565b600061401a601c836154c0565b91507f4552433732313a20746f6b656e20616c7265616479206d696e746564000000006000830152602082019050919050565b600061405a600e836154d1565b91507f2c20226d61785f76616c7565223a0000000000000000000000000000000000006000830152600e82019050919050565b600061409a6024836154c0565b91507f4552433732313a207472616e7366657220746f20746865207a65726f2061646460008301527f72657373000000000000000000000000000000000000000000000000000000006020830152604082019050919050565b60006141006019836154c0565b91507f4552433732313a20617070726f766520746f2063616c6c6572000000000000006000830152602082019050919050565b6000614140602b836154c0565b91507f4e6f7420656e6f756768204c494e4b202d2066696c6c20636f6e74726163742060008301527f77697468206661756365740000000000000000000000000000000000000000006020830152604082019050919050565b60006141a6602c836154c0565b91507f4552433732313a206f70657261746f7220717565727920666f72206e6f6e657860008301527f697374656e7420746f6b656e00000000000000000000000000000000000000006020830152604082019050919050565b600061420c600f836154c0565b91507f4e6f7420656e6f756768204c494e4b00000000000000000000000000000000006000830152602082019050919050565b600061424c6038836154c0565b91507f4552433732313a20617070726f76652063616c6c6572206973206e6f74206f7760008301527f6e6572206e6f7220617070726f76656420666f7220616c6c00000000000000006020830152604082019050919050565b60006142b2602a836154c0565b91507f4552433732313a2062616c616e636520717565727920666f7220746865207a6560008301527f726f2061646472657373000000000000000000000000000000000000000000006020830152604082019050919050565b60006143186029836154c0565b91507f4552433732313a206f776e657220717565727920666f72206e6f6e657869737460008301527f656e7420746f6b656e00000000000000000000000000000000000000000000006020830152604082019050919050565b600061437e602d836154c0565b91507f4572726f723a20636861726163746572206d757374206861766520485020746f60008301527f2061747461636b20626f73732e000000000000000000000000000000000000006020830152604082019050919050565b60006143e46004836154d1565b91507f7d205d7d000000000000000000000000000000000000000000000000000000006000830152600482019050919050565b60006144246020836154c0565b91507f4552433732313a206d696e7420746f20746865207a65726f20616464726573736000830152602082019050919050565b60006144646030836154d1565b91507f7d2c207b202274726169745f74797065223a202244616d61676520496e666c6960008301527f63746564222c202276616c7565223a20000000000000000000000000000000006020830152603082019050919050565b60006144ca602c836154c0565b91507f4552433732313a20617070726f76656420717565727920666f72206e6f6e657860008301527f697374656e7420746f6b656e00000000000000000000000000000000000000006020830152604082019050919050565b6000614530603a836154c0565b91507f4572726f723a20636861726163746572206d757374206861766520302048502060008301527f6265666f726520726573657474696e672074686569722048502e0000000000006020830152604082019050919050565b60006145966029836154c0565b91507f4552433732313a207472616e73666572206f6620746f6b656e2074686174206960008301527f73206e6f74206f776e00000000000000000000000000000000000000000000006020830152604082019050919050565b60006145fc600a836154d1565b91507f7b226e616d65223a2022000000000000000000000000000000000000000000006000830152600a82019050919050565b600061463c601f836154c0565b91507f4f6e6c7920565246436f6f7264696e61746f722063616e2066756c66696c6c006000830152602082019050919050565b600061467c6023836154c0565b91507f4572726f723a20626f7373206d757374206861766520485020746f206174746160008301527f636b2e00000000000000000000000000000000000000000000000000000000006020830152604082019050919050565b60006146e26021836154c0565b91507f4552433732313a20617070726f76616c20746f2063757272656e74206f776e6560008301527f72000000000000000000000000000000000000000000000000000000000000006020830152604082019050919050565b6000614748601d836154d1565b91507f646174613a6170706c69636174696f6e2f6a736f6e3b6261736536342c0000006000830152601d82019050919050565b6000614788605c836154d1565b91507f222c20226465736372697074696f6e223a20225468697320697320616e204e4660008301527f54207468617420676976657320796f7520656e74727920746f2074686520447760208301527f6967687420436c75622067616d652e222c2022696d616765223a2022000000006040830152605c82019050919050565b60006148146031836154c0565b91507f4552433732313a207472616e736665722063616c6c6572206973206e6f74206f60008301527f776e6572206e6f7220617070726f7665640000000000000000000000000000006020830152604082019050919050565b600061487a6016836154c0565b91507f596f7520617265206e6f7420746865206f776e65722e000000000000000000006000830152602082019050919050565b60006148ba603d836154d1565b91507f222c202261747472696275746573223a205b207b202274726169745f7479706560008301527f223a20224865616c746820506f696e7473222c202276616c7565223a200000006020830152603d82019050919050565b6000614920602d836154d1565b91507f7d2c207b202274726169745f74797065223a202241747461636b2044616d616760008301527f65222c202276616c7565223a20000000000000000000000000000000000000006020830152602d82019050919050565b60408201600082015161498f6000850182614b6b565b5060208201516149a26020850182613d65565b50505050565b600060a08301600083015184820360008601526149c58282613ec4565b915050602083015184820360208601526149df8282613ec4565b91505060408301516149f46040860182614b6b565b506060830151614a076060860182614b6b565b506080830151614a1a6080860182614b6b565b508091505092915050565b600060e083016000830151614a3d6000860182614b6b565b5060208301518482036020860152614a558282613ec4565b91505060408301518482036040860152614a6f8282613ec4565b9150506060830151614a846060860182614b6b565b506080830151614a976080860182614b6b565b5060a0830151614aaa60a0860182614b6b565b5060c0830151614abd60c0860182614b6b565b508091505092915050565b600060e083016000830151614ae06000860182614b6b565b5060208301518482036020860152614af88282613ec4565b91505060408301518482036040860152614b128282613ec4565b9150506060830151614b276060860182614b6b565b506080830151614b3a6080860182614b6b565b5060a0830151614b4d60a0860182614b6b565b5060c0830151614b6060c0860182614b6b565b508091505092915050565b614b7481615665565b82525050565b614b8381615665565b82525050565b614b9a614b9582615665565b615736565b82525050565b6000614bac8285613e74565b602082019150614bbc8284614b89565b6020820191508190509392505050565b6000614bd7826145ef565b9150614be3828a613f36565b9150614bee82613f67565b9150614bfa8289613f36565b9150614c058261477b565b9150614c118288613f36565b9150614c1c826148ad565b9150614c288287613f36565b9150614c338261404d565b9150614c3f8286613f36565b9150614c4a82614457565b9150614c568285613f36565b9150614c6182614913565b9150614c6d8284613f36565b9150614c78826143d7565b915081905098975050505050505050565b6000614c948261473b565b9150614ca08284613f36565b915081905092915050565b6000602082019050614cc06000830184613d74565b92915050565b6000608082019050614cdb6000830187613d74565b614ce86020830186613d74565b614cf56040830185614b7a565b8181036060830152614d078184613e8b565b905095945050505050565b6000604082019050614d276000830185613d74565b614d346020830184614b7a565b9392505050565b6000606082019050614d506000830186613d74565b614d5d6020830185614b7a565b8181036040830152614d6f8184613e8b565b9050949350505050565b6000606082019050614d8e6000830186613d74565b614d9b6020830185614b7a565b614da86040830184614b7a565b949350505050565b60006020820190508181036000830152614dca8184613d83565b905092915050565b60006020820190508181036000830152614dec8184613de1565b905092915050565b6000602082019050614e096000830184613e56565b92915050565b6000602082019050614e246000830184613e65565b92915050565b6000604082019050614e3f6000830185613e65565b614e4c6020830184614b7a565b9392505050565b6000608082019050614e686000830187613e65565b614e756020830186614b7a565b614e826040830185613d74565b614e8f6060830184614b7a565b95945050505050565b60006020820190508181036000830152614eb28184613efd565b905092915050565b60006080820190508181036000830152614ed48187613efd565b90508181036020830152614ee88186613efd565b9050614ef76040830185614b7a565b8181036060830152614f098184613efd565b905095945050505050565b600060a0820190508181036000830152614f2e8188613efd565b90508181036020830152614f428187613efd565b9050614f516040830186614b7a565b614f5e6060830185614b7a565b614f6b6080830184614b7a565b9695505050505050565b60006060820190508181036000830152614f8f8186613efd565b9050614f9e6020830185614b7a565b614fab6040830184613d74565b949350505050565b60006060820190508181036000830152614fcd8186613efd565b9050614fdc6020830185614b7a565b614fe96040830184614b7a565b949350505050565b6000602082019050818103600083015261500a81613fa7565b9050919050565b6000602082019050818103600083015261502a8161400d565b9050919050565b6000602082019050818103600083015261504a8161408d565b9050919050565b6000602082019050818103600083015261506a816140f3565b9050919050565b6000602082019050818103600083015261508a81614133565b9050919050565b600060208201905081810360008301526150aa81614199565b9050919050565b600060208201905081810360008301526150ca816141ff565b9050919050565b600060208201905081810360008301526150ea8161423f565b9050919050565b6000602082019050818103600083015261510a816142a5565b9050919050565b6000602082019050818103600083015261512a8161430b565b9050919050565b6000602082019050818103600083015261514a81614371565b9050919050565b6000602082019050818103600083015261516a81614417565b9050919050565b6000602082019050818103600083015261518a816144bd565b9050919050565b600060208201905081810360008301526151aa81614523565b9050919050565b600060208201905081810360008301526151ca81614589565b9050919050565b600060208201905081810360008301526151ea8161462f565b9050919050565b6000602082019050818103600083015261520a8161466f565b9050919050565b6000602082019050818103600083015261522a816146d5565b9050919050565b6000602082019050818103600083015261524a81614807565b9050919050565b6000602082019050818103600083015261526a8161486d565b9050919050565b6000602082019050818103600083015261528b81846149a8565b905092915050565b600060208201905081810360008301526152ad8184614ac8565b905092915050565b60006020820190506152ca6000830184614b7a565b92915050565b600060e0820190506152e5600083018a614b7a565b81810360208301526152f78189613efd565b9050818103604083015261530b8188613efd565b905061531a6060830187614b7a565b6153276080830186614b7a565b61533460a0830185614b7a565b61534160c0830184614b7a565b98975050505050505050565b600060c0820190506153626000830189614b7a565b61536f6020830188614b7a565b61537c6040830187614b7a565b818103606083015261538e8186613efd565b905061539d6080830185614b7a565b6153aa60a0830184614b7a565b979650505050505050565b6000604051905081810181811067ffffffffffffffff821117156153dc576153db6157fe565b5b8060405250919050565b600067ffffffffffffffff821115615401576154006157fe565b5b601f19601f8301169050602081019050919050565b6000819050602082019050919050565b6000819050602082019050919050565b600081519050919050565b600081519050919050565b600081519050919050565b600081519050919050565b6000602082019050919050565b6000602082019050919050565b600082825260208201905092915050565b600082825260208201905092915050565b600082825260208201905092915050565b600082825260208201905092915050565b600082825260208201905092915050565b600081905092915050565b60006154e782615665565b91506154f283615665565b9250827fffffffffffffffffffffffffffffffffffffffffffffffffffffffffffffffff0382111561552757615526615771565b5b828201905092915050565b600061553d82615665565b915061554883615665565b925082615558576155576157a0565b5b828204905092915050565b600061556e82615665565b915061557983615665565b9250817fffffffffffffffffffffffffffffffffffffffffffffffffffffffffffffffff04831182151516156155b2576155b1615771565b5b828202905092915050565b60006155c882615665565b91506155d383615665565b9250828210156155e6576155e5615771565b5b828203905092915050565b60006155fc82615645565b9050919050565b60008115159050919050565b6000819050919050565b60007fffffffff0000000000000000000000000000000000000000000000000000000082169050919050565b600073ffffffffffffffffffffffffffffffffffffffff82169050919050565b6000819050919050565b82818337600083830152505050565b60005b8381101561569c578082015181840152602081019050615681565b838111156156ab576000848401525b50505050565b600060028204905060018216806156c957607f821691505b602082108114156156dd576156dc6157cf565b5b50919050565b60006156ee82615665565b91507fffffffffffffffffffffffffffffffffffffffffffffffffffffffffffffffff82141561572157615720615771565b5b600182019050919050565b6000819050919050565b6000819050919050565b600061574b82615665565b915061575683615665565b925082615766576157656157a0565b5b828206905092915050565b7f4e487b7100000000000000000000000000000000000000000000000000000000600052601160045260246000fd5b7f4e487b7100000000000000000000000000000000000000000000000000000000600052601260045260246000fd5b7f4e487b7100000000000000000000000000000000000000000000000000000000600052602260045260246000fd5b7f4e487b7100000000000000000000000000000000000000000000000000000000600052604160045260246000fd5b6000601f19601f8301169050919050565b615847816155f1565b811461585257600080fd5b50565b61585e81615603565b811461586957600080fd5b50565b6158758161560f565b811461588057600080fd5b50565b61588c81615619565b811461589757600080fd5b50565b6158a381615665565b81146158ae57600080fd5b5056fe507573686564206e657720706c6179657220746f2067616d65557365727320617272617920772f20746f6b656e496420257320616e642077616c6c65742025734142434445464748494a4b4c4d4e4f505152535455565758595a6162636465666768696a6b6c6d6e6f707172737475767778797a303132333435363738392b2f4d696e746564204e465420772f20746f6b656e496420257320616e6420636861726163746572496e646578202573a26469706673582212208e995263cfb679e3994559feb8fc91c625c5e64e7197a08700b49f64506750aa64736f6c63430008000033446f6e6520696e697469616c697a696e6720257320772f2048502025732c20696d67202573446f6e6520696e697469616c697a696e6720626f737320257320772f2048502025732c20696d67202573",
  "linkReferences": {},
  "deployedLinkReferences": {}
}