{
  "_format": "hh-sol-artifact-1",
  "contractName": "MyEpicGame",
  "sourceName": "contracts/MyEpicGame.sol",
  "abi": [
    {
      "inputs": [
        {
          "internalType": "string[]",
          "name": "characterNames",
          "type": "string[]"
        },
        {
          "internalType": "string[]",
          "name": "characterImageURIs",
          "type": "string[]"
        },
        {
          "internalType": "uint256[]",
          "name": "characterHp",
          "type": "uint256[]"
        },
        {
          "internalType": "uint256[]",
          "name": "characterAttackDmg",
          "type": "uint256[]"
        },
        {
          "internalType": "string",
          "name": "bossName",
          "type": "string"
        },
        {
          "internalType": "string",
          "name": "bossImageURI",
          "type": "string"
        },
        {
          "internalType": "uint256",
          "name": "bossHp",
          "type": "uint256"
        },
        {
          "internalType": "uint256",
          "name": "bossAttackDamage",
          "type": "uint256"
        }
      ],
      "stateMutability": "nonpayable",
      "type": "constructor"
    },
    {
      "anonymous": false,
      "inputs": [
        {
          "indexed": true,
          "internalType": "address",
          "name": "owner",
          "type": "address"
        },
        {
          "indexed": true,
          "internalType": "address",
          "name": "approved",
          "type": "address"
        },
        {
          "indexed": true,
          "internalType": "uint256",
          "name": "tokenId",
          "type": "uint256"
        }
      ],
      "name": "Approval",
      "type": "event"
    },
    {
      "anonymous": false,
      "inputs": [
        {
          "indexed": true,
          "internalType": "address",
          "name": "owner",
          "type": "address"
        },
        {
          "indexed": true,
          "internalType": "address",
          "name": "operator",
          "type": "address"
        },
        {
          "indexed": false,
          "internalType": "bool",
          "name": "approved",
          "type": "bool"
        }
      ],
      "name": "ApprovalForAll",
      "type": "event"
    },
    {
      "anonymous": false,
      "inputs": [
        {
          "indexed": false,
          "internalType": "uint256",
          "name": "newBossHp",
          "type": "uint256"
        },
        {
          "indexed": false,
          "internalType": "uint256",
          "name": "newPlayerHp",
          "type": "uint256"
        }
      ],
      "name": "AttackComplete",
      "type": "event"
    },
    {
      "anonymous": false,
      "inputs": [
        {
          "indexed": false,
          "internalType": "address",
          "name": "sender",
          "type": "address"
        },
        {
          "indexed": false,
          "internalType": "uint256",
          "name": "tokenId",
          "type": "uint256"
        },
        {
          "indexed": false,
          "internalType": "uint256",
          "name": "characterIndex",
          "type": "uint256"
        }
      ],
      "name": "CharacterNFTMinted",
      "type": "event"
    },
    {
      "anonymous": false,
      "inputs": [
        {
          "indexed": false,
          "internalType": "uint256",
          "name": "characterIndex",
          "type": "uint256"
        }
      ],
      "name": "NFTMinted",
      "type": "event"
    },
    {
      "anonymous": false,
      "inputs": [
        {
          "indexed": true,
          "internalType": "address",
          "name": "from",
          "type": "address"
        },
        {
          "indexed": true,
          "internalType": "address",
          "name": "to",
          "type": "address"
        },
        {
          "indexed": true,
          "internalType": "uint256",
          "name": "tokenId",
          "type": "uint256"
        }
      ],
      "name": "Transfer",
      "type": "event"
    },
    {
      "inputs": [
        {
          "internalType": "address",
          "name": "to",
          "type": "address"
        },
        {
          "internalType": "uint256",
          "name": "tokenId",
          "type": "uint256"
        }
      ],
      "name": "approve",
      "outputs": [],
      "stateMutability": "nonpayable",
      "type": "function"
    },
    {
      "inputs": [],
      "name": "attackBoss",
      "outputs": [],
      "stateMutability": "nonpayable",
      "type": "function"
    },
    {
      "inputs": [
        {
          "internalType": "address",
          "name": "owner",
          "type": "address"
        }
      ],
      "name": "balanceOf",
      "outputs": [
        {
          "internalType": "uint256",
          "name": "",
          "type": "uint256"
        }
      ],
      "stateMutability": "view",
      "type": "function"
    },
    {
      "inputs": [],
      "name": "bigBoss",
      "outputs": [
        {
          "internalType": "string",
          "name": "name",
          "type": "string"
        },
        {
          "internalType": "string",
          "name": "imageURI",
          "type": "string"
        },
        {
          "internalType": "uint256",
          "name": "hp",
          "type": "uint256"
        },
        {
          "internalType": "uint256",
          "name": "maxHp",
          "type": "uint256"
        },
        {
          "internalType": "uint256",
          "name": "attackDamage",
          "type": "uint256"
        }
      ],
      "stateMutability": "view",
      "type": "function"
    },
    {
      "inputs": [],
      "name": "checkIfUserHasNFT",
      "outputs": [
        {
          "components": [
            {
              "internalType": "uint256",
              "name": "characterIndex",
              "type": "uint256"
            },
            {
              "internalType": "string",
              "name": "name",
              "type": "string"
            },
            {
              "internalType": "string",
              "name": "imageURI",
              "type": "string"
            },
            {
              "internalType": "uint256",
              "name": "hp",
              "type": "uint256"
            },
            {
              "internalType": "uint256",
              "name": "maxHp",
              "type": "uint256"
            },
            {
              "internalType": "uint256",
              "name": "attackDamage",
              "type": "uint256"
            }
          ],
          "internalType": "struct MyEpicGame.CharacterAttributes",
          "name": "",
          "type": "tuple"
        }
      ],
      "stateMutability": "view",
      "type": "function"
    },
    {
      "inputs": [],
      "name": "getAllDefaultCharacters",
      "outputs": [
        {
          "components": [
            {
              "internalType": "uint256",
              "name": "characterIndex",
              "type": "uint256"
            },
            {
              "internalType": "string",
              "name": "name",
              "type": "string"
            },
            {
              "internalType": "string",
              "name": "imageURI",
              "type": "string"
            },
            {
              "internalType": "uint256",
              "name": "hp",
              "type": "uint256"
            },
            {
              "internalType": "uint256",
              "name": "maxHp",
              "type": "uint256"
            },
            {
              "internalType": "uint256",
              "name": "attackDamage",
              "type": "uint256"
            }
          ],
          "internalType": "struct MyEpicGame.CharacterAttributes[]",
          "name": "",
          "type": "tuple[]"
        }
      ],
      "stateMutability": "view",
      "type": "function"
    },
    {
      "inputs": [],
      "name": "getAllPlayers",
      "outputs": [
        {
          "components": [
            {
              "internalType": "uint256",
              "name": "id",
              "type": "uint256"
            },
            {
              "internalType": "address",
              "name": "wallet",
              "type": "address"
            }
          ],
          "internalType": "struct MyEpicGame.AllPlayers[]",
          "name": "",
          "type": "tuple[]"
        }
      ],
      "stateMutability": "view",
      "type": "function"
    },
    {
      "inputs": [
        {
          "internalType": "uint256",
          "name": "tokenId",
          "type": "uint256"
        }
      ],
      "name": "getApproved",
      "outputs": [
        {
          "internalType": "address",
          "name": "",
          "type": "address"
        }
      ],
      "stateMutability": "view",
      "type": "function"
    },
    {
      "inputs": [],
      "name": "getBigBoss",
      "outputs": [
        {
          "components": [
            {
              "internalType": "string",
              "name": "name",
              "type": "string"
            },
            {
              "internalType": "string",
              "name": "imageURI",
              "type": "string"
            },
            {
              "internalType": "uint256",
              "name": "hp",
              "type": "uint256"
            },
            {
              "internalType": "uint256",
              "name": "maxHp",
              "type": "uint256"
            },
            {
              "internalType": "uint256",
              "name": "attackDamage",
              "type": "uint256"
            }
          ],
          "internalType": "struct MyEpicGame.BigBoss",
          "name": "",
          "type": "tuple"
        }
      ],
      "stateMutability": "view",
      "type": "function"
    },
    {
      "inputs": [
        {
          "internalType": "uint256",
          "name": "_tokenId",
          "type": "uint256"
        }
      ],
      "name": "getUserNFTCharacterAttributes",
      "outputs": [
        {
          "components": [
            {
              "internalType": "uint256",
              "name": "characterIndex",
              "type": "uint256"
            },
            {
              "internalType": "string",
              "name": "name",
              "type": "string"
            },
            {
              "internalType": "string",
              "name": "imageURI",
              "type": "string"
            },
            {
              "internalType": "uint256",
              "name": "hp",
              "type": "uint256"
            },
            {
              "internalType": "uint256",
              "name": "maxHp",
              "type": "uint256"
            },
            {
              "internalType": "uint256",
              "name": "attackDamage",
              "type": "uint256"
            }
          ],
          "internalType": "struct MyEpicGame.CharacterAttributes",
          "name": "",
          "type": "tuple"
        }
      ],
      "stateMutability": "view",
      "type": "function"
    },
    {
      "inputs": [
        {
          "internalType": "address",
          "name": "owner",
          "type": "address"
        },
        {
          "internalType": "address",
          "name": "operator",
          "type": "address"
        }
      ],
      "name": "isApprovedForAll",
      "outputs": [
        {
          "internalType": "bool",
          "name": "",
          "type": "bool"
        }
      ],
      "stateMutability": "view",
      "type": "function"
    },
    {
      "inputs": [
        {
          "internalType": "uint256",
          "name": "_characterIndex",
          "type": "uint256"
        }
      ],
      "name": "mintCharacterNFT",
      "outputs": [],
      "stateMutability": "nonpayable",
      "type": "function"
    },
    {
      "inputs": [],
      "name": "name",
      "outputs": [
        {
          "internalType": "string",
          "name": "",
          "type": "string"
        }
      ],
      "stateMutability": "view",
      "type": "function"
    },
    {
      "inputs": [
        {
          "internalType": "uint256",
          "name": "",
          "type": "uint256"
        }
      ],
      "name": "nftHolderAttributes",
      "outputs": [
        {
          "internalType": "uint256",
          "name": "characterIndex",
          "type": "uint256"
        },
        {
          "internalType": "string",
          "name": "name",
          "type": "string"
        },
        {
          "internalType": "string",
          "name": "imageURI",
          "type": "string"
        },
        {
          "internalType": "uint256",
          "name": "hp",
          "type": "uint256"
        },
        {
          "internalType": "uint256",
          "name": "maxHp",
          "type": "uint256"
        },
        {
          "internalType": "uint256",
          "name": "attackDamage",
          "type": "uint256"
        }
      ],
      "stateMutability": "view",
      "type": "function"
    },
    {
      "inputs": [
        {
          "internalType": "address",
          "name": "",
          "type": "address"
        }
      ],
      "name": "nftHolders",
      "outputs": [
        {
          "internalType": "uint256",
          "name": "",
          "type": "uint256"
        }
      ],
      "stateMutability": "view",
      "type": "function"
    },
    {
      "inputs": [
        {
          "internalType": "uint256",
          "name": "tokenId",
          "type": "uint256"
        }
      ],
      "name": "ownerOf",
      "outputs": [
        {
          "internalType": "address",
          "name": "",
          "type": "address"
        }
      ],
      "stateMutability": "view",
      "type": "function"
    },
    {
      "inputs": [
        {
          "internalType": "address",
          "name": "from",
          "type": "address"
        },
        {
          "internalType": "address",
          "name": "to",
          "type": "address"
        },
        {
          "internalType": "uint256",
          "name": "tokenId",
          "type": "uint256"
        }
      ],
      "name": "safeTransferFrom",
      "outputs": [],
      "stateMutability": "nonpayable",
      "type": "function"
    },
    {
      "inputs": [
        {
          "internalType": "address",
          "name": "from",
          "type": "address"
        },
        {
          "internalType": "address",
          "name": "to",
          "type": "address"
        },
        {
          "internalType": "uint256",
          "name": "tokenId",
          "type": "uint256"
        },
        {
          "internalType": "bytes",
          "name": "_data",
          "type": "bytes"
        }
      ],
      "name": "safeTransferFrom",
      "outputs": [],
      "stateMutability": "nonpayable",
      "type": "function"
    },
    {
      "inputs": [
        {
          "internalType": "address",
          "name": "operator",
          "type": "address"
        },
        {
          "internalType": "bool",
          "name": "approved",
          "type": "bool"
        }
      ],
      "name": "setApprovalForAll",
      "outputs": [],
      "stateMutability": "nonpayable",
      "type": "function"
    },
    {
      "inputs": [
        {
          "internalType": "bytes4",
          "name": "interfaceId",
          "type": "bytes4"
        }
      ],
      "name": "supportsInterface",
      "outputs": [
        {
          "internalType": "bool",
          "name": "",
          "type": "bool"
        }
      ],
      "stateMutability": "view",
      "type": "function"
    },
    {
      "inputs": [],
      "name": "symbol",
      "outputs": [
        {
          "internalType": "string",
          "name": "",
          "type": "string"
        }
      ],
      "stateMutability": "view",
      "type": "function"
    },
    {
      "inputs": [
        {
          "internalType": "uint256",
          "name": "_tokenId",
          "type": "uint256"
        }
      ],
      "name": "tokenURI",
      "outputs": [
        {
          "internalType": "string",
          "name": "",
          "type": "string"
        }
      ],
      "stateMutability": "view",
      "type": "function"
    },
    {
      "inputs": [
        {
          "internalType": "address",
          "name": "from",
          "type": "address"
        },
        {
          "internalType": "address",
          "name": "to",
          "type": "address"
        },
        {
          "internalType": "uint256",
          "name": "tokenId",
          "type": "uint256"
        }
      ],
      "name": "transferFrom",
      "outputs": [],
      "stateMutability": "nonpayable",
      "type": "function"
    }
  ],
  "bytecode": "0x60806040523480156200001157600080fd5b5060405162005c1f38038062005c1f833981810160405281019062000037919062000a5a565b6040518060400160405280600581526020017f44436c75620000000000000000000000000000000000000000000000000000008152506040518060400160405280600481526020017f54455354000000000000000000000000000000000000000000000000000000008152508160009080519060200190620000bb929190620007ed565b508060019080519060200190620000d4929190620007ed565b5050506040518060a0016040528085815260200184815260200183815260200183815260200182815250600a60008201518160000190805190602001906200011e929190620007ed565b5060208201518160010190805190602001906200013d929190620007ed565b50604082015181600201556060820151816003015560808201518160040155905050620002c06040518060600160405280602a815260200162005bf5602a9139600a60000180546200018f9062000de5565b80601f0160208091040260200160405190810160405280929190818152602001828054620001bd9062000de5565b80156200020e5780601f10620001e2576101008083540402835291602001916200020e565b820191906000526020600020905b815481529060010190602001808311620001f057829003601f168201915b5050505050600a60020154600a60010180546200022b9062000de5565b80601f0160208091040260200160405190810160405280929190818152602001828054620002599062000de5565b8015620002aa5780601f106200027e57610100808354040283529160200191620002aa565b820191906000526020600020905b8154815290600101906020018083116200028c57829003601f168201915b50505050506200070260201b620021001760201c565b60005b8851811015620006dc5760066040518060c001604052808381526020018b84815181106200031a577f4e487b7100000000000000000000000000000000000000000000000000000000600052603260045260246000fd5b602002602001015181526020018a848151811062000361577f4e487b7100000000000000000000000000000000000000000000000000000000600052603260045260246000fd5b60200260200101518152602001898481518110620003a8577f4e487b7100000000000000000000000000000000000000000000000000000000600052603260045260246000fd5b60200260200101518152602001898481518110620003ef577f4e487b7100000000000000000000000000000000000000000000000000000000600052603260045260246000fd5b6020026020010151815260200188848151811062000436577f4e487b7100000000000000000000000000000000000000000000000000000000600052603260045260246000fd5b6020026020010151815250908060018154018082558091505060019003906000526020600020906006020160009091909190915060008201518160000155602082015181600101908051906020019062000492929190620007ed565b506040820151816002019080519060200190620004b1929190620007ed565b50606082015181600301556080820151816004015560a0820151816005015550506000600682815481106200050f577f4e487b7100000000000000000000000000000000000000000000000000000000600052603260045260246000fd5b90600052602060002090600602016040518060c001604052908160008201548152602001600182018054620005449062000de5565b80601f0160208091040260200160405190810160405280929190818152602001828054620005729062000de5565b8015620005c35780601f106200059757610100808354040283529160200191620005c3565b820191906000526020600020905b815481529060010190602001808311620005a557829003601f168201915b50505050508152602001600282018054620005de9062000de5565b80601f01602080910402602001604051908101604052809291908181526020018280546200060c9062000de5565b80156200065d5780601f1062000631576101008083540402835291602001916200065d565b820191906000526020600020905b8154815290600101906020018083116200063f57829003601f168201915b5050505050815260200160038201548152602001600482015481526020016005820154815250509050620006c460405180606001604052806025815260200162005bd0602591398260200151836060015184604001516200070260201b620021001760201c565b50600181620006d4919062000d48565b9050620002c3565b50620006f46009620007ae60201b620021a21760201c565b505050505050505062000ed3565b620007a8848484846040516024016200071f949392919062000c05565b6040516020818303038152906040527f8d142cdd000000000000000000000000000000000000000000000000000000007bffffffffffffffffffffffffffffffffffffffffffffffffffffffff19166020820180517bffffffffffffffffffffffffffffffffffffffffffffffffffffffff8381831617835250505050620007c460201b60201c565b50505050565b6001816000016000828254019250508190555050565b60008151905060006a636f6e736f6c652e6c6f679050602083016000808483855afa5050505050565b828054620007fb9062000de5565b90600052602060002090601f0160209004810192826200081f57600085556200086b565b82601f106200083a57805160ff19168380011785556200086b565b828001600101855582156200086b579182015b828111156200086a5782518255916020019190600101906200084d565b5b5090506200087a91906200087e565b5090565b5b80821115620008995760008160009055506001016200087f565b5090565b6000620008b4620008ae8462000c9b565b62000c67565b9050808382526020820190508260005b85811015620008f85781518501620008dd888262000a16565b845260208401935060208301925050600181019050620008c4565b5050509392505050565b600062000919620009138462000cca565b62000c67565b905080838252602082019050828560208602820111156200093957600080fd5b60005b858110156200096d578162000952888262000a43565b8452602084019350602083019250506001810190506200093c565b5050509392505050565b60006200098e620009888462000cf9565b62000c67565b905082815260208101848484011115620009a757600080fd5b620009b484828562000daf565b509392505050565b600082601f830112620009ce57600080fd5b8151620009e08482602086016200089d565b91505092915050565b600082601f830112620009fb57600080fd5b815162000a0d84826020860162000902565b91505092915050565b600082601f83011262000a2857600080fd5b815162000a3a84826020860162000977565b91505092915050565b60008151905062000a548162000eb9565b92915050565b600080600080600080600080610100898b03121562000a7857600080fd5b600089015167ffffffffffffffff81111562000a9357600080fd5b62000aa18b828c01620009bc565b985050602089015167ffffffffffffffff81111562000abf57600080fd5b62000acd8b828c01620009bc565b975050604089015167ffffffffffffffff81111562000aeb57600080fd5b62000af98b828c01620009e9565b965050606089015167ffffffffffffffff81111562000b1757600080fd5b62000b258b828c01620009e9565b955050608089015167ffffffffffffffff81111562000b4357600080fd5b62000b518b828c0162000a16565b94505060a089015167ffffffffffffffff81111562000b6f57600080fd5b62000b7d8b828c0162000a16565b93505060c062000b908b828c0162000a43565b92505060e062000ba38b828c0162000a43565b9150509295985092959890939650565b600062000bc08262000d2c565b62000bcc818562000d37565b935062000bde81856020860162000daf565b62000be98162000ea8565b840191505092915050565b62000bff8162000da5565b82525050565b6000608082019050818103600083015262000c21818762000bb3565b9050818103602083015262000c37818662000bb3565b905062000c48604083018562000bf4565b818103606083015262000c5c818462000bb3565b905095945050505050565b6000604051905081810181811067ffffffffffffffff8211171562000c915762000c9062000e79565b5b8060405250919050565b600067ffffffffffffffff82111562000cb95762000cb862000e79565b5b602082029050602081019050919050565b600067ffffffffffffffff82111562000ce85762000ce762000e79565b5b602082029050602081019050919050565b600067ffffffffffffffff82111562000d175762000d1662000e79565b5b601f19601f8301169050602081019050919050565b600081519050919050565b600082825260208201905092915050565b600062000d558262000da5565b915062000d628362000da5565b9250827fffffffffffffffffffffffffffffffffffffffffffffffffffffffffffffffff0382111562000d9a5762000d9962000e1b565b5b828201905092915050565b6000819050919050565b60005b8381101562000dcf57808201518184015260208101905062000db2565b8381111562000ddf576000848401525b50505050565b6000600282049050600182168062000dfe57607f821691505b6020821081141562000e155762000e1462000e4a565b5b50919050565b7f4e487b7100000000000000000000000000000000000000000000000000000000600052601160045260246000fd5b7f4e487b7100000000000000000000000000000000000000000000000000000000600052602260045260246000fd5b7f4e487b7100000000000000000000000000000000000000000000000000000000600052604160045260246000fd5b6000601f19601f8301169050919050565b62000ec48162000da5565b811462000ed057600080fd5b50565b614ced8062000ee36000396000f3fe608060405234801561001057600080fd5b506004361061014d5760003560e01c806398da4c95116100c3578063c8cf27f41161007c578063c8cf27f4146103cd578063d4f24c5b146103eb578063e985e9c5146103f5578063efa1c48214610425578063f8b81ef714610443578063fc02a1391461045f5761014d565b806398da4c95146102f0578063a22cb46514610325578063a9c3267914610341578063b88d4fde14610363578063b953084e1461037f578063c87b56dd1461039d5761014d565b806323b872dd1161011557806323b872dd1461020a57806342842e0e146102265780636352211e1461024257806370a08231146102725780637df124a1146102a257806395d89b41146102d25761014d565b806301ffc9a7146101525780630665f9611461018257806306fdde03146101a0578063081812fc146101be578063095ea7b3146101ee575b600080fd5b61016c600480360381019061016791906133da565b61048f565b6040516101799190614236565b60405180910390f35b61018a610571565b60405161019791906145cf565b60405180910390f35b6101a86106cd565b6040516101b59190614251565b60405180910390f35b6101d860048036038101906101d3919061342c565b61075f565b6040516101e59190614154565b60405180910390f35b6102086004803603810190610203919061339e565b6107e4565b005b610224600480360381019061021f9190613298565b6108fc565b005b610240600480360381019061023b9190613298565b61095c565b005b61025c6004803603810190610257919061342c565b61097c565b6040516102699190614154565b60405180910390f35b61028c60048036038101906102879190613233565b610a2e565b6040516102999190614613565b60405180910390f35b6102bc60048036038101906102b79190613233565b610ae6565b6040516102c99190614613565b60405180910390f35b6102da610afe565b6040516102e79190614251565b60405180910390f35b61030a6004803603810190610305919061342c565b610b90565b60405161031c9695949392919061462e565b60405180910390f35b61033f600480360381019061033a9190613362565b610cdc565b005b610349610e5d565b60405161035a959493929190614320565b60405180910390f35b61037d600480360381019061037891906132e7565b610f91565b005b610387610ff3565b6040516103949190614214565b60405180910390f35b6103b760048036038101906103b2919061342c565b61119e565b6040516103c49190614251565b60405180910390f35b6103d56113b9565b6040516103e291906145f1565b60405180910390f35b6103f3611591565b005b61040f600480360381019061040a919061325c565b61191c565b60405161041c9190614236565b60405180910390f35b61042d6119b0565b60405161043a91906141f2565b60405180910390f35b61045d6004803603810190610458919061342c565b611a6f565b005b6104796004803603810190610474919061342c565b611f65565b60405161048691906145f1565b60405180910390f35b60007f80ac58cd000000000000000000000000000000000000000000000000000000007bffffffffffffffffffffffffffffffffffffffffffffffffffffffff1916827bffffffffffffffffffffffffffffffffffffffffffffffffffffffff1916148061055a57507f5b5e139f000000000000000000000000000000000000000000000000000000007bffffffffffffffffffffffffffffffffffffffffffffffffffffffff1916827bffffffffffffffffffffffffffffffffffffffffffffffffffffffff1916145b8061056a5750610569826121b8565b5b9050919050565b61057961305a565b600a6040518060a0016040529081600082018054610596906149b8565b80601f01602080910402602001604051908101604052809291908181526020018280546105c2906149b8565b801561060f5780601f106105e45761010080835404028352916020019161060f565b820191906000526020600020905b8154815290600101906020018083116105f257829003601f168201915b50505050508152602001600182018054610628906149b8565b80601f0160208091040260200160405190810160405280929190818152602001828054610654906149b8565b80156106a15780601f10610676576101008083540402835291602001916106a1565b820191906000526020600020905b81548152906001019060200180831161068457829003601f168201915b505050505081526020016002820154815260200160038201548152602001600482015481525050905090565b6060600080546106dc906149b8565b80601f0160208091040260200160405190810160405280929190818152602001828054610708906149b8565b80156107555780601f1061072a57610100808354040283529160200191610755565b820191906000526020600020905b81548152906001019060200180831161073857829003601f168201915b5050505050905090565b600061076a82612222565b6107a9576040517f08c379a00000000000000000000000000000000000000000000000000000000081526004016107a09061454f565b60405180910390fd5b6004600083815260200190815260200160002060009054906101000a900473ffffffffffffffffffffffffffffffffffffffff169050919050565b60006107ef8261097c565b90508073ffffffffffffffffffffffffffffffffffffffff168373ffffffffffffffffffffffffffffffffffffffff161415610860576040517f08c379a00000000000000000000000000000000000000000000000000000000081526004016108579061458f565b60405180910390fd5b8073ffffffffffffffffffffffffffffffffffffffff1661087f61228e565b73ffffffffffffffffffffffffffffffffffffffff1614806108ae57506108ad816108a861228e565b61191c565b5b6108ed576040517f08c379a00000000000000000000000000000000000000000000000000000000081526004016108e4906144af565b60405180910390fd5b6108f78383612296565b505050565b61090d61090761228e565b8261234f565b61094c576040517f08c379a0000000000000000000000000000000000000000000000000000000008152600401610943906145af565b60405180910390fd5b61095783838361242d565b505050565b61097783838360405180602001604052806000815250610f91565b505050565b6000806002600084815260200190815260200160002060009054906101000a900473ffffffffffffffffffffffffffffffffffffffff169050600073ffffffffffffffffffffffffffffffffffffffff168173ffffffffffffffffffffffffffffffffffffffff161415610a25576040517f08c379a0000000000000000000000000000000000000000000000000000000008152600401610a1c906144ef565b60405180910390fd5b80915050919050565b60008073ffffffffffffffffffffffffffffffffffffffff168273ffffffffffffffffffffffffffffffffffffffff161415610a9f576040517f08c379a0000000000000000000000000000000000000000000000000000000008152600401610a96906144cf565b60405180910390fd5b600360008373ffffffffffffffffffffffffffffffffffffffff1673ffffffffffffffffffffffffffffffffffffffff168152602001908152602001600020549050919050565b60086020528060005260406000206000915090505481565b606060018054610b0d906149b8565b80601f0160208091040260200160405190810160405280929190818152602001828054610b39906149b8565b8015610b865780601f10610b5b57610100808354040283529160200191610b86565b820191906000526020600020905b815481529060010190602001808311610b6957829003601f168201915b5050505050905090565b6007602052806000526040600020600091509050806000015490806001018054610bb9906149b8565b80601f0160208091040260200160405190810160405280929190818152602001828054610be5906149b8565b8015610c325780601f10610c0757610100808354040283529160200191610c32565b820191906000526020600020905b815481529060010190602001808311610c1557829003601f168201915b505050505090806002018054610c47906149b8565b80601f0160208091040260200160405190810160405280929190818152602001828054610c73906149b8565b8015610cc05780601f10610c9557610100808354040283529160200191610cc0565b820191906000526020600020905b815481529060010190602001808311610ca357829003601f168201915b5050505050908060030154908060040154908060050154905086565b610ce461228e565b73ffffffffffffffffffffffffffffffffffffffff168273ffffffffffffffffffffffffffffffffffffffff161415610d52576040517f08c379a0000000000000000000000000000000000000000000000000000000008152600401610d499061446f565b60405180910390fd5b8060056000610d5f61228e565b73ffffffffffffffffffffffffffffffffffffffff1673ffffffffffffffffffffffffffffffffffffffff16815260200190815260200160002060008473ffffffffffffffffffffffffffffffffffffffff1673ffffffffffffffffffffffffffffffffffffffff16815260200190815260200160002060006101000a81548160ff0219169083151502179055508173ffffffffffffffffffffffffffffffffffffffff16610e0c61228e565b73ffffffffffffffffffffffffffffffffffffffff167f17307eab39ab6107e8899845ad3d59bd9653f200f220920489ca2b5937696c3183604051610e519190614236565b60405180910390a35050565b600a806000018054610e6e906149b8565b80601f0160208091040260200160405190810160405280929190818152602001828054610e9a906149b8565b8015610ee75780601f10610ebc57610100808354040283529160200191610ee7565b820191906000526020600020905b815481529060010190602001808311610eca57829003601f168201915b505050505090806001018054610efc906149b8565b80601f0160208091040260200160405190810160405280929190818152602001828054610f28906149b8565b8015610f755780601f10610f4a57610100808354040283529160200191610f75565b820191906000526020600020905b815481529060010190602001808311610f5857829003601f168201915b5050505050908060020154908060030154908060040154905085565b610fa2610f9c61228e565b8361234f565b610fe1576040517f08c379a0000000000000000000000000000000000000000000000000000000008152600401610fd8906145af565b60405180910390fd5b610fed84848484612689565b50505050565b60606006805480602002602001604051908101604052809291908181526020016000905b8282101561119557838290600052602060002090600602016040518060c001604052908160008201548152602001600182018054611054906149b8565b80601f0160208091040260200160405190810160405280929190818152602001828054611080906149b8565b80156110cd5780601f106110a2576101008083540402835291602001916110cd565b820191906000526020600020905b8154815290600101906020018083116110b057829003601f168201915b505050505081526020016002820180546110e6906149b8565b80601f0160208091040260200160405190810160405280929190818152602001828054611112906149b8565b801561115f5780601f106111345761010080835404028352916020019161115f565b820191906000526020600020905b81548152906001019060200180831161114257829003601f168201915b50505050508152602001600382015481526020016004820154815260200160058201548152505081526020019060010190611017565b50505050905090565b60606000600760008481526020019081526020016000206040518060c0016040529081600082015481526020016001820180546111da906149b8565b80601f0160208091040260200160405190810160405280929190818152602001828054611206906149b8565b80156112535780601f1061122857610100808354040283529160200191611253565b820191906000526020600020905b81548152906001019060200180831161123657829003601f168201915b5050505050815260200160028201805461126c906149b8565b80601f0160208091040260200160405190810160405280929190818152602001828054611298906149b8565b80156112e55780601f106112ba576101008083540402835291602001916112e5565b820191906000526020600020905b8154815290600101906020018083116112c857829003601f168201915b5050505050815260200160038201548152602001600482015481526020016005820154815250509050600061131d82606001516126e5565b9050600061132e83608001516126e5565b9050600061133f8460a001516126e5565b905060006113858560200151611354896126e5565b87604001518787876040516020016113719695949392919061408d565b604051602081830303815290604052612892565b905060008160405160200161139a9190614132565b6040516020818303038152906040529050809650505050505050919050565b6113c1613089565b6000600860003373ffffffffffffffffffffffffffffffffffffffff1673ffffffffffffffffffffffffffffffffffffffff168152602001908152602001600020549050600081111561158057600760008281526020019081526020016000206040518060c001604052908160008201548152602001600182018054611446906149b8565b80601f0160208091040260200160405190810160405280929190818152602001828054611472906149b8565b80156114bf5780601f10611494576101008083540402835291602001916114bf565b820191906000526020600020905b8154815290600101906020018083116114a257829003601f168201915b505050505081526020016002820180546114d8906149b8565b80601f0160208091040260200160405190810160405280929190818152602001828054611504906149b8565b80156115515780601f1061152657610100808354040283529160200191611551565b820191906000526020600020905b81548152906001019060200180831161153457829003601f168201915b50505050508152602001600382015481526020016004820154815260200160058201548152505091505061158e565b611588613089565b80925050505b90565b6000600860003373ffffffffffffffffffffffffffffffffffffffff1673ffffffffffffffffffffffffffffffffffffffff16815260200190815260200160002054905060006007600083815260200190815260200160002090506116a46040518060600160405280603c8152602001614c7c603c9139826001018054611617906149b8565b80601f0160208091040260200160405190810160405280929190818152602001828054611643906149b8565b80156116905780601f1061166557610100808354040283529160200191611690565b820191906000526020600020905b81548152906001019060200180831161167357829003601f168201915b505050505083600301548460050154612a50565b61177c6040518060400160405280601b81526020017f426f73732025732068617320257320485020616e642025732041440000000000815250600a60000180546116ed906149b8565b80601f0160208091040260200160405190810160405280929190818152602001828054611719906149b8565b80156117665780601f1061173b57610100808354040283529160200191611766565b820191906000526020600020905b81548152906001019060200180831161174957829003601f168201915b5050505050600a60020154600a60040154612a50565b60008160030154116117c3576040517f08c379a00000000000000000000000000000000000000000000000000000000081526004016117ba9061450f565b60405180910390fd5b6000600a600201541161180b576040517f08c379a00000000000000000000000000000000000000000000000000000000081526004016118029061440f565b60405180910390fd5b8060050154600a60020154101561182c576000600a6002018190555061184b565b8060050154600a6002015461184191906148ce565b600a600201819055505b600a600401548160030154101561186b5760008160030181905550611889565b600a60040154816003015461188091906148ce565b81600301819055505b7f838ab28464562786a6c4ab2311964b82fa60bd9b14aa7e856af1f3f18d41a414600a6002015482600301546040516118c392919061469d565b60405180910390a16118f2604051806060016040528060268152602001614bc060269139600a60020154612af2565b611918604051806060016040528060288152602001614c26602891398260030154612af2565b5050565b6000600560008473ffffffffffffffffffffffffffffffffffffffff1673ffffffffffffffffffffffffffffffffffffffff16815260200190815260200160002060008373ffffffffffffffffffffffffffffffffffffffff1673ffffffffffffffffffffffffffffffffffffffff16815260200190815260200160002060009054906101000a900460ff16905092915050565b6060600f805480602002602001604051908101604052809291908181526020016000905b82821015611a665783829060005260206000209060020201604051806040016040529081600082015481526020016001820160009054906101000a900473ffffffffffffffffffffffffffffffffffffffff1673ffffffffffffffffffffffffffffffffffffffff1673ffffffffffffffffffffffffffffffffffffffff1681525050815260200190600101906119d4565b50505050905090565b6000611a7b6009612b8e565b9050611a873382612b9c565b6040518060c0016040528083815260200160068481548110611ad2577f4e487b7100000000000000000000000000000000000000000000000000000000600052603260045260246000fd5b90600052602060002090600602016001018054611aee906149b8565b80601f0160208091040260200160405190810160405280929190818152602001828054611b1a906149b8565b8015611b675780601f10611b3c57610100808354040283529160200191611b67565b820191906000526020600020905b815481529060010190602001808311611b4a57829003601f168201915b5050505050815260200160068481548110611bab577f4e487b7100000000000000000000000000000000000000000000000000000000600052603260045260246000fd5b90600052602060002090600602016002018054611bc7906149b8565b80601f0160208091040260200160405190810160405280929190818152602001828054611bf3906149b8565b8015611c405780601f10611c1557610100808354040283529160200191611c40565b820191906000526020600020905b815481529060010190602001808311611c2357829003601f168201915b5050505050815260200160068481548110611c84577f4e487b7100000000000000000000000000000000000000000000000000000000600052603260045260246000fd5b906000526020600020906006020160030154815260200160068481548110611cd5577f4e487b7100000000000000000000000000000000000000000000000000000000600052603260045260246000fd5b906000526020600020906006020160030154815260200160068481548110611d26577f4e487b7100000000000000000000000000000000000000000000000000000000600052603260045260246000fd5b90600052602060002090600602016005015481525060076000838152602001908152602001600020600082015181600001556020820151816001019080519060200190611d749291906130bf565b506040820151816002019080519060200190611d919291906130bf565b50606082015181600301556080820151816004015560a08201518160050155905050611dd66040518060600160405280602e8152602001614c4e602e91398284612bba565b600f60405180604001604052808381526020013373ffffffffffffffffffffffffffffffffffffffff1681525090806001815401808255809150506001900390600052602060002090600202016000909190919091506000820151816000015560208201518160010160006101000a81548173ffffffffffffffffffffffffffffffffffffffff021916908373ffffffffffffffffffffffffffffffffffffffff1602179055505050611ea1604051806060016040528060328152602001614b8e6032913982612af2565b80600860003373ffffffffffffffffffffffffffffffffffffffff1673ffffffffffffffffffffffffffffffffffffffff16815260200190815260200160002081905550611eef60096121a2565b7f4bc303fd457a97b4691b9af582ce71868a3d258638c8d4f8c60988a0f0bfb8cd338284604051611f22939291906141bb565b60405180910390a17fd9dc24857f317ed9abbbb42e920ede0104231eb1d3d70236a74887ffaf15986882604051611f599190614613565b60405180910390a15050565b611f6d613089565b600082905060008111156120ed57600760008281526020019081526020016000206040518060c001604052908160008201548152602001600182018054611fb3906149b8565b80601f0160208091040260200160405190810160405280929190818152602001828054611fdf906149b8565b801561202c5780601f106120015761010080835404028352916020019161202c565b820191906000526020600020905b81548152906001019060200180831161200f57829003601f168201915b50505050508152602001600282018054612045906149b8565b80601f0160208091040260200160405190810160405280929190818152602001828054612071906149b8565b80156120be5780601f10612093576101008083540402835291602001916120be565b820191906000526020600020905b8154815290600101906020018083116120a157829003601f168201915b5050505050815260200160038201548152602001600482015481526020016005820154815250509150506120fb565b6120f5613089565b80925050505b919050565b61219c8484848460405160240161211a9493929190614273565b6040516020818303038152906040527f8d142cdd000000000000000000000000000000000000000000000000000000007bffffffffffffffffffffffffffffffffffffffffffffffffffffffff19166020820180517bffffffffffffffffffffffffffffffffffffffffffffffffffffffff8381831617835250505050612c59565b50505050565b6001816000016000828254019250508190555050565b60007f01ffc9a7000000000000000000000000000000000000000000000000000000007bffffffffffffffffffffffffffffffffffffffffffffffffffffffff1916827bffffffffffffffffffffffffffffffffffffffffffffffffffffffff1916149050919050565b60008073ffffffffffffffffffffffffffffffffffffffff166002600084815260200190815260200160002060009054906101000a900473ffffffffffffffffffffffffffffffffffffffff1673ffffffffffffffffffffffffffffffffffffffff1614159050919050565b600033905090565b816004600083815260200190815260200160002060006101000a81548173ffffffffffffffffffffffffffffffffffffffff021916908373ffffffffffffffffffffffffffffffffffffffff160217905550808273ffffffffffffffffffffffffffffffffffffffff166123098361097c565b73ffffffffffffffffffffffffffffffffffffffff167f8c5be1e5ebec7d5bd14f71427d1e84f3dd0314c0f7b2291e5b200ac8c7c3b92560405160405180910390a45050565b600061235a82612222565b612399576040517f08c379a00000000000000000000000000000000000000000000000000000000081526004016123909061448f565b60405180910390fd5b60006123a48361097c565b90508073ffffffffffffffffffffffffffffffffffffffff168473ffffffffffffffffffffffffffffffffffffffff16148061241357508373ffffffffffffffffffffffffffffffffffffffff166123fb8461075f565b73ffffffffffffffffffffffffffffffffffffffff16145b806124245750612423818561191c565b5b91505092915050565b8273ffffffffffffffffffffffffffffffffffffffff1661244d8261097c565b73ffffffffffffffffffffffffffffffffffffffff16146124a3576040517f08c379a000000000000000000000000000000000000000000000000000000000815260040161249a9061456f565b60405180910390fd5b600073ffffffffffffffffffffffffffffffffffffffff168273ffffffffffffffffffffffffffffffffffffffff161415612513576040517f08c379a000000000000000000000000000000000000000000000000000000000815260040161250a9061444f565b60405180910390fd5b61251e838383612c82565b612529600082612296565b6001600360008573ffffffffffffffffffffffffffffffffffffffff1673ffffffffffffffffffffffffffffffffffffffff168152602001908152602001600020600082825461257991906148ce565b925050819055506001600360008473ffffffffffffffffffffffffffffffffffffffff1673ffffffffffffffffffffffffffffffffffffffff16815260200190815260200160002060008282546125d091906147ed565b92505081905550816002600083815260200190815260200160002060006101000a81548173ffffffffffffffffffffffffffffffffffffffff021916908373ffffffffffffffffffffffffffffffffffffffff160217905550808273ffffffffffffffffffffffffffffffffffffffff168473ffffffffffffffffffffffffffffffffffffffff167fddf252ad1be2c89b69c2b068fc378daa952ba7f163c4a11628f55a4df523b3ef60405160405180910390a4505050565b61269484848461242d565b6126a084848484612c87565b6126df576040517f08c379a00000000000000000000000000000000000000000000000000000000081526004016126d6906143ef565b60405180910390fd5b50505050565b6060600082141561272d576040518060400160405280600181526020017f3000000000000000000000000000000000000000000000000000000000000000815250905061288d565b600082905060005b6000821461275f578080612748906149ea565b915050600a826127589190614843565b9150612735565b60008167ffffffffffffffff8111156127a1577f4e487b7100000000000000000000000000000000000000000000000000000000600052604160045260246000fd5b6040519080825280601f01601f1916602001820160405280156127d35781602001600182028036833780820191505090505b5090505b60008514612886576001826127ec91906148ce565b9150600a856127fb9190614a33565b603061280791906147ed565b60f81b818381518110612843577f4e487b7100000000000000000000000000000000000000000000000000000000600052603260045260246000fd5b60200101907effffffffffffffffffffffffffffffffffffffffffffffffffffffffffffff1916908160001a905350600a8561287f9190614843565b94506127d7565b8093505050505b919050565b606060008251905060008114156128bb5760405180602001604052806000815250915050612a4b565b600060036002836128cc91906147ed565b6128d69190614843565b60046128e29190614874565b905060006020826128f391906147ed565b67ffffffffffffffff811115612932577f4e487b7100000000000000000000000000000000000000000000000000000000600052604160045260246000fd5b6040519080825280601f01601f1916602001820160405280156129645781602001600182028036833780820191505090505b5090506000604051806060016040528060408152602001614be6604091399050600181016020830160005b86811015612a085760038101905062ffffff818a015116603f8160121c168401518060081b905060ff603f83600c1c1686015116810190508060081b905060ff603f8360061c1686015116810190508060081b905060ff603f831686015116810190508060e01b9050808452600484019350505061298f565b506003860660018114612a225760028114612a3257612a3d565b613d3d60f01b6002830352612a3d565b603d60f81b60018303525b508484525050819450505050505b919050565b612aec84848484604051602401612a6a94939291906142cd565b6040516020818303038152906040527fd5cf17d0000000000000000000000000000000000000000000000000000000007bffffffffffffffffffffffffffffffffffffffffffffffffffffffff19166020820180517bffffffffffffffffffffffffffffffffffffffffffffffffffffffff8381831617835250505050612c59565b50505050565b612b8a8282604051602401612b08929190614381565b6040516020818303038152906040527f9710a9d0000000000000000000000000000000000000000000000000000000007bffffffffffffffffffffffffffffffffffffffffffffffffffffffff19166020820180517bffffffffffffffffffffffffffffffffffffffffffffffffffffffff8381831617835250505050612c59565b5050565b600081600001549050919050565b612bb6828260405180602001604052806000815250612e1e565b5050565b612c54838383604051602401612bd2939291906143b1565b6040516020818303038152906040527f969cdd03000000000000000000000000000000000000000000000000000000007bffffffffffffffffffffffffffffffffffffffffffffffffffffffff19166020820180517bffffffffffffffffffffffffffffffffffffffffffffffffffffffff8381831617835250505050612c59565b505050565b60008151905060006a636f6e736f6c652e6c6f679050602083016000808483855afa5050505050565b505050565b6000612ca88473ffffffffffffffffffffffffffffffffffffffff16612e79565b15612e11578373ffffffffffffffffffffffffffffffffffffffff1663150b7a02612cd161228e565b8786866040518563ffffffff1660e01b8152600401612cf3949392919061416f565b602060405180830381600087803b158015612d0d57600080fd5b505af1925050508015612d3e57506040513d601f19601f82011682018060405250810190612d3b9190613403565b60015b612dc1573d8060008114612d6e576040519150601f19603f3d011682016040523d82523d6000602084013e612d73565b606091505b50600081511415612db9576040517f08c379a0000000000000000000000000000000000000000000000000000000008152600401612db0906143ef565b60405180910390fd5b805181602001fd5b63150b7a0260e01b7bffffffffffffffffffffffffffffffffffffffffffffffffffffffff1916817bffffffffffffffffffffffffffffffffffffffffffffffffffffffff191614915050612e16565b600190505b949350505050565b612e288383612e8c565b612e356000848484612c87565b612e74576040517f08c379a0000000000000000000000000000000000000000000000000000000008152600401612e6b906143ef565b60405180910390fd5b505050565b600080823b905060008111915050919050565b600073ffffffffffffffffffffffffffffffffffffffff168273ffffffffffffffffffffffffffffffffffffffff161415612efc576040517f08c379a0000000000000000000000000000000000000000000000000000000008152600401612ef39061452f565b60405180910390fd5b612f0581612222565b15612f45576040517f08c379a0000000000000000000000000000000000000000000000000000000008152600401612f3c9061442f565b60405180910390fd5b612f5160008383612c82565b6001600360008473ffffffffffffffffffffffffffffffffffffffff1673ffffffffffffffffffffffffffffffffffffffff1681526020019081526020016000206000828254612fa191906147ed565b92505081905550816002600083815260200190815260200160002060006101000a81548173ffffffffffffffffffffffffffffffffffffffff021916908373ffffffffffffffffffffffffffffffffffffffff160217905550808273ffffffffffffffffffffffffffffffffffffffff16600073ffffffffffffffffffffffffffffffffffffffff167fddf252ad1be2c89b69c2b068fc378daa952ba7f163c4a11628f55a4df523b3ef60405160405180910390a45050565b6040518060a0016040528060608152602001606081526020016000815260200160008152602001600081525090565b6040518060c001604052806000815260200160608152602001606081526020016000815260200160008152602001600081525090565b8280546130cb906149b8565b90600052602060002090601f0160209004810192826130ed5760008555613134565b82601f1061310657805160ff1916838001178555613134565b82800160010185558215613134579182015b82811115613133578251825591602001919060010190613118565b5b5090506131419190613145565b5090565b5b8082111561315e576000816000905550600101613146565b5090565b6000613175613170846146f7565b6146c6565b90508281526020810184848401111561318d57600080fd5b613198848285614976565b509392505050565b6000813590506131af81614b31565b92915050565b6000813590506131c481614b48565b92915050565b6000813590506131d981614b5f565b92915050565b6000815190506131ee81614b5f565b92915050565b600082601f83011261320557600080fd5b8135613215848260208601613162565b91505092915050565b60008135905061322d81614b76565b92915050565b60006020828403121561324557600080fd5b6000613253848285016131a0565b91505092915050565b6000806040838503121561326f57600080fd5b600061327d858286016131a0565b925050602061328e858286016131a0565b9150509250929050565b6000806000606084860312156132ad57600080fd5b60006132bb868287016131a0565b93505060206132cc868287016131a0565b92505060406132dd8682870161321e565b9150509250925092565b600080600080608085870312156132fd57600080fd5b600061330b878288016131a0565b945050602061331c878288016131a0565b935050604061332d8782880161321e565b925050606085013567ffffffffffffffff81111561334a57600080fd5b613356878288016131f4565b91505092959194509250565b6000806040838503121561337557600080fd5b6000613383858286016131a0565b9250506020613394858286016131b5565b9150509250929050565b600080604083850312156133b157600080fd5b60006133bf858286016131a0565b92505060206133d08582860161321e565b9150509250929050565b6000602082840312156133ec57600080fd5b60006133fa848285016131ca565b91505092915050565b60006020828403121561341557600080fd5b6000613423848285016131df565b91505092915050565b60006020828403121561343e57600080fd5b600061344c8482850161321e565b91505092915050565b60006134618383613ea3565b60408301905092915050565b60006134798383613f4f565b905092915050565b61348a81614902565b82525050565b61349981614902565b82525050565b60006134aa82614747565b6134b4818561478d565b93506134bf83614727565b8060005b838110156134f05781516134d78882613455565b97506134e283614773565b9250506001810190506134c3565b5085935050505092915050565b600061350882614752565b613512818561479e565b93508360208202850161352485614737565b8060005b858110156135605784840389528151613541858261346d565b945061354c83614780565b925060208a01995050600181019050613528565b50829750879550505050505092915050565b61357b81614914565b82525050565b600061358c8261475d565b61359681856147af565b93506135a6818560208601614985565b6135af81614b20565b840191505092915050565b60006135c582614768565b6135cf81856147c0565b93506135df818560208601614985565b6135e881614b20565b840191505092915050565b60006135fe82614768565b61360881856147d1565b9350613618818560208601614985565b61362181614b20565b840191505092915050565b600061363782614768565b61364181856147e2565b9350613651818560208601614985565b80840191505092915050565b600061366a600b836147e2565b91507f202d2d204e465420233a200000000000000000000000000000000000000000006000830152600b82019050919050565b60006136aa6032836147d1565b91507f4552433732313a207472616e7366657220746f206e6f6e20455243373231526560008301527f63656976657220696d706c656d656e74657200000000000000000000000000006020830152604082019050919050565b60006137106028836147d1565b91507f4572726f723a20626f7373206d757374206861766520485020746f206174746160008301527f636b20626f73732e0000000000000000000000000000000000000000000000006020830152604082019050919050565b6000613776601c836147d1565b91507f4552433732313a20746f6b656e20616c7265616479206d696e746564000000006000830152602082019050919050565b60006137b6600e836147e2565b91507f2c20226d61785f76616c7565223a0000000000000000000000000000000000006000830152600e82019050919050565b60006137f66024836147d1565b91507f4552433732313a207472616e7366657220746f20746865207a65726f2061646460008301527f72657373000000000000000000000000000000000000000000000000000000006020830152604082019050919050565b600061385c6019836147d1565b91507f4552433732313a20617070726f766520746f2063616c6c6572000000000000006000830152602082019050919050565b600061389c602c836147d1565b91507f4552433732313a206f70657261746f7220717565727920666f72206e6f6e657860008301527f697374656e7420746f6b656e00000000000000000000000000000000000000006020830152604082019050919050565b60006139026038836147d1565b91507f4552433732313a20617070726f76652063616c6c6572206973206e6f74206f7760008301527f6e6572206e6f7220617070726f76656420666f7220616c6c00000000000000006020830152604082019050919050565b6000613968602a836147d1565b91507f4552433732313a2062616c616e636520717565727920666f7220746865207a6560008301527f726f2061646472657373000000000000000000000000000000000000000000006020830152604082019050919050565b60006139ce6029836147d1565b91507f4552433732313a206f776e657220717565727920666f72206e6f6e657869737460008301527f656e7420746f6b656e00000000000000000000000000000000000000000000006020830152604082019050919050565b6000613a34602d836147d1565b91507f4572726f723a20636861726163746572206d757374206861766520485020746f60008301527f2061747461636b20626f73732e000000000000000000000000000000000000006020830152604082019050919050565b6000613a9a6004836147e2565b91507f7d205d7d000000000000000000000000000000000000000000000000000000006000830152600482019050919050565b6000613ada6020836147d1565b91507f4552433732313a206d696e7420746f20746865207a65726f20616464726573736000830152602082019050919050565b6000613b1a602c836147d1565b91507f4552433732313a20617070726f76656420717565727920666f72206e6f6e657860008301527f697374656e7420746f6b656e00000000000000000000000000000000000000006020830152604082019050919050565b6000613b806029836147d1565b91507f4552433732313a207472616e73666572206f6620746f6b656e2074686174206960008301527f73206e6f74206f776e00000000000000000000000000000000000000000000006020830152604082019050919050565b6000613be6600a836147e2565b91507f7b226e616d65223a2022000000000000000000000000000000000000000000006000830152600a82019050919050565b6000613c266021836147d1565b91507f4552433732313a20617070726f76616c20746f2063757272656e74206f776e6560008301527f72000000000000000000000000000000000000000000000000000000000000006020830152604082019050919050565b6000613c8c601d836147e2565b91507f646174613a6170706c69636174696f6e2f6a736f6e3b6261736536342c0000006000830152601d82019050919050565b6000613ccc6031836147d1565b91507f4552433732313a207472616e736665722063616c6c6572206973206e6f74206f60008301527f776e6572206e6f7220617070726f7665640000000000000000000000000000006020830152604082019050919050565b6000613d32603d836147e2565b91507f222c202261747472696275746573223a205b207b202274726169745f7479706560008301527f223a20224865616c746820506f696e7473222c202276616c7565223a200000006020830152603d82019050919050565b6000613d98602d836147e2565b91507f7d2c207b202274726169745f74797065223a202241747461636b2044616d616760008301527f65222c202276616c7565223a20000000000000000000000000000000000000006020830152602d82019050919050565b6000613dfe6063836147e2565b91507f222c20226465736372697074696f6e223a20225468697320697320616e204e4660008301527f54207468617420676976657320796f7520656e74727920746f2074686520447760208301527f6967687420436c75622067616d6521222c2022696d616765223a20226970667360408301527f3a2f2f00000000000000000000000000000000000000000000000000000000006060830152606382019050919050565b604082016000820151613eb9600085018261406f565b506020820151613ecc6020850182613481565b50505050565b600060a0830160008301518482036000860152613eef82826135ba565b91505060208301518482036020860152613f0982826135ba565b9150506040830151613f1e604086018261406f565b506060830151613f31606086018261406f565b506080830151613f44608086018261406f565b508091505092915050565b600060c083016000830151613f67600086018261406f565b5060208301518482036020860152613f7f82826135ba565b91505060408301518482036040860152613f9982826135ba565b9150506060830151613fae606086018261406f565b506080830151613fc1608086018261406f565b5060a0830151613fd460a086018261406f565b508091505092915050565b600060c083016000830151613ff7600086018261406f565b506020830151848203602086015261400f82826135ba565b9150506040830151848203604086015261402982826135ba565b915050606083015161403e606086018261406f565b506080830151614051608086018261406f565b5060a083015161406460a086018261406f565b508091505092915050565b6140788161496c565b82525050565b6140878161496c565b82525050565b600061409882613bd9565b91506140a4828961362c565b91506140af8261365d565b91506140bb828861362c565b91506140c682613df1565b91506140d2828761362c565b91506140dd82613d25565b91506140e9828661362c565b91506140f4826137a9565b9150614100828561362c565b915061410b82613d8b565b9150614117828461362c565b915061412282613a8d565b9150819050979650505050505050565b600061413d82613c7f565b9150614149828461362c565b915081905092915050565b60006020820190506141696000830184613490565b92915050565b60006080820190506141846000830187613490565b6141916020830186613490565b61419e604083018561407e565b81810360608301526141b08184613581565b905095945050505050565b60006060820190506141d06000830186613490565b6141dd602083018561407e565b6141ea604083018461407e565b949350505050565b6000602082019050818103600083015261420c818461349f565b905092915050565b6000602082019050818103600083015261422e81846134fd565b905092915050565b600060208201905061424b6000830184613572565b92915050565b6000602082019050818103600083015261426b81846135f3565b905092915050565b6000608082019050818103600083015261428d81876135f3565b905081810360208301526142a181866135f3565b90506142b0604083018561407e565b81810360608301526142c281846135f3565b905095945050505050565b600060808201905081810360008301526142e781876135f3565b905081810360208301526142fb81866135f3565b905061430a604083018561407e565b614317606083018461407e565b95945050505050565b600060a082019050818103600083015261433a81886135f3565b9050818103602083015261434e81876135f3565b905061435d604083018661407e565b61436a606083018561407e565b614377608083018461407e565b9695505050505050565b6000604082019050818103600083015261439b81856135f3565b90506143aa602083018461407e565b9392505050565b600060608201905081810360008301526143cb81866135f3565b90506143da602083018561407e565b6143e7604083018461407e565b949350505050565b600060208201905081810360008301526144088161369d565b9050919050565b6000602082019050818103600083015261442881613703565b9050919050565b6000602082019050818103600083015261444881613769565b9050919050565b60006020820190508181036000830152614468816137e9565b9050919050565b600060208201905081810360008301526144888161384f565b9050919050565b600060208201905081810360008301526144a88161388f565b9050919050565b600060208201905081810360008301526144c8816138f5565b9050919050565b600060208201905081810360008301526144e88161395b565b9050919050565b60006020820190508181036000830152614508816139c1565b9050919050565b6000602082019050818103600083015261452881613a27565b9050919050565b6000602082019050818103600083015261454881613acd565b9050919050565b6000602082019050818103600083015261456881613b0d565b9050919050565b6000602082019050818103600083015261458881613b73565b9050919050565b600060208201905081810360008301526145a881613c19565b9050919050565b600060208201905081810360008301526145c881613cbf565b9050919050565b600060208201905081810360008301526145e98184613ed2565b905092915050565b6000602082019050818103600083015261460b8184613fdf565b905092915050565b6000602082019050614628600083018461407e565b92915050565b600060c082019050614643600083018961407e565b818103602083015261465581886135f3565b9050818103604083015261466981876135f3565b9050614678606083018661407e565b614685608083018561407e565b61469260a083018461407e565b979650505050505050565b60006040820190506146b2600083018561407e565b6146bf602083018461407e565b9392505050565b6000604051905081810181811067ffffffffffffffff821117156146ed576146ec614af1565b5b8060405250919050565b600067ffffffffffffffff82111561471257614711614af1565b5b601f19601f8301169050602081019050919050565b6000819050602082019050919050565b6000819050602082019050919050565b600081519050919050565b600081519050919050565b600081519050919050565b600081519050919050565b6000602082019050919050565b6000602082019050919050565b600082825260208201905092915050565b600082825260208201905092915050565b600082825260208201905092915050565b600082825260208201905092915050565b600082825260208201905092915050565b600081905092915050565b60006147f88261496c565b91506148038361496c565b9250827fffffffffffffffffffffffffffffffffffffffffffffffffffffffffffffffff0382111561483857614837614a64565b5b828201905092915050565b600061484e8261496c565b91506148598361496c565b92508261486957614868614a93565b5b828204905092915050565b600061487f8261496c565b915061488a8361496c565b9250817fffffffffffffffffffffffffffffffffffffffffffffffffffffffffffffffff04831182151516156148c3576148c2614a64565b5b828202905092915050565b60006148d98261496c565b91506148e48361496c565b9250828210156148f7576148f6614a64565b5b828203905092915050565b600061490d8261494c565b9050919050565b60008115159050919050565b60007fffffffff0000000000000000000000000000000000000000000000000000000082169050919050565b600073ffffffffffffffffffffffffffffffffffffffff82169050919050565b6000819050919050565b82818337600083830152505050565b60005b838110156149a3578082015181840152602081019050614988565b838111156149b2576000848401525b50505050565b600060028204905060018216806149d057607f821691505b602082108114156149e4576149e3614ac2565b5b50919050565b60006149f58261496c565b91507fffffffffffffffffffffffffffffffffffffffffffffffffffffffffffffffff821415614a2857614a27614a64565b5b600182019050919050565b6000614a3e8261496c565b9150614a498361496c565b925082614a5957614a58614a93565b5b828206905092915050565b7f4e487b7100000000000000000000000000000000000000000000000000000000600052601160045260246000fd5b7f4e487b7100000000000000000000000000000000000000000000000000000000600052601260045260246000fd5b7f4e487b7100000000000000000000000000000000000000000000000000000000600052602260045260246000fd5b7f4e487b7100000000000000000000000000000000000000000000000000000000600052604160045260246000fd5b6000601f19601f8301169050919050565b614b3a81614902565b8114614b4557600080fd5b50565b614b5181614914565b8114614b5c57600080fd5b50565b614b6881614920565b8114614b7357600080fd5b50565b614b7f8161496c565b8114614b8a57600080fd5b5056fe507573686564206e657720706c6179657220746f2067616d65557365727320617272617920772f20746f6b656e4964202573506c617965722061747461636b656420626f73732e204e657720626f73732068703a2025730a4142434445464748494a4b4c4d4e4f505152535455565758595a6162636465666768696a6b6c6d6e6f707172737475767778797a303132333435363738392b2f426f73732061747461636b656420706c617965722e204e657720706c617965722068703a2025730a4d696e746564204e465420772f20746f6b656e496420257320616e6420636861726163746572496e6465782025730a506c6179657220772f206368617261637465722025732061626f757420746f2061747461636b2e2048617320257320485020616e64202573204144a2646970667358221220b3a6d768a332fbbc08dd5b5121fd2f601f927e0f24eacbcec1bf8aa9049725d064736f6c63430008000033446f6e6520696e697469616c697a696e6720257320772f2048502025732c20696d67202573446f6e6520696e697469616c697a696e6720626f737320257320772f2048502025732c20696d67202573",
  "linkReferences": {},
  "deployedLinkReferences": {}
}