{
  "_format": "hh-sol-artifact-1",
  "contractName": "MyEpicGame",
  "sourceName": "contracts/MyEpicGame.sol",
  "abi": [
    {
      "inputs": [
        {
          "internalType": "string[]",
          "name": "characterNames",
          "type": "string[]"
        },
        {
          "internalType": "string[]",
          "name": "characterImageURIs",
          "type": "string[]"
        },
        {
          "internalType": "uint256[]",
          "name": "characterHp",
          "type": "uint256[]"
        },
        {
          "internalType": "uint256[]",
          "name": "characterAttackDmg",
          "type": "uint256[]"
        },
        {
          "internalType": "uint256[]",
          "name": "characterDmgInflicted",
          "type": "uint256[]"
        },
        {
          "internalType": "string",
          "name": "bossName",
          "type": "string"
        },
        {
          "internalType": "string",
          "name": "bossImageURI",
          "type": "string"
        },
        {
          "internalType": "uint256",
          "name": "bossHp",
          "type": "uint256"
        },
        {
          "internalType": "uint256",
          "name": "bossAttackDamage",
          "type": "uint256"
        },
        {
          "internalType": "address",
          "name": "vrfCoordinatorAddress",
          "type": "address"
        },
        {
          "internalType": "address",
          "name": "linkTokenAddress",
          "type": "address"
        }
      ],
      "stateMutability": "nonpayable",
      "type": "constructor"
    },
    {
      "anonymous": false,
      "inputs": [
        {
          "indexed": true,
          "internalType": "address",
          "name": "owner",
          "type": "address"
        },
        {
          "indexed": true,
          "internalType": "address",
          "name": "approved",
          "type": "address"
        },
        {
          "indexed": true,
          "internalType": "uint256",
          "name": "tokenId",
          "type": "uint256"
        }
      ],
      "name": "Approval",
      "type": "event"
    },
    {
      "anonymous": false,
      "inputs": [
        {
          "indexed": true,
          "internalType": "address",
          "name": "owner",
          "type": "address"
        },
        {
          "indexed": true,
          "internalType": "address",
          "name": "operator",
          "type": "address"
        },
        {
          "indexed": false,
          "internalType": "bool",
          "name": "approved",
          "type": "bool"
        }
      ],
      "name": "ApprovalForAll",
      "type": "event"
    },
    {
      "anonymous": false,
      "inputs": [
        {
          "indexed": false,
          "internalType": "uint256",
          "name": "newBossHp",
          "type": "uint256"
        },
        {
          "indexed": false,
          "internalType": "uint256",
          "name": "newPlayerHp",
          "type": "uint256"
        },
        {
          "indexed": false,
          "internalType": "uint256",
          "name": "newPlayerDmgInflicted",
          "type": "uint256"
        },
        {
          "indexed": false,
          "internalType": "string",
          "name": "randomFactor",
          "type": "string"
        }
      ],
      "name": "AttackComplete",
      "type": "event"
    },
    {
      "anonymous": false,
      "inputs": [
        {
          "indexed": false,
          "internalType": "address",
          "name": "sender",
          "type": "address"
        },
        {
          "indexed": false,
          "internalType": "uint256",
          "name": "tokenId",
          "type": "uint256"
        },
        {
          "indexed": false,
          "internalType": "uint256",
          "name": "characterIndex",
          "type": "uint256"
        }
      ],
      "name": "CharacterNFTMinted",
      "type": "event"
    },
    {
      "anonymous": false,
      "inputs": [
        {
          "indexed": false,
          "internalType": "uint256",
          "name": "characterIndex",
          "type": "uint256"
        }
      ],
      "name": "NFTMinted",
      "type": "event"
    },
    {
      "anonymous": false,
      "inputs": [
        {
          "indexed": true,
          "internalType": "address",
          "name": "from",
          "type": "address"
        },
        {
          "indexed": true,
          "internalType": "address",
          "name": "to",
          "type": "address"
        },
        {
          "indexed": true,
          "internalType": "uint256",
          "name": "tokenId",
          "type": "uint256"
        }
      ],
      "name": "Transfer",
      "type": "event"
    },
    {
      "inputs": [],
      "name": "LinkToken",
      "outputs": [
        {
          "internalType": "address",
          "name": "",
          "type": "address"
        }
      ],
      "stateMutability": "view",
      "type": "function"
    },
    {
      "inputs": [],
      "name": "VRFCoordinator",
      "outputs": [
        {
          "internalType": "address",
          "name": "",
          "type": "address"
        }
      ],
      "stateMutability": "view",
      "type": "function"
    },
    {
      "inputs": [
        {
          "internalType": "address",
          "name": "to",
          "type": "address"
        },
        {
          "internalType": "uint256",
          "name": "tokenId",
          "type": "uint256"
        }
      ],
      "name": "approve",
      "outputs": [],
      "stateMutability": "nonpayable",
      "type": "function"
    },
    {
      "inputs": [],
      "name": "attackBoss",
      "outputs": [],
      "stateMutability": "nonpayable",
      "type": "function"
    },
    {
      "inputs": [
        {
          "internalType": "address",
          "name": "owner",
          "type": "address"
        }
      ],
      "name": "balanceOf",
      "outputs": [
        {
          "internalType": "uint256",
          "name": "",
          "type": "uint256"
        }
      ],
      "stateMutability": "view",
      "type": "function"
    },
    {
      "inputs": [],
      "name": "bigBoss",
      "outputs": [
        {
          "internalType": "string",
          "name": "name",
          "type": "string"
        },
        {
          "internalType": "string",
          "name": "imageURI",
          "type": "string"
        },
        {
          "internalType": "uint256",
          "name": "hp",
          "type": "uint256"
        },
        {
          "internalType": "uint256",
          "name": "maxHp",
          "type": "uint256"
        },
        {
          "internalType": "uint256",
          "name": "attackDamage",
          "type": "uint256"
        }
      ],
      "stateMutability": "view",
      "type": "function"
    },
    {
      "inputs": [],
      "name": "checkIfUserHasNFT",
      "outputs": [
        {
          "components": [
            {
              "internalType": "uint256",
              "name": "characterIndex",
              "type": "uint256"
            },
            {
              "internalType": "string",
              "name": "name",
              "type": "string"
            },
            {
              "internalType": "string",
              "name": "imageURI",
              "type": "string"
            },
            {
              "internalType": "uint256",
              "name": "hp",
              "type": "uint256"
            },
            {
              "internalType": "uint256",
              "name": "maxHp",
              "type": "uint256"
            },
            {
              "internalType": "uint256",
              "name": "attackDamage",
              "type": "uint256"
            },
            {
              "internalType": "uint256",
              "name": "damageInflicted",
              "type": "uint256"
            }
          ],
          "internalType": "struct MyEpicGame.CharacterAttributes",
          "name": "",
          "type": "tuple"
        }
      ],
      "stateMutability": "view",
      "type": "function"
    },
    {
      "inputs": [],
      "name": "getAllDefaultCharacters",
      "outputs": [
        {
          "components": [
            {
              "internalType": "uint256",
              "name": "characterIndex",
              "type": "uint256"
            },
            {
              "internalType": "string",
              "name": "name",
              "type": "string"
            },
            {
              "internalType": "string",
              "name": "imageURI",
              "type": "string"
            },
            {
              "internalType": "uint256",
              "name": "hp",
              "type": "uint256"
            },
            {
              "internalType": "uint256",
              "name": "maxHp",
              "type": "uint256"
            },
            {
              "internalType": "uint256",
              "name": "attackDamage",
              "type": "uint256"
            },
            {
              "internalType": "uint256",
              "name": "damageInflicted",
              "type": "uint256"
            }
          ],
          "internalType": "struct MyEpicGame.CharacterAttributes[]",
          "name": "",
          "type": "tuple[]"
        }
      ],
      "stateMutability": "view",
      "type": "function"
    },
    {
      "inputs": [],
      "name": "getAllPlayers",
      "outputs": [
        {
          "components": [
            {
              "internalType": "uint256",
              "name": "id",
              "type": "uint256"
            },
            {
              "internalType": "address",
              "name": "wallet",
              "type": "address"
            }
          ],
          "internalType": "struct MyEpicGame.AllPlayers[]",
          "name": "",
          "type": "tuple[]"
        }
      ],
      "stateMutability": "view",
      "type": "function"
    },
    {
      "inputs": [
        {
          "internalType": "uint256",
          "name": "tokenId",
          "type": "uint256"
        }
      ],
      "name": "getApproved",
      "outputs": [
        {
          "internalType": "address",
          "name": "",
          "type": "address"
        }
      ],
      "stateMutability": "view",
      "type": "function"
    },
    {
      "inputs": [],
      "name": "getBigBoss",
      "outputs": [
        {
          "components": [
            {
              "internalType": "string",
              "name": "name",
              "type": "string"
            },
            {
              "internalType": "string",
              "name": "imageURI",
              "type": "string"
            },
            {
              "internalType": "uint256",
              "name": "hp",
              "type": "uint256"
            },
            {
              "internalType": "uint256",
              "name": "maxHp",
              "type": "uint256"
            },
            {
              "internalType": "uint256",
              "name": "attackDamage",
              "type": "uint256"
            }
          ],
          "internalType": "struct MyEpicGame.BigBoss",
          "name": "",
          "type": "tuple"
        }
      ],
      "stateMutability": "view",
      "type": "function"
    },
    {
      "inputs": [],
      "name": "getRandomNumber",
      "outputs": [
        {
          "internalType": "bytes32",
          "name": "requestId",
          "type": "bytes32"
        }
      ],
      "stateMutability": "nonpayable",
      "type": "function"
    },
    {
      "inputs": [
        {
          "internalType": "uint256",
          "name": "_tokenId",
          "type": "uint256"
        }
      ],
      "name": "getUserNFTCharacterAttributes",
      "outputs": [
        {
          "components": [
            {
              "internalType": "uint256",
              "name": "characterIndex",
              "type": "uint256"
            },
            {
              "internalType": "string",
              "name": "name",
              "type": "string"
            },
            {
              "internalType": "string",
              "name": "imageURI",
              "type": "string"
            },
            {
              "internalType": "uint256",
              "name": "hp",
              "type": "uint256"
            },
            {
              "internalType": "uint256",
              "name": "maxHp",
              "type": "uint256"
            },
            {
              "internalType": "uint256",
              "name": "attackDamage",
              "type": "uint256"
            },
            {
              "internalType": "uint256",
              "name": "damageInflicted",
              "type": "uint256"
            }
          ],
          "internalType": "struct MyEpicGame.CharacterAttributes",
          "name": "",
          "type": "tuple"
        }
      ],
      "stateMutability": "view",
      "type": "function"
    },
    {
      "inputs": [
        {
          "internalType": "address",
          "name": "owner",
          "type": "address"
        },
        {
          "internalType": "address",
          "name": "operator",
          "type": "address"
        }
      ],
      "name": "isApprovedForAll",
      "outputs": [
        {
          "internalType": "bool",
          "name": "",
          "type": "bool"
        }
      ],
      "stateMutability": "view",
      "type": "function"
    },
    {
      "inputs": [
        {
          "internalType": "uint256",
          "name": "_characterIndex",
          "type": "uint256"
        }
      ],
      "name": "mintCharacterNFT",
      "outputs": [],
      "stateMutability": "nonpayable",
      "type": "function"
    },
    {
      "inputs": [],
      "name": "name",
      "outputs": [
        {
          "internalType": "string",
          "name": "",
          "type": "string"
        }
      ],
      "stateMutability": "view",
      "type": "function"
    },
    {
      "inputs": [
        {
          "internalType": "uint256",
          "name": "",
          "type": "uint256"
        }
      ],
      "name": "nftHolderAttributes",
      "outputs": [
        {
          "internalType": "uint256",
          "name": "characterIndex",
          "type": "uint256"
        },
        {
          "internalType": "string",
          "name": "name",
          "type": "string"
        },
        {
          "internalType": "string",
          "name": "imageURI",
          "type": "string"
        },
        {
          "internalType": "uint256",
          "name": "hp",
          "type": "uint256"
        },
        {
          "internalType": "uint256",
          "name": "maxHp",
          "type": "uint256"
        },
        {
          "internalType": "uint256",
          "name": "attackDamage",
          "type": "uint256"
        },
        {
          "internalType": "uint256",
          "name": "damageInflicted",
          "type": "uint256"
        }
      ],
      "stateMutability": "view",
      "type": "function"
    },
    {
      "inputs": [
        {
          "internalType": "address",
          "name": "",
          "type": "address"
        }
      ],
      "name": "nftHolders",
      "outputs": [
        {
          "internalType": "uint256",
          "name": "",
          "type": "uint256"
        }
      ],
      "stateMutability": "view",
      "type": "function"
    },
    {
      "inputs": [],
      "name": "owner",
      "outputs": [
        {
          "internalType": "address",
          "name": "",
          "type": "address"
        }
      ],
      "stateMutability": "view",
      "type": "function"
    },
    {
      "inputs": [
        {
          "internalType": "uint256",
          "name": "tokenId",
          "type": "uint256"
        }
      ],
      "name": "ownerOf",
      "outputs": [
        {
          "internalType": "address",
          "name": "",
          "type": "address"
        }
      ],
      "stateMutability": "view",
      "type": "function"
    },
    {
      "inputs": [],
      "name": "randomResult",
      "outputs": [
        {
          "internalType": "uint256",
          "name": "",
          "type": "uint256"
        }
      ],
      "stateMutability": "view",
      "type": "function"
    },
    {
      "inputs": [
        {
          "internalType": "bytes32",
          "name": "requestId",
          "type": "bytes32"
        },
        {
          "internalType": "uint256",
          "name": "randomness",
          "type": "uint256"
        }
      ],
      "name": "rawFulfillRandomness",
      "outputs": [],
      "stateMutability": "nonpayable",
      "type": "function"
    },
    {
      "inputs": [
        {
          "internalType": "address",
          "name": "from",
          "type": "address"
        },
        {
          "internalType": "address",
          "name": "to",
          "type": "address"
        },
        {
          "internalType": "uint256",
          "name": "tokenId",
          "type": "uint256"
        }
      ],
      "name": "safeTransferFrom",
      "outputs": [],
      "stateMutability": "nonpayable",
      "type": "function"
    },
    {
      "inputs": [
        {
          "internalType": "address",
          "name": "from",
          "type": "address"
        },
        {
          "internalType": "address",
          "name": "to",
          "type": "address"
        },
        {
          "internalType": "uint256",
          "name": "tokenId",
          "type": "uint256"
        },
        {
          "internalType": "bytes",
          "name": "_data",
          "type": "bytes"
        }
      ],
      "name": "safeTransferFrom",
      "outputs": [],
      "stateMutability": "nonpayable",
      "type": "function"
    },
    {
      "inputs": [
        {
          "internalType": "address",
          "name": "operator",
          "type": "address"
        },
        {
          "internalType": "bool",
          "name": "approved",
          "type": "bool"
        }
      ],
      "name": "setApprovalForAll",
      "outputs": [],
      "stateMutability": "nonpayable",
      "type": "function"
    },
    {
      "inputs": [
        {
          "internalType": "bytes4",
          "name": "interfaceId",
          "type": "bytes4"
        }
      ],
      "name": "supportsInterface",
      "outputs": [
        {
          "internalType": "bool",
          "name": "",
          "type": "bool"
        }
      ],
      "stateMutability": "view",
      "type": "function"
    },
    {
      "inputs": [],
      "name": "symbol",
      "outputs": [
        {
          "internalType": "string",
          "name": "",
          "type": "string"
        }
      ],
      "stateMutability": "view",
      "type": "function"
    },
    {
      "inputs": [
        {
          "internalType": "uint256",
          "name": "_tokenId",
          "type": "uint256"
        }
      ],
      "name": "tokenURI",
      "outputs": [
        {
          "internalType": "string",
          "name": "",
          "type": "string"
        }
      ],
      "stateMutability": "view",
      "type": "function"
    },
    {
      "inputs": [
        {
          "internalType": "address",
          "name": "from",
          "type": "address"
        },
        {
          "internalType": "address",
          "name": "to",
          "type": "address"
        },
        {
          "internalType": "uint256",
          "name": "tokenId",
          "type": "uint256"
        }
      ],
      "name": "transferFrom",
      "outputs": [],
      "stateMutability": "nonpayable",
      "type": "function"
    },
    {
      "inputs": [
        {
          "internalType": "address",
          "name": "to",
          "type": "address"
        },
        {
          "internalType": "uint256",
          "name": "value",
          "type": "uint256"
        }
      ],
      "name": "withdrawLINK",
      "outputs": [],
      "stateMutability": "nonpayable",
      "type": "function"
    }
  ],
  "bytecode": "0x60c06040523480156200001157600080fd5b506040516200695738038062006957833981810160405281019062000037919062000c45565b81816040518060400160405280600581526020017f44436c75620000000000000000000000000000000000000000000000000000008152506040518060400160405280600481526020017f54455354000000000000000000000000000000000000000000000000000000008152508160009080519060200190620000bd929190620009c1565b508060019080519060200190620000d6929190620009c1565b5050508173ffffffffffffffffffffffffffffffffffffffff1660a08173ffffffffffffffffffffffffffffffffffffffff1660601b815250508073ffffffffffffffffffffffffffffffffffffffff1660808173ffffffffffffffffffffffffffffffffffffffff1660601b81525050505033601660006101000a81548173ffffffffffffffffffffffffffffffffffffffff021916908373ffffffffffffffffffffffffffffffffffffffff1602179055507f2ed0feb3e7fd2022120aa84fab1945545a9f2ffc9076fd6156fa96eaff4c131160001b60118190555067016345785d8a000060128190555081601360006101000a81548173ffffffffffffffffffffffffffffffffffffffff021916908373ffffffffffffffffffffffffffffffffffffffff16021790555080601460006101000a81548173ffffffffffffffffffffffffffffffffffffffff021916908373ffffffffffffffffffffffffffffffffffffffff16021790555060016015819055506040518060a0016040528087815260200186815260200185815260200185815260200184815250600b600082015181600001908051906020019062000294929190620009c1565b506020820151816001019080519060200190620002b3929190620009c1565b50604082015181600201556060820151816003015560808201518160040155905050620004366040518060600160405280602a81526020016200692d602a9139600b6000018054620003059062001061565b80601f0160208091040260200160405190810160405280929190818152602001828054620003339062001061565b8015620003845780601f10620003585761010080835404028352916020019162000384565b820191906000526020600020905b8154815290600101906020018083116200036657829003601f168201915b5050505050600b60020154600b6001018054620003a19062001061565b80601f0160208091040260200160405190810160405280929190818152602001828054620003cf9062001061565b8015620004205780601f10620003f45761010080835404028352916020019162000420565b820191906000526020600020905b8154815290600101906020018083116200040257829003601f168201915b5050505050620008d660201b6200260c1760201c565b60005b8b51811015620008ad5760076040518060e001604052808381526020018e848151811062000490577f4e487b7100000000000000000000000000000000000000000000000000000000600052603260045260246000fd5b602002602001015181526020018d8481518110620004d7577f4e487b7100000000000000000000000000000000000000000000000000000000600052603260045260246000fd5b602002602001015181526020018c84815181106200051e577f4e487b7100000000000000000000000000000000000000000000000000000000600052603260045260246000fd5b602002602001015181526020018c848151811062000565577f4e487b7100000000000000000000000000000000000000000000000000000000600052603260045260246000fd5b602002602001015181526020018b8481518110620005ac577f4e487b7100000000000000000000000000000000000000000000000000000000600052603260045260246000fd5b602002602001015181526020018a8481518110620005f3577f4e487b7100000000000000000000000000000000000000000000000000000000600052603260045260246000fd5b602002602001015181525090806001815401808255809150506001900390600052602060002090600702016000909190919091506000820151816000015560208201518160010190805190602001906200064f929190620009c1565b5060408201518160020190805190602001906200066e929190620009c1565b50606082015181600301556080820151816004015560a0820151816005015560c082015181600601555050600060078281548110620006d6577f4e487b7100000000000000000000000000000000000000000000000000000000600052603260045260246000fd5b90600052602060002090600702016040518060e0016040529081600082015481526020016001820180546200070b9062001061565b80601f0160208091040260200160405190810160405280929190818152602001828054620007399062001061565b80156200078a5780601f106200075e576101008083540402835291602001916200078a565b820191906000526020600020905b8154815290600101906020018083116200076c57829003601f168201915b50505050508152602001600282018054620007a59062001061565b80601f0160208091040260200160405190810160405280929190818152602001828054620007d39062001061565b8015620008245780601f10620007f85761010080835404028352916020019162000824565b820191906000526020600020905b8154815290600101906020018083116200080657829003601f168201915b505050505081526020016003820154815260200160048201548152602001600582015481526020016006820154815250509050620008956040518060600160405280602581526020016200690860259139826020015183606001518460400151620008d660201b6200260c1760201c565b50600181620008a5919062000f90565b905062000439565b50620008c5600a6200098260201b620026ae1760201c565b505050505050505050505062001169565b6200097c84848484604051602401620008f3949392919062000e4d565b6040516020818303038152906040527f8d142cdd000000000000000000000000000000000000000000000000000000007bffffffffffffffffffffffffffffffffffffffffffffffffffffffff19166020820180517bffffffffffffffffffffffffffffffffffffffffffffffffffffffff83818316178352505050506200099860201b60201c565b50505050565b6001816000016000828254019250508190555050565b60008151905060006a636f6e736f6c652e6c6f679050602083016000808483855afa5050505050565b828054620009cf9062001061565b90600052602060002090601f016020900481019282620009f3576000855562000a3f565b82601f1062000a0e57805160ff191683800117855562000a3f565b8280016001018555821562000a3f579182015b8281111562000a3e57825182559160200191906001019062000a21565b5b50905062000a4e919062000a52565b5090565b5b8082111562000a6d57600081600090555060010162000a53565b5090565b600062000a8862000a828462000ee3565b62000eaf565b9050808382526020820190508260005b8581101562000acc578151850162000ab1888262000c01565b84526020840193506020830192505060018101905062000a98565b5050509392505050565b600062000aed62000ae78462000f12565b62000eaf565b9050808382526020820190508285602086028201111562000b0d57600080fd5b60005b8581101562000b41578162000b26888262000c2e565b84526020840193506020830192505060018101905062000b10565b5050509392505050565b600062000b6262000b5c8462000f41565b62000eaf565b90508281526020810184848401111562000b7b57600080fd5b62000b888482856200102b565b509392505050565b60008151905062000ba18162001135565b92915050565b600082601f83011262000bb957600080fd5b815162000bcb84826020860162000a71565b91505092915050565b600082601f83011262000be657600080fd5b815162000bf884826020860162000ad6565b91505092915050565b600082601f83011262000c1357600080fd5b815162000c2584826020860162000b4b565b91505092915050565b60008151905062000c3f816200114f565b92915050565b60008060008060008060008060008060006101608c8e03121562000c6857600080fd5b60008c015167ffffffffffffffff81111562000c8357600080fd5b62000c918e828f0162000ba7565b9b505060208c015167ffffffffffffffff81111562000caf57600080fd5b62000cbd8e828f0162000ba7565b9a505060408c015167ffffffffffffffff81111562000cdb57600080fd5b62000ce98e828f0162000bd4565b99505060608c015167ffffffffffffffff81111562000d0757600080fd5b62000d158e828f0162000bd4565b98505060808c015167ffffffffffffffff81111562000d3357600080fd5b62000d418e828f0162000bd4565b97505060a08c015167ffffffffffffffff81111562000d5f57600080fd5b62000d6d8e828f0162000c01565b96505060c08c015167ffffffffffffffff81111562000d8b57600080fd5b62000d998e828f0162000c01565b95505060e062000dac8e828f0162000c2e565b94505061010062000dc08e828f0162000c2e565b93505061012062000dd48e828f0162000b90565b92505061014062000de88e828f0162000b90565b9150509295989b509295989b9093969950565b600062000e088262000f74565b62000e14818562000f7f565b935062000e268185602086016200102b565b62000e318162001124565b840191505092915050565b62000e478162001021565b82525050565b6000608082019050818103600083015262000e69818762000dfb565b9050818103602083015262000e7f818662000dfb565b905062000e90604083018562000e3c565b818103606083015262000ea4818462000dfb565b905095945050505050565b6000604051905081810181811067ffffffffffffffff8211171562000ed95762000ed8620010f5565b5b8060405250919050565b600067ffffffffffffffff82111562000f015762000f00620010f5565b5b602082029050602081019050919050565b600067ffffffffffffffff82111562000f305762000f2f620010f5565b5b602082029050602081019050919050565b600067ffffffffffffffff82111562000f5f5762000f5e620010f5565b5b601f19601f8301169050602081019050919050565b600081519050919050565b600082825260208201905092915050565b600062000f9d8262001021565b915062000faa8362001021565b9250827fffffffffffffffffffffffffffffffffffffffffffffffffffffffffffffffff0382111562000fe25762000fe162001097565b5b828201905092915050565b600062000ffa8262001001565b9050919050565b600073ffffffffffffffffffffffffffffffffffffffff82169050919050565b6000819050919050565b60005b838110156200104b5780820151818401526020810190506200102e565b838111156200105b576000848401525b50505050565b600060028204905060018216806200107a57607f821691505b60208210811415620010915762001090620010c6565b5b50919050565b7f4e487b7100000000000000000000000000000000000000000000000000000000600052601160045260246000fd5b7f4e487b7100000000000000000000000000000000000000000000000000000000600052602260045260246000fd5b7f4e487b7100000000000000000000000000000000000000000000000000000000600052604160045260246000fd5b6000601f19601f8301169050919050565b620011408162000fed565b81146200114c57600080fd5b50565b6200115a8162001021565b81146200116657600080fd5b50565b60805160601c60a05160601c61575e620011aa60003960008181610cd40152612fb3015260008181610e9201528181611cc70152612f77015261575e6000f3fe608060405234801561001057600080fd5b50600436106101da5760003560e01c806395d89b4111610104578063c87b56dd116100a2578063e985e9c511610071578063e985e9c514610551578063efa1c48214610581578063f8b81ef71461059f578063fc02a139146105bb576101da565b8063c87b56dd146104db578063c8cf27f41461050b578063d4f24c5b14610529578063dbdff2c114610533576101da565b8063a22cb465116100de578063a22cb46514610463578063a9c326791461047f578063b88d4fde146104a1578063b953084e146104bd576101da565b806395d89b41146103f3578063983fbab21461041157806398da4c951461042d576101da565b806342619f661161017c57806370a082311161014b57806370a08231146103595780637df124a1146103895780638da5cb5b146103b957806394985ddd146103d7576101da565b806342619f66146102d157806342842e0e146102ef5780634f8e2fdf1461030b5780636352211e14610329576101da565b8063081812fc116101b8578063081812fc1461024b578063095ea7b31461027b57806323b872dd1461029757806333b60863146102b3576101da565b806301ffc9a7146101df5780630665f9611461020f57806306fdde031461022d575b600080fd5b6101f960048036038101906101f49190613ada565b6105eb565b6040516102069190614bf9565b60405180910390f35b6102176106cd565b6040516102249190615056565b60405180910390f35b610235610829565b6040516102429190614c9d565b60405180910390f35b61026560048036038101906102609190613b2c565b6108bb565b6040516102729190614ab0565b60405180910390f35b61029560048036038101906102909190613a39565b610940565b005b6102b160048036038101906102ac9190613933565b610a58565b005b6102bb610ab8565b6040516102c89190614ab0565b60405180910390f35b6102d9610ade565b6040516102e6919061509a565b60405180910390f35b61030960048036038101906103049190613933565b610ae4565b005b610313610b04565b6040516103209190614ab0565b60405180910390f35b610343600480360381019061033e9190613b2c565b610b2a565b6040516103509190614ab0565b60405180910390f35b610373600480360381019061036e91906138ce565b610bdc565b604051610380919061509a565b60405180910390f35b6103a3600480360381019061039e91906138ce565b610c94565b6040516103b0919061509a565b60405180910390f35b6103c1610cac565b6040516103ce9190614ab0565b60405180910390f35b6103f160048036038101906103ec9190613a9e565b610cd2565b005b6103fb610d6e565b6040516104089190614c9d565b60405180910390f35b61042b60048036038101906104269190613a39565b610e00565b005b61044760048036038101906104429190613b2c565b610f80565b60405161045a97969594939291906150b5565b60405180910390f35b61047d600480360381019061047891906139fd565b6110d2565b005b610487611253565b604051610498959493929190614d19565b60405180910390f35b6104bb60048036038101906104b69190613982565b611387565b005b6104c56113e9565b6040516104d29190614bd7565b60405180910390f35b6104f560048036038101906104f09190613b2c565b61159e565b6040516105029190614c9d565b60405180910390f35b6105136117d7565b6040516105209190615078565b60405180910390f35b6105316119b9565b005b61053b611cc0565b6040516105489190614c14565b60405180910390f35b61056b600480360381019061056691906138f7565b611dc2565b6040516105789190614bf9565b60405180910390f35b610589611e56565b6040516105969190614bb5565b60405180910390f35b6105b960048036038101906105b49190613b2c565b611f15565b005b6105d560048036038101906105d09190613b2c565b612467565b6040516105e29190615078565b60405180910390f35b60007f80ac58cd000000000000000000000000000000000000000000000000000000007bffffffffffffffffffffffffffffffffffffffffffffffffffffffff1916827bffffffffffffffffffffffffffffffffffffffffffffffffffffffff191614806106b657507f5b5e139f000000000000000000000000000000000000000000000000000000007bffffffffffffffffffffffffffffffffffffffffffffffffffffffff1916827bffffffffffffffffffffffffffffffffffffffffffffffffffffffff1916145b806106c657506106c5826126c4565b5b9050919050565b6106d56136af565b600b6040518060a00160405290816000820180546106f29061547a565b80601f016020809104026020016040519081016040528092919081815260200182805461071e9061547a565b801561076b5780601f106107405761010080835404028352916020019161076b565b820191906000526020600020905b81548152906001019060200180831161074e57829003601f168201915b505050505081526020016001820180546107849061547a565b80601f01602080910402602001604051908101604052809291908181526020018280546107b09061547a565b80156107fd5780601f106107d2576101008083540402835291602001916107fd565b820191906000526020600020905b8154815290600101906020018083116107e057829003601f168201915b505050505081526020016002820154815260200160038201548152602001600482015481525050905090565b6060600080546108389061547a565b80601f01602080910402602001604051908101604052809291908181526020018280546108649061547a565b80156108b15780601f10610886576101008083540402835291602001916108b1565b820191906000526020600020905b81548152906001019060200180831161089457829003601f168201915b5050505050905090565b60006108c68261272e565b610905576040517f08c379a00000000000000000000000000000000000000000000000000000000081526004016108fc90614f96565b60405180910390fd5b6004600083815260200190815260200160002060009054906101000a900473ffffffffffffffffffffffffffffffffffffffff169050919050565b600061094b82610b2a565b90508073ffffffffffffffffffffffffffffffffffffffff168373ffffffffffffffffffffffffffffffffffffffff1614156109bc576040517f08c379a00000000000000000000000000000000000000000000000000000000081526004016109b390614ff6565b60405180910390fd5b8073ffffffffffffffffffffffffffffffffffffffff166109db61279a565b73ffffffffffffffffffffffffffffffffffffffff161480610a0a5750610a0981610a0461279a565b611dc2565b5b610a49576040517f08c379a0000000000000000000000000000000000000000000000000000000008152600401610a4090614ef6565b60405180910390fd5b610a5383836127a2565b505050565b610a69610a6361279a565b8261285b565b610aa8576040517f08c379a0000000000000000000000000000000000000000000000000000000008152600401610a9f90615016565b60405180910390fd5b610ab3838383612939565b505050565b601360009054906101000a900473ffffffffffffffffffffffffffffffffffffffff1681565b60155481565b610aff83838360405180602001604052806000815250611387565b505050565b601460009054906101000a900473ffffffffffffffffffffffffffffffffffffffff1681565b6000806002600084815260200190815260200160002060009054906101000a900473ffffffffffffffffffffffffffffffffffffffff169050600073ffffffffffffffffffffffffffffffffffffffff168173ffffffffffffffffffffffffffffffffffffffff161415610bd3576040517f08c379a0000000000000000000000000000000000000000000000000000000008152600401610bca90614f36565b60405180910390fd5b80915050919050565b60008073ffffffffffffffffffffffffffffffffffffffff168273ffffffffffffffffffffffffffffffffffffffff161415610c4d576040517f08c379a0000000000000000000000000000000000000000000000000000000008152600401610c4490614f16565b60405180910390fd5b600360008373ffffffffffffffffffffffffffffffffffffffff1673ffffffffffffffffffffffffffffffffffffffff168152602001908152602001600020549050919050565b60096020528060005260406000206000915090505481565b601660009054906101000a900473ffffffffffffffffffffffffffffffffffffffff1681565b7f000000000000000000000000000000000000000000000000000000000000000073ffffffffffffffffffffffffffffffffffffffff163373ffffffffffffffffffffffffffffffffffffffff1614610d60576040517f08c379a0000000000000000000000000000000000000000000000000000000008152600401610d5790614fd6565b60405180910390fd5b610d6a8282612b95565b5050565b606060018054610d7d9061547a565b80601f0160208091040260200160405190810160405280929190818152602001828054610da99061547a565b8015610df65780601f10610dcb57610100808354040283529160200191610df6565b820191906000526020600020905b815481529060010190602001808311610dd957829003601f168201915b5050505050905090565b601660009054906101000a900473ffffffffffffffffffffffffffffffffffffffff1673ffffffffffffffffffffffffffffffffffffffff163373ffffffffffffffffffffffffffffffffffffffff1614610e90576040517f08c379a0000000000000000000000000000000000000000000000000000000008152600401610e8790615036565b60405180910390fd5b7f000000000000000000000000000000000000000000000000000000000000000073ffffffffffffffffffffffffffffffffffffffff1663a9059cbb83836040518363ffffffff1660e01b8152600401610eeb929190614b17565b602060405180830381600087803b158015610f0557600080fd5b505af1158015610f19573d6000803e3d6000fd5b505050506040513d601f19601f82011682018060405250810190610f3d9190613a75565b610f7c576040517f08c379a0000000000000000000000000000000000000000000000000000000008152600401610f7390614ed6565b60405180910390fd5b5050565b6008602052806000526040600020600091509050806000015490806001018054610fa99061547a565b80601f0160208091040260200160405190810160405280929190818152602001828054610fd59061547a565b80156110225780601f10610ff757610100808354040283529160200191611022565b820191906000526020600020905b81548152906001019060200180831161100557829003601f168201915b5050505050908060020180546110379061547a565b80601f01602080910402602001604051908101604052809291908181526020018280546110639061547a565b80156110b05780601f10611085576101008083540402835291602001916110b0565b820191906000526020600020905b81548152906001019060200180831161109357829003601f168201915b5050505050908060030154908060040154908060050154908060060154905087565b6110da61279a565b73ffffffffffffffffffffffffffffffffffffffff168273ffffffffffffffffffffffffffffffffffffffff161415611148576040517f08c379a000000000000000000000000000000000000000000000000000000000815260040161113f90614e76565b60405180910390fd5b806005600061115561279a565b73ffffffffffffffffffffffffffffffffffffffff1673ffffffffffffffffffffffffffffffffffffffff16815260200190815260200160002060008473ffffffffffffffffffffffffffffffffffffffff1673ffffffffffffffffffffffffffffffffffffffff16815260200190815260200160002060006101000a81548160ff0219169083151502179055508173ffffffffffffffffffffffffffffffffffffffff1661120261279a565b73ffffffffffffffffffffffffffffffffffffffff167f17307eab39ab6107e8899845ad3d59bd9653f200f220920489ca2b5937696c31836040516112479190614bf9565b60405180910390a35050565b600b8060000180546112649061547a565b80601f01602080910402602001604051908101604052809291908181526020018280546112909061547a565b80156112dd5780601f106112b2576101008083540402835291602001916112dd565b820191906000526020600020905b8154815290600101906020018083116112c057829003601f168201915b5050505050908060010180546112f29061547a565b80601f016020809104026020016040519081016040528092919081815260200182805461131e9061547a565b801561136b5780601f106113405761010080835404028352916020019161136b565b820191906000526020600020905b81548152906001019060200180831161134e57829003601f168201915b5050505050908060020154908060030154908060040154905085565b61139861139261279a565b8361285b565b6113d7576040517f08c379a00000000000000000000000000000000000000000000000000000000081526004016113ce90615016565b60405180910390fd5b6113e384848484612bac565b50505050565b60606007805480602002602001604051908101604052809291908181526020016000905b8282101561159557838290600052602060002090600702016040518060e00160405290816000820154815260200160018201805461144a9061547a565b80601f01602080910402602001604051908101604052809291908181526020018280546114769061547a565b80156114c35780601f10611498576101008083540402835291602001916114c3565b820191906000526020600020905b8154815290600101906020018083116114a657829003601f168201915b505050505081526020016002820180546114dc9061547a565b80601f01602080910402602001604051908101604052809291908181526020018280546115089061547a565b80156115555780601f1061152a57610100808354040283529160200191611555565b820191906000526020600020905b81548152906001019060200180831161153857829003601f168201915b505050505081526020016003820154815260200160048201548152602001600582015481526020016006820154815250508152602001906001019061140d565b50505050905090565b60606000600860008481526020019081526020016000206040518060e0016040529081600082015481526020016001820180546115da9061547a565b80601f01602080910402602001604051908101604052809291908181526020018280546116069061547a565b80156116535780601f1061162857610100808354040283529160200191611653565b820191906000526020600020905b81548152906001019060200180831161163657829003601f168201915b5050505050815260200160028201805461166c9061547a565b80601f01602080910402602001604051908101604052809291908181526020018280546116989061547a565b80156116e55780601f106116ba576101008083540402835291602001916116e5565b820191906000526020600020905b8154815290600101906020018083116116c857829003601f168201915b50505050508152602001600382015481526020016004820154815260200160058201548152602001600682015481525050905060006117278260600151612c08565b905060006117388360800151612c08565b905060006117498460a00151612c08565b9050600061175a8560c00151612c08565b905060006117a2866020015161176f8a612c08565b88604001518888888860405160200161178e97969594939291906149d1565b604051602081830303815290604052612db5565b90506000816040516020016117b79190614a8e565b604051602081830303815290604052905080975050505050505050919050565b6117df6136de565b6000600960003373ffffffffffffffffffffffffffffffffffffffff1673ffffffffffffffffffffffffffffffffffffffff16815260200190815260200160002054905060008111156119a857600860008281526020019081526020016000206040518060e0016040529081600082015481526020016001820180546118649061547a565b80601f01602080910402602001604051908101604052809291908181526020018280546118909061547a565b80156118dd5780601f106118b2576101008083540402835291602001916118dd565b820191906000526020600020905b8154815290600101906020018083116118c057829003601f168201915b505050505081526020016002820180546118f69061547a565b80601f01602080910402602001604051908101604052809291908181526020018280546119229061547a565b801561196f5780601f106119445761010080835404028352916020019161196f565b820191906000526020600020905b81548152906001019060200180831161195257829003601f168201915b505050505081526020016003820154815260200160048201548152602001600582015481526020016006820154815250509150506119b6565b6119b06136de565b80925050505b90565b6000600960003373ffffffffffffffffffffffffffffffffffffffff1673ffffffffffffffffffffffffffffffffffffffff16815260200190815260200160002054905060006008600083815260200190815260200160002090506000816003015411611a5b576040517f08c379a0000000000000000000000000000000000000000000000000000000008152600401611a5290614f56565b60405180910390fd5b6000600b6002015411611aa3576040517f08c379a0000000000000000000000000000000000000000000000000000000008152600401611a9a90614e16565b60405180910390fd5b60006040518060400160405280600681526020017f6e6f726d616c000000000000000000000000000000000000000000000000000081525090508160050154600b600201541015611afe576000600b60020181905550611bd4565b60326015541115611b98576040518060400160405280600681526020017f646f75626c650000000000000000000000000000000000000000000000000000815250905060028260050154611b52919061532c565b600b60020154611b629190615386565b600b6002018190555060028260050154611b7c919061532c565b8260060154611b8b91906152a5565b8260060181905550611bd3565b8160050154600b60020154611bad9190615386565b600b6002018190555081600501548260060154611bca91906152a5565b82600601819055505b5b600b6004015482600301541015611bf45760008260030181905550611c68565b60326015541015611c49576040518060400160405280600681526020017f6d69737365640000000000000000000000000000000000000000000000000000815250905081600301548260030181905550611c67565b600b600401548260030154611c5e9190615386565b82600301819055505b5b7f01fd49b57979812744edb9da550f67cc1a407c2fda69a656e1b8cf639ef4cb21600b600201548360030154846006015484604051611caa9493929190615132565b60405180910390a1611cba611cc0565b50505050565b60006012547f000000000000000000000000000000000000000000000000000000000000000073ffffffffffffffffffffffffffffffffffffffff166370a08231306040518263ffffffff1660e01b8152600401611d1e9190614ab0565b60206040518083038186803b158015611d3657600080fd5b505afa158015611d4a573d6000803e3d6000fd5b505050506040513d601f19601f82011682018060405250810190611d6e9190613b55565b1015611daf576040517f08c379a0000000000000000000000000000000000000000000000000000000008152600401611da690614e96565b60405180910390fd5b611dbd601154601254612f73565b905090565b6000600560008473ffffffffffffffffffffffffffffffffffffffff1673ffffffffffffffffffffffffffffffffffffffff16815260200190815260200160002060008373ffffffffffffffffffffffffffffffffffffffff1673ffffffffffffffffffffffffffffffffffffffff16815260200190815260200160002060009054906101000a900460ff16905092915050565b60606010805480602002602001604051908101604052809291908181526020016000905b82821015611f0c5783829060005260206000209060020201604051806040016040529081600082015481526020016001820160009054906101000a900473ffffffffffffffffffffffffffffffffffffffff1673ffffffffffffffffffffffffffffffffffffffff1673ffffffffffffffffffffffffffffffffffffffff168152505081526020019060010190611e7a565b50505050905090565b6000611f21600a6130d5565b9050611f2d33826130e3565b6040518060e0016040528083815260200160078481548110611f78577f4e487b7100000000000000000000000000000000000000000000000000000000600052603260045260246000fd5b90600052602060002090600702016001018054611f949061547a565b80601f0160208091040260200160405190810160405280929190818152602001828054611fc09061547a565b801561200d5780601f10611fe25761010080835404028352916020019161200d565b820191906000526020600020905b815481529060010190602001808311611ff057829003601f168201915b5050505050815260200160078481548110612051577f4e487b7100000000000000000000000000000000000000000000000000000000600052603260045260246000fd5b9060005260206000209060070201600201805461206d9061547a565b80601f01602080910402602001604051908101604052809291908181526020018280546120999061547a565b80156120e65780601f106120bb576101008083540402835291602001916120e6565b820191906000526020600020905b8154815290600101906020018083116120c957829003601f168201915b505050505081526020016007848154811061212a577f4e487b7100000000000000000000000000000000000000000000000000000000600052603260045260246000fd5b90600052602060002090600702016003015481526020016007848154811061217b577f4e487b7100000000000000000000000000000000000000000000000000000000600052603260045260246000fd5b9060005260206000209060070201600301548152602001600784815481106121cc577f4e487b7100000000000000000000000000000000000000000000000000000000600052603260045260246000fd5b90600052602060002090600702016005015481526020016007848154811061221d577f4e487b7100000000000000000000000000000000000000000000000000000000600052603260045260246000fd5b9060005260206000209060070201600601548152506008600083815260200190815260200160002060008201518160000155602082015181600101908051906020019061226b92919061371b565b50604082015181600201908051906020019061228892919061371b565b50606082015181600301556080820151816004015560a0820151816005015560c082015181600601559050506122d76040518060600160405280602e81526020016156fb602e91398284613101565b601060405180604001604052808381526020013373ffffffffffffffffffffffffffffffffffffffff1681525090806001815401808255809150506001900390600052602060002090600202016000909190919091506000820151816000015560208201518160010160006101000a81548173ffffffffffffffffffffffffffffffffffffffff021916908373ffffffffffffffffffffffffffffffffffffffff16021790555050506123a360405180606001604052806040815260200161567b6040913982336131a0565b80600960003373ffffffffffffffffffffffffffffffffffffffff1673ffffffffffffffffffffffffffffffffffffffff168152602001908152602001600020819055506123f1600a6126ae565b7f4bc303fd457a97b4691b9af582ce71868a3d258638c8d4f8c60988a0f0bfb8cd33828460405161242493929190614b7e565b60405180910390a17fd9dc24857f317ed9abbbb42e920ede0104231eb1d3d70236a74887ffaf1598688260405161245b919061509a565b60405180910390a15050565b61246f6136de565b600082905060008111156125f957600860008281526020019081526020016000206040518060e0016040529081600082015481526020016001820180546124b59061547a565b80601f01602080910402602001604051908101604052809291908181526020018280546124e19061547a565b801561252e5780601f106125035761010080835404028352916020019161252e565b820191906000526020600020905b81548152906001019060200180831161251157829003601f168201915b505050505081526020016002820180546125479061547a565b80601f01602080910402602001604051908101604052809291908181526020018280546125739061547a565b80156125c05780601f10612595576101008083540402835291602001916125c0565b820191906000526020600020905b8154815290600101906020018083116125a357829003601f168201915b50505050508152602001600382015481526020016004820154815260200160058201548152602001600682015481525050915050612607565b6126016136de565b80925050505b919050565b6126a8848484846040516024016126269493929190614cbf565b6040516020818303038152906040527f8d142cdd000000000000000000000000000000000000000000000000000000007bffffffffffffffffffffffffffffffffffffffffffffffffffffffff19166020820180517bffffffffffffffffffffffffffffffffffffffffffffffffffffffff838183161783525050505061323f565b50505050565b6001816000016000828254019250508190555050565b60007f01ffc9a7000000000000000000000000000000000000000000000000000000007bffffffffffffffffffffffffffffffffffffffffffffffffffffffff1916827bffffffffffffffffffffffffffffffffffffffffffffffffffffffff1916149050919050565b60008073ffffffffffffffffffffffffffffffffffffffff166002600084815260200190815260200160002060009054906101000a900473ffffffffffffffffffffffffffffffffffffffff1673ffffffffffffffffffffffffffffffffffffffff1614159050919050565b600033905090565b816004600083815260200190815260200160002060006101000a81548173ffffffffffffffffffffffffffffffffffffffff021916908373ffffffffffffffffffffffffffffffffffffffff160217905550808273ffffffffffffffffffffffffffffffffffffffff1661281583610b2a565b73ffffffffffffffffffffffffffffffffffffffff167f8c5be1e5ebec7d5bd14f71427d1e84f3dd0314c0f7b2291e5b200ac8c7c3b92560405160405180910390a45050565b60006128668261272e565b6128a5576040517f08c379a000000000000000000000000000000000000000000000000000000000815260040161289c90614eb6565b60405180910390fd5b60006128b083610b2a565b90508073ffffffffffffffffffffffffffffffffffffffff168473ffffffffffffffffffffffffffffffffffffffff16148061291f57508373ffffffffffffffffffffffffffffffffffffffff16612907846108bb565b73ffffffffffffffffffffffffffffffffffffffff16145b80612930575061292f8185611dc2565b5b91505092915050565b8273ffffffffffffffffffffffffffffffffffffffff1661295982610b2a565b73ffffffffffffffffffffffffffffffffffffffff16146129af576040517f08c379a00000000000000000000000000000000000000000000000000000000081526004016129a690614fb6565b60405180910390fd5b600073ffffffffffffffffffffffffffffffffffffffff168273ffffffffffffffffffffffffffffffffffffffff161415612a1f576040517f08c379a0000000000000000000000000000000000000000000000000000000008152600401612a1690614e56565b60405180910390fd5b612a2a838383613268565b612a356000826127a2565b6001600360008573ffffffffffffffffffffffffffffffffffffffff1673ffffffffffffffffffffffffffffffffffffffff1681526020019081526020016000206000828254612a859190615386565b925050819055506001600360008473ffffffffffffffffffffffffffffffffffffffff1673ffffffffffffffffffffffffffffffffffffffff1681526020019081526020016000206000828254612adc91906152a5565b92505081905550816002600083815260200190815260200160002060006101000a81548173ffffffffffffffffffffffffffffffffffffffff021916908373ffffffffffffffffffffffffffffffffffffffff160217905550808273ffffffffffffffffffffffffffffffffffffffff168473ffffffffffffffffffffffffffffffffffffffff167fddf252ad1be2c89b69c2b068fc378daa952ba7f163c4a11628f55a4df523b3ef60405160405180910390a4505050565b606481612ba29190615509565b6015819055505050565b612bb7848484612939565b612bc38484848461326d565b612c02576040517f08c379a0000000000000000000000000000000000000000000000000000000008152600401612bf990614df6565b60405180910390fd5b50505050565b60606000821415612c50576040518060400160405280600181526020017f30000000000000000000000000000000000000000000000000000000000000008152509050612db0565b600082905060005b60008214612c82578080612c6b906154ac565b915050600a82612c7b91906152fb565b9150612c58565b60008167ffffffffffffffff811115612cc4577f4e487b7100000000000000000000000000000000000000000000000000000000600052604160045260246000fd5b6040519080825280601f01601f191660200182016040528015612cf65781602001600182028036833780820191505090505b5090505b60008514612da957600182612d0f9190615386565b9150600a85612d1e9190615509565b6030612d2a91906152a5565b60f81b818381518110612d66577f4e487b7100000000000000000000000000000000000000000000000000000000600052603260045260246000fd5b60200101907effffffffffffffffffffffffffffffffffffffffffffffffffffffffffffff1916908160001a905350600a85612da291906152fb565b9450612cfa565b8093505050505b919050565b60606000825190506000811415612dde5760405180602001604052806000815250915050612f6e565b60006003600283612def91906152a5565b612df991906152fb565b6004612e05919061532c565b90506000602082612e1691906152a5565b67ffffffffffffffff811115612e55577f4e487b7100000000000000000000000000000000000000000000000000000000600052604160045260246000fd5b6040519080825280601f01601f191660200182016040528015612e875781602001600182028036833780820191505090505b50905060006040518060600160405280604081526020016156bb604091399050600181016020830160005b86811015612f2b5760038101905062ffffff818a015116603f8160121c168401518060081b905060ff603f83600c1c1686015116810190508060081b905060ff603f8360061c1686015116810190508060081b905060ff603f831686015116810190508060e01b90508084526004840193505050612eb2565b506003860660018114612f455760028114612f5557612f60565b613d3d60f01b6002830352612f60565b603d60f81b60018303525b508484525050819450505050505b919050565b60007f000000000000000000000000000000000000000000000000000000000000000073ffffffffffffffffffffffffffffffffffffffff16634000aea07f000000000000000000000000000000000000000000000000000000000000000084866000604051602001612fe7929190614c2f565b6040516020818303038152906040526040518463ffffffff1660e01b815260040161301493929190614b40565b602060405180830381600087803b15801561302e57600080fd5b505af1158015613042573d6000803e3d6000fd5b505050506040513d601f19601f820116820180604052508101906130669190613a75565b506000613089846000306006600089815260200190815260200160002054613404565b9050600160066000868152602001908152602001600020546130ab91906152a5565b60066000868152602001908152602001600020819055506130cc8482613440565b91505092915050565b600081600001549050919050565b6130fd828260405180602001604052806000815250613473565b5050565b61319b83838360405160240161311993929190614db8565b6040516020818303038152906040527f969cdd03000000000000000000000000000000000000000000000000000000007bffffffffffffffffffffffffffffffffffffffffffffffffffffffff19166020820180517bffffffffffffffffffffffffffffffffffffffffffffffffffffffff838183161783525050505061323f565b505050565b61323a8383836040516024016131b893929190614d7a565b6040516020818303038152906040527fe3849f79000000000000000000000000000000000000000000000000000000007bffffffffffffffffffffffffffffffffffffffffffffffffffffffff19166020820180517bffffffffffffffffffffffffffffffffffffffffffffffffffffffff838183161783525050505061323f565b505050565b60008151905060006a636f6e736f6c652e6c6f679050602083016000808483855afa5050505050565b505050565b600061328e8473ffffffffffffffffffffffffffffffffffffffff166134ce565b156133f7578373ffffffffffffffffffffffffffffffffffffffff1663150b7a026132b761279a565b8786866040518563ffffffff1660e01b81526004016132d99493929190614acb565b602060405180830381600087803b1580156132f357600080fd5b505af192505050801561332457506040513d601f19601f820116820180604052508101906133219190613b03565b60015b6133a7573d8060008114613354576040519150601f19603f3d011682016040523d82523d6000602084013e613359565b606091505b5060008151141561339f576040517f08c379a000000000000000000000000000000000000000000000000000000000815260040161339690614df6565b60405180910390fd5b805181602001fd5b63150b7a0260e01b7bffffffffffffffffffffffffffffffffffffffffffffffffffffffff1916817bffffffffffffffffffffffffffffffffffffffffffffffffffffffff1916149150506133fc565b600190505b949350505050565b60008484848460405160200161341d9493929190614c58565b6040516020818303038152906040528051906020012060001c9050949350505050565b600082826040516020016134559291906149a5565b60405160208183030381529060405280519060200120905092915050565b61347d83836134e1565b61348a600084848461326d565b6134c9576040517f08c379a00000000000000000000000000000000000000000000000000000000081526004016134c090614df6565b60405180910390fd5b505050565b600080823b905060008111915050919050565b600073ffffffffffffffffffffffffffffffffffffffff168273ffffffffffffffffffffffffffffffffffffffff161415613551576040517f08c379a000000000000000000000000000000000000000000000000000000000815260040161354890614f76565b60405180910390fd5b61355a8161272e565b1561359a576040517f08c379a000000000000000000000000000000000000000000000000000000000815260040161359190614e36565b60405180910390fd5b6135a660008383613268565b6001600360008473ffffffffffffffffffffffffffffffffffffffff1673ffffffffffffffffffffffffffffffffffffffff16815260200190815260200160002060008282546135f691906152a5565b92505081905550816002600083815260200190815260200160002060006101000a81548173ffffffffffffffffffffffffffffffffffffffff021916908373ffffffffffffffffffffffffffffffffffffffff160217905550808273ffffffffffffffffffffffffffffffffffffffff16600073ffffffffffffffffffffffffffffffffffffffff167fddf252ad1be2c89b69c2b068fc378daa952ba7f163c4a11628f55a4df523b3ef60405160405180910390a45050565b6040518060a0016040528060608152602001606081526020016000815260200160008152602001600081525090565b6040518060e00160405280600081526020016060815260200160608152602001600081526020016000815260200160008152602001600081525090565b8280546137279061547a565b90600052602060002090601f0160209004810192826137495760008555613790565b82601f1061376257805160ff1916838001178555613790565b82800160010185558215613790579182015b8281111561378f578251825591602001919060010190613774565b5b50905061379d91906137a1565b5090565b5b808211156137ba5760008160009055506001016137a2565b5090565b60006137d16137cc846151af565b61517e565b9050828152602081018484840111156137e957600080fd5b6137f4848285615438565b509392505050565b60008135905061380b81615607565b92915050565b6000813590506138208161561e565b92915050565b6000815190506138358161561e565b92915050565b60008135905061384a81615635565b92915050565b60008135905061385f8161564c565b92915050565b6000815190506138748161564c565b92915050565b600082601f83011261388b57600080fd5b813561389b8482602086016137be565b91505092915050565b6000813590506138b381615663565b92915050565b6000815190506138c881615663565b92915050565b6000602082840312156138e057600080fd5b60006138ee848285016137fc565b91505092915050565b6000806040838503121561390a57600080fd5b6000613918858286016137fc565b9250506020613929858286016137fc565b9150509250929050565b60008060006060848603121561394857600080fd5b6000613956868287016137fc565b9350506020613967868287016137fc565b9250506040613978868287016138a4565b9150509250925092565b6000806000806080858703121561399857600080fd5b60006139a6878288016137fc565b94505060206139b7878288016137fc565b93505060406139c8878288016138a4565b925050606085013567ffffffffffffffff8111156139e557600080fd5b6139f18782880161387a565b91505092959194509250565b60008060408385031215613a1057600080fd5b6000613a1e858286016137fc565b9250506020613a2f85828601613811565b9150509250929050565b60008060408385031215613a4c57600080fd5b6000613a5a858286016137fc565b9250506020613a6b858286016138a4565b9150509250929050565b600060208284031215613a8757600080fd5b6000613a9584828501613826565b91505092915050565b60008060408385031215613ab157600080fd5b6000613abf8582860161383b565b9250506020613ad0858286016138a4565b9150509250929050565b600060208284031215613aec57600080fd5b6000613afa84828501613850565b91505092915050565b600060208284031215613b1557600080fd5b6000613b2384828501613865565b91505092915050565b600060208284031215613b3e57600080fd5b6000613b4c848285016138a4565b91505092915050565b600060208284031215613b6757600080fd5b6000613b75848285016138b9565b91505092915050565b6000613b8a838361477e565b60408301905092915050565b6000613ba2838361482a565b905092915050565b613bb3816153ba565b82525050565b613bc2816153ba565b82525050565b6000613bd3826151ff565b613bdd8185615245565b9350613be8836151df565b8060005b83811015613c19578151613c008882613b7e565b9750613c0b8361522b565b925050600181019050613bec565b5085935050505092915050565b6000613c318261520a565b613c3b8185615256565b935083602082028501613c4d856151ef565b8060005b85811015613c895784840389528151613c6a8582613b96565b9450613c7583615238565b925060208a01995050600181019050613c51565b50829750879550505050505092915050565b613ca4816153cc565b82525050565b613cb3816153d8565b82525050565b613cca613cc5826153d8565b6154f5565b82525050565b6000613cdb82615215565b613ce58185615267565b9350613cf5818560208601615447565b613cfe816155f6565b840191505092915050565b6000613d1482615220565b613d1e8185615278565b9350613d2e818560208601615447565b613d37816155f6565b840191505092915050565b6000613d4d82615220565b613d578185615289565b9350613d67818560208601615447565b613d70816155f6565b840191505092915050565b6000613d8682615220565b613d90818561529a565b9350613da0818560208601615447565b80840191505092915050565b6000613db9600b8361529a565b91507f202d2d204e465420233a200000000000000000000000000000000000000000006000830152600b82019050919050565b6000613df9603283615289565b91507f4552433732313a207472616e7366657220746f206e6f6e20455243373231526560008301527f63656976657220696d706c656d656e74657200000000000000000000000000006020830152604082019050919050565b6000613e5f602883615289565b91507f4572726f723a20626f7373206d757374206861766520485020746f206174746160008301527f636b20626f73732e0000000000000000000000000000000000000000000000006020830152604082019050919050565b6000613ec5601c83615289565b91507f4552433732313a20746f6b656e20616c7265616479206d696e746564000000006000830152602082019050919050565b6000613f05600e8361529a565b91507f2c20226d61785f76616c7565223a0000000000000000000000000000000000006000830152600e82019050919050565b6000613f45602483615289565b91507f4552433732313a207472616e7366657220746f20746865207a65726f2061646460008301527f72657373000000000000000000000000000000000000000000000000000000006020830152604082019050919050565b6000613fab601983615289565b91507f4552433732313a20617070726f766520746f2063616c6c6572000000000000006000830152602082019050919050565b6000613feb602b83615289565b91507f4e6f7420656e6f756768204c494e4b202d2066696c6c20636f6e74726163742060008301527f77697468206661756365740000000000000000000000000000000000000000006020830152604082019050919050565b6000614051602c83615289565b91507f4552433732313a206f70657261746f7220717565727920666f72206e6f6e657860008301527f697374656e7420746f6b656e00000000000000000000000000000000000000006020830152604082019050919050565b60006140b7600f83615289565b91507f4e6f7420656e6f756768204c494e4b00000000000000000000000000000000006000830152602082019050919050565b60006140f7603883615289565b91507f4552433732313a20617070726f76652063616c6c6572206973206e6f74206f7760008301527f6e6572206e6f7220617070726f76656420666f7220616c6c00000000000000006020830152604082019050919050565b600061415d602a83615289565b91507f4552433732313a2062616c616e636520717565727920666f7220746865207a6560008301527f726f2061646472657373000000000000000000000000000000000000000000006020830152604082019050919050565b60006141c3602983615289565b91507f4552433732313a206f776e657220717565727920666f72206e6f6e657869737460008301527f656e7420746f6b656e00000000000000000000000000000000000000000000006020830152604082019050919050565b6000614229602d83615289565b91507f4572726f723a20636861726163746572206d757374206861766520485020746f60008301527f2061747461636b20626f73732e000000000000000000000000000000000000006020830152604082019050919050565b600061428f60048361529a565b91507f7d205d7d000000000000000000000000000000000000000000000000000000006000830152600482019050919050565b60006142cf602083615289565b91507f4552433732313a206d696e7420746f20746865207a65726f20616464726573736000830152602082019050919050565b600061430f60308361529a565b91507f7d2c207b202274726169745f74797065223a202244616d61676520496e666c6960008301527f63746564222c202276616c7565223a20000000000000000000000000000000006020830152603082019050919050565b6000614375602c83615289565b91507f4552433732313a20617070726f76656420717565727920666f72206e6f6e657860008301527f697374656e7420746f6b656e00000000000000000000000000000000000000006020830152604082019050919050565b60006143db602983615289565b91507f4552433732313a207472616e73666572206f6620746f6b656e2074686174206960008301527f73206e6f74206f776e00000000000000000000000000000000000000000000006020830152604082019050919050565b6000614441600a8361529a565b91507f7b226e616d65223a2022000000000000000000000000000000000000000000006000830152600a82019050919050565b6000614481601f83615289565b91507f4f6e6c7920565246436f6f7264696e61746f722063616e2066756c66696c6c006000830152602082019050919050565b60006144c1602183615289565b91507f4552433732313a20617070726f76616c20746f2063757272656e74206f776e6560008301527f72000000000000000000000000000000000000000000000000000000000000006020830152604082019050919050565b6000614527601d8361529a565b91507f646174613a6170706c69636174696f6e2f6a736f6e3b6261736536342c0000006000830152601d82019050919050565b6000614567603183615289565b91507f4552433732313a207472616e736665722063616c6c6572206973206e6f74206f60008301527f776e6572206e6f7220617070726f7665640000000000000000000000000000006020830152604082019050919050565b60006145cd601683615289565b91507f596f7520617265206e6f7420746865206f776e65722e000000000000000000006000830152602082019050919050565b600061460d603d8361529a565b91507f222c202261747472696275746573223a205b207b202274726169745f7479706560008301527f223a20224865616c746820506f696e7473222c202276616c7565223a200000006020830152603d82019050919050565b6000614673602d8361529a565b91507f7d2c207b202274726169745f74797065223a202241747461636b2044616d616760008301527f65222c202276616c7565223a20000000000000000000000000000000000000006020830152602d82019050919050565b60006146d960638361529a565b91507f222c20226465736372697074696f6e223a20225468697320697320616e204e4660008301527f54207468617420676976657320796f7520656e74727920746f2074686520447760208301527f6967687420436c75622067616d6521222c2022696d616765223a20226970667360408301527f3a2f2f00000000000000000000000000000000000000000000000000000000006060830152606382019050919050565b6040820160008201516147946000850182614970565b5060208201516147a76020850182613baa565b50505050565b600060a08301600083015184820360008601526147ca8282613d09565b915050602083015184820360208601526147e48282613d09565b91505060408301516147f96040860182614970565b50606083015161480c6060860182614970565b50608083015161481f6080860182614970565b508091505092915050565b600060e0830160008301516148426000860182614970565b506020830151848203602086015261485a8282613d09565b915050604083015184820360408601526148748282613d09565b91505060608301516148896060860182614970565b50608083015161489c6080860182614970565b5060a08301516148af60a0860182614970565b5060c08301516148c260c0860182614970565b508091505092915050565b600060e0830160008301516148e56000860182614970565b50602083015184820360208601526148fd8282613d09565b915050604083015184820360408601526149178282613d09565b915050606083015161492c6060860182614970565b50608083015161493f6080860182614970565b5060a083015161495260a0860182614970565b5060c083015161496560c0860182614970565b508091505092915050565b6149798161542e565b82525050565b6149888161542e565b82525050565b61499f61499a8261542e565b6154ff565b82525050565b60006149b18285613cb9565b6020820191506149c1828461498e565b6020820191508190509392505050565b60006149dc82614434565b91506149e8828a613d7b565b91506149f382613dac565b91506149ff8289613d7b565b9150614a0a826146cc565b9150614a168288613d7b565b9150614a2182614600565b9150614a2d8287613d7b565b9150614a3882613ef8565b9150614a448286613d7b565b9150614a4f82614666565b9150614a5b8285613d7b565b9150614a6682614302565b9150614a728284613d7b565b9150614a7d82614282565b915081905098975050505050505050565b6000614a998261451a565b9150614aa58284613d7b565b915081905092915050565b6000602082019050614ac56000830184613bb9565b92915050565b6000608082019050614ae06000830187613bb9565b614aed6020830186613bb9565b614afa604083018561497f565b8181036060830152614b0c8184613cd0565b905095945050505050565b6000604082019050614b2c6000830185613bb9565b614b39602083018461497f565b9392505050565b6000606082019050614b556000830186613bb9565b614b62602083018561497f565b8181036040830152614b748184613cd0565b9050949350505050565b6000606082019050614b936000830186613bb9565b614ba0602083018561497f565b614bad604083018461497f565b949350505050565b60006020820190508181036000830152614bcf8184613bc8565b905092915050565b60006020820190508181036000830152614bf18184613c26565b905092915050565b6000602082019050614c0e6000830184613c9b565b92915050565b6000602082019050614c296000830184613caa565b92915050565b6000604082019050614c446000830185613caa565b614c51602083018461497f565b9392505050565b6000608082019050614c6d6000830187613caa565b614c7a602083018661497f565b614c876040830185613bb9565b614c94606083018461497f565b95945050505050565b60006020820190508181036000830152614cb78184613d42565b905092915050565b60006080820190508181036000830152614cd98187613d42565b90508181036020830152614ced8186613d42565b9050614cfc604083018561497f565b8181036060830152614d0e8184613d42565b905095945050505050565b600060a0820190508181036000830152614d338188613d42565b90508181036020830152614d478187613d42565b9050614d56604083018661497f565b614d63606083018561497f565b614d70608083018461497f565b9695505050505050565b60006060820190508181036000830152614d948186613d42565b9050614da3602083018561497f565b614db06040830184613bb9565b949350505050565b60006060820190508181036000830152614dd28186613d42565b9050614de1602083018561497f565b614dee604083018461497f565b949350505050565b60006020820190508181036000830152614e0f81613dec565b9050919050565b60006020820190508181036000830152614e2f81613e52565b9050919050565b60006020820190508181036000830152614e4f81613eb8565b9050919050565b60006020820190508181036000830152614e6f81613f38565b9050919050565b60006020820190508181036000830152614e8f81613f9e565b9050919050565b60006020820190508181036000830152614eaf81613fde565b9050919050565b60006020820190508181036000830152614ecf81614044565b9050919050565b60006020820190508181036000830152614eef816140aa565b9050919050565b60006020820190508181036000830152614f0f816140ea565b9050919050565b60006020820190508181036000830152614f2f81614150565b9050919050565b60006020820190508181036000830152614f4f816141b6565b9050919050565b60006020820190508181036000830152614f6f8161421c565b9050919050565b60006020820190508181036000830152614f8f816142c2565b9050919050565b60006020820190508181036000830152614faf81614368565b9050919050565b60006020820190508181036000830152614fcf816143ce565b9050919050565b60006020820190508181036000830152614fef81614474565b9050919050565b6000602082019050818103600083015261500f816144b4565b9050919050565b6000602082019050818103600083015261502f8161455a565b9050919050565b6000602082019050818103600083015261504f816145c0565b9050919050565b6000602082019050818103600083015261507081846147ad565b905092915050565b6000602082019050818103600083015261509281846148cd565b905092915050565b60006020820190506150af600083018461497f565b92915050565b600060e0820190506150ca600083018a61497f565b81810360208301526150dc8189613d42565b905081810360408301526150f08188613d42565b90506150ff606083018761497f565b61510c608083018661497f565b61511960a083018561497f565b61512660c083018461497f565b98975050505050505050565b6000608082019050615147600083018761497f565b615154602083018661497f565b615161604083018561497f565b81810360608301526151738184613d42565b905095945050505050565b6000604051905081810181811067ffffffffffffffff821117156151a5576151a46155c7565b5b8060405250919050565b600067ffffffffffffffff8211156151ca576151c96155c7565b5b601f19601f8301169050602081019050919050565b6000819050602082019050919050565b6000819050602082019050919050565b600081519050919050565b600081519050919050565b600081519050919050565b600081519050919050565b6000602082019050919050565b6000602082019050919050565b600082825260208201905092915050565b600082825260208201905092915050565b600082825260208201905092915050565b600082825260208201905092915050565b600082825260208201905092915050565b600081905092915050565b60006152b08261542e565b91506152bb8361542e565b9250827fffffffffffffffffffffffffffffffffffffffffffffffffffffffffffffffff038211156152f0576152ef61553a565b5b828201905092915050565b60006153068261542e565b91506153118361542e565b92508261532157615320615569565b5b828204905092915050565b60006153378261542e565b91506153428361542e565b9250817fffffffffffffffffffffffffffffffffffffffffffffffffffffffffffffffff048311821515161561537b5761537a61553a565b5b828202905092915050565b60006153918261542e565b915061539c8361542e565b9250828210156153af576153ae61553a565b5b828203905092915050565b60006153c58261540e565b9050919050565b60008115159050919050565b6000819050919050565b60007fffffffff0000000000000000000000000000000000000000000000000000000082169050919050565b600073ffffffffffffffffffffffffffffffffffffffff82169050919050565b6000819050919050565b82818337600083830152505050565b60005b8381101561546557808201518184015260208101905061544a565b83811115615474576000848401525b50505050565b6000600282049050600182168061549257607f821691505b602082108114156154a6576154a5615598565b5b50919050565b60006154b78261542e565b91507fffffffffffffffffffffffffffffffffffffffffffffffffffffffffffffffff8214156154ea576154e961553a565b5b600182019050919050565b6000819050919050565b6000819050919050565b60006155148261542e565b915061551f8361542e565b92508261552f5761552e615569565b5b828206905092915050565b7f4e487b7100000000000000000000000000000000000000000000000000000000600052601160045260246000fd5b7f4e487b7100000000000000000000000000000000000000000000000000000000600052601260045260246000fd5b7f4e487b7100000000000000000000000000000000000000000000000000000000600052602260045260246000fd5b7f4e487b7100000000000000000000000000000000000000000000000000000000600052604160045260246000fd5b6000601f19601f8301169050919050565b615610816153ba565b811461561b57600080fd5b50565b615627816153cc565b811461563257600080fd5b50565b61563e816153d8565b811461564957600080fd5b50565b615655816153e2565b811461566057600080fd5b50565b61566c8161542e565b811461567757600080fd5b5056fe507573686564206e657720706c6179657220746f2067616d65557365727320617272617920772f20746f6b656e496420257320616e642077616c6c65742025734142434445464748494a4b4c4d4e4f505152535455565758595a6162636465666768696a6b6c6d6e6f707172737475767778797a303132333435363738392b2f4d696e746564204e465420772f20746f6b656e496420257320616e6420636861726163746572496e646578202573a2646970667358221220264ffef0f822228881df18d45cc006029f841a64d2f8b8a9aea855bf6338bcac64736f6c63430008000033446f6e6520696e697469616c697a696e6720257320772f2048502025732c20696d67202573446f6e6520696e697469616c697a696e6720626f737320257320772f2048502025732c20696d67202573",
  "linkReferences": {},
  "deployedLinkReferences": {}
}